{
  "_format": "hh-sol-artifact-1",
  "contractName": "MockStrategy",
  "sourceName": "contracts/tests/MockStrategy.sol",
  "abi": [
    {
      "inputs": [],
      "stateMutability": "nonpayable",
      "type": "constructor"
    },
    {
      "inputs": [],
      "name": "InvalidFeeError",
      "type": "error"
    },
    {
      "inputs": [],
      "name": "InvalidSwapServiceProvider",
      "type": "error"
    },
    {
      "inputs": [],
      "name": "InvestmentLimitPerAddressExceeded",
      "type": "error"
    },
    {
      "inputs": [],
      "name": "TooSmallDepositTokenAmountOut",
      "type": "error"
    },
    {
      "inputs": [],
      "name": "TotalInvestmentLimitExceeded",
      "type": "error"
    },
    {
      "inputs": [],
      "name": "ZeroAmountDeposited",
      "type": "error"
    },
    {
      "inputs": [],
      "name": "ZeroAmountInvested",
      "type": "error"
    },
    {
      "inputs": [],
      "name": "ZeroAmountWithdrawn",
      "type": "error"
    },
    {
      "inputs": [],
      "name": "ZeroDepositTokenReceiver",
      "type": "error"
    },
    {
      "inputs": [],
      "name": "ZeroFeeReceiver",
      "type": "error"
    },
    {
      "inputs": [],
      "name": "ZeroInvestmentTokenReceiver",
      "type": "error"
    },
    {
      "anonymous": false,
      "inputs": [
        {
          "indexed": false,
          "internalType": "address",
          "name": "previousAdmin",
          "type": "address"
        },
        {
          "indexed": false,
          "internalType": "address",
          "name": "newAdmin",
          "type": "address"
        }
      ],
      "name": "AdminChanged",
      "type": "event"
    },
    {
      "anonymous": false,
      "inputs": [
        {
          "indexed": true,
          "internalType": "address",
          "name": "beacon",
          "type": "address"
        }
      ],
      "name": "BeaconUpgraded",
      "type": "event"
    },
    {
      "anonymous": false,
      "inputs": [
        {
          "indexed": true,
          "internalType": "address",
          "name": "initiator",
          "type": "address"
        },
        {
          "indexed": true,
          "internalType": "address",
          "name": "investmentTokenReceiver",
          "type": "address"
        },
        {
          "indexed": false,
          "internalType": "uint256",
          "name": "amount",
          "type": "uint256"
        }
      ],
      "name": "Deposit",
      "type": "event"
    },
    {
      "anonymous": false,
      "inputs": [
        {
          "indexed": false,
          "internalType": "uint256",
          "name": "fee",
          "type": "uint256"
        },
        {
          "components": [
            {
              "internalType": "string",
              "name": "key",
              "type": "string"
            },
            {
              "internalType": "string",
              "name": "value",
              "type": "string"
            }
          ],
          "indexed": false,
          "internalType": "struct NameValuePair[]",
          "name": "params",
          "type": "tuple[]"
        }
      ],
      "name": "DepositFeeChange",
      "type": "event"
    },
    {
      "anonymous": false,
      "inputs": [
        {
          "indexed": false,
          "internalType": "uint256",
          "name": "fee",
          "type": "uint256"
        }
      ],
      "name": "FeeClaim",
      "type": "event"
    },
    {
      "anonymous": false,
      "inputs": [
        {
          "indexed": false,
          "internalType": "address",
          "name": "feeReceiver",
          "type": "address"
        },
        {
          "components": [
            {
              "internalType": "string",
              "name": "key",
              "type": "string"
            },
            {
              "internalType": "string",
              "name": "value",
              "type": "string"
            }
          ],
          "indexed": false,
          "internalType": "struct NameValuePair[]",
          "name": "params",
          "type": "tuple[]"
        }
      ],
      "name": "FeeReceiverChange",
      "type": "event"
    },
    {
      "anonymous": false,
      "inputs": [
        {
          "indexed": false,
          "internalType": "uint8",
          "name": "version",
          "type": "uint8"
        }
      ],
      "name": "Initialized",
      "type": "event"
    },
    {
      "anonymous": false,
      "inputs": [
        {
          "indexed": true,
          "internalType": "address",
          "name": "previousOwner",
          "type": "address"
        },
        {
          "indexed": true,
          "internalType": "address",
          "name": "newOwner",
          "type": "address"
        }
      ],
      "name": "OwnershipTransferred",
      "type": "event"
    },
    {
      "anonymous": false,
      "inputs": [
        {
          "indexed": false,
          "internalType": "address",
          "name": "account",
          "type": "address"
        }
      ],
      "name": "Paused",
      "type": "event"
    },
    {
      "anonymous": false,
      "inputs": [
        {
          "indexed": false,
          "internalType": "uint256",
          "name": "fee",
          "type": "uint256"
        },
        {
          "components": [
            {
              "internalType": "string",
              "name": "key",
              "type": "string"
            },
            {
              "internalType": "string",
              "name": "value",
              "type": "string"
            }
          ],
          "indexed": false,
          "internalType": "struct NameValuePair[]",
          "name": "params",
          "type": "tuple[]"
        }
      ],
      "name": "PerformanceFeeChange",
      "type": "event"
    },
    {
      "anonymous": false,
      "inputs": [
        {
          "indexed": false,
          "internalType": "uint256",
          "name": "amount",
          "type": "uint256"
        }
      ],
      "name": "RewardProcess",
      "type": "event"
    },
    {
      "anonymous": false,
      "inputs": [
        {
          "indexed": true,
          "internalType": "address",
          "name": "withdrawer",
          "type": "address"
        },
        {
          "indexed": false,
          "internalType": "uint256",
          "name": "amount",
          "type": "uint256"
        }
      ],
      "name": "RewardWithdraw",
      "type": "event"
    },
    {
      "anonymous": false,
      "inputs": [
        {
          "indexed": false,
          "internalType": "address",
          "name": "account",
          "type": "address"
        }
      ],
      "name": "Unpaused",
      "type": "event"
    },
    {
      "anonymous": false,
      "inputs": [
        {
          "indexed": true,
          "internalType": "address",
          "name": "implementation",
          "type": "address"
        }
      ],
      "name": "Upgraded",
      "type": "event"
    },
    {
      "anonymous": false,
      "inputs": [
        {
          "indexed": true,
          "internalType": "address",
          "name": "initiator",
          "type": "address"
        },
        {
          "indexed": true,
          "internalType": "address",
          "name": "depositTokenReceiver",
          "type": "address"
        },
        {
          "indexed": false,
          "internalType": "uint256",
          "name": "amount",
          "type": "uint256"
        }
      ],
      "name": "Withdrawal",
      "type": "event"
    },
    {
      "anonymous": false,
      "inputs": [
        {
          "indexed": false,
          "internalType": "uint256",
          "name": "fee",
          "type": "uint256"
        },
        {
          "components": [
            {
              "internalType": "string",
              "name": "key",
              "type": "string"
            },
            {
              "internalType": "string",
              "name": "value",
              "type": "string"
            }
          ],
          "indexed": false,
          "internalType": "struct NameValuePair[]",
          "name": "params",
          "type": "tuple[]"
        }
      ],
      "name": "WithdrawalFeeChange",
      "type": "event"
    },
    {
      "inputs": [
        {
          "components": [
            {
              "internalType": "string",
              "name": "key",
              "type": "string"
            },
            {
              "internalType": "string",
              "name": "value",
              "type": "string"
            }
          ],
          "internalType": "struct NameValuePair[]",
          "name": "",
          "type": "tuple[]"
        }
      ],
      "name": "claimFee",
      "outputs": [],
      "stateMutability": "nonpayable",
      "type": "function"
    },
    {
      "inputs": [
        {
          "internalType": "uint256",
          "name": "depositTokenAmountIn",
          "type": "uint256"
        },
        {
          "internalType": "uint256",
          "name": "minimumDepositTokenAmountOut",
          "type": "uint256"
        },
        {
          "internalType": "address",
          "name": "investmentTokenReceiver",
          "type": "address"
        },
        {
          "components": [
            {
              "internalType": "string",
              "name": "key",
              "type": "string"
            },
            {
              "internalType": "string",
              "name": "value",
              "type": "string"
            }
          ],
          "internalType": "struct NameValuePair[]",
          "name": "params",
          "type": "tuple[]"
        }
      ],
      "name": "deposit",
      "outputs": [],
      "stateMutability": "nonpayable",
      "type": "function"
    },
    {
      "inputs": [],
      "name": "freeMoneyProvider",
      "outputs": [
        {
          "internalType": "contract FreeMoneyProvider",
          "name": "",
          "type": "address"
        }
      ],
      "stateMutability": "view",
      "type": "function"
    },
    {
      "inputs": [],
      "name": "getAssetBalances",
      "outputs": [
        {
          "components": [
            {
              "internalType": "address",
              "name": "asset",
              "type": "address"
            },
            {
              "internalType": "uint256",
              "name": "balance",
              "type": "uint256"
            }
          ],
          "internalType": "struct IAum.Balance[]",
          "name": "balances",
          "type": "tuple[]"
        }
      ],
      "stateMutability": "view",
      "type": "function"
    },
    {
      "inputs": [
        {
          "internalType": "bool",
          "name": "shouldMaximise",
          "type": "bool"
        },
        {
          "internalType": "bool",
          "name": "shouldIncludeAmmPrice",
          "type": "bool"
        }
      ],
      "name": "getAssetValuations",
      "outputs": [
        {
          "components": [
            {
              "internalType": "address",
              "name": "asset",
              "type": "address"
            },
            {
              "internalType": "uint256",
              "name": "valuation",
              "type": "uint256"
            }
          ],
          "internalType": "struct IAum.Valuation[]",
          "name": "valuations",
          "type": "tuple[]"
        }
      ],
      "stateMutability": "view",
      "type": "function"
    },
    {
      "inputs": [],
      "name": "getClaimedFee",
      "outputs": [
        {
          "internalType": "uint256",
          "name": "",
          "type": "uint256"
        }
      ],
      "stateMutability": "view",
      "type": "function"
    },
    {
      "inputs": [],
      "name": "getCurrentAccumulatedFee",
      "outputs": [
        {
          "internalType": "uint256",
          "name": "",
          "type": "uint256"
        }
      ],
      "stateMutability": "view",
      "type": "function"
    },
    {
      "inputs": [
        {
          "components": [
            {
              "internalType": "string",
              "name": "key",
              "type": "string"
            },
            {
              "internalType": "string",
              "name": "value",
              "type": "string"
            }
          ],
          "internalType": "struct NameValuePair[]",
          "name": "",
          "type": "tuple[]"
        }
      ],
      "name": "getDepositFee",
      "outputs": [
        {
          "internalType": "uint24",
          "name": "",
          "type": "uint24"
        }
      ],
      "stateMutability": "view",
      "type": "function"
    },
    {
      "inputs": [],
      "name": "getDepositToken",
      "outputs": [
        {
          "internalType": "contract IERC20Upgradeable",
          "name": "",
          "type": "address"
        }
      ],
      "stateMutability": "view",
      "type": "function"
    },
    {
      "inputs": [
        {
          "internalType": "bool",
          "name": "",
          "type": "bool"
        },
        {
          "internalType": "bool",
          "name": "",
          "type": "bool"
        }
      ],
      "name": "getEquityValuation",
      "outputs": [
        {
          "internalType": "uint256",
          "name": "",
          "type": "uint256"
        }
      ],
      "stateMutability": "view",
      "type": "function"
    },
    {
      "inputs": [
        {
          "components": [
            {
              "internalType": "string",
              "name": "key",
              "type": "string"
            },
            {
              "internalType": "string",
              "name": "value",
              "type": "string"
            }
          ],
          "internalType": "struct NameValuePair[]",
          "name": "",
          "type": "tuple[]"
        }
      ],
      "name": "getFeeReceiver",
      "outputs": [
        {
          "internalType": "address",
          "name": "",
          "type": "address"
        }
      ],
      "stateMutability": "view",
      "type": "function"
    },
    {
      "inputs": [],
      "name": "getInvestmentLimitPerAddress",
      "outputs": [
        {
          "internalType": "uint256",
          "name": "",
          "type": "uint256"
        }
      ],
      "stateMutability": "view",
      "type": "function"
    },
    {
      "inputs": [],
      "name": "getInvestmentToken",
      "outputs": [
        {
          "internalType": "contract IInvestmentToken",
          "name": "",
          "type": "address"
        }
      ],
      "stateMutability": "view",
      "type": "function"
    },
    {
      "inputs": [
        {
          "internalType": "address",
          "name": "account",
          "type": "address"
        }
      ],
      "name": "getInvestmentTokenBalanceOf",
      "outputs": [
        {
          "internalType": "uint256",
          "name": "",
          "type": "uint256"
        }
      ],
      "stateMutability": "view",
      "type": "function"
    },
    {
      "inputs": [],
      "name": "getInvestmentTokenSupply",
      "outputs": [
        {
          "internalType": "uint256",
          "name": "",
          "type": "uint256"
        }
      ],
      "stateMutability": "view",
      "type": "function"
    },
    {
      "inputs": [],
      "name": "getLiabilityBalances",
      "outputs": [
        {
          "components": [
            {
              "internalType": "address",
              "name": "asset",
              "type": "address"
            },
            {
              "internalType": "uint256",
              "name": "balance",
              "type": "uint256"
            }
          ],
          "internalType": "struct IAum.Balance[]",
          "name": "balances",
          "type": "tuple[]"
        }
      ],
      "stateMutability": "view",
      "type": "function"
    },
    {
      "inputs": [
        {
          "internalType": "bool",
          "name": "shouldMaximise",
          "type": "bool"
        },
        {
          "internalType": "bool",
          "name": "shouldIncludeAmmPrice",
          "type": "bool"
        }
      ],
      "name": "getLiabilityValuations",
      "outputs": [
        {
          "components": [
            {
              "internalType": "address",
              "name": "asset",
              "type": "address"
            },
            {
              "internalType": "uint256",
              "name": "valuation",
              "type": "uint256"
            }
          ],
          "internalType": "struct IAum.Valuation[]",
          "name": "",
          "type": "tuple[]"
        }
      ],
      "stateMutability": "view",
      "type": "function"
    },
    {
      "inputs": [
        {
          "components": [
            {
              "internalType": "string",
              "name": "key",
              "type": "string"
            },
            {
              "internalType": "string",
              "name": "value",
              "type": "string"
            }
          ],
          "internalType": "struct NameValuePair[]",
          "name": "",
          "type": "tuple[]"
        }
      ],
      "name": "getPerformanceFee",
      "outputs": [
        {
          "internalType": "uint24",
          "name": "",
          "type": "uint24"
        }
      ],
      "stateMutability": "view",
      "type": "function"
    },
    {
      "inputs": [
        {
          "components": [
            {
              "internalType": "string",
              "name": "key",
              "type": "string"
            },
            {
              "internalType": "string",
              "name": "value",
              "type": "string"
            }
          ],
          "internalType": "struct NameValuePair[]",
          "name": "params",
          "type": "tuple[]"
        }
      ],
      "name": "getTotalDepositFee",
      "outputs": [
        {
          "internalType": "uint24",
          "name": "",
          "type": "uint24"
        }
      ],
      "stateMutability": "view",
      "type": "function"
    },
    {
      "inputs": [],
      "name": "getTotalInvestmentLimit",
      "outputs": [
        {
          "internalType": "uint256",
          "name": "",
          "type": "uint256"
        }
      ],
      "stateMutability": "view",
      "type": "function"
    },
    {
      "inputs": [
        {
          "components": [
            {
              "internalType": "string",
              "name": "key",
              "type": "string"
            },
            {
              "internalType": "string",
              "name": "value",
              "type": "string"
            }
          ],
          "internalType": "struct NameValuePair[]",
          "name": "params",
          "type": "tuple[]"
        }
      ],
      "name": "getTotalPerformanceFee",
      "outputs": [
        {
          "internalType": "uint24",
          "name": "",
          "type": "uint24"
        }
      ],
      "stateMutability": "view",
      "type": "function"
    },
    {
      "inputs": [
        {
          "components": [
            {
              "internalType": "string",
              "name": "key",
              "type": "string"
            },
            {
              "internalType": "string",
              "name": "value",
              "type": "string"
            }
          ],
          "internalType": "struct NameValuePair[]",
          "name": "params",
          "type": "tuple[]"
        }
      ],
      "name": "getTotalWithdrawalFee",
      "outputs": [
        {
          "internalType": "uint24",
          "name": "",
          "type": "uint24"
        }
      ],
      "stateMutability": "view",
      "type": "function"
    },
    {
      "inputs": [
        {
          "components": [
            {
              "internalType": "string",
              "name": "key",
              "type": "string"
            },
            {
              "internalType": "string",
              "name": "value",
              "type": "string"
            }
          ],
          "internalType": "struct NameValuePair[]",
          "name": "",
          "type": "tuple[]"
        }
      ],
      "name": "getWithdrawalFee",
      "outputs": [
        {
          "internalType": "uint24",
          "name": "",
          "type": "uint24"
        }
      ],
      "stateMutability": "view",
      "type": "function"
    },
    {
      "inputs": [],
      "name": "humanReadableName",
      "outputs": [
        {
          "internalType": "string",
          "name": "",
          "type": "string"
        }
      ],
      "stateMutability": "view",
      "type": "function"
    },
    {
      "inputs": [
        {
          "components": [
            {
              "internalType": "contract IInvestmentToken",
              "name": "investmentToken",
              "type": "address"
            },
            {
              "internalType": "contract IERC20Upgradeable",
              "name": "depositToken",
              "type": "address"
            },
            {
              "internalType": "uint24",
              "name": "depositFee",
              "type": "uint24"
            },
            {
              "components": [
                {
                  "internalType": "string",
                  "name": "key",
                  "type": "string"
                },
                {
                  "internalType": "string",
                  "name": "value",
                  "type": "string"
                }
              ],
              "internalType": "struct NameValuePair[]",
              "name": "depositFeeParams",
              "type": "tuple[]"
            },
            {
              "internalType": "uint24",
              "name": "withdrawalFee",
              "type": "uint24"
            },
            {
              "components": [
                {
                  "internalType": "string",
                  "name": "key",
                  "type": "string"
                },
                {
                  "internalType": "string",
                  "name": "value",
                  "type": "string"
                }
              ],
              "internalType": "struct NameValuePair[]",
              "name": "withdrawFeeParams",
              "type": "tuple[]"
            },
            {
              "internalType": "uint24",
              "name": "performanceFee",
              "type": "uint24"
            },
            {
              "components": [
                {
                  "internalType": "string",
                  "name": "key",
                  "type": "string"
                },
                {
                  "internalType": "string",
                  "name": "value",
                  "type": "string"
                }
              ],
              "internalType": "struct NameValuePair[]",
              "name": "performanceFeeParams",
              "type": "tuple[]"
            },
            {
              "internalType": "address",
              "name": "feeReceiver",
              "type": "address"
            },
            {
              "components": [
                {
                  "internalType": "string",
                  "name": "key",
                  "type": "string"
                },
                {
                  "internalType": "string",
                  "name": "value",
                  "type": "string"
                }
              ],
              "internalType": "struct NameValuePair[]",
              "name": "feeReceiverParams",
              "type": "tuple[]"
            },
            {
              "internalType": "uint256",
              "name": "totalInvestmentLimit",
              "type": "uint256"
            },
            {
              "internalType": "uint256",
              "name": "investmentLimitPerAddress",
              "type": "uint256"
            },
            {
              "internalType": "contract IPriceOracle",
              "name": "priceOracle",
              "type": "address"
            },
            {
              "internalType": "uint8",
              "name": "swapServiceProvider",
              "type": "uint8"
            },
            {
              "internalType": "address",
              "name": "swapServiceRouter",
              "type": "address"
            },
            {
              "components": [
                {
                  "internalType": "bytes32",
                  "name": "role",
                  "type": "bytes32"
                },
                {
                  "internalType": "address[]",
                  "name": "user",
                  "type": "address[]"
                }
              ],
              "internalType": "struct RoleToUsers[]",
              "name": "roleToUsersArray",
              "type": "tuple[]"
            }
          ],
          "internalType": "struct StrategyArgs",
          "name": "strategyArgs",
          "type": "tuple"
        },
        {
          "internalType": "uint256",
          "name": "yieldMultiplier_",
          "type": "uint256"
        },
        {
          "internalType": "contract FreeMoneyProvider",
          "name": "freeMoneyProvider_",
          "type": "address"
        }
      ],
      "name": "initialize",
      "outputs": [],
      "stateMutability": "nonpayable",
      "type": "function"
    },
    {
      "inputs": [],
      "name": "owner",
      "outputs": [
        {
          "internalType": "address",
          "name": "",
          "type": "address"
        }
      ],
      "stateMutability": "view",
      "type": "function"
    },
    {
      "inputs": [],
      "name": "pause",
      "outputs": [],
      "stateMutability": "nonpayable",
      "type": "function"
    },
    {
      "inputs": [],
      "name": "paused",
      "outputs": [
        {
          "internalType": "bool",
          "name": "",
          "type": "bool"
        }
      ],
      "stateMutability": "view",
      "type": "function"
    },
    {
      "inputs": [],
      "name": "priceOracle",
      "outputs": [
        {
          "internalType": "contract IPriceOracle",
          "name": "",
          "type": "address"
        }
      ],
      "stateMutability": "view",
      "type": "function"
    },
    {
      "inputs": [
        {
          "components": [
            {
              "internalType": "string",
              "name": "key",
              "type": "string"
            },
            {
              "internalType": "string",
              "name": "value",
              "type": "string"
            }
          ],
          "internalType": "struct NameValuePair[]",
          "name": "depositParams",
          "type": "tuple[]"
        },
        {
          "components": [
            {
              "internalType": "string",
              "name": "key",
              "type": "string"
            },
            {
              "internalType": "string",
              "name": "value",
              "type": "string"
            }
          ],
          "internalType": "struct NameValuePair[]",
          "name": "reapRewardParams",
          "type": "tuple[]"
        }
      ],
      "name": "processReward",
      "outputs": [],
      "stateMutability": "nonpayable",
      "type": "function"
    },
    {
      "inputs": [],
      "name": "proxiableUUID",
      "outputs": [
        {
          "internalType": "bytes32",
          "name": "",
          "type": "bytes32"
        }
      ],
      "stateMutability": "view",
      "type": "function"
    },
    {
      "inputs": [],
      "name": "renounceOwnership",
      "outputs": [],
      "stateMutability": "nonpayable",
      "type": "function"
    },
    {
      "inputs": [
        {
          "internalType": "uint24",
          "name": "fee_",
          "type": "uint24"
        },
        {
          "components": [
            {
              "internalType": "string",
              "name": "key",
              "type": "string"
            },
            {
              "internalType": "string",
              "name": "value",
              "type": "string"
            }
          ],
          "internalType": "struct NameValuePair[]",
          "name": "params",
          "type": "tuple[]"
        }
      ],
      "name": "setDepositFee",
      "outputs": [],
      "stateMutability": "nonpayable",
      "type": "function"
    },
    {
      "inputs": [
        {
          "internalType": "address",
          "name": "feeReceiver_",
          "type": "address"
        },
        {
          "components": [
            {
              "internalType": "string",
              "name": "key",
              "type": "string"
            },
            {
              "internalType": "string",
              "name": "value",
              "type": "string"
            }
          ],
          "internalType": "struct NameValuePair[]",
          "name": "params",
          "type": "tuple[]"
        }
      ],
      "name": "setFeeReceiver",
      "outputs": [],
      "stateMutability": "nonpayable",
      "type": "function"
    },
    {
      "inputs": [
        {
          "internalType": "uint256",
          "name": "investmentLimitPerAddress",
          "type": "uint256"
        }
      ],
      "name": "setInvestmentLimitPerAddress",
      "outputs": [],
      "stateMutability": "nonpayable",
      "type": "function"
    },
    {
      "inputs": [
        {
          "internalType": "contract IInvestmentToken",
          "name": "investmentToken",
          "type": "address"
        }
      ],
      "name": "setInvestmentToken",
      "outputs": [],
      "stateMutability": "nonpayable",
      "type": "function"
    },
    {
      "inputs": [
        {
          "internalType": "uint24",
          "name": "fee_",
          "type": "uint24"
        },
        {
          "components": [
            {
              "internalType": "string",
              "name": "key",
              "type": "string"
            },
            {
              "internalType": "string",
              "name": "value",
              "type": "string"
            }
          ],
          "internalType": "struct NameValuePair[]",
          "name": "params",
          "type": "tuple[]"
        }
      ],
      "name": "setPerformanceFee",
      "outputs": [],
      "stateMutability": "nonpayable",
      "type": "function"
    },
    {
      "inputs": [
        {
          "internalType": "contract IPriceOracle",
          "name": "priceOracle",
          "type": "address"
        }
      ],
      "name": "setPriceOracle",
      "outputs": [],
      "stateMutability": "nonpayable",
      "type": "function"
    },
    {
      "inputs": [
        {
          "internalType": "enum StrategyBaseUpgradeable.SwapServiceProvider",
          "name": "provider",
          "type": "uint8"
        },
        {
          "internalType": "address",
          "name": "router",
          "type": "address"
        }
      ],
      "name": "setSwapService",
      "outputs": [],
      "stateMutability": "nonpayable",
      "type": "function"
    },
    {
      "inputs": [
        {
          "internalType": "uint256",
          "name": "totalInvestmentLimit",
          "type": "uint256"
        }
      ],
      "name": "setTotalInvestmentLimit",
      "outputs": [],
      "stateMutability": "nonpayable",
      "type": "function"
    },
    {
      "inputs": [
        {
          "internalType": "uint24",
          "name": "fee_",
          "type": "uint24"
        },
        {
          "components": [
            {
              "internalType": "string",
              "name": "key",
              "type": "string"
            },
            {
              "internalType": "string",
              "name": "value",
              "type": "string"
            }
          ],
          "internalType": "struct NameValuePair[]",
          "name": "params",
          "type": "tuple[]"
        }
      ],
      "name": "setWithdrawalFee",
      "outputs": [],
      "stateMutability": "nonpayable",
      "type": "function"
    },
    {
      "inputs": [
        {
          "internalType": "bytes4",
          "name": "interfaceId",
          "type": "bytes4"
        }
      ],
      "name": "supportsInterface",
      "outputs": [
        {
          "internalType": "bool",
          "name": "",
          "type": "bool"
        }
      ],
      "stateMutability": "view",
      "type": "function"
    },
    {
      "inputs": [],
      "name": "swapService",
      "outputs": [
        {
          "internalType": "enum StrategyBaseUpgradeable.SwapServiceProvider",
          "name": "provider",
          "type": "uint8"
        },
        {
          "internalType": "address",
          "name": "router",
          "type": "address"
        }
      ],
      "stateMutability": "view",
      "type": "function"
    },
    {
      "inputs": [],
      "name": "trackingName",
      "outputs": [
        {
          "internalType": "string",
          "name": "",
          "type": "string"
        }
      ],
      "stateMutability": "view",
      "type": "function"
    },
    {
      "inputs": [
        {
          "internalType": "address",
          "name": "newOwner",
          "type": "address"
        }
      ],
      "name": "transferOwnership",
      "outputs": [],
      "stateMutability": "nonpayable",
      "type": "function"
    },
    {
      "inputs": [],
      "name": "uninvestedDepositTokenAmount",
      "outputs": [
        {
          "internalType": "uint256",
          "name": "",
          "type": "uint256"
        }
      ],
      "stateMutability": "view",
      "type": "function"
    },
    {
      "inputs": [],
      "name": "unpause",
      "outputs": [],
      "stateMutability": "nonpayable",
      "type": "function"
    },
    {
      "inputs": [
        {
          "internalType": "address",
          "name": "newImplementation",
          "type": "address"
        }
      ],
      "name": "upgradeTo",
      "outputs": [],
      "stateMutability": "nonpayable",
      "type": "function"
    },
    {
      "inputs": [
        {
          "internalType": "address",
          "name": "newImplementation",
          "type": "address"
        },
        {
          "internalType": "bytes",
          "name": "data",
          "type": "bytes"
        }
      ],
      "name": "upgradeToAndCall",
      "outputs": [],
      "stateMutability": "payable",
      "type": "function"
    },
    {
      "inputs": [],
      "name": "version",
      "outputs": [
        {
          "internalType": "string",
          "name": "",
          "type": "string"
        }
      ],
      "stateMutability": "view",
      "type": "function"
    },
    {
      "inputs": [
        {
          "internalType": "uint256",
          "name": "investmentTokenAmountIn",
          "type": "uint256"
        },
        {
          "internalType": "uint256",
          "name": "minimumDepositTokenAmountOut",
          "type": "uint256"
        },
        {
          "internalType": "address",
          "name": "depositTokenReceiver",
          "type": "address"
        },
        {
          "components": [
            {
              "internalType": "string",
              "name": "key",
              "type": "string"
            },
            {
              "internalType": "string",
              "name": "value",
              "type": "string"
            }
          ],
          "internalType": "struct NameValuePair[]",
          "name": "params",
          "type": "tuple[]"
        }
      ],
      "name": "withdraw",
      "outputs": [],
      "stateMutability": "nonpayable",
      "type": "function"
    },
    {
      "inputs": [
        {
          "components": [
            {
              "internalType": "string",
              "name": "key",
              "type": "string"
            },
            {
              "internalType": "string",
              "name": "value",
              "type": "string"
            }
          ],
          "internalType": "struct NameValuePair[]",
          "name": "withdrawParams",
          "type": "tuple[]"
        }
      ],
      "name": "withdrawReward",
      "outputs": [],
      "stateMutability": "nonpayable",
      "type": "function"
    },
    {
      "inputs": [
        {
          "internalType": "uint256",
          "name": "",
          "type": "uint256"
        }
      ],
      "name": "x",
      "outputs": [
        {
          "internalType": "uint256",
          "name": "",
          "type": "uint256"
        }
      ],
      "stateMutability": "view",
      "type": "function"
    },
    {
      "inputs": [],
      "name": "yieldMultiplier",
      "outputs": [
        {
          "internalType": "uint256",
          "name": "",
          "type": "uint256"
        }
      ],
      "stateMutability": "view",
      "type": "function"
    }
  ],
  "bytecode": "0x60a0604052306080523480156200001557600080fd5b506200002062000026565b6200013f565b6200003260ff62000035565b50565b60008054610100900460ff16156200009e578160ff1660011480156200006e57506200006c30620000e260201b620018031760201c565b155b620000965760405162461bcd60e51b81526004016200008d90620000f1565b60405180910390fd5b506000919050565b60005460ff808416911610620000c85760405162461bcd60e51b81526004016200008d90620000f1565b506000805460ff191660ff92909216919091179055600190565b6001600160a01b03163b151590565b6020808252602e908201527f496e697469616c697a61626c653a20636f6e747261637420697320616c72656160408201526d191e481a5b9a5d1a585b1a5e995960921b606082015260800190565b6080516139c5620001776000396000818161112301528181611163015281816112fd0152818161133d01526113b501526139c56000f3fe6080604052600436106102655760003560e01c806301ffc9a71461026a5780630c976b9a1461029f578063146264db146102c1578063163c210a146102de5780631fda1214146102fe5780632075fcf81461031e57806320a4cd6d1461034c5780632630c12f1461037957806327b3a8c9146103a75780632a5b0b04146103c75780632f28690e146103e8578063308dade114610408578063346cd3c51461041d5780633659cfe61461043d5780633acefea71461045d5780633c3129e31461047d5780633f4263ef1461049d5780633f4ba83a146104bd578063402cb4d1146104d257806344dc283b146104f257806349eca013146105265780634ab2d57b146105465780634f1ef2861461056657806352d1902d14610579578063530e784f1461058e57806354fd4d50146105ae5780635c975abb146105ec5780635ccadb881461060457806362f18a691461061a57806364ea9f1d1461063a578063715018a61461064f5780637bd0754114610664578063803bdca1146106845780638456cb59146106a457806385a73627146106b95780638b2014b6146106d95780638da5cb5b146106ef5780638e35c3f814610704578063946534511461073d578063958b87f91461075d578063a190a8551461078a578063aa6446ce146107aa578063b4464c46146107e3578063b55541f51461080c578063cf7b960514610823578063cfcab38c14610842578063d27e364514610857578063d622e73e1461086e578063eb2dc9b61461088e578063f2fde38b146108a4578063fa835329146108c4578063fb1b5c7b146108da578063fbf7036c146108f9578063fcd1e90c14610919575b600080fd5b34801561027657600080fd5b5061028a610285366004612eb3565b610939565b60405190151581526020015b60405180910390f35b3480156102ab57600080fd5b506102bf6102ba366004612f28565b6109d4565b005b3480156102cd57600080fd5b5060605b6040516102969190612f81565b3480156102ea57600080fd5b506102bf6102f9366004612fce565b610a92565b34801561030a57600080fd5b506102bf61031936600461304c565b610d48565b34801561032a57600080fd5b5061033e6103393660046130b3565b610d87565b604051908152602001610296565b34801561035857600080fd5b5061036c6103673660046130de565b610dfa565b6040516102969190613117565b34801561038557600080fd5b506101975461039a906001600160a01b031681565b6040516102969190613157565b3480156103b357600080fd5b506102bf6103c236600461316b565b610f27565b3480156103d357600080fd5b506101ae5461039a906001600160a01b031681565b3480156103f457600080fd5b506102bf610403366004613184565b610f63565b34801561041457600080fd5b506102d1610fa0565b34801561042957600080fd5b506102bf6104383660046130b3565b6110ca565b34801561044957600080fd5b506102bf6104583660046130b3565b611118565b34801561046957600080fd5b506102bf61047836600461304c565b6111de565b34801561048957600080fd5b506102bf6104983660046131b6565b611218565b3480156104a957600080fd5b5061033e6104b836600461316b565b61124f565b3480156104c957600080fd5b506102bf611271565b3480156104de57600080fd5b5061033e6104ed3660046130de565b6112aa565b3480156104fe57600080fd5b5061051261050d366004612f28565b6112c9565b60405162ffffff9091168152602001610296565b34801561053257600080fd5b5061036c6105413660046130de565b6112de565b34801561055257600080fd5b50610512610561366004612f28565b6112e6565b6102bf610574366004613235565b6112f2565b34801561058557600080fd5b5061033e6113a8565b34801561059a57600080fd5b506102bf6105a93660046130b3565b611456565b3480156105ba57600080fd5b506105df604051806040016040528060058152602001640312e302e360dc1b81525081565b6040516102969190613324565b3480156105f857600080fd5b5060975460ff1661028a565b34801561061057600080fd5b5061018b5461033e565b34801561062657600080fd5b506102bf6106353660046131b6565b61148e565b34801561064657600080fd5b5061033e6114be565b34801561065b57600080fd5b506102bf61152d565b34801561067057600080fd5b5061051261067f366004612f28565b611566565b34801561069057600080fd5b506102bf61069f366004613357565b611572565b3480156106b057600080fd5b506102bf6115ac565b3480156106c557600080fd5b506102bf6106d436600461316b565b6115e3565b3480156106e557600080fd5b5061018c5461033e565b3480156106fb57600080fd5b5061039a61161c565b34801561071057600080fd5b506101985461072f9060ff81169061010090046001600160a01b031682565b60405161029692919061338d565b34801561074957600080fd5b50610512610758366004612f28565b61162b565b34801561076957600080fd5b5061039a610778366004612f28565b5050610162546001600160a01b031690565b34801561079657600080fd5b506102bf6107a5366004612f28565b611640565b3480156107b657600080fd5b506105df6040518060400160405280600d81526020016c4d6f636b20737472617465677960981b81525081565b3480156107ef57600080fd5b506105126107fe366004612f28565b505061015f5462ffffff1690565b34801561081857600080fd5b5061033e6101995481565b34801561082f57600080fd5b50610195546001600160a01b031661039a565b34801561084e57600080fd5b506105df611663565b34801561086357600080fd5b5061033e6101ad5481565b34801561087a57600080fd5b50610512610889366004612f28565b61167f565b34801561089a57600080fd5b506101615461033e565b3480156108b057600080fd5b506102bf6108bf3660046130b3565b611690565b3480156108d057600080fd5b506101605461033e565b3480156108e657600080fd5b50610196546001600160a01b031661039a565b34801561090557600080fd5b506102bf6109143660046133c7565b61172d565b34801561092557600080fd5b506102bf61093436600461304c565b6117c9565b60006001600160e01b03198216630491473760e41b148061096a57506001600160e01b03198216632979dc6560e11b145b8061098557506001600160e01b03198216631a6153f360e01b145b806109a057506001600160e01b0319821663b7ac895f60e01b145b806109b357506001600160e01b03198216155b806109ce57506301ffc9a760e01b6001600160e01b03198316145b92915050565b600260fb541415610a005760405162461bcd60e51b81526004016109f790613427565b60405180910390fd5b600260fb5561016054610a26610a166101615490565b610a209083613474565b61016155565b610a31600061016055565b6040518181527f296614b32c3d193fb9c7a7bcbec919dedece17659a90d0cc2b5b23da167e6fcd9060200160405180910390a16101625461019654610a83916001600160a01b03918216911683611812565b5050600160fb5550565b905090565b600260fb541415610ab55760405162461bcd60e51b81526004016109f790613427565b600260fb55610196546040516370a0823160e01b81526000916001600160a01b0316906370a0823190610aec903090600401613157565b602060405180830381865afa158015610b09573d6000803e3d6000fd5b505050506040513d601f19601f82011682018060405250810190610b2d919061348c565b9050610b398383611868565b610196546040516370a0823160e01b815260009183916001600160a01b03909116906370a0823190610b6f903090600401613157565b602060405180830381865afa158015610b8c573d6000803e3d6000fd5b505050506040513d601f19601f82011682018060405250810190610bb0919061348c565b610bba91906134a5565b90506101995481610bcb9190613474565b90507f7e3eaf1040dd23019433d0b1d9507d1f28cdfb716f87723fa836d747b7444cb381604051610bfe91815260200190565b60405180910390a180610c12575050610d3d565b610196546040516370a0823160e01b81526001600160a01b03909116906370a0823190610c43903090600401613157565b602060405180830381865afa158015610c60573d6000803e3d6000fd5b505050506040513d601f19601f82011682018060405250810190610c84919061348c565b9150610196546040516370a0823160e01b81526000916001600160a01b0316906370a0823190610cb8903090600401613157565b602060405180830381865afa158015610cd5573d6000803e3d6000fd5b505050506040513d601f19601f82011682018060405250810190610cf9919061348c565b610d0390846134a5565b9050610d0f81836134a5565b6101995560405182815260009030906000805160206138dd8339815191529060200160405180910390a35050505b5050600160fb555050565b33610d5161161c565b6001600160a01b031614610d775760405162461bcd60e51b81526004016109f7906134bc565b610d828383836118df565b505050565b610195546040516370a0823160e01b81526000916001600160a01b0316906370a0823190610db9908590600401613157565b602060405180830381865afa158015610dd6573d6000803e3d6000fd5b505050506040513d601f19601f820116820180604052508101906109ce919061348c565b606080518190600090610e0e906001613474565b9050806001600160401b03811115610e2857610e2861321f565b604051908082528060200260200182016040528015610e6d57816020015b6040805180820190915260008082526020820152815260200190600190039081610e465790505b50925060005b610e7e6001836134a5565b811015610ecd57828181518110610e9757610e976134f1565b6020026020010151848281518110610eb157610eb16134f1565b602002602001018190525080610ec690613507565b9050610e73565b506040805180820190915273b97ef9ef8734c71904d8002f8b6bc66dd9c48a6e815261019954602082015283610f046001846134a5565b81518110610f1457610f146134f1565b6020026020010181905250505092915050565b33610f3061161c565b6001600160a01b031614610f565760405162461bcd60e51b81526004016109f7906134bc565b610f608161018c55565b50565b33610f6c61161c565b6001600160a01b031614610f925760405162461bcd60e51b81526004016109f7906134bc565b610f9c828261196e565b5050565b606080518190600090610fb4906001613474565b9050806001600160401b03811115610fce57610fce61321f565b60405190808252806020026020018201604052801561101357816020015b6040805180820190915260008082526020820152815260200190600190039081610fec5790505b50925060005b6110246001836134a5565b8110156110735782818151811061103d5761103d6134f1565b6020026020010151848281518110611057576110576134f1565b60200260200101819052508061106c90613507565b9050611019565b506040805180820190915273b97ef9ef8734c71904d8002f8b6bc66dd9c48a6e8152610199546020820152836110aa6001846134a5565b815181106110ba576110ba6134f1565b6020026020010181905250505090565b336110d361161c565b6001600160a01b0316146110f95760405162461bcd60e51b81526004016109f7906134bc565b61019580546001600160a01b0319166001600160a01b03831617905550565b306001600160a01b037f00000000000000000000000000000000000000000000000000000000000000001614156111615760405162461bcd60e51b81526004016109f790613522565b7f00000000000000000000000000000000000000000000000000000000000000006001600160a01b03166111936119ef565b6001600160a01b0316146111b95760405162461bcd60e51b81526004016109f79061355c565b6111c281611a0b565b60408051600080825260208201909252610f6091839190611a3a565b336111e761161c565b6001600160a01b03161461120d5760405162461bcd60e51b81526004016109f7906134bc565b610d82838383611ba5565b60975460ff161561123b5760405162461bcd60e51b81526004016109f790613596565b6112488585858585611c20565b5050505050565b6101af818154811061126057600080fd5b600091825260209091200154905081565b3361127a61161c565b6001600160a01b0316146112a05760405162461bcd60e51b81526004016109f7906134bc565b6112a8611f31565b565b60006101ad546112b86114be565b6112c291906135c0565b9392505050565b505061015f546301000000900462ffffff1690565b6060806112c2565b60006112c2838361162b565b306001600160a01b037f000000000000000000000000000000000000000000000000000000000000000016141561133b5760405162461bcd60e51b81526004016109f790613522565b7f00000000000000000000000000000000000000000000000000000000000000006001600160a01b031661136d6119ef565b6001600160a01b0316146113935760405162461bcd60e51b81526004016109f79061355c565b61139c82611a0b565b610f9c82826001611a3a565b6000306001600160a01b037f000000000000000000000000000000000000000000000000000000000000000016146114435760405162461bcd60e51b815260206004820152603860248201527f555550535570677261646561626c653a206d757374206e6f742062652063616c6044820152771b1959081d1a1c9bdd59da0819195b1959d85d1958d85b1b60421b60648201526084016109f7565b5060008051602061391d83398151915290565b3361145f61161c565b6001600160a01b0316146114855760405162461bcd60e51b81526004016109f7906134bc565b610f6081611fbe565b60975460ff16156114b15760405162461bcd60e51b81526004016109f790613596565b6112488585858585611fe1565b61019554604080516318160ddd60e01b815290516000926001600160a01b0316916318160ddd9160048083019260209291908290030181865afa158015611509573d6000803e3d6000fd5b505050506040513d601f19601f82011682018060405250810190610a8d919061348c565b3361153661161c565b6001600160a01b03161461155c5760405162461bcd60e51b81526004016109f7906134bc565b6112a86000612294565b60006112c283836112c9565b3361157b61161c565b6001600160a01b0316146115a15760405162461bcd60e51b81526004016109f7906134bc565b610d828383836122e6565b336115b561161c565b6001600160a01b0316146115db5760405162461bcd60e51b81526004016109f7906134bc565b6112a861236b565b336115ec61161c565b6001600160a01b0316146116125760405162461bcd60e51b81526004016109f7906134bc565b610f608161018b55565b60c9546001600160a01b031690565b505061015f54600160301b900462ffffff1690565b60975460ff1615610f9c5760405162461bcd60e51b81526004016109f790613596565b6040518060600160405280602c8152602001613964602c913981565b60006112c261015f5462ffffff1690565b3361169961161c565b6001600160a01b0316146116bf5760405162461bcd60e51b81526004016109f7906134bc565b6001600160a01b0381166117245760405162461bcd60e51b815260206004820152602660248201527f4f776e61626c653a206e6577206f776e657220697320746865207a65726f206160448201526564647265737360d01b60648201526084016109f7565b610f6081612294565b600061173960016123c3565b90508015611751576000805461ff0019166101001790555b61175a84612457565b6101ad8390556101ae80546001600160a01b0319166001600160a01b03841617905580156117c3576000805461ff0019169055604051600181527f7f26b83ff96e1f2b6a682f133852f6798a09c465da95921460cefb3847402498906020015b60405180910390a15b50505050565b336117d261161c565b6001600160a01b0316146117f85760405162461bcd60e51b81526004016109f7906134bc565b610d8283838361248f565b6001600160a01b03163b151590565b610d828363a9059cbb60e01b84846040516024016118319291906135df565b60408051601f198184030181529190526020810180516001600160e01b03166001600160e01b03199093169290921790915261251e565b6101ae546101965460405163187c8d6f60e11b81526001600160a01b03928316926330f91ade926118a992670de0b6b3a764000092909116906004016135f8565b600060405180830381600087803b1580156118c357600080fd5b505af11580156118d7573d6000803e3d6000fd5b505050505050565b826118ed6103e860646135c0565b8162ffffff1610611911576040516303689ded60e51b815260040160405180910390fd5b61015f805465ffffff0000001916630100000062ffffff878116820292909217928390556040517f562ffa77d0627a8704e5d9641e53b90a135392b6fb458b619c3cf64555a0adea936117ba93929004909116908690869061371d565b604051806040016040528083600081111561198b5761198b613377565b81526001600160a01b03831660209091015280516101988054909190829060ff191660018380156119be576119be613377565b02179055506020919091015181546001600160a01b0390911661010002610100600160a81b03199091161790555050565b60008051602061391d833981519152546001600160a01b031690565b33611a1461161c565b6001600160a01b031614610f605760405162461bcd60e51b81526004016109f7906134bc565b7f4910fdfa16fed3260ed0e7147f7cc6da11a60208b5b9406d12a635614ffd91435460ff1615611a6d57610d82836125f0565b826001600160a01b03166352d1902d6040518163ffffffff1660e01b8152600401602060405180830381865afa925050508015611ac7575060408051601f3d908101601f19168201909252611ac49181019061348c565b60015b611b2a5760405162461bcd60e51b815260206004820152602e60248201527f45524331393637557067726164653a206e657720696d706c656d656e7461746960448201526d6f6e206973206e6f74205555505360901b60648201526084016109f7565b60008051602061391d8339815191528114611b995760405162461bcd60e51b815260206004820152602960248201527f45524331393637557067726164653a20756e737570706f727465642070726f786044820152681a58589b195555525160ba1b60648201526084016109f7565b50610d8283838361268a565b82611bb36103e860646135c0565b8162ffffff1610611bd7576040516303689ded60e51b815260040160405180910390fd5b61015f805462ffffff191662ffffff86169081179091556040517f7e81a23ec68969b22ae39faba6faa8633338046c205f9d04a30c8a0df04ca3b9916117ba918690869061371d565b600260fb541415611c435760405162461bcd60e51b81526004016109f790613427565b600260fb5584611c66576040516347aedd1b60e11b815260040160405180910390fd5b6001600160a01b038316611c8d5760405163115fd31d60e31b815260040160405180910390fd5b6000611c9b600160006112aa565b9050600080611ca86114be565b90508015611cd6576000611cbb87610d87565b905081611cc882866135c0565b611cd2919061373c565b9250505b611ce088846126af565b611cea88836126dc565b610196546040516370a0823160e01b81526000916001600160a01b0316906370a0823190611d1c903090600401613157565b602060405180830381865afa158015611d39573d6000803e3d6000fd5b505050506040513d601f19601f82011682018060405250810190611d5d919061348c565b9050611d7833610196546001600160a01b031690308c612709565b610196546040516370a0823160e01b815260009183916001600160a01b03909116906370a0823190611dae903090600401613157565b602060405180830381865afa158015611dcb573d6000803e3d6000fd5b505050506040513d601f19601f82011682018060405250810190611def919061348c565b611df991906134a5565b9050806101996000828254611e0e9190613474565b9091555060009050611e216001826112aa565b90506000611e2f87836134a5565b905080611e4f57604051632f1b0c0f60e01b815260040160405180910390fd5b8a811015611e705760405163c327661d60e01b815260040160405180910390fd5b610195546001600160a01b03166340c10f198b611e8e8a858a612741565b6040518363ffffffff1660e01b8152600401611eab9291906135df565b600060405180830381600087803b158015611ec557600080fd5b505af1158015611ed9573d6000803e3d6000fd5b50505050896001600160a01b0316611eee3390565b6001600160a01b03166000805160206138dd8339815191528e604051611f1691815260200190565b60405180910390a35050600160fb5550505050505050505050565b60975460ff16611f7a5760405162461bcd60e51b815260206004820152601460248201527314185d5cd8589b194e881b9bdd081c185d5cd95960621b60448201526064016109f7565b6097805460ff191690557f5db9ee0a495bf2e6ff9c91a7834c1ba4fdd244a5e8aa4e537bd38aeae4b073aa335b604051611fb49190613157565b60405180910390a1565b61019780546001600160a01b0319166001600160a01b0392909216919091179055565b600260fb5414156120045760405162461bcd60e51b81526004016109f790613427565b600260fb558461202757604051636d8bee0b60e11b815260040160405180910390fd5b6001600160a01b03831661204e576040516314f3686160e11b815260040160405180910390fd5b600061205b86848461276c565b90506120688684846127df565b60008161207688868661276c565b61208091906134a5565b9050600061019560009054906101000a90046001600160a01b03166001600160a01b03166318160ddd6040518163ffffffff1660e01b8152600401602060405180830381865afa1580156120d8573d6000803e3d6000fd5b505050506040513d601f19601f820116820180604052508101906120fc919061348c565b886101995461210b91906135c0565b612115919061373c565b90506121218183613474565b915080610199600082825461213691906134a5565b909155506000905060646103e861215261015f5462ffffff1690565b6121619062ffffff16866135c0565b61216b919061373c565b612175919061373c565b90508761218282856134a5565b10156121a15760405163c327661d60e01b815260040160405180910390fd5b610195546001600160a01b03166379cc6790338b6040518363ffffffff1660e01b81526004016121d29291906135df565b600060405180830381600087803b1580156121ec57600080fd5b505af1158015612200573d6000803e3d6000fd5b50505050612222816122126101605490565b61221c9190613474565b61016055565b6122448761223083866134a5565b610196546001600160a01b03169190611812565b6040518981526001600160a01b0388169033907f2717ead6b9200dd235aad468c9809ea400fe33ac69b5bfaa6d3e90fc922b63989060200160405180910390a35050600160fb5550505050505050565b60c980546001600160a01b038381166001600160a01b0319831681179093556040519116919082907f8be0079c531659141344cd1fd0a4f28419497f9722a3daafe3b4186f6b6457e090600090a35050565b6001600160a01b03831661230d5760405163b6802b7f60e01b815260040160405180910390fd5b61016280546001600160a01b0319166001600160a01b0385169081179091556040517fa3fe39fe39850ddb39697065123e293302f3e8948984fde991b5a291ed1ad05b9161235e918590859061375e565b60405180910390a1505050565b60975460ff161561238e5760405162461bcd60e51b81526004016109f790613596565b6097805460ff191660011790557f62e78cea01bee320cd4e420270b5ea74000d11b0c9f74754ebdbfc544b05a258611fa73390565b60008054610100900460ff1615612411578160ff1660011480156123ed57506123eb30611803565b155b6124095760405162461bcd60e51b81526004016109f790613783565b506000919050565b60005460ff8084169116106124385760405162461bcd60e51b81526004016109f790613783565b506000805460ff191660ff92909216919091179055600190565b919050565b600054610100900460ff1661247e5760405162461bcd60e51b81526004016109f7906137d1565b612486612869565b610f6081612898565b8261249d6103e860646135c0565b8162ffffff16106124c1576040516303689ded60e51b815260040160405180910390fd5b61015f805462ffffff60301b1916600160301b62ffffff878116820292909217928390556040517f05f9aef0771b6541329b82ea24407357fc3ff0f457598588055f84a807dbdb8f936117ba93929004909116908690869061371d565b6000612573826040518060400160405280602081526020017f5361666545524332303a206c6f772d6c6576656c2063616c6c206661696c6564815250856001600160a01b03166128d09092919063ffffffff16565b805190915015610d825780806020019051810190612591919061381c565b610d825760405162461bcd60e51b815260206004820152602a60248201527f5361666545524332303a204552433230206f7065726174696f6e20646964206e6044820152691bdd081cdd58d8d9595960b21b60648201526084016109f7565b6125f981611803565b61265b5760405162461bcd60e51b815260206004820152602d60248201527f455243313936373a206e657720696d706c656d656e746174696f6e206973206e60448201526c1bdd08184818dbdb9d1c9858dd609a1b60648201526084016109f7565b60008051602061391d83398151915280546001600160a01b0319166001600160a01b0392909216919091179055565b612693836128df565b6000825111806126a05750805b15610d82576117c3838361291f565b61018b546126bd8284613474565b1115610f9c5760405163b761799960e01b815260040160405180910390fd5b61018c546126ea8284613474565b1115610f9c5760405163973cc40960e01b815260040160405180910390fd5b6040516001600160a01b03808516602483015283166044820152606481018290526117c39085906323b872dd60e01b90608401611831565b60008161274f5750816112c2565b8361275a83856135c0565b612764919061373c565b949350505050565b610196546040516370a0823160e01b81526000916001600160a01b0316906370a082319061279e903090600401613157565b602060405180830381865afa1580156127bb573d6000803e3d6000fd5b505050506040513d601f19601f82011682018060405250810190612764919061348c565b6101ae546101ad546001600160a01b03909116906330f91ade9061280390866135c0565b610196546040516001600160e01b031960e085901b16815261283292916001600160a01b0316906004016135f8565b600060405180830381600087803b15801561284c57600080fd5b505af1158015612860573d6000803e3d6000fd5b50505050505050565b600054610100900460ff166128905760405162461bcd60e51b81526004016109f7906137d1565b6112a8612a11565b600054610100900460ff166128bf5760405162461bcd60e51b81526004016109f7906137d1565b6128c7612a44565b610f6081612a73565b60606127648484600085612bfb565b6128e8816125f0565b6040516001600160a01b038216907fbc7cd75a20ee27fd9adebab32041f755214dbc6bffa90cc0225b39da2e5c2d3b90600090a250565b606061292a83611803565b6129855760405162461bcd60e51b815260206004820152602660248201527f416464726573733a2064656c65676174652063616c6c20746f206e6f6e2d636f6044820152651b9d1c9858dd60d21b60648201526084016109f7565b600080846001600160a01b0316846040516129a09190613839565b600060405180830381855af49150503d80600081146129db576040519150601f19603f3d011682016040523d82523d6000602084013e6129e0565b606091505b5091509150612a08828260405180606001604052806027815260200161393d60279139612d2a565b95945050505050565b600054610100900460ff16612a385760405162461bcd60e51b81526004016109f7906137d1565b6097805460ff19169055565b600054610100900460ff16612a6b5760405162461bcd60e51b81526004016109f7906137d1565b6112a8612d63565b600054610100900460ff16612a9a5760405162461bcd60e51b81526004016109f7906137d1565b612aa2612d93565b612aaa612dba565b612ab2612d93565b612b31612ac56060830160408401613855565b612ad26060840184613870565b612ae260a0860160808701613855565b612aef60a0870187613870565b612aff60e0890160c08a01613855565b612b0c60e08a018a613870565b612b1e6101208c016101008d016130b3565b612b2c6101208d018d613870565b612de9565b612b45816101400135826101600135612e4a565b612b5260208201826130b3565b61019580546001600160a01b0319166001600160a01b0392909216919091179055612b8360408201602083016130b3565b61019680546001600160a01b0319166001600160a01b0392909216919091179055612bbe612bb96101a0830161018084016130b3565b611fbe565b610f60612bd36101c083016101a084016138b9565b60ff168015612be457612be4613377565b612bf66101e084016101c085016130b3565b61196e565b606082471015612c5c5760405162461bcd60e51b815260206004820152602660248201527f416464726573733a20696e73756666696369656e742062616c616e636520666f6044820152651c8818d85b1b60d21b60648201526084016109f7565b612c6585611803565b612cb15760405162461bcd60e51b815260206004820152601d60248201527f416464726573733a2063616c6c20746f206e6f6e2d636f6e747261637400000060448201526064016109f7565b600080866001600160a01b03168587604051612ccd9190613839565b60006040518083038185875af1925050503d8060008114612d0a576040519150601f19603f3d011682016040523d82523d6000602084013e612d0f565b606091505b5091509150612d1f828286612d2a565b979650505050505050565b60608315612d395750816112c2565b825115612d495782518084602001fd5b8160405162461bcd60e51b81526004016109f79190613324565b600054610100900460ff16612d8a5760405162461bcd60e51b81526004016109f7906137d1565b6112a833612294565b600054610100900460ff166112a85760405162461bcd60e51b81526004016109f7906137d1565b600054610100900460ff16612de15760405162461bcd60e51b81526004016109f7906137d1565b6112a8612e85565b600054610100900460ff16612e105760405162461bcd60e51b81526004016109f7906137d1565b612e1b8c8c8c6118df565b612e26898989611ba5565b612e3186868661248f565b612e3c8383836122e6565b505050505050505050505050565b600054610100900460ff16612e715760405162461bcd60e51b81526004016109f7906137d1565b612e7b8261018b55565b610f9c8161018c55565b600054610100900460ff16612eac5760405162461bcd60e51b81526004016109f7906137d1565b600160fb55565b600060208284031215612ec557600080fd5b81356001600160e01b0319811681146112c257600080fd5b60008083601f840112612eef57600080fd5b5081356001600160401b03811115612f0657600080fd5b6020830191508360208260051b8501011115612f2157600080fd5b9250929050565b60008060208385031215612f3b57600080fd5b82356001600160401b03811115612f5157600080fd5b612f5d85828601612edd565b90969095509350505050565b80516001600160a01b03168252602090810151910152565b602080825282518282018190526000919060409081850190868401855b82811015612fc157612fb1848351612f69565b9284019290850190600101612f9e565b5091979650505050505050565b60008060008060408587031215612fe457600080fd5b84356001600160401b0380821115612ffb57600080fd5b61300788838901612edd565b9096509450602087013591508082111561302057600080fd5b5061302d87828801612edd565b95989497509550505050565b803562ffffff8116811461245257600080fd5b60008060006040848603121561306157600080fd5b61306a84613039565b925060208401356001600160401b0381111561308557600080fd5b61309186828701612edd565b9497909650939450505050565b6001600160a01b0381168114610f6057600080fd5b6000602082840312156130c557600080fd5b81356112c28161309e565b8015158114610f6057600080fd5b600080604083850312156130f157600080fd5b82356130fc816130d0565b9150602083013561310c816130d0565b809150509250929050565b602080825282518282018190526000919060409081850190868401855b82811015612fc157613147848351612f69565b9284019290850190600101613134565b6001600160a01b0391909116815260200190565b60006020828403121561317d57600080fd5b5035919050565b6000806040838503121561319757600080fd5b8235600181106131a657600080fd5b9150602083013561310c8161309e565b6000806000806000608086880312156131ce57600080fd5b853594506020860135935060408601356131e78161309e565b925060608601356001600160401b0381111561320257600080fd5b61320e88828901612edd565b969995985093965092949392505050565b634e487b7160e01b600052604160045260246000fd5b6000806040838503121561324857600080fd5b82356132538161309e565b915060208301356001600160401b038082111561326f57600080fd5b818501915085601f83011261328357600080fd5b8135818111156132955761329561321f565b604051601f8201601f19908116603f011681019083821181831017156132bd576132bd61321f565b816040528281528860208487010111156132d657600080fd5b8260208601602083013760006020848301015280955050505050509250929050565b60005b838110156133135781810151838201526020016132fb565b838111156117c35750506000910152565b60208152600082518060208401526133438160408501602087016132f8565b601f01601f19169190910160400192915050565b60008060006040848603121561336c57600080fd5b833561306a8161309e565b634e487b7160e01b600052602160045260246000fd5b60408101600184106133af57634e487b7160e01b600052602160045260246000fd5b9281526001600160a01b039190911660209091015290565b6000806000606084860312156133dc57600080fd5b83356001600160401b038111156133f257600080fd5b8401610200818703121561340557600080fd5b925060208401359150604084013561341c8161309e565b809150509250925092565b6020808252601f908201527f5265656e7472616e637947756172643a207265656e7472616e742063616c6c00604082015260600190565b634e487b7160e01b600052601160045260246000fd5b600082198211156134875761348761345e565b500190565b60006020828403121561349e57600080fd5b5051919050565b6000828210156134b7576134b761345e565b500390565b6020808252818101527f4f776e61626c653a2063616c6c6572206973206e6f7420746865206f776e6572604082015260600190565b634e487b7160e01b600052603260045260246000fd5b600060001982141561351b5761351b61345e565b5060010190565b6020808252602c908201526000805160206138fd83398151915260408201526b19195b1959d85d1958d85b1b60a21b606082015260800190565b6020808252602c908201526000805160206138fd83398151915260408201526b6163746976652070726f787960a01b606082015260800190565b60208082526010908201526f14185d5cd8589b194e881c185d5cd95960821b604082015260600190565b60008160001904831182151516156135da576135da61345e565b500290565b6001600160a01b03929092168252602082015260400190565b9182526001600160a01b0316602082015260400190565b6000808335601e1984360301811261362657600080fd5b83016020810192503590506001600160401b0381111561364557600080fd5b803603831315612f2157600080fd5b81835281816020850137506000828201602090810191909152601f909101601f19169091010190565b81835260006020808501808196508560051b81019150846000805b8881101561370f578385038a528235603e198936030181126136b8578283fd5b880160406136c6828061360f565b8289526136d6838a018284613654565b925050506136e68883018361360f565b9250878203898901526136fa828483613654565b9c89019c975050509286019250600101613698565b509298975050505050505050565b62ffffff84168152604060208201526000612a0860408301848661367d565b60008261375957634e487b7160e01b600052601260045260246000fd5b500490565b6001600160a01b0384168152604060208201819052600090612a08908301848661367d565b6020808252602e908201527f496e697469616c697a61626c653a20636f6e747261637420697320616c72656160408201526d191e481a5b9a5d1a585b1a5e995960921b606082015260800190565b6020808252602b908201527f496e697469616c697a61626c653a20636f6e7472616374206973206e6f74206960408201526a6e697469616c697a696e6760a81b606082015260800190565b60006020828403121561382e57600080fd5b81516112c2816130d0565b6000825161384b8184602087016132f8565b9190910192915050565b60006020828403121561386757600080fd5b6112c282613039565b6000808335601e1984360301811261388757600080fd5b8301803591506001600160401b038211156138a157600080fd5b6020019150600581901b3603821315612f2157600080fd5b6000602082840312156138cb57600080fd5b813560ff811681146112c257600080fdfe5548c837ab068cf56a2c2479df0882a4922fd203edb7517321831d95078c5f6246756e6374696f6e206d7573742062652063616c6c6564207468726f75676820360894a13ba1a3210667c828492db98dca3e2076cc3735a920a3ca505d382bbc416464726573733a206c6f772d6c6576656c2064656c65676174652063616c6c206661696c656462726f6b6b722e6d6f636b5f73747261746567792e3c696e7365727420676974206c6162656c20686572653ea26469706673582212208464aea11c2fdf2a30846d4b197db54b308b54440f18f7c9b1e6c65d17c94b6064736f6c634300080a0033",
  "linkReferences": {},
  "deployedLinkReferences": {}
}