{
  "_format": "hh-sol-artifact-1",
  "contractName": "AaveOracle",
  "sourceName": "contracts/common/oracles/AaveOracle.sol",
  "abi": [
    {
      "inputs": [],
      "stateMutability": "nonpayable",
      "type": "constructor"
    },
    {
      "inputs": [],
      "name": "InvalidAssetPrice",
      "type": "error"
    },
    {
      "anonymous": false,
      "inputs": [
        {
          "indexed": false,
          "internalType": "address",
          "name": "previousAdmin",
          "type": "address"
        },
        {
          "indexed": false,
          "internalType": "address",
          "name": "newAdmin",
          "type": "address"
        }
      ],
      "name": "AdminChanged",
      "type": "event"
    },
    {
      "anonymous": false,
      "inputs": [
        {
          "indexed": true,
          "internalType": "address",
          "name": "beacon",
          "type": "address"
        }
      ],
      "name": "BeaconUpgraded",
      "type": "event"
    },
    {
      "anonymous": false,
      "inputs": [
        {
          "indexed": false,
          "internalType": "uint8",
          "name": "version",
          "type": "uint8"
        }
      ],
      "name": "Initialized",
      "type": "event"
    },
    {
      "anonymous": false,
      "inputs": [
        {
          "indexed": true,
          "internalType": "address",
          "name": "previousOwner",
          "type": "address"
        },
        {
          "indexed": true,
          "internalType": "address",
          "name": "newOwner",
          "type": "address"
        }
      ],
      "name": "OwnershipTransferred",
      "type": "event"
    },
    {
      "anonymous": false,
      "inputs": [
        {
          "indexed": true,
          "internalType": "address",
          "name": "implementation",
          "type": "address"
        }
      ],
      "name": "Upgraded",
      "type": "event"
    },
    {
      "inputs": [
        {
          "internalType": "contract IERC20Upgradeable",
          "name": "token",
          "type": "address"
        },
        {
          "internalType": "bool",
          "name": "",
          "type": "bool"
        },
        {
          "internalType": "bool",
          "name": "",
          "type": "bool"
        }
      ],
      "name": "getPrice",
      "outputs": [
        {
          "internalType": "uint256",
          "name": "",
          "type": "uint256"
        }
      ],
      "stateMutability": "view",
      "type": "function"
    },
    {
      "inputs": [
        {
          "internalType": "address",
          "name": "vendorFeed_",
          "type": "address"
        },
        {
          "internalType": "address",
          "name": "usdcToken_",
          "type": "address"
        }
      ],
      "name": "initialize",
      "outputs": [],
      "stateMutability": "nonpayable",
      "type": "function"
    },
    {
      "inputs": [],
      "name": "owner",
      "outputs": [
        {
          "internalType": "address",
          "name": "",
          "type": "address"
        }
      ],
      "stateMutability": "view",
      "type": "function"
    },
    {
      "inputs": [],
      "name": "proxiableUUID",
      "outputs": [
        {
          "internalType": "bytes32",
          "name": "",
          "type": "bytes32"
        }
      ],
      "stateMutability": "view",
      "type": "function"
    },
    {
      "inputs": [],
      "name": "renounceOwnership",
      "outputs": [],
      "stateMutability": "nonpayable",
      "type": "function"
    },
    {
      "inputs": [
        {
          "internalType": "address",
          "name": "vendorFeed_",
          "type": "address"
        }
      ],
      "name": "setVendorFeed",
      "outputs": [],
      "stateMutability": "nonpayable",
      "type": "function"
    },
    {
      "inputs": [
        {
          "internalType": "address",
          "name": "newOwner",
          "type": "address"
        }
      ],
      "name": "transferOwnership",
      "outputs": [],
      "stateMutability": "nonpayable",
      "type": "function"
    },
    {
      "inputs": [
        {
          "internalType": "address",
          "name": "newImplementation",
          "type": "address"
        }
      ],
      "name": "upgradeTo",
      "outputs": [],
      "stateMutability": "nonpayable",
      "type": "function"
    },
    {
      "inputs": [
        {
          "internalType": "address",
          "name": "newImplementation",
          "type": "address"
        },
        {
          "internalType": "bytes",
          "name": "data",
          "type": "bytes"
        }
      ],
      "name": "upgradeToAndCall",
      "outputs": [],
      "stateMutability": "payable",
      "type": "function"
    },
    {
      "inputs": [],
      "name": "vendorFeed",
      "outputs": [
        {
          "internalType": "contract IPriceOracleGetter",
          "name": "",
          "type": "address"
        }
      ],
      "stateMutability": "view",
      "type": "function"
    }
  ],
  "bytecode": "0x60a0604052306080523480156200001557600080fd5b506200002062000026565b6200013f565b6200003260ff62000035565b50565b60008054610100900460ff16156200009e578160ff1660011480156200006e57506200006c30620000e260201b620007391760201c565b155b620000965760405162461bcd60e51b81526004016200008d90620000f1565b60405180910390fd5b506000919050565b60005460ff808416911610620000c85760405162461bcd60e51b81526004016200008d90620000f1565b506000805460ff191660ff92909216919091179055600190565b6001600160a01b03163b151590565b6020808252602e908201527f496e697469616c697a61626c653a20636f6e747261637420697320616c72656160408201526d191e481a5b9a5d1a585b1a5e995960921b606082015260800190565b60805161124e620001776000396000818161021f0152818161025f0152818161038b015281816103cb0152610447015261124e6000f3fe6080604052600436106100815760003560e01c80631bcb8d76146100865780633659cfe6146100a8578063485cc955146100c85780634f1ef286146100e857806352d1902d146100fb5780635ae6916314610123578063715018a6146101435780638da5cb5b14610158578063d58a8eda1461017a578063f2fde38b1461019a575b600080fd5b34801561009257600080fd5b506100a66100a1366004610cf9565b6101ba565b005b3480156100b457600080fd5b506100a66100c3366004610cf9565b610214565b3480156100d457600080fd5b506100a66100e3366004610d16565b6102dd565b6100a66100f6366004610d65565b610380565b34801561010757600080fd5b5061011061043a565b6040519081526020015b60405180910390f35b34801561012f57600080fd5b5061011061013e366004610e38565b6104e8565b34801561014f57600080fd5b506100a6610652565b34801561016457600080fd5b5061016d61068d565b60405161011a9190610e7d565b34801561018657600080fd5b5060c95461016d906001600160a01b031681565b3480156101a657600080fd5b506100a66101b5366004610cf9565b61069c565b336101c361068d565b6001600160a01b0316146101f25760405162461bcd60e51b81526004016101e990610e91565b60405180910390fd5b60c980546001600160a01b0319166001600160a01b0392909216919091179055565b306001600160a01b037f000000000000000000000000000000000000000000000000000000000000000016141561025d5760405162461bcd60e51b81526004016101e990610ec6565b7f00000000000000000000000000000000000000000000000000000000000000006001600160a01b031661028f610748565b6001600160a01b0316146102b55760405162461bcd60e51b81526004016101e990610f00565b6102be81610764565b604080516000808252602082019092526102da91839190610793565b50565b60006102e960016108fe565b90508015610301576000805461ff0019166101001790555b610309610992565b6103116109c1565b61031a836101ba565b60ca80546001600160a01b0319166001600160a01b038416179055801561037b576000805461ff0019169055604051600181527f7f26b83ff96e1f2b6a682f133852f6798a09c465da95921460cefb38474024989060200160405180910390a15b505050565b306001600160a01b037f00000000000000000000000000000000000000000000000000000000000000001614156103c95760405162461bcd60e51b81526004016101e990610ec6565b7f00000000000000000000000000000000000000000000000000000000000000006001600160a01b03166103fb610748565b6001600160a01b0316146104215760405162461bcd60e51b81526004016101e990610f00565b61042a82610764565b61043682826001610793565b5050565b6000306001600160a01b037f000000000000000000000000000000000000000000000000000000000000000016146104d55760405162461bcd60e51b815260206004820152603860248201527f555550535570677261646561626c653a206d757374206e6f742062652063616c6044820152771b1959081d1a1c9bdd59da0819195b1959d85d1958d85b1b60421b60648201526084016101e9565b506000805160206111d283398151915290565b60c95460405163b3596f0760e01b815260009182916001600160a01b039091169063b3596f079061051d908890600401610e7d565b602060405180830381865afa15801561053a573d6000803e3d6000fd5b505050506040513d601f19601f8201168201806040525081019061055e9190610f3a565b60c95460ca5460405163b3596f0760e01b81529293506000926001600160a01b039283169263b3596f079261059892911690600401610e7d565b602060405180830381865afa1580156105b5573d6000803e3d6000fd5b505050506040513d601f19601f820116820180604052508101906105d99190610f3a565b90508115806105e6575080155b1561060457604051631d59567b60e11b815260040160405180910390fd5b6106468161061e68327cb2734119d3b7a9601e1b85610f69565b6106289190610f88565b68327cb2734119d3b7a9601e1b6106416006600a61108e565b6109e8565b925050505b9392505050565b3361065b61068d565b6001600160a01b0316146106815760405162461bcd60e51b81526004016101e990610e91565b61068b6000610a30565b565b6033546001600160a01b031690565b336106a561068d565b6001600160a01b0316146106cb5760405162461bcd60e51b81526004016101e990610e91565b6001600160a01b0381166107305760405162461bcd60e51b815260206004820152602660248201527f4f776e61626c653a206e6577206f776e657220697320746865207a65726f206160448201526564647265737360d01b60648201526084016101e9565b6102da81610a30565b6001600160a01b03163b151590565b6000805160206111d2833981519152546001600160a01b031690565b3361076d61068d565b6001600160a01b0316146102da5760405162461bcd60e51b81526004016101e990610e91565b7f4910fdfa16fed3260ed0e7147f7cc6da11a60208b5b9406d12a635614ffd91435460ff16156107c65761037b83610a82565b826001600160a01b03166352d1902d6040518163ffffffff1660e01b8152600401602060405180830381865afa925050508015610820575060408051601f3d908101601f1916820190925261081d91810190610f3a565b60015b6108835760405162461bcd60e51b815260206004820152602e60248201527f45524331393637557067726164653a206e657720696d706c656d656e7461746960448201526d6f6e206973206e6f74205555505360901b60648201526084016101e9565b6000805160206111d283398151915281146108f25760405162461bcd60e51b815260206004820152602960248201527f45524331393637557067726164653a20756e737570706f727465642070726f786044820152681a58589b195555525160ba1b60648201526084016101e9565b5061037b838383610b1c565b60008054610100900460ff161561094c578160ff166001148015610928575061092630610739565b155b6109445760405162461bcd60e51b81526004016101e99061109d565b506000919050565b60005460ff8084169116106109735760405162461bcd60e51b81526004016101e99061109d565b506000805460ff191660ff92909216919091179055600190565b919050565b600054610100900460ff166109b95760405162461bcd60e51b81526004016101e9906110eb565b61068b610b47565b600054610100900460ff1661068b5760405162461bcd60e51b81526004016101e9906110eb565b600081831115610a0d576109fc8284610f88565b610a069085610f88565b905061064b565b81831015610a2957610a1f8383610f88565b610a069085610f69565b508261064b565b603380546001600160a01b038381166001600160a01b0319831681179093556040519116919082907f8be0079c531659141344cd1fd0a4f28419497f9722a3daafe3b4186f6b6457e090600090a35050565b610a8b81610739565b610aed5760405162461bcd60e51b815260206004820152602d60248201527f455243313936373a206e657720696d706c656d656e746174696f6e206973206e60448201526c1bdd08184818dbdb9d1c9858dd609a1b60648201526084016101e9565b6000805160206111d283398151915280546001600160a01b0319166001600160a01b0392909216919091179055565b610b2583610b77565b600082511180610b325750805b1561037b57610b418383610bb7565b50505050565b600054610100900460ff16610b6e5760405162461bcd60e51b81526004016101e9906110eb565b61068b33610a30565b610b8081610a82565b6040516001600160a01b038216907fbc7cd75a20ee27fd9adebab32041f755214dbc6bffa90cc0225b39da2e5c2d3b90600090a250565b6060610bc283610739565b610c1d5760405162461bcd60e51b815260206004820152602660248201527f416464726573733a2064656c65676174652063616c6c20746f206e6f6e2d636f6044820152651b9d1c9858dd60d21b60648201526084016101e9565b600080846001600160a01b031684604051610c389190611162565b600060405180830381855af49150503d8060008114610c73576040519150601f19603f3d011682016040523d82523d6000602084013e610c78565b606091505b5091509150610ca082826040518060600160405280602781526020016111f260279139610cab565b925050505b92915050565b60608315610cba57508161064b565b825115610cca5782518084602001fd5b8160405162461bcd60e51b81526004016101e9919061117e565b6001600160a01b03811681146102da57600080fd5b600060208284031215610d0b57600080fd5b813561064b81610ce4565b60008060408385031215610d2957600080fd5b8235610d3481610ce4565b91506020830135610d4481610ce4565b809150509250929050565b634e487b7160e01b600052604160045260246000fd5b60008060408385031215610d7857600080fd5b8235610d8381610ce4565b915060208301356001600160401b0380821115610d9f57600080fd5b818501915085601f830112610db357600080fd5b813581811115610dc557610dc5610d4f565b604051601f8201601f19908116603f01168101908382118183101715610ded57610ded610d4f565b81604052828152886020848701011115610e0657600080fd5b8260208601602083013760006020848301015280955050505050509250929050565b8035801515811461098d57600080fd5b600080600060608486031215610e4d57600080fd5b8335610e5881610ce4565b9250610e6660208501610e28565b9150610e7460408501610e28565b90509250925092565b6001600160a01b0391909116815260200190565b6020808252818101527f4f776e61626c653a2063616c6c6572206973206e6f7420746865206f776e6572604082015260600190565b6020808252602c908201526000805160206111b283398151915260408201526b19195b1959d85d1958d85b1b60a21b606082015260800190565b6020808252602c908201526000805160206111b283398151915260408201526b6163746976652070726f787960a01b606082015260800190565b600060208284031215610f4c57600080fd5b5051919050565b634e487b7160e01b600052601160045260246000fd5b6000816000190483118215151615610f8357610f83610f53565b500290565b600082610fa557634e487b7160e01b600052601260045260246000fd5b500490565b600181815b80851115610fe5578160001904821115610fcb57610fcb610f53565b80851615610fd857918102915b93841c9390800290610faf565b509250929050565b600082610ffc57506001610ca5565b8161100957506000610ca5565b816001811461101f576002811461102957611045565b6001915050610ca5565b60ff84111561103a5761103a610f53565b50506001821b610ca5565b5060208310610133831016604e8410600b8410161715611068575081810a610ca5565b6110728383610faa565b806000190482111561108657611086610f53565b029392505050565b600061064b60ff841683610fed565b6020808252602e908201527f496e697469616c697a61626c653a20636f6e747261637420697320616c72656160408201526d191e481a5b9a5d1a585b1a5e995960921b606082015260800190565b6020808252602b908201527f496e697469616c697a61626c653a20636f6e7472616374206973206e6f74206960408201526a6e697469616c697a696e6760a81b606082015260800190565b60005b83811015611151578181015183820152602001611139565b83811115610b415750506000910152565b60008251611174818460208701611136565b9190910192915050565b602081526000825180602084015261119d816040850160208701611136565b601f01601f1916919091016040019291505056fe46756e6374696f6e206d7573742062652063616c6c6564207468726f75676820360894a13ba1a3210667c828492db98dca3e2076cc3735a920a3ca505d382bbc416464726573733a206c6f772d6c6576656c2064656c65676174652063616c6c206661696c6564a2646970667358221220174609d161fff7d5cf45ce71f1fe5678cd742c294f8ddd125386fcea4a11da1b64736f6c634300080a0033",
  "linkReferences": {},
  "deployedLinkReferences": {}
}