{
  "_format": "hh-sol-artifact-1",
  "contractName": "Stargate",
  "sourceName": "contracts/strategies/stargate/Stargate.sol",
  "abi": [
    {
      "inputs": [],
      "stateMutability": "nonpayable",
      "type": "constructor"
    },
    {
      "inputs": [],
      "name": "InvalidFeeError",
      "type": "error"
    },
    {
      "inputs": [],
      "name": "InvalidStargateLpToken",
      "type": "error"
    },
    {
      "inputs": [],
      "name": "InvalidSwapServiceProvider",
      "type": "error"
    },
    {
      "inputs": [],
      "name": "InvestmentLimitPerAddressExceeded",
      "type": "error"
    },
    {
      "inputs": [],
      "name": "NotEnoughDeltaCredit",
      "type": "error"
    },
    {
      "inputs": [],
      "name": "TooSmallDepositTokenAmountOut",
      "type": "error"
    },
    {
      "inputs": [],
      "name": "TotalInvestmentLimitExceeded",
      "type": "error"
    },
    {
      "inputs": [],
      "name": "ZeroAmountDeposited",
      "type": "error"
    },
    {
      "inputs": [],
      "name": "ZeroAmountInvested",
      "type": "error"
    },
    {
      "inputs": [],
      "name": "ZeroAmountWithdrawn",
      "type": "error"
    },
    {
      "inputs": [],
      "name": "ZeroDepositTokenReceiver",
      "type": "error"
    },
    {
      "inputs": [],
      "name": "ZeroFeeReceiver",
      "type": "error"
    },
    {
      "inputs": [],
      "name": "ZeroInvestmentTokenReceiver",
      "type": "error"
    },
    {
      "anonymous": false,
      "inputs": [
        {
          "indexed": false,
          "internalType": "address",
          "name": "previousAdmin",
          "type": "address"
        },
        {
          "indexed": false,
          "internalType": "address",
          "name": "newAdmin",
          "type": "address"
        }
      ],
      "name": "AdminChanged",
      "type": "event"
    },
    {
      "anonymous": false,
      "inputs": [
        {
          "indexed": true,
          "internalType": "address",
          "name": "beacon",
          "type": "address"
        }
      ],
      "name": "BeaconUpgraded",
      "type": "event"
    },
    {
      "anonymous": false,
      "inputs": [
        {
          "indexed": true,
          "internalType": "address",
          "name": "initiator",
          "type": "address"
        },
        {
          "indexed": true,
          "internalType": "address",
          "name": "investmentTokenReceiver",
          "type": "address"
        },
        {
          "indexed": false,
          "internalType": "uint256",
          "name": "amount",
          "type": "uint256"
        }
      ],
      "name": "Deposit",
      "type": "event"
    },
    {
      "anonymous": false,
      "inputs": [
        {
          "indexed": false,
          "internalType": "uint256",
          "name": "fee",
          "type": "uint256"
        },
        {
          "components": [
            {
              "internalType": "string",
              "name": "key",
              "type": "string"
            },
            {
              "internalType": "string",
              "name": "value",
              "type": "string"
            }
          ],
          "indexed": false,
          "internalType": "struct NameValuePair[]",
          "name": "params",
          "type": "tuple[]"
        }
      ],
      "name": "DepositFeeChange",
      "type": "event"
    },
    {
      "anonymous": false,
      "inputs": [
        {
          "indexed": false,
          "internalType": "uint256",
          "name": "fee",
          "type": "uint256"
        }
      ],
      "name": "FeeClaim",
      "type": "event"
    },
    {
      "anonymous": false,
      "inputs": [
        {
          "indexed": false,
          "internalType": "address",
          "name": "feeReceiver",
          "type": "address"
        },
        {
          "components": [
            {
              "internalType": "string",
              "name": "key",
              "type": "string"
            },
            {
              "internalType": "string",
              "name": "value",
              "type": "string"
            }
          ],
          "indexed": false,
          "internalType": "struct NameValuePair[]",
          "name": "params",
          "type": "tuple[]"
        }
      ],
      "name": "FeeReceiverChange",
      "type": "event"
    },
    {
      "anonymous": false,
      "inputs": [
        {
          "indexed": false,
          "internalType": "uint8",
          "name": "version",
          "type": "uint8"
        }
      ],
      "name": "Initialized",
      "type": "event"
    },
    {
      "anonymous": false,
      "inputs": [
        {
          "indexed": true,
          "internalType": "address",
          "name": "previousOwner",
          "type": "address"
        },
        {
          "indexed": true,
          "internalType": "address",
          "name": "newOwner",
          "type": "address"
        }
      ],
      "name": "OwnershipTransferred",
      "type": "event"
    },
    {
      "anonymous": false,
      "inputs": [
        {
          "indexed": false,
          "internalType": "address",
          "name": "account",
          "type": "address"
        }
      ],
      "name": "Paused",
      "type": "event"
    },
    {
      "anonymous": false,
      "inputs": [
        {
          "indexed": false,
          "internalType": "uint256",
          "name": "fee",
          "type": "uint256"
        },
        {
          "components": [
            {
              "internalType": "string",
              "name": "key",
              "type": "string"
            },
            {
              "internalType": "string",
              "name": "value",
              "type": "string"
            }
          ],
          "indexed": false,
          "internalType": "struct NameValuePair[]",
          "name": "params",
          "type": "tuple[]"
        }
      ],
      "name": "PerformanceFeeChange",
      "type": "event"
    },
    {
      "anonymous": false,
      "inputs": [
        {
          "indexed": false,
          "internalType": "uint256",
          "name": "amount",
          "type": "uint256"
        }
      ],
      "name": "RewardProcess",
      "type": "event"
    },
    {
      "anonymous": false,
      "inputs": [
        {
          "indexed": true,
          "internalType": "address",
          "name": "withdrawer",
          "type": "address"
        },
        {
          "indexed": false,
          "internalType": "uint256",
          "name": "amount",
          "type": "uint256"
        }
      ],
      "name": "RewardWithdraw",
      "type": "event"
    },
    {
      "anonymous": false,
      "inputs": [
        {
          "indexed": false,
          "internalType": "address",
          "name": "account",
          "type": "address"
        }
      ],
      "name": "Unpaused",
      "type": "event"
    },
    {
      "anonymous": false,
      "inputs": [
        {
          "indexed": true,
          "internalType": "address",
          "name": "implementation",
          "type": "address"
        }
      ],
      "name": "Upgraded",
      "type": "event"
    },
    {
      "anonymous": false,
      "inputs": [
        {
          "indexed": true,
          "internalType": "address",
          "name": "initiator",
          "type": "address"
        },
        {
          "indexed": true,
          "internalType": "address",
          "name": "depositTokenReceiver",
          "type": "address"
        },
        {
          "indexed": false,
          "internalType": "uint256",
          "name": "amount",
          "type": "uint256"
        }
      ],
      "name": "Withdrawal",
      "type": "event"
    },
    {
      "anonymous": false,
      "inputs": [
        {
          "indexed": false,
          "internalType": "uint256",
          "name": "fee",
          "type": "uint256"
        },
        {
          "components": [
            {
              "internalType": "string",
              "name": "key",
              "type": "string"
            },
            {
              "internalType": "string",
              "name": "value",
              "type": "string"
            }
          ],
          "indexed": false,
          "internalType": "struct NameValuePair[]",
          "name": "params",
          "type": "tuple[]"
        }
      ],
      "name": "WithdrawalFeeChange",
      "type": "event"
    },
    {
      "inputs": [
        {
          "components": [
            {
              "internalType": "string",
              "name": "key",
              "type": "string"
            },
            {
              "internalType": "string",
              "name": "value",
              "type": "string"
            }
          ],
          "internalType": "struct NameValuePair[]",
          "name": "",
          "type": "tuple[]"
        }
      ],
      "name": "claimFee",
      "outputs": [],
      "stateMutability": "nonpayable",
      "type": "function"
    },
    {
      "inputs": [
        {
          "internalType": "uint256",
          "name": "depositTokenAmountIn",
          "type": "uint256"
        },
        {
          "internalType": "uint256",
          "name": "minimumDepositTokenAmountOut",
          "type": "uint256"
        },
        {
          "internalType": "address",
          "name": "investmentTokenReceiver",
          "type": "address"
        },
        {
          "components": [
            {
              "internalType": "string",
              "name": "key",
              "type": "string"
            },
            {
              "internalType": "string",
              "name": "value",
              "type": "string"
            }
          ],
          "internalType": "struct NameValuePair[]",
          "name": "params",
          "type": "tuple[]"
        }
      ],
      "name": "deposit",
      "outputs": [],
      "stateMutability": "nonpayable",
      "type": "function"
    },
    {
      "inputs": [],
      "name": "getAssetBalances",
      "outputs": [
        {
          "components": [
            {
              "internalType": "address",
              "name": "asset",
              "type": "address"
            },
            {
              "internalType": "uint256",
              "name": "balance",
              "type": "uint256"
            }
          ],
          "internalType": "struct IAum.Balance[]",
          "name": "balances",
          "type": "tuple[]"
        }
      ],
      "stateMutability": "view",
      "type": "function"
    },
    {
      "inputs": [
        {
          "internalType": "bool",
          "name": "shouldMaximise",
          "type": "bool"
        },
        {
          "internalType": "bool",
          "name": "shouldIncludeAmmPrice",
          "type": "bool"
        }
      ],
      "name": "getAssetValuations",
      "outputs": [
        {
          "components": [
            {
              "internalType": "address",
              "name": "asset",
              "type": "address"
            },
            {
              "internalType": "uint256",
              "name": "valuation",
              "type": "uint256"
            }
          ],
          "internalType": "struct IAum.Valuation[]",
          "name": "valuations",
          "type": "tuple[]"
        }
      ],
      "stateMutability": "view",
      "type": "function"
    },
    {
      "inputs": [],
      "name": "getClaimedFee",
      "outputs": [
        {
          "internalType": "uint256",
          "name": "",
          "type": "uint256"
        }
      ],
      "stateMutability": "view",
      "type": "function"
    },
    {
      "inputs": [],
      "name": "getCurrentAccumulatedFee",
      "outputs": [
        {
          "internalType": "uint256",
          "name": "",
          "type": "uint256"
        }
      ],
      "stateMutability": "view",
      "type": "function"
    },
    {
      "inputs": [
        {
          "components": [
            {
              "internalType": "string",
              "name": "key",
              "type": "string"
            },
            {
              "internalType": "string",
              "name": "value",
              "type": "string"
            }
          ],
          "internalType": "struct NameValuePair[]",
          "name": "",
          "type": "tuple[]"
        }
      ],
      "name": "getDepositFee",
      "outputs": [
        {
          "internalType": "uint24",
          "name": "",
          "type": "uint24"
        }
      ],
      "stateMutability": "view",
      "type": "function"
    },
    {
      "inputs": [],
      "name": "getDepositToken",
      "outputs": [
        {
          "internalType": "contract IERC20Upgradeable",
          "name": "",
          "type": "address"
        }
      ],
      "stateMutability": "view",
      "type": "function"
    },
    {
      "inputs": [
        {
          "internalType": "bool",
          "name": "shouldMaximise",
          "type": "bool"
        },
        {
          "internalType": "bool",
          "name": "shouldIncludeAmmPrice",
          "type": "bool"
        }
      ],
      "name": "getEquityValuation",
      "outputs": [
        {
          "internalType": "uint256",
          "name": "",
          "type": "uint256"
        }
      ],
      "stateMutability": "view",
      "type": "function"
    },
    {
      "inputs": [
        {
          "components": [
            {
              "internalType": "string",
              "name": "key",
              "type": "string"
            },
            {
              "internalType": "string",
              "name": "value",
              "type": "string"
            }
          ],
          "internalType": "struct NameValuePair[]",
          "name": "",
          "type": "tuple[]"
        }
      ],
      "name": "getFeeReceiver",
      "outputs": [
        {
          "internalType": "address",
          "name": "",
          "type": "address"
        }
      ],
      "stateMutability": "view",
      "type": "function"
    },
    {
      "inputs": [],
      "name": "getInvestmentLimitPerAddress",
      "outputs": [
        {
          "internalType": "uint256",
          "name": "",
          "type": "uint256"
        }
      ],
      "stateMutability": "view",
      "type": "function"
    },
    {
      "inputs": [],
      "name": "getInvestmentToken",
      "outputs": [
        {
          "internalType": "contract IInvestmentToken",
          "name": "",
          "type": "address"
        }
      ],
      "stateMutability": "view",
      "type": "function"
    },
    {
      "inputs": [
        {
          "internalType": "address",
          "name": "account",
          "type": "address"
        }
      ],
      "name": "getInvestmentTokenBalanceOf",
      "outputs": [
        {
          "internalType": "uint256",
          "name": "",
          "type": "uint256"
        }
      ],
      "stateMutability": "view",
      "type": "function"
    },
    {
      "inputs": [],
      "name": "getInvestmentTokenSupply",
      "outputs": [
        {
          "internalType": "uint256",
          "name": "",
          "type": "uint256"
        }
      ],
      "stateMutability": "view",
      "type": "function"
    },
    {
      "inputs": [],
      "name": "getLiabilityBalances",
      "outputs": [
        {
          "components": [
            {
              "internalType": "address",
              "name": "asset",
              "type": "address"
            },
            {
              "internalType": "uint256",
              "name": "balance",
              "type": "uint256"
            }
          ],
          "internalType": "struct IAum.Balance[]",
          "name": "balances",
          "type": "tuple[]"
        }
      ],
      "stateMutability": "view",
      "type": "function"
    },
    {
      "inputs": [
        {
          "internalType": "bool",
          "name": "shouldMaximise",
          "type": "bool"
        },
        {
          "internalType": "bool",
          "name": "shouldIncludeAmmPrice",
          "type": "bool"
        }
      ],
      "name": "getLiabilityValuations",
      "outputs": [
        {
          "components": [
            {
              "internalType": "address",
              "name": "asset",
              "type": "address"
            },
            {
              "internalType": "uint256",
              "name": "valuation",
              "type": "uint256"
            }
          ],
          "internalType": "struct IAum.Valuation[]",
          "name": "",
          "type": "tuple[]"
        }
      ],
      "stateMutability": "view",
      "type": "function"
    },
    {
      "inputs": [
        {
          "components": [
            {
              "internalType": "string",
              "name": "key",
              "type": "string"
            },
            {
              "internalType": "string",
              "name": "value",
              "type": "string"
            }
          ],
          "internalType": "struct NameValuePair[]",
          "name": "",
          "type": "tuple[]"
        }
      ],
      "name": "getPerformanceFee",
      "outputs": [
        {
          "internalType": "uint24",
          "name": "",
          "type": "uint24"
        }
      ],
      "stateMutability": "view",
      "type": "function"
    },
    {
      "inputs": [],
      "name": "getStargateLpBalance",
      "outputs": [
        {
          "internalType": "uint256",
          "name": "",
          "type": "uint256"
        }
      ],
      "stateMutability": "view",
      "type": "function"
    },
    {
      "inputs": [
        {
          "components": [
            {
              "internalType": "string",
              "name": "key",
              "type": "string"
            },
            {
              "internalType": "string",
              "name": "value",
              "type": "string"
            }
          ],
          "internalType": "struct NameValuePair[]",
          "name": "params",
          "type": "tuple[]"
        }
      ],
      "name": "getTotalDepositFee",
      "outputs": [
        {
          "internalType": "uint24",
          "name": "",
          "type": "uint24"
        }
      ],
      "stateMutability": "view",
      "type": "function"
    },
    {
      "inputs": [],
      "name": "getTotalInvestmentLimit",
      "outputs": [
        {
          "internalType": "uint256",
          "name": "",
          "type": "uint256"
        }
      ],
      "stateMutability": "view",
      "type": "function"
    },
    {
      "inputs": [
        {
          "components": [
            {
              "internalType": "string",
              "name": "key",
              "type": "string"
            },
            {
              "internalType": "string",
              "name": "value",
              "type": "string"
            }
          ],
          "internalType": "struct NameValuePair[]",
          "name": "params",
          "type": "tuple[]"
        }
      ],
      "name": "getTotalPerformanceFee",
      "outputs": [
        {
          "internalType": "uint24",
          "name": "",
          "type": "uint24"
        }
      ],
      "stateMutability": "view",
      "type": "function"
    },
    {
      "inputs": [
        {
          "components": [
            {
              "internalType": "string",
              "name": "key",
              "type": "string"
            },
            {
              "internalType": "string",
              "name": "value",
              "type": "string"
            }
          ],
          "internalType": "struct NameValuePair[]",
          "name": "params",
          "type": "tuple[]"
        }
      ],
      "name": "getTotalWithdrawalFee",
      "outputs": [
        {
          "internalType": "uint24",
          "name": "",
          "type": "uint24"
        }
      ],
      "stateMutability": "view",
      "type": "function"
    },
    {
      "inputs": [
        {
          "components": [
            {
              "internalType": "string",
              "name": "key",
              "type": "string"
            },
            {
              "internalType": "string",
              "name": "value",
              "type": "string"
            }
          ],
          "internalType": "struct NameValuePair[]",
          "name": "",
          "type": "tuple[]"
        }
      ],
      "name": "getWithdrawalFee",
      "outputs": [
        {
          "internalType": "uint24",
          "name": "",
          "type": "uint24"
        }
      ],
      "stateMutability": "view",
      "type": "function"
    },
    {
      "inputs": [],
      "name": "humanReadableName",
      "outputs": [
        {
          "internalType": "string",
          "name": "",
          "type": "string"
        }
      ],
      "stateMutability": "view",
      "type": "function"
    },
    {
      "inputs": [
        {
          "components": [
            {
              "internalType": "contract IInvestmentToken",
              "name": "investmentToken",
              "type": "address"
            },
            {
              "internalType": "contract IERC20Upgradeable",
              "name": "depositToken",
              "type": "address"
            },
            {
              "internalType": "uint24",
              "name": "depositFee",
              "type": "uint24"
            },
            {
              "components": [
                {
                  "internalType": "string",
                  "name": "key",
                  "type": "string"
                },
                {
                  "internalType": "string",
                  "name": "value",
                  "type": "string"
                }
              ],
              "internalType": "struct NameValuePair[]",
              "name": "depositFeeParams",
              "type": "tuple[]"
            },
            {
              "internalType": "uint24",
              "name": "withdrawalFee",
              "type": "uint24"
            },
            {
              "components": [
                {
                  "internalType": "string",
                  "name": "key",
                  "type": "string"
                },
                {
                  "internalType": "string",
                  "name": "value",
                  "type": "string"
                }
              ],
              "internalType": "struct NameValuePair[]",
              "name": "withdrawFeeParams",
              "type": "tuple[]"
            },
            {
              "internalType": "uint24",
              "name": "performanceFee",
              "type": "uint24"
            },
            {
              "components": [
                {
                  "internalType": "string",
                  "name": "key",
                  "type": "string"
                },
                {
                  "internalType": "string",
                  "name": "value",
                  "type": "string"
                }
              ],
              "internalType": "struct NameValuePair[]",
              "name": "performanceFeeParams",
              "type": "tuple[]"
            },
            {
              "internalType": "address",
              "name": "feeReceiver",
              "type": "address"
            },
            {
              "components": [
                {
                  "internalType": "string",
                  "name": "key",
                  "type": "string"
                },
                {
                  "internalType": "string",
                  "name": "value",
                  "type": "string"
                }
              ],
              "internalType": "struct NameValuePair[]",
              "name": "feeReceiverParams",
              "type": "tuple[]"
            },
            {
              "internalType": "uint256",
              "name": "totalInvestmentLimit",
              "type": "uint256"
            },
            {
              "internalType": "uint256",
              "name": "investmentLimitPerAddress",
              "type": "uint256"
            },
            {
              "internalType": "contract IPriceOracle",
              "name": "priceOracle",
              "type": "address"
            },
            {
              "internalType": "uint8",
              "name": "swapServiceProvider",
              "type": "uint8"
            },
            {
              "internalType": "address",
              "name": "swapServiceRouter",
              "type": "address"
            },
            {
              "components": [
                {
                  "internalType": "bytes32",
                  "name": "role",
                  "type": "bytes32"
                },
                {
                  "internalType": "address[]",
                  "name": "user",
                  "type": "address[]"
                }
              ],
              "internalType": "struct RoleToUsers[]",
              "name": "roleToUsersArray",
              "type": "tuple[]"
            }
          ],
          "internalType": "struct StrategyArgs",
          "name": "strategyArgs",
          "type": "tuple"
        },
        {
          "internalType": "contract IStargateRouter",
          "name": "router",
          "type": "address"
        },
        {
          "internalType": "contract IStargatePool",
          "name": "pool",
          "type": "address"
        },
        {
          "internalType": "contract IStargateLpStaking",
          "name": "lpStaking",
          "type": "address"
        },
        {
          "internalType": "contract IERC20Upgradeable",
          "name": "lpToken",
          "type": "address"
        },
        {
          "internalType": "contract IERC20Upgradeable",
          "name": "stgToken",
          "type": "address"
        }
      ],
      "name": "initialize",
      "outputs": [],
      "stateMutability": "nonpayable",
      "type": "function"
    },
    {
      "inputs": [],
      "name": "owner",
      "outputs": [
        {
          "internalType": "address",
          "name": "",
          "type": "address"
        }
      ],
      "stateMutability": "view",
      "type": "function"
    },
    {
      "inputs": [],
      "name": "pause",
      "outputs": [],
      "stateMutability": "nonpayable",
      "type": "function"
    },
    {
      "inputs": [],
      "name": "paused",
      "outputs": [
        {
          "internalType": "bool",
          "name": "",
          "type": "bool"
        }
      ],
      "stateMutability": "view",
      "type": "function"
    },
    {
      "inputs": [],
      "name": "priceOracle",
      "outputs": [
        {
          "internalType": "contract IPriceOracle",
          "name": "",
          "type": "address"
        }
      ],
      "stateMutability": "view",
      "type": "function"
    },
    {
      "inputs": [
        {
          "components": [
            {
              "internalType": "string",
              "name": "key",
              "type": "string"
            },
            {
              "internalType": "string",
              "name": "value",
              "type": "string"
            }
          ],
          "internalType": "struct NameValuePair[]",
          "name": "depositParams",
          "type": "tuple[]"
        },
        {
          "components": [
            {
              "internalType": "string",
              "name": "key",
              "type": "string"
            },
            {
              "internalType": "string",
              "name": "value",
              "type": "string"
            }
          ],
          "internalType": "struct NameValuePair[]",
          "name": "reapRewardParams",
          "type": "tuple[]"
        }
      ],
      "name": "processReward",
      "outputs": [],
      "stateMutability": "nonpayable",
      "type": "function"
    },
    {
      "inputs": [],
      "name": "proxiableUUID",
      "outputs": [
        {
          "internalType": "bytes32",
          "name": "",
          "type": "bytes32"
        }
      ],
      "stateMutability": "view",
      "type": "function"
    },
    {
      "inputs": [],
      "name": "renounceOwnership",
      "outputs": [],
      "stateMutability": "nonpayable",
      "type": "function"
    },
    {
      "inputs": [
        {
          "internalType": "uint24",
          "name": "fee_",
          "type": "uint24"
        },
        {
          "components": [
            {
              "internalType": "string",
              "name": "key",
              "type": "string"
            },
            {
              "internalType": "string",
              "name": "value",
              "type": "string"
            }
          ],
          "internalType": "struct NameValuePair[]",
          "name": "params",
          "type": "tuple[]"
        }
      ],
      "name": "setDepositFee",
      "outputs": [],
      "stateMutability": "nonpayable",
      "type": "function"
    },
    {
      "inputs": [
        {
          "internalType": "address",
          "name": "feeReceiver_",
          "type": "address"
        },
        {
          "components": [
            {
              "internalType": "string",
              "name": "key",
              "type": "string"
            },
            {
              "internalType": "string",
              "name": "value",
              "type": "string"
            }
          ],
          "internalType": "struct NameValuePair[]",
          "name": "params",
          "type": "tuple[]"
        }
      ],
      "name": "setFeeReceiver",
      "outputs": [],
      "stateMutability": "nonpayable",
      "type": "function"
    },
    {
      "inputs": [
        {
          "internalType": "uint256",
          "name": "investmentLimitPerAddress",
          "type": "uint256"
        }
      ],
      "name": "setInvestmentLimitPerAddress",
      "outputs": [],
      "stateMutability": "nonpayable",
      "type": "function"
    },
    {
      "inputs": [
        {
          "internalType": "contract IInvestmentToken",
          "name": "investmentToken",
          "type": "address"
        }
      ],
      "name": "setInvestmentToken",
      "outputs": [],
      "stateMutability": "nonpayable",
      "type": "function"
    },
    {
      "inputs": [
        {
          "internalType": "uint24",
          "name": "fee_",
          "type": "uint24"
        },
        {
          "components": [
            {
              "internalType": "string",
              "name": "key",
              "type": "string"
            },
            {
              "internalType": "string",
              "name": "value",
              "type": "string"
            }
          ],
          "internalType": "struct NameValuePair[]",
          "name": "params",
          "type": "tuple[]"
        }
      ],
      "name": "setPerformanceFee",
      "outputs": [],
      "stateMutability": "nonpayable",
      "type": "function"
    },
    {
      "inputs": [
        {
          "internalType": "contract IPriceOracle",
          "name": "priceOracle",
          "type": "address"
        }
      ],
      "name": "setPriceOracle",
      "outputs": [],
      "stateMutability": "nonpayable",
      "type": "function"
    },
    {
      "inputs": [
        {
          "internalType": "enum StrategyBaseUpgradeable.SwapServiceProvider",
          "name": "provider",
          "type": "uint8"
        },
        {
          "internalType": "address",
          "name": "router",
          "type": "address"
        }
      ],
      "name": "setSwapService",
      "outputs": [],
      "stateMutability": "nonpayable",
      "type": "function"
    },
    {
      "inputs": [
        {
          "internalType": "uint256",
          "name": "totalInvestmentLimit",
          "type": "uint256"
        }
      ],
      "name": "setTotalInvestmentLimit",
      "outputs": [],
      "stateMutability": "nonpayable",
      "type": "function"
    },
    {
      "inputs": [
        {
          "internalType": "uint24",
          "name": "fee_",
          "type": "uint24"
        },
        {
          "components": [
            {
              "internalType": "string",
              "name": "key",
              "type": "string"
            },
            {
              "internalType": "string",
              "name": "value",
              "type": "string"
            }
          ],
          "internalType": "struct NameValuePair[]",
          "name": "params",
          "type": "tuple[]"
        }
      ],
      "name": "setWithdrawalFee",
      "outputs": [],
      "stateMutability": "nonpayable",
      "type": "function"
    },
    {
      "inputs": [
        {
          "internalType": "bytes4",
          "name": "interfaceId",
          "type": "bytes4"
        }
      ],
      "name": "supportsInterface",
      "outputs": [
        {
          "internalType": "bool",
          "name": "",
          "type": "bool"
        }
      ],
      "stateMutability": "view",
      "type": "function"
    },
    {
      "inputs": [],
      "name": "swapService",
      "outputs": [
        {
          "internalType": "enum StrategyBaseUpgradeable.SwapServiceProvider",
          "name": "provider",
          "type": "uint8"
        },
        {
          "internalType": "address",
          "name": "router",
          "type": "address"
        }
      ],
      "stateMutability": "view",
      "type": "function"
    },
    {
      "inputs": [],
      "name": "trackingName",
      "outputs": [
        {
          "internalType": "string",
          "name": "",
          "type": "string"
        }
      ],
      "stateMutability": "view",
      "type": "function"
    },
    {
      "inputs": [
        {
          "internalType": "address",
          "name": "newOwner",
          "type": "address"
        }
      ],
      "name": "transferOwnership",
      "outputs": [],
      "stateMutability": "nonpayable",
      "type": "function"
    },
    {
      "inputs": [],
      "name": "uninvestedDepositTokenAmount",
      "outputs": [
        {
          "internalType": "uint256",
          "name": "",
          "type": "uint256"
        }
      ],
      "stateMutability": "view",
      "type": "function"
    },
    {
      "inputs": [],
      "name": "unpause",
      "outputs": [],
      "stateMutability": "nonpayable",
      "type": "function"
    },
    {
      "inputs": [
        {
          "internalType": "address",
          "name": "newImplementation",
          "type": "address"
        }
      ],
      "name": "upgradeTo",
      "outputs": [],
      "stateMutability": "nonpayable",
      "type": "function"
    },
    {
      "inputs": [
        {
          "internalType": "address",
          "name": "newImplementation",
          "type": "address"
        },
        {
          "internalType": "bytes",
          "name": "data",
          "type": "bytes"
        }
      ],
      "name": "upgradeToAndCall",
      "outputs": [],
      "stateMutability": "payable",
      "type": "function"
    },
    {
      "inputs": [],
      "name": "version",
      "outputs": [
        {
          "internalType": "string",
          "name": "",
          "type": "string"
        }
      ],
      "stateMutability": "view",
      "type": "function"
    },
    {
      "inputs": [
        {
          "internalType": "uint256",
          "name": "investmentTokenAmountIn",
          "type": "uint256"
        },
        {
          "internalType": "uint256",
          "name": "minimumDepositTokenAmountOut",
          "type": "uint256"
        },
        {
          "internalType": "address",
          "name": "depositTokenReceiver",
          "type": "address"
        },
        {
          "components": [
            {
              "internalType": "string",
              "name": "key",
              "type": "string"
            },
            {
              "internalType": "string",
              "name": "value",
              "type": "string"
            }
          ],
          "internalType": "struct NameValuePair[]",
          "name": "params",
          "type": "tuple[]"
        }
      ],
      "name": "withdraw",
      "outputs": [],
      "stateMutability": "nonpayable",
      "type": "function"
    },
    {
      "inputs": [
        {
          "components": [
            {
              "internalType": "string",
              "name": "key",
              "type": "string"
            },
            {
              "internalType": "string",
              "name": "value",
              "type": "string"
            }
          ],
          "internalType": "struct NameValuePair[]",
          "name": "withdrawParams",
          "type": "tuple[]"
        }
      ],
      "name": "withdrawReward",
      "outputs": [],
      "stateMutability": "nonpayable",
      "type": "function"
    }
  ],
  "bytecode": "0x60a0604052306080523480156200001557600080fd5b506200002062000026565b6200013f565b6200003260ff62000035565b50565b60008054610100900460ff16156200009e578160ff1660011480156200006e57506200006c30620000e260201b62001b6e1760201c565b155b620000965760405162461bcd60e51b81526004016200008d90620000f1565b60405180910390fd5b506000919050565b60005460ff808416911610620000c85760405162461bcd60e51b81526004016200008d90620000f1565b506000805460ff191660ff92909216919091179055600190565b6001600160a01b03163b151590565b6020808252602e908201527f496e697469616c697a61626c653a20636f6e747261637420697320616c72656160408201526d191e481a5b9a5d1a585b1a5e995960921b606082015260800190565b608051614e5762000177600039600081816110d701528181611117015281816113360152818161137601526113ee0152614e576000f3fe60806040526004361061024f5760003560e01c806301ffc9a7146102545780630c976b9a14610289578063146264db146102ab578063163c210a146102c85780631fda1214146102e85780632075fcf81461030857806320a4cd6d146103365780632630c12f1461036357806327b3a8c9146103915780632f28690e146103b1578063308dade1146103d1578063346cd3c5146103e65780633659cfe6146104065780633acefea7146104265780633c3129e3146104465780633f4ba83a14610466578063402cb4d11461047b57806344dc283b1461049b57806349eca013146104cf5780634ab2d57b146104ef5780634f1ef2861461050f57806352d1902d14610522578063530e784f1461053757806354fd4d50146105575780635c975abb146105955780635ccadb88146105ad57806362f18a69146105c357806364ea9f1d146105e3578063715018a6146105f85780637bd075411461060d578063803bdca11461062d5780638456cb591461064d57806385a73627146106625780638882e076146106825780638b2014b6146106975780638da5cb5b146106ad5780638e35c3f8146106c257806394653451146106fb578063958b87f91461071b5780639a4ca29214610748578063a190a85514610768578063aa6446ce14610788578063b4464c46146107c5578063b55541f5146107ee578063cf7b960514610805578063cfcab38c14610824578063d622e73e14610839578063eb2dc9b614610859578063f2fde38b1461086f578063fa8353291461088f578063fb1b5c7b146108a5578063fcd1e90c146108c4575b600080fd5b34801561026057600080fd5b5061027461026f366004614021565b6108e4565b60405190151581526020015b60405180910390f35b34801561029557600080fd5b506102a96102a4366004614096565b61097f565b005b3480156102b757600080fd5b5060605b60405161028091906140ef565b3480156102d457600080fd5b506102a96102e336600461413c565b610a3d565b3480156102f457600080fd5b506102a96103033660046141ba565b610cfe565b34801561031457600080fd5b50610328610323366004614221565b610d3d565b604051908152602001610280565b34801561034257600080fd5b5061035661035136600461424c565b610db0565b6040516102809190614285565b34801561036f57600080fd5b5061019754610384906001600160a01b031681565b60405161028091906142c5565b34801561039d57600080fd5b506102a96103ac3660046142d9565b610edd565b3480156103bd57600080fd5b506102a96103cc3660046142f2565b610f19565b3480156103dd57600080fd5b506102bb610f56565b3480156103f257600080fd5b506102a9610401366004614221565b61107e565b34801561041257600080fd5b506102a9610421366004614221565b6110cc565b34801561043257600080fd5b506102a96104413660046141ba565b611192565b34801561045257600080fd5b506102a9610461366004614324565b6111cc565b34801561047257600080fd5b506102a9611203565b34801561048757600080fd5b5061032861049636600461424c565b61123c565b3480156104a757600080fd5b506104bb6104b6366004614096565b6112ff565b60405162ffffff9091168152602001610280565b3480156104db57600080fd5b506103566104ea36600461424c565b611314565b3480156104fb57600080fd5b506104bb61050a366004614096565b61131f565b6102a961051d3660046143d3565b61132b565b34801561052e57600080fd5b506103286113e1565b34801561054357600080fd5b506102a9610552366004614221565b61148f565b34801561056357600080fd5b50610588604051806040016040528060058152602001640312e312e360dc1b81525081565b60405161028091906144a6565b3480156105a157600080fd5b5060975460ff16610274565b3480156105b957600080fd5b5061018b54610328565b3480156105cf57600080fd5b506102a96105de366004614324565b6114c7565b3480156105ef57600080fd5b506103286114f7565b34801561060457600080fd5b506102a9611566565b34801561061957600080fd5b506104bb610628366004614096565b61159f565b34801561063957600080fd5b506102a96106483660046144d9565b6115ab565b34801561065957600080fd5b506102a96115e5565b34801561066e57600080fd5b506102a961067d3660046142d9565b61161c565b34801561068e57600080fd5b50610328611655565b3480156106a357600080fd5b5061018c54610328565b3480156106b957600080fd5b506103846116e2565b3480156106ce57600080fd5b50610198546106ed9060ff81169061010090046001600160a01b031682565b60405161028092919061450f565b34801561070757600080fd5b506104bb610716366004614096565b6116f1565b34801561072757600080fd5b50610384610736366004614096565b5050610162546001600160a01b031690565b34801561075457600080fd5b506102a9610763366004614549565b611706565b34801561077457600080fd5b506102a9610783366004614096565b611a47565b34801561079457600080fd5b5061058860405180604001604052806011815260200170537461726761746520537472617465677960781b81525081565b3480156107d157600080fd5b506104bb6107e0366004614096565b505061015f5462ffffff1690565b3480156107fa57600080fd5b506103286101995481565b34801561081157600080fd5b50610195546001600160a01b0316610384565b34801561083057600080fd5b50610588611a6a565b34801561084557600080fd5b506104bb610854366004614096565b611a86565b34801561086557600080fd5b5061016154610328565b34801561087b57600080fd5b506102a961088a366004614221565b611a97565b34801561089b57600080fd5b5061016054610328565b3480156108b157600080fd5b50610196546001600160a01b0316610384565b3480156108d057600080fd5b506102a96108df3660046141ba565b611b34565b60006001600160e01b03198216630491473760e41b148061091557506001600160e01b03198216632979dc6560e11b145b8061093057506001600160e01b03198216631a6153f360e01b145b8061094b57506001600160e01b0319821663b7ac895f60e01b145b8061095e57506001600160e01b03198216155b8061097957506301ffc9a760e01b6001600160e01b03198316145b92915050565b600260fb5414156109ab5760405162461bcd60e51b81526004016109a2906145e9565b60405180910390fd5b600260fb55610160546109d16109c16101615490565b6109cb9083614636565b61016155565b6109dc600061016055565b6040518181527f296614b32c3d193fb9c7a7bcbec919dedece17659a90d0cc2b5b23da167e6fcd9060200160405180910390a16101625461019654610a2e916001600160a01b03918216911683611b7d565b5050600160fb5550565b905090565b600260fb541415610a605760405162461bcd60e51b81526004016109a2906145e9565b600260fb55610196546040516370a0823160e01b81526000916001600160a01b0316906370a0823190610a979030906004016142c5565b602060405180830381865afa158015610ab4573d6000803e3d6000fd5b505050506040513d601f19601f82011682018060405250810190610ad8919061464e565b9050610ae48383611bd3565b610196546040516370a0823160e01b815260009183916001600160a01b03909116906370a0823190610b1a9030906004016142c5565b602060405180830381865afa158015610b37573d6000803e3d6000fd5b505050506040513d601f19601f82011682018060405250810190610b5b919061464e565b610b659190614667565b90506101995481610b769190614636565b90507f7e3eaf1040dd23019433d0b1d9507d1f28cdfb716f87723fa836d747b7444cb381604051610ba991815260200190565b60405180910390a180610bbd575050610cf3565b610196546040516370a0823160e01b81526001600160a01b03909116906370a0823190610bee9030906004016142c5565b602060405180830381865afa158015610c0b573d6000803e3d6000fd5b505050506040513d601f19601f82011682018060405250810190610c2f919061464e565b9150610c3c818787611db3565b610196546040516370a0823160e01b81526000916001600160a01b0316906370a0823190610c6e9030906004016142c5565b602060405180830381865afa158015610c8b573d6000803e3d6000fd5b505050506040513d601f19601f82011682018060405250810190610caf919061464e565b610cb99084614667565b9050610cc58183614667565b610199556040518281526000903090600080516020614d6a8339815191529060200160405180910390a35050505b5050600160fb555050565b33610d076116e2565b6001600160a01b031614610d2d5760405162461bcd60e51b81526004016109a29061467e565b610d388383836121ec565b505050565b610195546040516370a0823160e01b81526000916001600160a01b0316906370a0823190610d6f9085906004016142c5565b602060405180830381865afa158015610d8c573d6000803e3d6000fd5b505050506040513d601f19601f82011682018060405250810190610979919061464e565b60606000610dbe8484612289565b9050600081516001610dd09190614636565b9050806001600160401b03811115610dea57610dea61438d565b604051908082528060200260200182016040528015610e2357816020015b610e1061400a565b815260200190600190039081610e085790505b50925060005b610e34600183614667565b811015610e8357828181518110610e4d57610e4d6146b3565b6020026020010151848281518110610e6757610e676146b3565b602002602001018190525080610e7c906146c9565b9050610e29565b506040805180820190915273b97ef9ef8734c71904d8002f8b6bc66dd9c48a6e815261019954602082015283610eba600184614667565b81518110610eca57610eca6146b3565b6020026020010181905250505092915050565b33610ee66116e2565b6001600160a01b031614610f0c5760405162461bcd60e51b81526004016109a29061467e565b610f168161018c55565b50565b33610f226116e2565b6001600160a01b031614610f485760405162461bcd60e51b81526004016109a29061467e565b610f52828261250c565b5050565b60606000610f6261258d565b9050600081516001610f749190614636565b9050806001600160401b03811115610f8e57610f8e61438d565b604051908082528060200260200182016040528015610fc757816020015b610fb461400a565b815260200190600190039081610fac5790505b50925060005b610fd8600183614667565b81101561102757828181518110610ff157610ff16146b3565b602002602001015184828151811061100b5761100b6146b3565b602002602001018190525080611020906146c9565b9050610fcd565b506040805180820190915273b97ef9ef8734c71904d8002f8b6bc66dd9c48a6e81526101995460208201528361105e600184614667565b8151811061106e5761106e6146b3565b6020026020010181905250505090565b336110876116e2565b6001600160a01b0316146110ad5760405162461bcd60e51b81526004016109a29061467e565b61019580546001600160a01b0319166001600160a01b03831617905550565b306001600160a01b037f00000000000000000000000000000000000000000000000000000000000000001614156111155760405162461bcd60e51b81526004016109a2906146e4565b7f00000000000000000000000000000000000000000000000000000000000000006001600160a01b0316611147612618565b6001600160a01b03161461116d5760405162461bcd60e51b81526004016109a29061471e565b61117681612634565b60408051600080825260208201909252610f1691839190612663565b3361119b6116e2565b6001600160a01b0316146111c15760405162461bcd60e51b81526004016109a29061467e565b610d388383836127ce565b60975460ff16156111ef5760405162461bcd60e51b81526004016109a290614758565b6111fc8585858585612849565b5050505050565b3361120c6116e2565b6001600160a01b0316146112325760405162461bcd60e51b81526004016109a29061467e565b61123a612b65565b565b600080600061124b8585610db0565b805190915060005b818110156112985782818151811061126d5761126d6146b3565b602002602001015160200151846112849190614636565b935080611290816146c9565b915050611253565b5060006112a58787611314565b805190915060005b818110156112f2578281815181106112c7576112c76146b3565b602002602001015160200151866112de9190614667565b9550806112ea816146c9565b9150506112ad565b5093979650505050505050565b505061015f546301000000900462ffffff1690565b6060805b9392505050565b600061131883836116f1565b306001600160a01b037f00000000000000000000000000000000000000000000000000000000000000001614156113745760405162461bcd60e51b81526004016109a2906146e4565b7f00000000000000000000000000000000000000000000000000000000000000006001600160a01b03166113a6612618565b6001600160a01b0316146113cc5760405162461bcd60e51b81526004016109a29061471e565b6113d582612634565b610f5282826001612663565b6000306001600160a01b037f0000000000000000000000000000000000000000000000000000000000000000161461147c5760405162461bcd60e51b815260206004820152603860248201527f555550535570677261646561626c653a206d757374206e6f742062652063616c6044820152771b1959081d1a1c9bdd59da0819195b1959d85d1958d85b1b60421b60648201526084016109a2565b50600080516020614ddb83398151915290565b336114986116e2565b6001600160a01b0316146114be5760405162461bcd60e51b81526004016109a29061467e565b610f1681612bf2565b60975460ff16156114ea5760405162461bcd60e51b81526004016109a290614758565b6111fc8585858585612c15565b61019554604080516318160ddd60e01b815290516000926001600160a01b0316916318160ddd9160048083019260209291908290030181865afa158015611542573d6000803e3d6000fd5b505050506040513d601f19601f82011682018060405250810190610a38919061464e565b3361156f6116e2565b6001600160a01b0316146115955760405162461bcd60e51b81526004016109a29061467e565b61123a6000612ec8565b600061131883836112ff565b336115b46116e2565b6001600160a01b0316146115da5760405162461bcd60e51b81526004016109a29061467e565b610d38838383612f1a565b336115ee6116e2565b6001600160a01b0316146116145760405162461bcd60e51b81526004016109a29061467e565b61123a612f9f565b336116256116e2565b6001600160a01b03161461164b5760405162461bcd60e51b81526004016109a29061467e565b610f168161018b55565b600080611660612ff7565b600281015460078201546040516393f1a40b60e01b815260048101919091523060248201529192506001600160a01b0316906393f1a40b906044016040805180830381865afa1580156116b7573d6000803e3d6000fd5b505050506040513d601f19601f820116820180604052508101906116db9190614782565b5192915050565b60c9546001600160a01b031690565b505061015f54600160301b900462ffffff1690565b6000611712600161301b565b9050801561172a576000805461ff0019166101001790555b6117326130af565b61173b876130d6565b6000611745612ff7565b80546001600160a01b03808a166001600160a01b03199283161783556001830180548a831690841681179091556002840180548a8416908516179055600480850180548a8516908616179055600585018054938916939094169290921790925560408051637e062a3560e11b81529051939450919263fc0c546a9280830192602092918290030181865afa1580156117e1573d6000803e3d6000fd5b505050506040513d601f19601f8201168201806040525081019061180591906147d0565b8160030160006101000a8154816001600160a01b0302191690836001600160a01b03160217905550856001600160a01b0316633e0dc34e6040518163ffffffff1660e01b8152600401602060405180830381865afa15801561186b573d6000803e3d6000fd5b505050506040513d601f19601f8201168201806040525081019061188f919061464e565b60068201556040805160808101825260008082526020820181905291810182905260608101919091526000866001600160a01b031663081e3eda6040518163ffffffff1660e01b8152600401602060405180830381865afa1580156118f8573d6000803e3d6000fd5b505050506040513d601f19601f8201168201806040525081019061191c919061464e565b90506000805b828110156119d557604051631526fe2760e01b8152600481018290526001600160a01b038a1690631526fe2790602401608060405180830381865afa15801561196f573d6000803e3d6000fd5b505050506040513d601f19601f8201168201806040525081019061199391906147ed565b9350876001600160a01b031684600001516001600160a01b031614156119c35760078501819055600191506119d5565b806119cd816146c9565b915050611922565b50806119f457604051636509186760e01b815260040160405180910390fd5b505050508015611a3e576000805461ff0019169055604051600181527f7f26b83ff96e1f2b6a682f133852f6798a09c465da95921460cefb38474024989060200160405180910390a15b50505050505050565b60975460ff1615610f525760405162461bcd60e51b81526004016109a290614758565b604051806060016040528060318152602001614d8a6031913981565b600061131861015f5462ffffff1690565b33611aa06116e2565b6001600160a01b031614611ac65760405162461bcd60e51b81526004016109a29061467e565b6001600160a01b038116611b2b5760405162461bcd60e51b815260206004820152602660248201527f4f776e61626c653a206e6577206f776e657220697320746865207a65726f206160448201526564647265737360d01b60648201526084016109a2565b610f1681612ec8565b33611b3d6116e2565b6001600160a01b031614611b635760405162461bcd60e51b81526004016109a29061467e565b610d3883838361310e565b6001600160a01b03163b151590565b610d388363a9059cbb60e01b8484604051602401611b9c92919061485b565b60408051601f198184030181529190526020810180516001600160e01b03166001600160e01b03199093169290921790915261319d565b6000611bdd612ff7565b60028101546007820154604051631c57762b60e31b81526004810191909152600060248201529192506001600160a01b03169063e2bbb15890604401600060405180830381600087803b158015611c3357600080fd5b505af1158015611c47573d6000803e3d6000fd5b506000925060029150611c579050565b604051908082528060200260200182016040528015611c80578160200160208202803683370190505b50600583015481519192506001600160a01b0316908290600090611ca657611ca66146b3565b6001600160a01b03928316602091820292909201015261019654825191169082906001908110611cd857611cd86146b3565b6001600160a01b03909216602092830291909101909101526040805180820190915261019880546111fc929190829060ff168015611d1857611d186144f9565b8015611d2657611d266144f9565b815290546001600160a01b03610100909104811660209092019190915260058501546040516370a0823160e01b81529116906370a0823190611d6c9030906004016142c5565b602060405180830381865afa158015611d89573d6000803e3d6000fd5b505050506040513d601f19601f82011682018060405250810190611dad919061464e565b8361326f565b6000611dbd612ff7565b6003810154610196549192506001600160a01b03918216911614611f0b57604080516003808252608082019092526000916020820160608036833750506101965482519293506001600160a01b031691839150600090611e1f57611e1f6146b3565b60200260200101906001600160a01b031690816001600160a01b03168152505073b31f66aa3c1e785363f0875a1b74e27b85fd66c781600181518110611e6757611e676146b3565b6001600160a01b0392831660209182029290920101526003830154825191169082906002908110611e9a57611e9a6146b3565b6001600160a01b0390921660209283029190910190910152604080518082019091526101988054611f07929190829060ff168015611eda57611eda6144f9565b8015611ee857611ee86144f9565b8152905461010090046001600160a01b0316602090910152868361326f565b9450505b6004808201546040516370a0823160e01b81526000926001600160a01b03909216916370a0823191611f3f913091016142c5565b602060405180830381865afa158015611f5c573d6000803e3d6000fd5b505050506040513d601f19601f82011682018060405250810190611f80919061464e565b6003830154835460405163095ea7b360e01b81529293506001600160a01b039182169263095ea7b392611fb9921690899060040161485b565b6020604051808303816000875af1158015611fd8573d6000803e3d6000fd5b505050506040513d601f19601f82011682018060405250810190611ffc9190614874565b50815460068301546040516321ec87bf60e21b81526004810191909152602481018790523060448201526001600160a01b03909116906387b21efc90606401600060405180830381600087803b15801561205557600080fd5b505af1158015612069573d6000803e3d6000fd5b5050506004808401546040516370a0823160e01b8152600093506001600160a01b03909116916370a08231916120a1913091016142c5565b602060405180830381865afa1580156120be573d6000803e3d6000fd5b505050506040513d601f19601f820116820180604052508101906120e2919061464e565b905060006120f08383614667565b600485810154600287015460405163095ea7b360e01b81529394506001600160a01b039182169363095ea7b39361212d939092169186910161485b565b6020604051808303816000875af115801561214c573d6000803e3d6000fd5b505050506040513d601f19601f820116820180604052508101906121709190614874565b5060028401546007850154604051631c57762b60e31b81526001600160a01b039092169163e2bbb158916121b1918590600401918252602082015260400190565b600060405180830381600087803b1580156121cb57600080fd5b505af11580156121df573d6000803e3d6000fd5b5050505050505050505050565b826121fa6103e86064614891565b8162ffffff161061221e576040516303689ded60e51b815260040160405180910390fd5b61015f805465ffffff0000001916630100000062ffffff878116820292909217928390556040517f562ffa77d0627a8704e5d9641e53b90a135392b6fb458b619c3cf64555a0adea9361227b9392900490911690869086906149be565b60405180910390a150505050565b60606000612295612ff7565b604080516001808252818301909252919250816020015b6122b461400a565b8152602001906001900390816122ac5750506040805180820182526004848101546001600160a01b039081168352600186015484516318160ddd60e01b81529451959750929460208087019594909216936318160ddd938181019392918290030181865afa15801561232a573d6000803e3d6000fd5b505050506040513d601f19601f8201168201806040525081019061234e919061464e565b8360010160009054906101000a90046001600160a01b03166001600160a01b03166315770f926040518163ffffffff1660e01b8152600401602060405180830381865afa1580156123a3573d6000803e3d6000fd5b505050506040513d601f19601f820116820180604052508101906123c7919061464e565b6123cf611655565b6123d99190614891565b6123e391906149dd565b815250826000815181106123f9576123f96146b3565b60209081029190910101526003810154610196546001600160a01b039081169116146125055761242b6006600a614ae3565b610197546003830154604051635ae6916360e01b81526001600160a01b03918216600482015287151560248201528615156044820152911690635ae6916390606401602060405180830381865afa15801561248a573d6000803e3d6000fd5b505050506040513d601f19601f820116820180604052508101906124ae919061464e565b836000815181106124c1576124c16146b3565b6020026020010151602001516124d79190614891565b6124e191906149dd565b826000815181106124f4576124f46146b3565b602002602001015160200181815250505b5092915050565b6040518060400160405280836000811115612529576125296144f9565b81526001600160a01b03831660209091015280516101988054909190829060ff1916600183801561255c5761255c6144f9565b02179055506020919091015181546001600160a01b0390911661010002610100600160a81b03199091161790555050565b60606000612599612ff7565b604080516001808252818301909252919250816020015b6125b861400a565b8152602001906001900390816125b05750506040805180820190915260048301546001600160a01b03168152909250602081016125f3611655565b81525082600081518110612609576126096146b3565b60200260200101819052505090565b600080516020614ddb833981519152546001600160a01b031690565b3361263d6116e2565b6001600160a01b031614610f165760405162461bcd60e51b81526004016109a29061467e565b7f4910fdfa16fed3260ed0e7147f7cc6da11a60208b5b9406d12a635614ffd91435460ff161561269657610d38836133dc565b826001600160a01b03166352d1902d6040518163ffffffff1660e01b8152600401602060405180830381865afa9250505080156126f0575060408051601f3d908101601f191682019092526126ed9181019061464e565b60015b6127535760405162461bcd60e51b815260206004820152602e60248201527f45524331393637557067726164653a206e657720696d706c656d656e7461746960448201526d6f6e206973206e6f74205555505360901b60648201526084016109a2565b600080516020614ddb83398151915281146127c25760405162461bcd60e51b815260206004820152602960248201527f45524331393637557067726164653a20756e737570706f727465642070726f786044820152681a58589b195555525160ba1b60648201526084016109a2565b50610d38838383613476565b826127dc6103e86064614891565b8162ffffff1610612800576040516303689ded60e51b815260040160405180910390fd5b61015f805462ffffff191662ffffff86169081179091556040517f7e81a23ec68969b22ae39faba6faa8633338046c205f9d04a30c8a0df04ca3b99161227b91869086906149be565b600260fb54141561286c5760405162461bcd60e51b81526004016109a2906145e9565b600260fb558461288f576040516347aedd1b60e11b815260040160405180910390fd5b6001600160a01b0383166128b65760405163115fd31d60e31b815260040160405180910390fd5b60006128c46001600061123c565b90506000806128d16114f7565b905080156128ff5760006128e487610d3d565b9050816128f18286614891565b6128fb91906149dd565b9250505b61290988846134a1565b61291388836134ce565b610196546040516370a0823160e01b81526000916001600160a01b0316906370a08231906129459030906004016142c5565b602060405180830381865afa158015612962573d6000803e3d6000fd5b505050506040513d601f19601f82011682018060405250810190612986919061464e565b90506129a133610196546001600160a01b031690308c6134fb565b6129ac898787611db3565b610196546040516370a0823160e01b815260009183916001600160a01b03909116906370a08231906129e29030906004016142c5565b602060405180830381865afa1580156129ff573d6000803e3d6000fd5b505050506040513d601f19601f82011682018060405250810190612a23919061464e565b612a2d9190614667565b9050806101996000828254612a429190614636565b9091555060009050612a5560018261123c565b90506000612a638783614667565b905080612a8357604051632f1b0c0f60e01b815260040160405180910390fd5b8a811015612aa45760405163c327661d60e01b815260040160405180910390fd5b610195546001600160a01b03166340c10f198b612ac28a858a613533565b6040518363ffffffff1660e01b8152600401612adf92919061485b565b600060405180830381600087803b158015612af957600080fd5b505af1158015612b0d573d6000803e3d6000fd5b50505050896001600160a01b0316612b223390565b6001600160a01b0316600080516020614d6a8339815191528e604051612b4a91815260200190565b60405180910390a35050600160fb5550505050505050505050565b60975460ff16612bae5760405162461bcd60e51b815260206004820152601460248201527314185d5cd8589b194e881b9bdd081c185d5cd95960621b60448201526064016109a2565b6097805460ff191690557f5db9ee0a495bf2e6ff9c91a7834c1ba4fdd244a5e8aa4e537bd38aeae4b073aa335b604051612be891906142c5565b60405180910390a1565b61019780546001600160a01b0319166001600160a01b0392909216919091179055565b600260fb541415612c385760405162461bcd60e51b81526004016109a2906145e9565b600260fb5584612c5b57604051636d8bee0b60e11b815260040160405180910390fd5b6001600160a01b038316612c82576040516314f3686160e11b815260040160405180910390fd5b6000612c8f86848461355d565b9050612c9c8684846135d8565b600081612caa88868661355d565b612cb49190614667565b9050600061019560009054906101000a90046001600160a01b03166001600160a01b03166318160ddd6040518163ffffffff1660e01b8152600401602060405180830381865afa158015612d0c573d6000803e3d6000fd5b505050506040513d601f19601f82011682018060405250810190612d30919061464e565b8861019954612d3f9190614891565b612d4991906149dd565b9050612d558183614636565b9150806101996000828254612d6a9190614667565b909155506000905060646103e8612d8661015f5462ffffff1690565b612d959062ffffff1686614891565b612d9f91906149dd565b612da991906149dd565b905087612db68285614667565b1015612dd55760405163c327661d60e01b815260040160405180910390fd5b610195546001600160a01b03166379cc6790338b6040518363ffffffff1660e01b8152600401612e0692919061485b565b600060405180830381600087803b158015612e2057600080fd5b505af1158015612e34573d6000803e3d6000fd5b50505050612e5681612e466101605490565b612e509190614636565b61016055565b612e7887612e648386614667565b610196546001600160a01b03169190611b7d565b6040518981526001600160a01b0388169033907f2717ead6b9200dd235aad468c9809ea400fe33ac69b5bfaa6d3e90fc922b63989060200160405180910390a35050600160fb5550505050505050565b60c980546001600160a01b038381166001600160a01b0319831681179093556040519116919082907f8be0079c531659141344cd1fd0a4f28419497f9722a3daafe3b4186f6b6457e090600090a35050565b6001600160a01b038316612f415760405163b6802b7f60e01b815260040160405180910390fd5b61016280546001600160a01b0319166001600160a01b0385169081179091556040517fa3fe39fe39850ddb39697065123e293302f3e8948984fde991b5a291ed1ad05b91612f929185908590614af2565b60405180910390a1505050565b60975460ff1615612fc25760405162461bcd60e51b81526004016109a290614758565b6097805460ff191660011790557f62e78cea01bee320cd4e420270b5ea74000d11b0c9f74754ebdbfc544b05a258612bdb3390565b7f071adf0c31586d6b8e30500aaef8199ce8b6f5b9ab08c1bafcf48809f1191b7490565b60008054610100900460ff1615613069578160ff166001148015613045575061304330611b6e565b155b6130615760405162461bcd60e51b81526004016109a290614b17565b506000919050565b60005460ff8084169116106130905760405162461bcd60e51b81526004016109a290614b17565b506000805460ff191660ff92909216919091179055600190565b919050565b600054610100900460ff1661123a5760405162461bcd60e51b81526004016109a290614b65565b600054610100900460ff166130fd5760405162461bcd60e51b81526004016109a290614b65565b6131056139e7565b610f1681613a16565b8261311c6103e86064614891565b8162ffffff1610613140576040516303689ded60e51b815260040160405180910390fd5b61015f805462ffffff60301b1916600160301b62ffffff878116820292909217928390556040517f05f9aef0771b6541329b82ea24407357fc3ff0f457598588055f84a807dbdb8f9361227b9392900490911690869086906149be565b60006131f2826040518060400160405280602081526020017f5361666545524332303a206c6f772d6c6576656c2063616c6c206661696c6564815250856001600160a01b0316613a4e9092919063ffffffff16565b805190915015610d3857808060200190518101906132109190614874565b610d385760405162461bcd60e51b815260206004820152602a60248201527f5361666545524332303a204552433230206f7065726174696f6e20646964206e6044820152691bdd081cdd58d8d9595960b21b60648201526084016109a2565b60008084518015613282576132826144f9565b14156133c3576020840151825183906000906132a0576132a06146b3565b60200260200101516001600160a01b031663095ea7b382866040518363ffffffff1660e01b81526004016132d592919061485b565b6020604051808303816000875af11580156132f4573d6000803e3d6000fd5b505050506040513d601f19601f820116820180604052508101906133189190614874565b506040516338ed173960e01b81526001600160a01b038216906338ed17399061334e908790600090889030904290600401614bb0565b6000604051808303816000875af115801561336d573d6000803e3d6000fd5b505050506040513d6000823e601f3d908101601f191682016040526133959190810190614c21565b600184516133a39190614667565b815181106133b3576133b36146b3565b6020026020010151915050611318565b60405163e004e07560e01b815260040160405180910390fd5b6133e581611b6e565b6134475760405162461bcd60e51b815260206004820152602d60248201527f455243313936373a206e657720696d706c656d656e746174696f6e206973206e60448201526c1bdd08184818dbdb9d1c9858dd609a1b60648201526084016109a2565b600080516020614ddb83398151915280546001600160a01b0319166001600160a01b0392909216919091179055565b61347f83613a5d565b60008251118061348c5750805b15610d385761349b8383613a9d565b50505050565b61018b546134af8284614636565b1115610f525760405163b761799960e01b815260040160405180910390fd5b61018c546134dc8284614636565b1115610f525760405163973cc40960e01b815260040160405180910390fd5b6040516001600160a01b038085166024830152831660448201526064810182905261349b9085906323b872dd60e01b90608401611b9c565b600081613541575081611318565b8361354c8385614891565b61355691906149dd565b9050611318565b610196546040516370a0823160e01b81526000916001600160a01b0316906370a082319061358f9030906004016142c5565b602060405180830381865afa1580156135ac573d6000803e3d6000fd5b505050506040513d601f19601f820116820180604052508101906135d0919061464e565b949350505050565b60006135e2612ff7565b905060006135ee6114f7565b856135f7611655565b6136019190614891565b61360b91906149dd565b90508160010160009054906101000a90046001600160a01b03166001600160a01b0316631e8e51da6040518163ffffffff1660e01b8152600401602060405180830381865afa158015613662573d6000803e3d6000fd5b505050506040513d601f19601f82011682018060405250810190613686919061464e565b8111156136a65760405163195d8ad160e11b815260040160405180910390fd5b60038201546040516370a0823160e01b81526000916001600160a01b0316906370a08231906136d99030906004016142c5565b602060405180830381865afa1580156136f6573d6000803e3d6000fd5b505050506040513d601f19601f8201168201806040525081019061371a919061464e565b60028401546007850154604051630441a3e760e41b81526004810191909152602481018590529192506001600160a01b03169063441a3e7090604401600060405180830381600087803b15801561377057600080fd5b505af1158015613784573d6000803e3d6000fd5b50508454600686015460405163c4de93a560e01b815261ffff9091166004820152602481018690523060448201526001600160a01b03909116925063c4de93a591506064016020604051808303816000875af11580156137e8573d6000803e3d6000fd5b505050506040513d601f19601f8201168201806040525081019061380c919061464e565b5060038301546040516370a0823160e01b81526000916001600160a01b0316906370a08231906138409030906004016142c5565b602060405180830381865afa15801561385d573d6000803e3d6000fd5b505050506040513d601f19601f82011682018060405250810190613881919061464e565b6003850154610196549192506001600160a01b03918216911614611a3e5760006138ab8383614667565b604080516003808252608082019092529192506000919060208201606080368337505050600387015481519192506001600160a01b03169082906000906138f4576138f46146b3565b60200260200101906001600160a01b031690816001600160a01b03168152505073b31f66aa3c1e785363f0875a1b74e27b85fd66c78160018151811061393c5761393c6146b3565b6001600160a01b0392831660209182029290920101526101965482519116908290600290811061396e5761396e6146b3565b6001600160a01b03909216602092830291909101909101526040805180820190915261019880546139db929190829060ff1680156139ae576139ae6144f9565b80156139bc576139bc6144f9565b8152905461010090046001600160a01b0316602090910152838361326f565b50505050505050505050565b600054610100900460ff16613a0e5760405162461bcd60e51b81526004016109a290614b65565b61123a613b8f565b600054610100900460ff16613a3d5760405162461bcd60e51b81526004016109a290614b65565b613a45613bc2565b610f1681613bf1565b60606135d08484600085613d79565b613a66816133dc565b6040516001600160a01b038216907fbc7cd75a20ee27fd9adebab32041f755214dbc6bffa90cc0225b39da2e5c2d3b90600090a250565b6060613aa883611b6e565b613b035760405162461bcd60e51b815260206004820152602660248201527f416464726573733a2064656c65676174652063616c6c20746f206e6f6e2d636f6044820152651b9d1c9858dd60d21b60648201526084016109a2565b600080846001600160a01b031684604051613b1e9190614cc6565b600060405180830381855af49150503d8060008114613b59576040519150601f19603f3d011682016040523d82523d6000602084013e613b5e565b606091505b5091509150613b868282604051806060016040528060278152602001614dfb60279139613ea8565b95945050505050565b600054610100900460ff16613bb65760405162461bcd60e51b81526004016109a290614b65565b6097805460ff19169055565b600054610100900460ff16613be95760405162461bcd60e51b81526004016109a290614b65565b61123a613ee1565b600054610100900460ff16613c185760405162461bcd60e51b81526004016109a290614b65565b613c206130af565b613c28613f11565b613c306130af565b613caf613c436060830160408401614ce2565b613c506060840184614cfd565b613c6060a0860160808701614ce2565b613c6d60a0870187614cfd565b613c7d60e0890160c08a01614ce2565b613c8a60e08a018a614cfd565b613c9c6101208c016101008d01614221565b613caa6101208d018d614cfd565b613f40565b613cc3816101400135826101600135613fa1565b613cd06020820182614221565b61019580546001600160a01b0319166001600160a01b0392909216919091179055613d016040820160208301614221565b61019680546001600160a01b0319166001600160a01b0392909216919091179055613d3c613d376101a083016101808401614221565b612bf2565b610f16613d516101c083016101a08401614d46565b60ff168015613d6257613d626144f9565b613d746101e084016101c08501614221565b61250c565b606082471015613dda5760405162461bcd60e51b815260206004820152602660248201527f416464726573733a20696e73756666696369656e742062616c616e636520666f6044820152651c8818d85b1b60d21b60648201526084016109a2565b613de385611b6e565b613e2f5760405162461bcd60e51b815260206004820152601d60248201527f416464726573733a2063616c6c20746f206e6f6e2d636f6e747261637400000060448201526064016109a2565b600080866001600160a01b03168587604051613e4b9190614cc6565b60006040518083038185875af1925050503d8060008114613e88576040519150601f19603f3d011682016040523d82523d6000602084013e613e8d565b606091505b5091509150613e9d828286613ea8565b979650505050505050565b60608315613eb7575081611318565b825115613ec75782518084602001fd5b8160405162461bcd60e51b81526004016109a291906144a6565b600054610100900460ff16613f085760405162461bcd60e51b81526004016109a290614b65565b61123a33612ec8565b600054610100900460ff16613f385760405162461bcd60e51b81526004016109a290614b65565b61123a613fdc565b600054610100900460ff16613f675760405162461bcd60e51b81526004016109a290614b65565b613f728c8c8c6121ec565b613f7d8989896127ce565b613f8886868661310e565b613f93838383612f1a565b505050505050505050505050565b600054610100900460ff16613fc85760405162461bcd60e51b81526004016109a290614b65565b613fd28261018b55565b610f528161018c55565b600054610100900460ff166140035760405162461bcd60e51b81526004016109a290614b65565b600160fb55565b604080518082019091526000808252602082015290565b60006020828403121561403357600080fd5b81356001600160e01b03198116811461131857600080fd5b60008083601f84011261405d57600080fd5b5081356001600160401b0381111561407457600080fd5b6020830191508360208260051b850101111561408f57600080fd5b9250929050565b600080602083850312156140a957600080fd5b82356001600160401b038111156140bf57600080fd5b6140cb8582860161404b565b90969095509350505050565b80516001600160a01b03168252602090810151910152565b602080825282518282018190526000919060409081850190868401855b8281101561412f5761411f8483516140d7565b928401929085019060010161410c565b5091979650505050505050565b6000806000806040858703121561415257600080fd5b84356001600160401b038082111561416957600080fd5b6141758883890161404b565b9096509450602087013591508082111561418e57600080fd5b5061419b8782880161404b565b95989497509550505050565b803562ffffff811681146130aa57600080fd5b6000806000604084860312156141cf57600080fd5b6141d8846141a7565b925060208401356001600160401b038111156141f357600080fd5b6141ff8682870161404b565b9497909650939450505050565b6001600160a01b0381168114610f1657600080fd5b60006020828403121561423357600080fd5b81356113188161420c565b8015158114610f1657600080fd5b6000806040838503121561425f57600080fd5b823561426a8161423e565b9150602083013561427a8161423e565b809150509250929050565b602080825282518282018190526000919060409081850190868401855b8281101561412f576142b58483516140d7565b92840192908501906001016142a2565b6001600160a01b0391909116815260200190565b6000602082840312156142eb57600080fd5b5035919050565b6000806040838503121561430557600080fd5b82356001811061431457600080fd5b9150602083013561427a8161420c565b60008060008060006080868803121561433c57600080fd5b853594506020860135935060408601356143558161420c565b925060608601356001600160401b0381111561437057600080fd5b61437c8882890161404b565b969995985093965092949392505050565b634e487b7160e01b600052604160045260246000fd5b604051601f8201601f191681016001600160401b03811182821017156143cb576143cb61438d565b604052919050565b600080604083850312156143e657600080fd5b82356143f18161420c565b91506020838101356001600160401b038082111561440e57600080fd5b818601915086601f83011261442257600080fd5b8135818111156144345761443461438d565b614446601f8201601f191685016143a3565b9150808252878482850101111561445c57600080fd5b80848401858401376000848284010152508093505050509250929050565b60005b8381101561449557818101518382015260200161447d565b8381111561349b5750506000910152565b60208152600082518060208401526144c581604085016020870161447a565b601f01601f19169190910160400192915050565b6000806000604084860312156144ee57600080fd5b83356141d88161420c565b634e487b7160e01b600052602160045260246000fd5b604081016001841061453157634e487b7160e01b600052602160045260246000fd5b9281526001600160a01b039190911660209091015290565b60008060008060008060c0878903121561456257600080fd5b86356001600160401b0381111561457857600080fd5b8701610200818a03121561458b57600080fd5b9550602087013561459b8161420c565b945060408701356145ab8161420c565b935060608701356145bb8161420c565b925060808701356145cb8161420c565b915060a08701356145db8161420c565b809150509295509295509295565b6020808252601f908201527f5265656e7472616e637947756172643a207265656e7472616e742063616c6c00604082015260600190565b634e487b7160e01b600052601160045260246000fd5b6000821982111561464957614649614620565b500190565b60006020828403121561466057600080fd5b5051919050565b60008282101561467957614679614620565b500390565b6020808252818101527f4f776e61626c653a2063616c6c6572206973206e6f7420746865206f776e6572604082015260600190565b634e487b7160e01b600052603260045260246000fd5b60006000198214156146dd576146dd614620565b5060010190565b6020808252602c90820152600080516020614dbb83398151915260408201526b19195b1959d85d1958d85b1b60a21b606082015260800190565b6020808252602c90820152600080516020614dbb83398151915260408201526b6163746976652070726f787960a01b606082015260800190565b60208082526010908201526f14185d5cd8589b194e881c185d5cd95960821b604082015260600190565b60006040828403121561479457600080fd5b604080519081016001600160401b03811182821017156147b6576147b661438d565b604052825181526020928301519281019290925250919050565b6000602082840312156147e257600080fd5b81516113188161420c565b6000608082840312156147ff57600080fd5b604051608081016001600160401b03811182821017156148215761482161438d565b604052825161482f8161420c565b808252506020830151602082015260408301516040820152606083015160608201528091505092915050565b6001600160a01b03929092168252602082015260400190565b60006020828403121561488657600080fd5b81516113188161423e565b60008160001904831182151516156148ab576148ab614620565b500290565b6000808335601e198436030181126148c757600080fd5b83016020810192503590506001600160401b038111156148e657600080fd5b80360383131561408f57600080fd5b81835281816020850137506000828201602090810191909152601f909101601f19169091010190565b81835260006020808501808196508560051b81019150846000805b888110156149b0578385038a528235603e19893603018112614959578283fd5b8801604061496782806148b0565b828952614977838a0182846148f5565b92505050614987888301836148b0565b92508782038989015261499b8284836148f5565b9c89019c975050509286019250600101614939565b509298975050505050505050565b62ffffff84168152604060208201526000613b8660408301848661491e565b6000826149fa57634e487b7160e01b600052601260045260246000fd5b500490565b600181815b80851115614a3a578160001904821115614a2057614a20614620565b80851615614a2d57918102915b93841c9390800290614a04565b509250929050565b600082614a5157506001610979565b81614a5e57506000610979565b8160018114614a745760028114614a7e57614a9a565b6001915050610979565b60ff841115614a8f57614a8f614620565b50506001821b610979565b5060208310610133831016604e8410600b8410161715614abd575081810a610979565b614ac783836149ff565b8060001904821115614adb57614adb614620565b029392505050565b600061131860ff841683614a42565b6001600160a01b0384168152604060208201819052600090613b86908301848661491e565b6020808252602e908201527f496e697469616c697a61626c653a20636f6e747261637420697320616c72656160408201526d191e481a5b9a5d1a585b1a5e995960921b606082015260800190565b6020808252602b908201527f496e697469616c697a61626c653a20636f6e7472616374206973206e6f74206960408201526a6e697469616c697a696e6760a81b606082015260800190565b600060a082018783526020878185015260a0604085015281875180845260c086019150828901935060005b81811015614c005784516001600160a01b031683529383019391830191600101614bdb565b50506001600160a01b03969096166060850152505050608001529392505050565b60006020808385031215614c3457600080fd5b82516001600160401b0380821115614c4b57600080fd5b818501915085601f830112614c5f57600080fd5b815181811115614c7157614c7161438d565b8060051b9150614c828483016143a3565b8181529183018401918481019088841115614c9c57600080fd5b938501935b83851015614cba57845182529385019390850190614ca1565b98975050505050505050565b60008251614cd881846020870161447a565b9190910192915050565b600060208284031215614cf457600080fd5b611318826141a7565b6000808335601e19843603018112614d1457600080fd5b8301803591506001600160401b03821115614d2e57600080fd5b6020019150600581901b360382131561408f57600080fd5b600060208284031215614d5857600080fd5b813560ff8116811461131857600080fdfe5548c837ab068cf56a2c2479df0882a4922fd203edb7517321831d95078c5f6262726f6b6b722e73746172676174655f73747261746567792e73746172676174655f73747261746567795f76312e312e3046756e6374696f6e206d7573742062652063616c6c6564207468726f75676820360894a13ba1a3210667c828492db98dca3e2076cc3735a920a3ca505d382bbc416464726573733a206c6f772d6c6576656c2064656c65676174652063616c6c206661696c6564a26469706673582212209f526824f59164ce559df1ac409cb704f5ffea34e1ab63a66936c5508617c5e464736f6c634300080a0033",
  "linkReferences": {},
  "deployedLinkReferences": {}
}