{
  "_format": "hh-sol-artifact-1",
  "contractName": "FreeMoneyProvider",
  "sourceName": "contracts/tests/FreeMoneyProvider.sol",
  "abi": [
    {
      "anonymous": false,
      "inputs": [
        {
          "indexed": false,
          "internalType": "uint8",
          "name": "version",
          "type": "uint8"
        }
      ],
      "name": "Initialized",
      "type": "event"
    },
    {
      "inputs": [
        {
          "internalType": "uint256",
          "name": "amount",
          "type": "uint256"
        },
        {
          "internalType": "contract IERC20Upgradeable",
          "name": "token",
          "type": "address"
        }
      ],
      "name": "giveMeMoney",
      "outputs": [],
      "stateMutability": "nonpayable",
      "type": "function"
    }
  ],
  "bytecode": "0x608060405234801561001057600080fd5b50610421806100206000396000f3fe608060405234801561001057600080fd5b506004361061002b5760003560e01c806330f91ade14610030575b600080fd5b61004361003e36600461030e565b610045565b005b6100596001600160a01b038216338461005d565b5050565b604080516001600160a01b038416602482015260448082018490528251808303909101815260649091019091526020810180516001600160e01b031663a9059cbb60e01b1790526100af9084906100b4565b505050565b6000610109826040518060400160405280602081526020017f5361666545524332303a206c6f772d6c6576656c2063616c6c206661696c6564815250856001600160a01b031661018b9092919063ffffffff16565b8051909150156100af5780806020019051810190610127919061034a565b6100af5760405162461bcd60e51b815260206004820152602a60248201527f5361666545524332303a204552433230206f7065726174696f6e20646964206e6044820152691bdd081cdd58d8d9595960b21b60648201526084015b60405180910390fd5b606061019a84846000856101a4565b90505b9392505050565b6060824710156102055760405162461bcd60e51b815260206004820152602660248201527f416464726573733a20696e73756666696369656e742062616c616e636520666f6044820152651c8818d85b1b60d21b6064820152608401610182565b6001600160a01b0385163b61025c5760405162461bcd60e51b815260206004820152601d60248201527f416464726573733a2063616c6c20746f206e6f6e2d636f6e74726163740000006044820152606401610182565b600080866001600160a01b03168587604051610278919061039c565b60006040518083038185875af1925050503d80600081146102b5576040519150601f19603f3d011682016040523d82523d6000602084013e6102ba565b606091505b50915091506102ca8282866102d5565b979650505050505050565b606083156102e457508161019d565b8251156102f45782518084602001fd5b8160405162461bcd60e51b815260040161018291906103b8565b6000806040838503121561032157600080fd5b8235915060208301356001600160a01b038116811461033f57600080fd5b809150509250929050565b60006020828403121561035c57600080fd5b8151801515811461019d57600080fd5b60005b8381101561038757818101518382015260200161036f565b83811115610396576000848401525b50505050565b600082516103ae81846020870161036c565b9190910192915050565b60208152600082518060208401526103d781604085016020870161036c565b601f01601f1916919091016040019291505056fea2646970667358221220df5331408d4addfb54678e180805d0888fafc0c167f79a8a77b0ec94e74941e664736f6c634300080a0033",
  "linkReferences": {},
  "deployedLinkReferences": {}
}