{
  "_format": "hh-sol-artifact-1",
  "contractName": "StargateV2",
  "sourceName": "contracts/tests/strategies/stargate/StargateV2.sol",
  "abi": [
    {
      "inputs": [],
      "stateMutability": "nonpayable",
      "type": "constructor"
    },
    {
      "inputs": [],
      "name": "InvalidFeeError",
      "type": "error"
    },
    {
      "inputs": [],
      "name": "InvalidStargateLpToken",
      "type": "error"
    },
    {
      "inputs": [],
      "name": "InvalidSwapServiceProvider",
      "type": "error"
    },
    {
      "inputs": [],
      "name": "InvestmentLimitPerAddressExceeded",
      "type": "error"
    },
    {
      "inputs": [],
      "name": "NotEnoughDeltaCredit",
      "type": "error"
    },
    {
      "inputs": [],
      "name": "TooSmallDepositTokenAmountOut",
      "type": "error"
    },
    {
      "inputs": [],
      "name": "TotalInvestmentLimitExceeded",
      "type": "error"
    },
    {
      "inputs": [],
      "name": "ZeroAmountDeposited",
      "type": "error"
    },
    {
      "inputs": [],
      "name": "ZeroAmountInvested",
      "type": "error"
    },
    {
      "inputs": [],
      "name": "ZeroAmountWithdrawn",
      "type": "error"
    },
    {
      "inputs": [],
      "name": "ZeroDepositTokenReceiver",
      "type": "error"
    },
    {
      "inputs": [],
      "name": "ZeroFeeReceiver",
      "type": "error"
    },
    {
      "inputs": [],
      "name": "ZeroInvestmentTokenReceiver",
      "type": "error"
    },
    {
      "anonymous": false,
      "inputs": [
        {
          "indexed": false,
          "internalType": "address",
          "name": "previousAdmin",
          "type": "address"
        },
        {
          "indexed": false,
          "internalType": "address",
          "name": "newAdmin",
          "type": "address"
        }
      ],
      "name": "AdminChanged",
      "type": "event"
    },
    {
      "anonymous": false,
      "inputs": [
        {
          "indexed": true,
          "internalType": "address",
          "name": "beacon",
          "type": "address"
        }
      ],
      "name": "BeaconUpgraded",
      "type": "event"
    },
    {
      "anonymous": false,
      "inputs": [
        {
          "indexed": true,
          "internalType": "address",
          "name": "initiator",
          "type": "address"
        },
        {
          "indexed": true,
          "internalType": "address",
          "name": "investmentTokenReceiver",
          "type": "address"
        },
        {
          "indexed": false,
          "internalType": "uint256",
          "name": "amount",
          "type": "uint256"
        }
      ],
      "name": "Deposit",
      "type": "event"
    },
    {
      "anonymous": false,
      "inputs": [
        {
          "indexed": false,
          "internalType": "uint256",
          "name": "fee",
          "type": "uint256"
        },
        {
          "components": [
            {
              "internalType": "string",
              "name": "key",
              "type": "string"
            },
            {
              "internalType": "string",
              "name": "value",
              "type": "string"
            }
          ],
          "indexed": false,
          "internalType": "struct NameValuePair[]",
          "name": "params",
          "type": "tuple[]"
        }
      ],
      "name": "DepositFeeChange",
      "type": "event"
    },
    {
      "anonymous": false,
      "inputs": [
        {
          "indexed": false,
          "internalType": "uint256",
          "name": "fee",
          "type": "uint256"
        }
      ],
      "name": "FeeClaim",
      "type": "event"
    },
    {
      "anonymous": false,
      "inputs": [
        {
          "indexed": false,
          "internalType": "address",
          "name": "feeReceiver",
          "type": "address"
        },
        {
          "components": [
            {
              "internalType": "string",
              "name": "key",
              "type": "string"
            },
            {
              "internalType": "string",
              "name": "value",
              "type": "string"
            }
          ],
          "indexed": false,
          "internalType": "struct NameValuePair[]",
          "name": "params",
          "type": "tuple[]"
        }
      ],
      "name": "FeeReceiverChange",
      "type": "event"
    },
    {
      "anonymous": false,
      "inputs": [
        {
          "indexed": false,
          "internalType": "uint8",
          "name": "version",
          "type": "uint8"
        }
      ],
      "name": "Initialized",
      "type": "event"
    },
    {
      "anonymous": false,
      "inputs": [
        {
          "indexed": true,
          "internalType": "address",
          "name": "previousOwner",
          "type": "address"
        },
        {
          "indexed": true,
          "internalType": "address",
          "name": "newOwner",
          "type": "address"
        }
      ],
      "name": "OwnershipTransferred",
      "type": "event"
    },
    {
      "anonymous": false,
      "inputs": [
        {
          "indexed": false,
          "internalType": "address",
          "name": "account",
          "type": "address"
        }
      ],
      "name": "Paused",
      "type": "event"
    },
    {
      "anonymous": false,
      "inputs": [
        {
          "indexed": false,
          "internalType": "uint256",
          "name": "fee",
          "type": "uint256"
        },
        {
          "components": [
            {
              "internalType": "string",
              "name": "key",
              "type": "string"
            },
            {
              "internalType": "string",
              "name": "value",
              "type": "string"
            }
          ],
          "indexed": false,
          "internalType": "struct NameValuePair[]",
          "name": "params",
          "type": "tuple[]"
        }
      ],
      "name": "PerformanceFeeChange",
      "type": "event"
    },
    {
      "anonymous": false,
      "inputs": [
        {
          "indexed": false,
          "internalType": "uint256",
          "name": "amount",
          "type": "uint256"
        }
      ],
      "name": "RewardProcess",
      "type": "event"
    },
    {
      "anonymous": false,
      "inputs": [
        {
          "indexed": true,
          "internalType": "address",
          "name": "withdrawer",
          "type": "address"
        },
        {
          "indexed": false,
          "internalType": "uint256",
          "name": "amount",
          "type": "uint256"
        }
      ],
      "name": "RewardWithdraw",
      "type": "event"
    },
    {
      "anonymous": false,
      "inputs": [
        {
          "indexed": false,
          "internalType": "address",
          "name": "account",
          "type": "address"
        }
      ],
      "name": "Unpaused",
      "type": "event"
    },
    {
      "anonymous": false,
      "inputs": [
        {
          "indexed": true,
          "internalType": "address",
          "name": "implementation",
          "type": "address"
        }
      ],
      "name": "Upgraded",
      "type": "event"
    },
    {
      "anonymous": false,
      "inputs": [
        {
          "indexed": true,
          "internalType": "address",
          "name": "initiator",
          "type": "address"
        },
        {
          "indexed": true,
          "internalType": "address",
          "name": "depositTokenReceiver",
          "type": "address"
        },
        {
          "indexed": false,
          "internalType": "uint256",
          "name": "amount",
          "type": "uint256"
        }
      ],
      "name": "Withdrawal",
      "type": "event"
    },
    {
      "anonymous": false,
      "inputs": [
        {
          "indexed": false,
          "internalType": "uint256",
          "name": "fee",
          "type": "uint256"
        },
        {
          "components": [
            {
              "internalType": "string",
              "name": "key",
              "type": "string"
            },
            {
              "internalType": "string",
              "name": "value",
              "type": "string"
            }
          ],
          "indexed": false,
          "internalType": "struct NameValuePair[]",
          "name": "params",
          "type": "tuple[]"
        }
      ],
      "name": "WithdrawalFeeChange",
      "type": "event"
    },
    {
      "inputs": [
        {
          "components": [
            {
              "internalType": "string",
              "name": "key",
              "type": "string"
            },
            {
              "internalType": "string",
              "name": "value",
              "type": "string"
            }
          ],
          "internalType": "struct NameValuePair[]",
          "name": "",
          "type": "tuple[]"
        }
      ],
      "name": "claimFee",
      "outputs": [],
      "stateMutability": "nonpayable",
      "type": "function"
    },
    {
      "inputs": [
        {
          "internalType": "uint256",
          "name": "depositTokenAmountIn",
          "type": "uint256"
        },
        {
          "internalType": "uint256",
          "name": "minimumDepositTokenAmountOut",
          "type": "uint256"
        },
        {
          "internalType": "address",
          "name": "investmentTokenReceiver",
          "type": "address"
        },
        {
          "components": [
            {
              "internalType": "string",
              "name": "key",
              "type": "string"
            },
            {
              "internalType": "string",
              "name": "value",
              "type": "string"
            }
          ],
          "internalType": "struct NameValuePair[]",
          "name": "params",
          "type": "tuple[]"
        }
      ],
      "name": "deposit",
      "outputs": [],
      "stateMutability": "nonpayable",
      "type": "function"
    },
    {
      "inputs": [],
      "name": "getAssetBalances",
      "outputs": [
        {
          "components": [
            {
              "internalType": "address",
              "name": "asset",
              "type": "address"
            },
            {
              "internalType": "uint256",
              "name": "balance",
              "type": "uint256"
            }
          ],
          "internalType": "struct IAum.Balance[]",
          "name": "balances",
          "type": "tuple[]"
        }
      ],
      "stateMutability": "view",
      "type": "function"
    },
    {
      "inputs": [
        {
          "internalType": "bool",
          "name": "shouldMaximise",
          "type": "bool"
        },
        {
          "internalType": "bool",
          "name": "shouldIncludeAmmPrice",
          "type": "bool"
        }
      ],
      "name": "getAssetValuations",
      "outputs": [
        {
          "components": [
            {
              "internalType": "address",
              "name": "asset",
              "type": "address"
            },
            {
              "internalType": "uint256",
              "name": "valuation",
              "type": "uint256"
            }
          ],
          "internalType": "struct IAum.Valuation[]",
          "name": "valuations",
          "type": "tuple[]"
        }
      ],
      "stateMutability": "view",
      "type": "function"
    },
    {
      "inputs": [],
      "name": "getClaimedFee",
      "outputs": [
        {
          "internalType": "uint256",
          "name": "",
          "type": "uint256"
        }
      ],
      "stateMutability": "view",
      "type": "function"
    },
    {
      "inputs": [],
      "name": "getCurrentAccumulatedFee",
      "outputs": [
        {
          "internalType": "uint256",
          "name": "",
          "type": "uint256"
        }
      ],
      "stateMutability": "view",
      "type": "function"
    },
    {
      "inputs": [
        {
          "components": [
            {
              "internalType": "string",
              "name": "key",
              "type": "string"
            },
            {
              "internalType": "string",
              "name": "value",
              "type": "string"
            }
          ],
          "internalType": "struct NameValuePair[]",
          "name": "",
          "type": "tuple[]"
        }
      ],
      "name": "getDepositFee",
      "outputs": [
        {
          "internalType": "uint24",
          "name": "",
          "type": "uint24"
        }
      ],
      "stateMutability": "view",
      "type": "function"
    },
    {
      "inputs": [],
      "name": "getDepositToken",
      "outputs": [
        {
          "internalType": "contract IERC20Upgradeable",
          "name": "",
          "type": "address"
        }
      ],
      "stateMutability": "view",
      "type": "function"
    },
    {
      "inputs": [
        {
          "internalType": "bool",
          "name": "shouldMaximise",
          "type": "bool"
        },
        {
          "internalType": "bool",
          "name": "shouldIncludeAmmPrice",
          "type": "bool"
        }
      ],
      "name": "getEquityValuation",
      "outputs": [
        {
          "internalType": "uint256",
          "name": "",
          "type": "uint256"
        }
      ],
      "stateMutability": "view",
      "type": "function"
    },
    {
      "inputs": [
        {
          "components": [
            {
              "internalType": "string",
              "name": "key",
              "type": "string"
            },
            {
              "internalType": "string",
              "name": "value",
              "type": "string"
            }
          ],
          "internalType": "struct NameValuePair[]",
          "name": "",
          "type": "tuple[]"
        }
      ],
      "name": "getFeeReceiver",
      "outputs": [
        {
          "internalType": "address",
          "name": "",
          "type": "address"
        }
      ],
      "stateMutability": "view",
      "type": "function"
    },
    {
      "inputs": [],
      "name": "getInvestmentLimitPerAddress",
      "outputs": [
        {
          "internalType": "uint256",
          "name": "",
          "type": "uint256"
        }
      ],
      "stateMutability": "view",
      "type": "function"
    },
    {
      "inputs": [],
      "name": "getInvestmentToken",
      "outputs": [
        {
          "internalType": "contract IInvestmentToken",
          "name": "",
          "type": "address"
        }
      ],
      "stateMutability": "view",
      "type": "function"
    },
    {
      "inputs": [
        {
          "internalType": "address",
          "name": "account",
          "type": "address"
        }
      ],
      "name": "getInvestmentTokenBalanceOf",
      "outputs": [
        {
          "internalType": "uint256",
          "name": "",
          "type": "uint256"
        }
      ],
      "stateMutability": "view",
      "type": "function"
    },
    {
      "inputs": [],
      "name": "getInvestmentTokenSupply",
      "outputs": [
        {
          "internalType": "uint256",
          "name": "",
          "type": "uint256"
        }
      ],
      "stateMutability": "view",
      "type": "function"
    },
    {
      "inputs": [],
      "name": "getLiabilityBalances",
      "outputs": [
        {
          "components": [
            {
              "internalType": "address",
              "name": "asset",
              "type": "address"
            },
            {
              "internalType": "uint256",
              "name": "balance",
              "type": "uint256"
            }
          ],
          "internalType": "struct IAum.Balance[]",
          "name": "balances",
          "type": "tuple[]"
        }
      ],
      "stateMutability": "view",
      "type": "function"
    },
    {
      "inputs": [
        {
          "internalType": "bool",
          "name": "shouldMaximise",
          "type": "bool"
        },
        {
          "internalType": "bool",
          "name": "shouldIncludeAmmPrice",
          "type": "bool"
        }
      ],
      "name": "getLiabilityValuations",
      "outputs": [
        {
          "components": [
            {
              "internalType": "address",
              "name": "asset",
              "type": "address"
            },
            {
              "internalType": "uint256",
              "name": "valuation",
              "type": "uint256"
            }
          ],
          "internalType": "struct IAum.Valuation[]",
          "name": "",
          "type": "tuple[]"
        }
      ],
      "stateMutability": "view",
      "type": "function"
    },
    {
      "inputs": [
        {
          "components": [
            {
              "internalType": "string",
              "name": "key",
              "type": "string"
            },
            {
              "internalType": "string",
              "name": "value",
              "type": "string"
            }
          ],
          "internalType": "struct NameValuePair[]",
          "name": "",
          "type": "tuple[]"
        }
      ],
      "name": "getPerformanceFee",
      "outputs": [
        {
          "internalType": "uint24",
          "name": "",
          "type": "uint24"
        }
      ],
      "stateMutability": "view",
      "type": "function"
    },
    {
      "inputs": [],
      "name": "getStargateLpBalance",
      "outputs": [
        {
          "internalType": "uint256",
          "name": "",
          "type": "uint256"
        }
      ],
      "stateMutability": "view",
      "type": "function"
    },
    {
      "inputs": [
        {
          "components": [
            {
              "internalType": "string",
              "name": "key",
              "type": "string"
            },
            {
              "internalType": "string",
              "name": "value",
              "type": "string"
            }
          ],
          "internalType": "struct NameValuePair[]",
          "name": "params",
          "type": "tuple[]"
        }
      ],
      "name": "getTotalDepositFee",
      "outputs": [
        {
          "internalType": "uint24",
          "name": "",
          "type": "uint24"
        }
      ],
      "stateMutability": "view",
      "type": "function"
    },
    {
      "inputs": [],
      "name": "getTotalInvestmentLimit",
      "outputs": [
        {
          "internalType": "uint256",
          "name": "",
          "type": "uint256"
        }
      ],
      "stateMutability": "view",
      "type": "function"
    },
    {
      "inputs": [
        {
          "components": [
            {
              "internalType": "string",
              "name": "key",
              "type": "string"
            },
            {
              "internalType": "string",
              "name": "value",
              "type": "string"
            }
          ],
          "internalType": "struct NameValuePair[]",
          "name": "params",
          "type": "tuple[]"
        }
      ],
      "name": "getTotalPerformanceFee",
      "outputs": [
        {
          "internalType": "uint24",
          "name": "",
          "type": "uint24"
        }
      ],
      "stateMutability": "view",
      "type": "function"
    },
    {
      "inputs": [
        {
          "components": [
            {
              "internalType": "string",
              "name": "key",
              "type": "string"
            },
            {
              "internalType": "string",
              "name": "value",
              "type": "string"
            }
          ],
          "internalType": "struct NameValuePair[]",
          "name": "params",
          "type": "tuple[]"
        }
      ],
      "name": "getTotalWithdrawalFee",
      "outputs": [
        {
          "internalType": "uint24",
          "name": "",
          "type": "uint24"
        }
      ],
      "stateMutability": "view",
      "type": "function"
    },
    {
      "inputs": [
        {
          "components": [
            {
              "internalType": "string",
              "name": "key",
              "type": "string"
            },
            {
              "internalType": "string",
              "name": "value",
              "type": "string"
            }
          ],
          "internalType": "struct NameValuePair[]",
          "name": "",
          "type": "tuple[]"
        }
      ],
      "name": "getWithdrawalFee",
      "outputs": [
        {
          "internalType": "uint24",
          "name": "",
          "type": "uint24"
        }
      ],
      "stateMutability": "view",
      "type": "function"
    },
    {
      "inputs": [],
      "name": "humanReadableName",
      "outputs": [
        {
          "internalType": "string",
          "name": "",
          "type": "string"
        }
      ],
      "stateMutability": "view",
      "type": "function"
    },
    {
      "inputs": [
        {
          "components": [
            {
              "internalType": "contract IInvestmentToken",
              "name": "investmentToken",
              "type": "address"
            },
            {
              "internalType": "contract IERC20Upgradeable",
              "name": "depositToken",
              "type": "address"
            },
            {
              "internalType": "uint24",
              "name": "depositFee",
              "type": "uint24"
            },
            {
              "components": [
                {
                  "internalType": "string",
                  "name": "key",
                  "type": "string"
                },
                {
                  "internalType": "string",
                  "name": "value",
                  "type": "string"
                }
              ],
              "internalType": "struct NameValuePair[]",
              "name": "depositFeeParams",
              "type": "tuple[]"
            },
            {
              "internalType": "uint24",
              "name": "withdrawalFee",
              "type": "uint24"
            },
            {
              "components": [
                {
                  "internalType": "string",
                  "name": "key",
                  "type": "string"
                },
                {
                  "internalType": "string",
                  "name": "value",
                  "type": "string"
                }
              ],
              "internalType": "struct NameValuePair[]",
              "name": "withdrawFeeParams",
              "type": "tuple[]"
            },
            {
              "internalType": "uint24",
              "name": "performanceFee",
              "type": "uint24"
            },
            {
              "components": [
                {
                  "internalType": "string",
                  "name": "key",
                  "type": "string"
                },
                {
                  "internalType": "string",
                  "name": "value",
                  "type": "string"
                }
              ],
              "internalType": "struct NameValuePair[]",
              "name": "performanceFeeParams",
              "type": "tuple[]"
            },
            {
              "internalType": "address",
              "name": "feeReceiver",
              "type": "address"
            },
            {
              "components": [
                {
                  "internalType": "string",
                  "name": "key",
                  "type": "string"
                },
                {
                  "internalType": "string",
                  "name": "value",
                  "type": "string"
                }
              ],
              "internalType": "struct NameValuePair[]",
              "name": "feeReceiverParams",
              "type": "tuple[]"
            },
            {
              "internalType": "uint256",
              "name": "totalInvestmentLimit",
              "type": "uint256"
            },
            {
              "internalType": "uint256",
              "name": "investmentLimitPerAddress",
              "type": "uint256"
            },
            {
              "internalType": "contract IPriceOracle",
              "name": "priceOracle",
              "type": "address"
            },
            {
              "internalType": "uint8",
              "name": "swapServiceProvider",
              "type": "uint8"
            },
            {
              "internalType": "address",
              "name": "swapServiceRouter",
              "type": "address"
            },
            {
              "components": [
                {
                  "internalType": "bytes32",
                  "name": "role",
                  "type": "bytes32"
                },
                {
                  "internalType": "address[]",
                  "name": "user",
                  "type": "address[]"
                }
              ],
              "internalType": "struct RoleToUsers[]",
              "name": "roleToUsersArray",
              "type": "tuple[]"
            }
          ],
          "internalType": "struct StrategyArgs",
          "name": "strategyArgs",
          "type": "tuple"
        },
        {
          "internalType": "contract IStargateRouter",
          "name": "router",
          "type": "address"
        },
        {
          "internalType": "contract IStargatePool",
          "name": "pool",
          "type": "address"
        },
        {
          "internalType": "contract IStargateLpStaking",
          "name": "lpStaking",
          "type": "address"
        },
        {
          "internalType": "contract IERC20Upgradeable",
          "name": "lpToken",
          "type": "address"
        },
        {
          "internalType": "contract IERC20Upgradeable",
          "name": "stgToken",
          "type": "address"
        }
      ],
      "name": "initialize",
      "outputs": [],
      "stateMutability": "nonpayable",
      "type": "function"
    },
    {
      "inputs": [],
      "name": "owner",
      "outputs": [
        {
          "internalType": "address",
          "name": "",
          "type": "address"
        }
      ],
      "stateMutability": "view",
      "type": "function"
    },
    {
      "inputs": [],
      "name": "pause",
      "outputs": [],
      "stateMutability": "nonpayable",
      "type": "function"
    },
    {
      "inputs": [],
      "name": "paused",
      "outputs": [
        {
          "internalType": "bool",
          "name": "",
          "type": "bool"
        }
      ],
      "stateMutability": "view",
      "type": "function"
    },
    {
      "inputs": [],
      "name": "priceOracle",
      "outputs": [
        {
          "internalType": "contract IPriceOracle",
          "name": "",
          "type": "address"
        }
      ],
      "stateMutability": "view",
      "type": "function"
    },
    {
      "inputs": [
        {
          "components": [
            {
              "internalType": "string",
              "name": "key",
              "type": "string"
            },
            {
              "internalType": "string",
              "name": "value",
              "type": "string"
            }
          ],
          "internalType": "struct NameValuePair[]",
          "name": "depositParams",
          "type": "tuple[]"
        },
        {
          "components": [
            {
              "internalType": "string",
              "name": "key",
              "type": "string"
            },
            {
              "internalType": "string",
              "name": "value",
              "type": "string"
            }
          ],
          "internalType": "struct NameValuePair[]",
          "name": "reapRewardParams",
          "type": "tuple[]"
        }
      ],
      "name": "processReward",
      "outputs": [],
      "stateMutability": "nonpayable",
      "type": "function"
    },
    {
      "inputs": [],
      "name": "proxiableUUID",
      "outputs": [
        {
          "internalType": "bytes32",
          "name": "",
          "type": "bytes32"
        }
      ],
      "stateMutability": "view",
      "type": "function"
    },
    {
      "inputs": [],
      "name": "renounceOwnership",
      "outputs": [],
      "stateMutability": "nonpayable",
      "type": "function"
    },
    {
      "inputs": [
        {
          "internalType": "uint24",
          "name": "fee_",
          "type": "uint24"
        },
        {
          "components": [
            {
              "internalType": "string",
              "name": "key",
              "type": "string"
            },
            {
              "internalType": "string",
              "name": "value",
              "type": "string"
            }
          ],
          "internalType": "struct NameValuePair[]",
          "name": "params",
          "type": "tuple[]"
        }
      ],
      "name": "setDepositFee",
      "outputs": [],
      "stateMutability": "nonpayable",
      "type": "function"
    },
    {
      "inputs": [
        {
          "internalType": "address",
          "name": "feeReceiver_",
          "type": "address"
        },
        {
          "components": [
            {
              "internalType": "string",
              "name": "key",
              "type": "string"
            },
            {
              "internalType": "string",
              "name": "value",
              "type": "string"
            }
          ],
          "internalType": "struct NameValuePair[]",
          "name": "params",
          "type": "tuple[]"
        }
      ],
      "name": "setFeeReceiver",
      "outputs": [],
      "stateMutability": "nonpayable",
      "type": "function"
    },
    {
      "inputs": [
        {
          "internalType": "uint256",
          "name": "investmentLimitPerAddress",
          "type": "uint256"
        }
      ],
      "name": "setInvestmentLimitPerAddress",
      "outputs": [],
      "stateMutability": "nonpayable",
      "type": "function"
    },
    {
      "inputs": [
        {
          "internalType": "contract IInvestmentToken",
          "name": "investmentToken",
          "type": "address"
        }
      ],
      "name": "setInvestmentToken",
      "outputs": [],
      "stateMutability": "nonpayable",
      "type": "function"
    },
    {
      "inputs": [
        {
          "internalType": "uint24",
          "name": "fee_",
          "type": "uint24"
        },
        {
          "components": [
            {
              "internalType": "string",
              "name": "key",
              "type": "string"
            },
            {
              "internalType": "string",
              "name": "value",
              "type": "string"
            }
          ],
          "internalType": "struct NameValuePair[]",
          "name": "params",
          "type": "tuple[]"
        }
      ],
      "name": "setPerformanceFee",
      "outputs": [],
      "stateMutability": "nonpayable",
      "type": "function"
    },
    {
      "inputs": [
        {
          "internalType": "contract IPriceOracle",
          "name": "priceOracle",
          "type": "address"
        }
      ],
      "name": "setPriceOracle",
      "outputs": [],
      "stateMutability": "nonpayable",
      "type": "function"
    },
    {
      "inputs": [
        {
          "internalType": "enum StrategyBaseUpgradeable.SwapServiceProvider",
          "name": "provider",
          "type": "uint8"
        },
        {
          "internalType": "address",
          "name": "router",
          "type": "address"
        }
      ],
      "name": "setSwapService",
      "outputs": [],
      "stateMutability": "nonpayable",
      "type": "function"
    },
    {
      "inputs": [
        {
          "internalType": "uint256",
          "name": "totalInvestmentLimit",
          "type": "uint256"
        }
      ],
      "name": "setTotalInvestmentLimit",
      "outputs": [],
      "stateMutability": "nonpayable",
      "type": "function"
    },
    {
      "inputs": [
        {
          "internalType": "uint24",
          "name": "fee_",
          "type": "uint24"
        },
        {
          "components": [
            {
              "internalType": "string",
              "name": "key",
              "type": "string"
            },
            {
              "internalType": "string",
              "name": "value",
              "type": "string"
            }
          ],
          "internalType": "struct NameValuePair[]",
          "name": "params",
          "type": "tuple[]"
        }
      ],
      "name": "setWithdrawalFee",
      "outputs": [],
      "stateMutability": "nonpayable",
      "type": "function"
    },
    {
      "inputs": [
        {
          "internalType": "bytes4",
          "name": "interfaceId",
          "type": "bytes4"
        }
      ],
      "name": "supportsInterface",
      "outputs": [
        {
          "internalType": "bool",
          "name": "",
          "type": "bool"
        }
      ],
      "stateMutability": "view",
      "type": "function"
    },
    {
      "inputs": [],
      "name": "swapService",
      "outputs": [
        {
          "internalType": "enum StrategyBaseUpgradeable.SwapServiceProvider",
          "name": "provider",
          "type": "uint8"
        },
        {
          "internalType": "address",
          "name": "router",
          "type": "address"
        }
      ],
      "stateMutability": "view",
      "type": "function"
    },
    {
      "inputs": [],
      "name": "trackingName",
      "outputs": [
        {
          "internalType": "string",
          "name": "",
          "type": "string"
        }
      ],
      "stateMutability": "view",
      "type": "function"
    },
    {
      "inputs": [
        {
          "internalType": "address",
          "name": "newOwner",
          "type": "address"
        }
      ],
      "name": "transferOwnership",
      "outputs": [],
      "stateMutability": "nonpayable",
      "type": "function"
    },
    {
      "inputs": [],
      "name": "uninvestedDepositTokenAmount",
      "outputs": [
        {
          "internalType": "uint256",
          "name": "",
          "type": "uint256"
        }
      ],
      "stateMutability": "view",
      "type": "function"
    },
    {
      "inputs": [],
      "name": "unpause",
      "outputs": [],
      "stateMutability": "nonpayable",
      "type": "function"
    },
    {
      "inputs": [
        {
          "internalType": "address",
          "name": "newImplementation",
          "type": "address"
        }
      ],
      "name": "upgradeTo",
      "outputs": [],
      "stateMutability": "nonpayable",
      "type": "function"
    },
    {
      "inputs": [
        {
          "internalType": "address",
          "name": "newImplementation",
          "type": "address"
        },
        {
          "internalType": "bytes",
          "name": "data",
          "type": "bytes"
        }
      ],
      "name": "upgradeToAndCall",
      "outputs": [],
      "stateMutability": "payable",
      "type": "function"
    },
    {
      "inputs": [],
      "name": "version",
      "outputs": [
        {
          "internalType": "string",
          "name": "",
          "type": "string"
        }
      ],
      "stateMutability": "view",
      "type": "function"
    },
    {
      "inputs": [
        {
          "internalType": "uint256",
          "name": "investmentTokenAmountIn",
          "type": "uint256"
        },
        {
          "internalType": "uint256",
          "name": "minimumDepositTokenAmountOut",
          "type": "uint256"
        },
        {
          "internalType": "address",
          "name": "depositTokenReceiver",
          "type": "address"
        },
        {
          "components": [
            {
              "internalType": "string",
              "name": "key",
              "type": "string"
            },
            {
              "internalType": "string",
              "name": "value",
              "type": "string"
            }
          ],
          "internalType": "struct NameValuePair[]",
          "name": "params",
          "type": "tuple[]"
        }
      ],
      "name": "withdraw",
      "outputs": [],
      "stateMutability": "nonpayable",
      "type": "function"
    },
    {
      "inputs": [
        {
          "components": [
            {
              "internalType": "string",
              "name": "key",
              "type": "string"
            },
            {
              "internalType": "string",
              "name": "value",
              "type": "string"
            }
          ],
          "internalType": "struct NameValuePair[]",
          "name": "withdrawParams",
          "type": "tuple[]"
        }
      ],
      "name": "withdrawReward",
      "outputs": [],
      "stateMutability": "nonpayable",
      "type": "function"
    }
  ],
  "bytecode": "0x60a0604052306080523480156200001557600080fd5b506200002062000026565b6200013f565b6200003260ff62000035565b50565b60008054610100900460ff16156200009e578160ff1660011480156200006e57506200006c30620000e260201b62001b6a1760201c565b155b620000965760405162461bcd60e51b81526004016200008d90620000f1565b60405180910390fd5b506000919050565b60005460ff808416911610620000c85760405162461bcd60e51b81526004016200008d90620000f1565b506000805460ff191660ff92909216919091179055600190565b6001600160a01b03163b151590565b6020808252602e908201527f496e697469616c697a61626c653a20636f6e747261637420697320616c72656160408201526d191e481a5b9a5d1a585b1a5e995960921b606082015260800190565b608051614e9c62000177600039600081816110d701528181611117015281816113360152818161137601526113ee0152614e9c6000f3fe60806040526004361061024f5760003560e01c806301ffc9a7146102545780630c976b9a14610289578063146264db146102ab578063163c210a146102c85780631fda1214146102e85780632075fcf81461030857806320a4cd6d146103365780632630c12f1461036357806327b3a8c9146103915780632f28690e146103b1578063308dade1146103d1578063346cd3c5146103e65780633659cfe6146104065780633acefea7146104265780633c3129e3146104465780633f4ba83a14610466578063402cb4d11461047b57806344dc283b1461049b57806349eca013146104cf5780634ab2d57b146104ef5780634f1ef2861461050f57806352d1902d14610522578063530e784f1461053757806354fd4d50146105575780635c975abb146105955780635ccadb88146105ad57806362f18a69146105c357806364ea9f1d146105e3578063715018a6146105f85780637bd075411461060d578063803bdca11461062d5780638456cb591461064d57806385a73627146106625780638882e076146106825780638b2014b6146106975780638da5cb5b146106ad5780638e35c3f8146106c257806394653451146106fb578063958b87f91461071b5780639a4ca29214610748578063a190a85514610768578063aa6446ce14610788578063b4464c46146107c5578063b55541f5146107ee578063cf7b960514610805578063cfcab38c14610824578063d622e73e14610839578063eb2dc9b614610859578063f2fde38b1461086f578063fa8353291461088f578063fb1b5c7b146108a5578063fcd1e90c146108c4575b600080fd5b34801561026057600080fd5b5061027461026f366004614066565b6108e4565b60405190151581526020015b60405180910390f35b34801561029557600080fd5b506102a96102a43660046140db565b61097f565b005b3480156102b757600080fd5b5060605b6040516102809190614134565b3480156102d457600080fd5b506102a96102e3366004614181565b610a3d565b3480156102f457600080fd5b506102a96103033660046141ff565b610cfe565b34801561031457600080fd5b50610328610323366004614266565b610d3d565b604051908152602001610280565b34801561034257600080fd5b50610356610351366004614291565b610db0565b60405161028091906142ca565b34801561036f57600080fd5b5061019754610384906001600160a01b031681565b604051610280919061430a565b34801561039d57600080fd5b506102a96103ac36600461431e565b610edd565b3480156103bd57600080fd5b506102a96103cc366004614337565b610f19565b3480156103dd57600080fd5b506102bb610f56565b3480156103f257600080fd5b506102a9610401366004614266565b61107e565b34801561041257600080fd5b506102a9610421366004614266565b6110cc565b34801561043257600080fd5b506102a96104413660046141ff565b611192565b34801561045257600080fd5b506102a9610461366004614369565b6111cc565b34801561047257600080fd5b506102a9611203565b34801561048757600080fd5b50610328610496366004614291565b61123c565b3480156104a757600080fd5b506104bb6104b63660046140db565b6112ff565b60405162ffffff9091168152602001610280565b3480156104db57600080fd5b506103566104ea366004614291565b611314565b3480156104fb57600080fd5b506104bb61050a3660046140db565b61131f565b6102a961051d366004614418565b61132b565b34801561052e57600080fd5b506103286113e1565b34801561054357600080fd5b506102a9610552366004614266565b61148f565b34801561056357600080fd5b50610588604051806040016040528060058152602001640322e302e360dc1b81525081565b60405161028091906144eb565b3480156105a157600080fd5b5060975460ff16610274565b3480156105b957600080fd5b5061018b54610328565b3480156105cf57600080fd5b506102a96105de366004614369565b6114c7565b3480156105ef57600080fd5b506103286114f7565b34801561060457600080fd5b506102a9611566565b34801561061957600080fd5b506104bb6106283660046140db565b61159f565b34801561063957600080fd5b506102a961064836600461451e565b6115ab565b34801561065957600080fd5b506102a96115e5565b34801561066e57600080fd5b506102a961067d36600461431e565b61161c565b34801561068e57600080fd5b50610328611655565b3480156106a357600080fd5b5061018c54610328565b3480156106b957600080fd5b506103846116e2565b3480156106ce57600080fd5b50610198546106ed9060ff81169061010090046001600160a01b031682565b604051610280929190614554565b34801561070757600080fd5b506104bb6107163660046140db565b6116f1565b34801561072757600080fd5b506103846107363660046140db565b5050610162546001600160a01b031690565b34801561075457600080fd5b506102a961076336600461458e565b611706565b34801561077457600080fd5b506102a96107833660046140db565b611a43565b34801561079457600080fd5b5061058860405180604001604052806011815260200170537461726761746520537472617465677960781b81525081565b3480156107d157600080fd5b506104bb6107e03660046140db565b505061015f5462ffffff1690565b3480156107fa57600080fd5b506103286101995481565b34801561081157600080fd5b50610195546001600160a01b0316610384565b34801561083057600080fd5b50610588611a66565b34801561084557600080fd5b506104bb6108543660046140db565b611a82565b34801561086557600080fd5b5061016154610328565b34801561087b57600080fd5b506102a961088a366004614266565b611a93565b34801561089b57600080fd5b5061016054610328565b3480156108b157600080fd5b50610196546001600160a01b0316610384565b3480156108d057600080fd5b506102a96108df3660046141ff565b611b30565b60006001600160e01b03198216630491473760e41b148061091557506001600160e01b03198216632979dc6560e11b145b8061093057506001600160e01b03198216631a6153f360e01b145b8061094b57506001600160e01b0319821663b7ac895f60e01b145b8061095e57506001600160e01b03198216155b8061097957506301ffc9a760e01b6001600160e01b03198316145b92915050565b600260fb5414156109ab5760405162461bcd60e51b81526004016109a29061462e565b60405180910390fd5b600260fb55610160546109d16109c16101615490565b6109cb908361467b565b61016155565b6109dc600061016055565b6040518181527f296614b32c3d193fb9c7a7bcbec919dedece17659a90d0cc2b5b23da167e6fcd9060200160405180910390a16101625461019654610a2e916001600160a01b03918216911683611b79565b5050600160fb5550565b905090565b600260fb541415610a605760405162461bcd60e51b81526004016109a29061462e565b600260fb55610196546040516370a0823160e01b81526000916001600160a01b0316906370a0823190610a9790309060040161430a565b602060405180830381865afa158015610ab4573d6000803e3d6000fd5b505050506040513d601f19601f82011682018060405250810190610ad89190614693565b9050610ae48383611bcf565b610196546040516370a0823160e01b815260009183916001600160a01b03909116906370a0823190610b1a90309060040161430a565b602060405180830381865afa158015610b37573d6000803e3d6000fd5b505050506040513d601f19601f82011682018060405250810190610b5b9190614693565b610b6591906146ac565b90506101995481610b76919061467b565b90507f7e3eaf1040dd23019433d0b1d9507d1f28cdfb716f87723fa836d747b7444cb381604051610ba991815260200190565b60405180910390a180610bbd575050610cf3565b610196546040516370a0823160e01b81526001600160a01b03909116906370a0823190610bee90309060040161430a565b602060405180830381865afa158015610c0b573d6000803e3d6000fd5b505050506040513d601f19601f82011682018060405250810190610c2f9190614693565b9150610c3c818787611df7565b610196546040516370a0823160e01b81526000916001600160a01b0316906370a0823190610c6e90309060040161430a565b602060405180830381865afa158015610c8b573d6000803e3d6000fd5b505050506040513d601f19601f82011682018060405250810190610caf9190614693565b610cb990846146ac565b9050610cc581836146ac565b610199556040518281526000903090600080516020614de08339815191529060200160405180910390a35050505b5050600160fb555050565b33610d076116e2565b6001600160a01b031614610d2d5760405162461bcd60e51b81526004016109a2906146c3565b610d38838383612230565b505050565b610195546040516370a0823160e01b81526000916001600160a01b0316906370a0823190610d6f90859060040161430a565b602060405180830381865afa158015610d8c573d6000803e3d6000fd5b505050506040513d601f19601f820116820180604052508101906109799190614693565b60606000610dbe84846122cd565b9050600081516001610dd0919061467b565b9050806001600160401b03811115610dea57610dea6143d2565b604051908082528060200260200182016040528015610e2357816020015b610e1061404f565b815260200190600190039081610e085790505b50925060005b610e346001836146ac565b811015610e8357828181518110610e4d57610e4d6146f8565b6020026020010151848281518110610e6757610e676146f8565b602002602001018190525080610e7c9061470e565b9050610e29565b506040805180820190915273b97ef9ef8734c71904d8002f8b6bc66dd9c48a6e815261019954602082015283610eba6001846146ac565b81518110610eca57610eca6146f8565b6020026020010181905250505092915050565b33610ee66116e2565b6001600160a01b031614610f0c5760405162461bcd60e51b81526004016109a2906146c3565b610f168161018c55565b50565b33610f226116e2565b6001600160a01b031614610f485760405162461bcd60e51b81526004016109a2906146c3565b610f528282612550565b5050565b60606000610f626125d1565b9050600081516001610f74919061467b565b9050806001600160401b03811115610f8e57610f8e6143d2565b604051908082528060200260200182016040528015610fc757816020015b610fb461404f565b815260200190600190039081610fac5790505b50925060005b610fd86001836146ac565b81101561102757828181518110610ff157610ff16146f8565b602002602001015184828151811061100b5761100b6146f8565b6020026020010181905250806110209061470e565b9050610fcd565b506040805180820190915273b97ef9ef8734c71904d8002f8b6bc66dd9c48a6e81526101995460208201528361105e6001846146ac565b8151811061106e5761106e6146f8565b6020026020010181905250505090565b336110876116e2565b6001600160a01b0316146110ad5760405162461bcd60e51b81526004016109a2906146c3565b61019580546001600160a01b0319166001600160a01b03831617905550565b306001600160a01b037f00000000000000000000000000000000000000000000000000000000000000001614156111155760405162461bcd60e51b81526004016109a290614729565b7f00000000000000000000000000000000000000000000000000000000000000006001600160a01b031661114761265c565b6001600160a01b03161461116d5760405162461bcd60e51b81526004016109a290614763565b61117681612678565b60408051600080825260208201909252610f16918391906126a7565b3361119b6116e2565b6001600160a01b0316146111c15760405162461bcd60e51b81526004016109a2906146c3565b610d38838383612812565b60975460ff16156111ef5760405162461bcd60e51b81526004016109a29061479d565b6111fc858585858561288d565b5050505050565b3361120c6116e2565b6001600160a01b0316146112325760405162461bcd60e51b81526004016109a2906146c3565b61123a612ba9565b565b600080600061124b8585610db0565b805190915060005b818110156112985782818151811061126d5761126d6146f8565b60200260200101516020015184611284919061467b565b9350806112908161470e565b915050611253565b5060006112a58787611314565b805190915060005b818110156112f2578281815181106112c7576112c76146f8565b602002602001015160200151866112de91906146ac565b9550806112ea8161470e565b9150506112ad565b5093979650505050505050565b505061015f546301000000900462ffffff1690565b6060805b9392505050565b600061131883836116f1565b306001600160a01b037f00000000000000000000000000000000000000000000000000000000000000001614156113745760405162461bcd60e51b81526004016109a290614729565b7f00000000000000000000000000000000000000000000000000000000000000006001600160a01b03166113a661265c565b6001600160a01b0316146113cc5760405162461bcd60e51b81526004016109a290614763565b6113d582612678565b610f52828260016126a7565b6000306001600160a01b037f0000000000000000000000000000000000000000000000000000000000000000161461147c5760405162461bcd60e51b815260206004820152603860248201527f555550535570677261646561626c653a206d757374206e6f742062652063616c6044820152771b1959081d1a1c9bdd59da0819195b1959d85d1958d85b1b60421b60648201526084016109a2565b50600080516020614e2083398151915290565b336114986116e2565b6001600160a01b0316146114be5760405162461bcd60e51b81526004016109a2906146c3565b610f1681612c36565b60975460ff16156114ea5760405162461bcd60e51b81526004016109a29061479d565b6111fc8585858585612c59565b61019554604080516318160ddd60e01b815290516000926001600160a01b0316916318160ddd9160048083019260209291908290030181865afa158015611542573d6000803e3d6000fd5b505050506040513d601f19601f82011682018060405250810190610a389190614693565b3361156f6116e2565b6001600160a01b0316146115955760405162461bcd60e51b81526004016109a2906146c3565b61123a6000612f0c565b600061131883836112ff565b336115b46116e2565b6001600160a01b0316146115da5760405162461bcd60e51b81526004016109a2906146c3565b610d38838383612f5e565b336115ee6116e2565b6001600160a01b0316146116145760405162461bcd60e51b81526004016109a2906146c3565b61123a612fe3565b336116256116e2565b6001600160a01b03161461164b5760405162461bcd60e51b81526004016109a2906146c3565b610f168161018b55565b60008061166061303b565b600281015460078201546040516393f1a40b60e01b815260048101919091523060248201529192506001600160a01b0316906393f1a40b906044016040805180830381865afa1580156116b7573d6000803e3d6000fd5b505050506040513d601f19601f820116820180604052508101906116db91906147c7565b5192915050565b60c9546001600160a01b031690565b505061015f54600160301b900462ffffff1690565b600260006117138261305f565b9050801561172b576000805461ff0019166101001790555b611734886130f3565b600061173e61303b565b80546001600160a01b03808b166001600160a01b03199283161783556001830180548b831690841681179091556002840180548b8416908516179055600480850180548b8516908616179055600585018054938a16939094169290921790925560408051637e062a3560e11b81529051939450919263fc0c546a9280830192602092918290030181865afa1580156117da573d6000803e3d6000fd5b505050506040513d601f19601f820116820180604052508101906117fe9190614815565b8160030160006101000a8154816001600160a01b0302191690836001600160a01b03160217905550866001600160a01b0316633e0dc34e6040518163ffffffff1660e01b8152600401602060405180830381865afa158015611864573d6000803e3d6000fd5b505050506040513d601f19601f820116820180604052508101906118889190614693565b60068201556040805160808101825260008082526020820181905291810182905260608101919091526000876001600160a01b031663081e3eda6040518163ffffffff1660e01b8152600401602060405180830381865afa1580156118f1573d6000803e3d6000fd5b505050506040513d601f19601f820116820180604052508101906119159190614693565b90506000805b828110156119ce57604051631526fe2760e01b8152600481018290526001600160a01b038b1690631526fe2790602401608060405180830381865afa158015611968573d6000803e3d6000fd5b505050506040513d601f19601f8201168201806040525081019061198c9190614832565b9350886001600160a01b031684600001516001600160a01b031614156119bc5760078501819055600191506119ce565b806119c68161470e565b91505061191b565b50806119ed57604051636509186760e01b815260040160405180910390fd5b505050508015611a39576000805461ff001916905560405160ff831681527f7f26b83ff96e1f2b6a682f133852f6798a09c465da95921460cefb38474024989060200160405180910390a15b5050505050505050565b60975460ff1615610f525760405162461bcd60e51b81526004016109a29061479d565b604051806060016040528060318152602001614daf6031913981565b600061131861015f5462ffffff1690565b33611a9c6116e2565b6001600160a01b031614611ac25760405162461bcd60e51b81526004016109a2906146c3565b6001600160a01b038116611b275760405162461bcd60e51b815260206004820152602660248201527f4f776e61626c653a206e6577206f776e657220697320746865207a65726f206160448201526564647265737360d01b60648201526084016109a2565b610f1681612f0c565b33611b396116e2565b6001600160a01b031614611b5f5760405162461bcd60e51b81526004016109a2906146c3565b610d3883838361312b565b6001600160a01b03163b151590565b610d388363a9059cbb60e01b8484604051602401611b989291906148a0565b60408051601f198184030181529190526020810180516001600160e01b03166001600160e01b0319909316929092179091526131ba565b6000611bd961303b565b60028101546007820154604051631c57762b60e31b81526004810191909152600060248201529192506001600160a01b03169063e2bbb15890604401600060405180830381600087803b158015611c2f57600080fd5b505af1158015611c43573d6000803e3d6000fd5b506000925060039150611c539050565b604051908082528060200260200182016040528015611c7c578160200160208202803683370190505b50600583015481519192506001600160a01b0316908290600090611ca257611ca26146f8565b60200260200101906001600160a01b031690816001600160a01b03168152505073b31f66aa3c1e785363f0875a1b74e27b85fd66c781600181518110611cea57611cea6146f8565b6001600160a01b03928316602091820292909201015261019654825191169082906002908110611d1c57611d1c6146f8565b6001600160a01b03909216602092830291909101909101526040805180820190915261019880546111fc929190829060ff168015611d5c57611d5c61453e565b8015611d6a57611d6a61453e565b815290546001600160a01b03610100909104811660209092019190915260058501546040516370a0823160e01b81529116906370a0823190611db090309060040161430a565b602060405180830381865afa158015611dcd573d6000803e3d6000fd5b505050506040513d601f19601f82011682018060405250810190611df19190614693565b8361328c565b6000611e0161303b565b6003810154610196549192506001600160a01b03918216911614611f4f57604080516003808252608082019092526000916020820160608036833750506101965482519293506001600160a01b031691839150600090611e6357611e636146f8565b60200260200101906001600160a01b031690816001600160a01b03168152505073b31f66aa3c1e785363f0875a1b74e27b85fd66c781600181518110611eab57611eab6146f8565b6001600160a01b0392831660209182029290920101526003830154825191169082906002908110611ede57611ede6146f8565b6001600160a01b0390921660209283029190910190910152604080518082019091526101988054611f4b929190829060ff168015611f1e57611f1e61453e565b8015611f2c57611f2c61453e565b8152905461010090046001600160a01b0316602090910152868361328c565b9450505b6004808201546040516370a0823160e01b81526000926001600160a01b03909216916370a0823191611f839130910161430a565b602060405180830381865afa158015611fa0573d6000803e3d6000fd5b505050506040513d601f19601f82011682018060405250810190611fc49190614693565b6003830154835460405163095ea7b360e01b81529293506001600160a01b039182169263095ea7b392611ffd92169089906004016148a0565b6020604051808303816000875af115801561201c573d6000803e3d6000fd5b505050506040513d601f19601f8201168201806040525081019061204091906148b9565b50815460068301546040516321ec87bf60e21b81526004810191909152602481018790523060448201526001600160a01b03909116906387b21efc90606401600060405180830381600087803b15801561209957600080fd5b505af11580156120ad573d6000803e3d6000fd5b5050506004808401546040516370a0823160e01b8152600093506001600160a01b03909116916370a08231916120e59130910161430a565b602060405180830381865afa158015612102573d6000803e3d6000fd5b505050506040513d601f19601f820116820180604052508101906121269190614693565b9050600061213483836146ac565b600485810154600287015460405163095ea7b360e01b81529394506001600160a01b039182169363095ea7b39361217193909216918691016148a0565b6020604051808303816000875af1158015612190573d6000803e3d6000fd5b505050506040513d601f19601f820116820180604052508101906121b491906148b9565b5060028401546007850154604051631c57762b60e31b81526001600160a01b039092169163e2bbb158916121f5918590600401918252602082015260400190565b600060405180830381600087803b15801561220f57600080fd5b505af1158015612223573d6000803e3d6000fd5b5050505050505050505050565b8261223e6103e860646148d6565b8162ffffff1610612262576040516303689ded60e51b815260040160405180910390fd5b61015f805465ffffff0000001916630100000062ffffff878116820292909217928390556040517f562ffa77d0627a8704e5d9641e53b90a135392b6fb458b619c3cf64555a0adea936122bf939290049091169086908690614a03565b60405180910390a150505050565b606060006122d961303b565b604080516001808252818301909252919250816020015b6122f861404f565b8152602001906001900390816122f05750506040805180820182526004848101546001600160a01b039081168352600186015484516318160ddd60e01b81529451959750929460208087019594909216936318160ddd938181019392918290030181865afa15801561236e573d6000803e3d6000fd5b505050506040513d601f19601f820116820180604052508101906123929190614693565b8360010160009054906101000a90046001600160a01b03166001600160a01b03166315770f926040518163ffffffff1660e01b8152600401602060405180830381865afa1580156123e7573d6000803e3d6000fd5b505050506040513d601f19601f8201168201806040525081019061240b9190614693565b612413611655565b61241d91906148d6565b6124279190614a22565b8152508260008151811061243d5761243d6146f8565b60209081029190910101526003810154610196546001600160a01b039081169116146125495761246f6006600a614b28565b610197546003830154604051635ae6916360e01b81526001600160a01b03918216600482015287151560248201528615156044820152911690635ae6916390606401602060405180830381865afa1580156124ce573d6000803e3d6000fd5b505050506040513d601f19601f820116820180604052508101906124f29190614693565b83600081518110612505576125056146f8565b60200260200101516020015161251b91906148d6565b6125259190614a22565b82600081518110612538576125386146f8565b602002602001015160200181815250505b5092915050565b604051806040016040528083600081111561256d5761256d61453e565b81526001600160a01b03831660209091015280516101988054909190829060ff191660018380156125a0576125a061453e565b02179055506020919091015181546001600160a01b0390911661010002610100600160a81b03199091161790555050565b606060006125dd61303b565b604080516001808252818301909252919250816020015b6125fc61404f565b8152602001906001900390816125f45750506040805180820190915260048301546001600160a01b0316815290925060208101612637611655565b8152508260008151811061264d5761264d6146f8565b60200260200101819052505090565b600080516020614e20833981519152546001600160a01b031690565b336126816116e2565b6001600160a01b031614610f165760405162461bcd60e51b81526004016109a2906146c3565b7f4910fdfa16fed3260ed0e7147f7cc6da11a60208b5b9406d12a635614ffd91435460ff16156126da57610d38836133f9565b826001600160a01b03166352d1902d6040518163ffffffff1660e01b8152600401602060405180830381865afa925050508015612734575060408051601f3d908101601f1916820190925261273191810190614693565b60015b6127975760405162461bcd60e51b815260206004820152602e60248201527f45524331393637557067726164653a206e657720696d706c656d656e7461746960448201526d6f6e206973206e6f74205555505360901b60648201526084016109a2565b600080516020614e2083398151915281146128065760405162461bcd60e51b815260206004820152602960248201527f45524331393637557067726164653a20756e737570706f727465642070726f786044820152681a58589b195555525160ba1b60648201526084016109a2565b50610d38838383613493565b826128206103e860646148d6565b8162ffffff1610612844576040516303689ded60e51b815260040160405180910390fd5b61015f805462ffffff191662ffffff86169081179091556040517f7e81a23ec68969b22ae39faba6faa8633338046c205f9d04a30c8a0df04ca3b9916122bf9186908690614a03565b600260fb5414156128b05760405162461bcd60e51b81526004016109a29061462e565b600260fb55846128d3576040516347aedd1b60e11b815260040160405180910390fd5b6001600160a01b0383166128fa5760405163115fd31d60e31b815260040160405180910390fd5b60006129086001600061123c565b90506000806129156114f7565b9050801561294357600061292887610d3d565b90508161293582866148d6565b61293f9190614a22565b9250505b61294d88846134be565b61295788836134eb565b610196546040516370a0823160e01b81526000916001600160a01b0316906370a082319061298990309060040161430a565b602060405180830381865afa1580156129a6573d6000803e3d6000fd5b505050506040513d601f19601f820116820180604052508101906129ca9190614693565b90506129e533610196546001600160a01b031690308c613518565b6129f0898787611df7565b610196546040516370a0823160e01b815260009183916001600160a01b03909116906370a0823190612a2690309060040161430a565b602060405180830381865afa158015612a43573d6000803e3d6000fd5b505050506040513d601f19601f82011682018060405250810190612a679190614693565b612a7191906146ac565b9050806101996000828254612a86919061467b565b9091555060009050612a9960018261123c565b90506000612aa787836146ac565b905080612ac757604051632f1b0c0f60e01b815260040160405180910390fd5b8a811015612ae85760405163c327661d60e01b815260040160405180910390fd5b610195546001600160a01b03166340c10f198b612b068a858a613550565b6040518363ffffffff1660e01b8152600401612b239291906148a0565b600060405180830381600087803b158015612b3d57600080fd5b505af1158015612b51573d6000803e3d6000fd5b50505050896001600160a01b0316612b663390565b6001600160a01b0316600080516020614de08339815191528e604051612b8e91815260200190565b60405180910390a35050600160fb5550505050505050505050565b60975460ff16612bf25760405162461bcd60e51b815260206004820152601460248201527314185d5cd8589b194e881b9bdd081c185d5cd95960621b60448201526064016109a2565b6097805460ff191690557f5db9ee0a495bf2e6ff9c91a7834c1ba4fdd244a5e8aa4e537bd38aeae4b073aa335b604051612c2c919061430a565b60405180910390a1565b61019780546001600160a01b0319166001600160a01b0392909216919091179055565b600260fb541415612c7c5760405162461bcd60e51b81526004016109a29061462e565b600260fb5584612c9f57604051636d8bee0b60e11b815260040160405180910390fd5b6001600160a01b038316612cc6576040516314f3686160e11b815260040160405180910390fd5b6000612cd386848461357a565b9050612ce08684846135f5565b600081612cee88868661357a565b612cf891906146ac565b9050600061019560009054906101000a90046001600160a01b03166001600160a01b03166318160ddd6040518163ffffffff1660e01b8152600401602060405180830381865afa158015612d50573d6000803e3d6000fd5b505050506040513d601f19601f82011682018060405250810190612d749190614693565b8861019954612d8391906148d6565b612d8d9190614a22565b9050612d99818361467b565b9150806101996000828254612dae91906146ac565b909155506000905060646103e8612dca61015f5462ffffff1690565b612dd99062ffffff16866148d6565b612de39190614a22565b612ded9190614a22565b905087612dfa82856146ac565b1015612e195760405163c327661d60e01b815260040160405180910390fd5b610195546001600160a01b03166379cc6790338b6040518363ffffffff1660e01b8152600401612e4a9291906148a0565b600060405180830381600087803b158015612e6457600080fd5b505af1158015612e78573d6000803e3d6000fd5b50505050612e9a81612e8a6101605490565b612e94919061467b565b61016055565b612ebc87612ea883866146ac565b610196546001600160a01b03169190611b79565b6040518981526001600160a01b0388169033907f2717ead6b9200dd235aad468c9809ea400fe33ac69b5bfaa6d3e90fc922b63989060200160405180910390a35050600160fb5550505050505050565b60c980546001600160a01b038381166001600160a01b0319831681179093556040519116919082907f8be0079c531659141344cd1fd0a4f28419497f9722a3daafe3b4186f6b6457e090600090a35050565b6001600160a01b038316612f855760405163b6802b7f60e01b815260040160405180910390fd5b61016280546001600160a01b0319166001600160a01b0385169081179091556040517fa3fe39fe39850ddb39697065123e293302f3e8948984fde991b5a291ed1ad05b91612fd69185908590614b37565b60405180910390a1505050565b60975460ff16156130065760405162461bcd60e51b81526004016109a29061479d565b6097805460ff191660011790557f62e78cea01bee320cd4e420270b5ea74000d11b0c9f74754ebdbfc544b05a258612c1f3390565b7f071adf0c31586d6b8e30500aaef8199ce8b6f5b9ab08c1bafcf48809f1191b7490565b60008054610100900460ff16156130ad578160ff166001148015613089575061308730611b6a565b155b6130a55760405162461bcd60e51b81526004016109a290614b5c565b506000919050565b60005460ff8084169116106130d45760405162461bcd60e51b81526004016109a290614b5c565b506000805460ff191660ff92909216919091179055600190565b919050565b600054610100900460ff1661311a5760405162461bcd60e51b81526004016109a290614baa565b613122613a05565b610f1681613a34565b826131396103e860646148d6565b8162ffffff161061315d576040516303689ded60e51b815260040160405180910390fd5b61015f805462ffffff60301b1916600160301b62ffffff878116820292909217928390556040517f05f9aef0771b6541329b82ea24407357fc3ff0f457598588055f84a807dbdb8f936122bf939290049091169086908690614a03565b600061320f826040518060400160405280602081526020017f5361666545524332303a206c6f772d6c6576656c2063616c6c206661696c6564815250856001600160a01b0316613a6c9092919063ffffffff16565b805190915015610d38578080602001905181019061322d91906148b9565b610d385760405162461bcd60e51b815260206004820152602a60248201527f5361666545524332303a204552433230206f7065726174696f6e20646964206e6044820152691bdd081cdd58d8d9595960b21b60648201526084016109a2565b6000808451801561329f5761329f61453e565b14156133e0576020840151825183906000906132bd576132bd6146f8565b60200260200101516001600160a01b031663095ea7b382866040518363ffffffff1660e01b81526004016132f29291906148a0565b6020604051808303816000875af1158015613311573d6000803e3d6000fd5b505050506040513d601f19601f8201168201806040525081019061333591906148b9565b506040516338ed173960e01b81526001600160a01b038216906338ed17399061336b908790600090889030904290600401614bf5565b6000604051808303816000875af115801561338a573d6000803e3d6000fd5b505050506040513d6000823e601f3d908101601f191682016040526133b29190810190614c66565b600184516133c091906146ac565b815181106133d0576133d06146f8565b6020026020010151915050611318565b60405163e004e07560e01b815260040160405180910390fd5b61340281611b6a565b6134645760405162461bcd60e51b815260206004820152602d60248201527f455243313936373a206e657720696d706c656d656e746174696f6e206973206e60448201526c1bdd08184818dbdb9d1c9858dd609a1b60648201526084016109a2565b600080516020614e2083398151915280546001600160a01b0319166001600160a01b0392909216919091179055565b61349c83613a7b565b6000825111806134a95750805b15610d38576134b88383613abb565b50505050565b61018b546134cc828461467b565b1115610f525760405163b761799960e01b815260040160405180910390fd5b61018c546134f9828461467b565b1115610f525760405163973cc40960e01b815260040160405180910390fd5b6040516001600160a01b03808516602483015283166044820152606481018290526134b89085906323b872dd60e01b90608401611b98565b60008161355e575081611318565b8361356983856148d6565b6135739190614a22565b9050611318565b610196546040516370a0823160e01b81526000916001600160a01b0316906370a08231906135ac90309060040161430a565b602060405180830381865afa1580156135c9573d6000803e3d6000fd5b505050506040513d601f19601f820116820180604052508101906135ed9190614693565b949350505050565b60006135ff61303b565b9050600061360b6114f7565b85613614611655565b61361e91906148d6565b6136289190614a22565b90508160010160009054906101000a90046001600160a01b03166001600160a01b0316631e8e51da6040518163ffffffff1660e01b8152600401602060405180830381865afa15801561367f573d6000803e3d6000fd5b505050506040513d601f19601f820116820180604052508101906136a39190614693565b8111156136c35760405163195d8ad160e11b815260040160405180910390fd5b60038201546040516370a0823160e01b81526000916001600160a01b0316906370a08231906136f690309060040161430a565b602060405180830381865afa158015613713573d6000803e3d6000fd5b505050506040513d601f19601f820116820180604052508101906137379190614693565b60028401546007850154604051630441a3e760e41b81526004810191909152602481018590529192506001600160a01b03169063441a3e7090604401600060405180830381600087803b15801561378d57600080fd5b505af11580156137a1573d6000803e3d6000fd5b50508454600686015460405163c4de93a560e01b815261ffff9091166004820152602481018690523060448201526001600160a01b03909116925063c4de93a591506064016020604051808303816000875af1158015613805573d6000803e3d6000fd5b505050506040513d601f19601f820116820180604052508101906138299190614693565b5060038301546040516370a0823160e01b81526000916001600160a01b0316906370a082319061385d90309060040161430a565b602060405180830381865afa15801561387a573d6000803e3d6000fd5b505050506040513d601f19601f8201168201806040525081019061389e9190614693565b6003850154610196549192506001600160a01b039182169116146139fc5760006138c883836146ac565b604080516003808252608082019092529192506000919060208201606080368337505050600387015481519192506001600160a01b0316908290600090613911576139116146f8565b60200260200101906001600160a01b031690816001600160a01b03168152505073b31f66aa3c1e785363f0875a1b74e27b85fd66c781600181518110613959576139596146f8565b6001600160a01b0392831660209182029290920101526101965482519116908290600290811061398b5761398b6146f8565b6001600160a01b03909216602092830291909101909101526040805180820190915261019880546139f8929190829060ff1680156139cb576139cb61453e565b80156139d9576139d961453e565b8152905461010090046001600160a01b0316602090910152838361328c565b5050505b50505050505050565b600054610100900460ff16613a2c5760405162461bcd60e51b81526004016109a290614baa565b61123a613bad565b600054610100900460ff16613a5b5760405162461bcd60e51b81526004016109a290614baa565b613a63613be0565b610f1681613c0f565b60606135ed8484600085613d97565b613a84816133f9565b6040516001600160a01b038216907fbc7cd75a20ee27fd9adebab32041f755214dbc6bffa90cc0225b39da2e5c2d3b90600090a250565b6060613ac683611b6a565b613b215760405162461bcd60e51b815260206004820152602660248201527f416464726573733a2064656c65676174652063616c6c20746f206e6f6e2d636f6044820152651b9d1c9858dd60d21b60648201526084016109a2565b600080846001600160a01b031684604051613b3c9190614d0b565b600060405180830381855af49150503d8060008114613b77576040519150601f19603f3d011682016040523d82523d6000602084013e613b7c565b606091505b5091509150613ba48282604051806060016040528060278152602001614e4060279139613ec6565b95945050505050565b600054610100900460ff16613bd45760405162461bcd60e51b81526004016109a290614baa565b6097805460ff19169055565b600054610100900460ff16613c075760405162461bcd60e51b81526004016109a290614baa565b61123a613eff565b600054610100900460ff16613c365760405162461bcd60e51b81526004016109a290614baa565b613c3e613f2f565b613c46613f56565b613c4e613f2f565b613ccd613c616060830160408401614d27565b613c6e6060840184614d42565b613c7e60a0860160808701614d27565b613c8b60a0870187614d42565b613c9b60e0890160c08a01614d27565b613ca860e08a018a614d42565b613cba6101208c016101008d01614266565b613cc86101208d018d614d42565b613f85565b613ce1816101400135826101600135613fe6565b613cee6020820182614266565b61019580546001600160a01b0319166001600160a01b0392909216919091179055613d1f6040820160208301614266565b61019680546001600160a01b0319166001600160a01b0392909216919091179055613d5a613d556101a083016101808401614266565b612c36565b610f16613d6f6101c083016101a08401614d8b565b60ff168015613d8057613d8061453e565b613d926101e084016101c08501614266565b612550565b606082471015613df85760405162461bcd60e51b815260206004820152602660248201527f416464726573733a20696e73756666696369656e742062616c616e636520666f6044820152651c8818d85b1b60d21b60648201526084016109a2565b613e0185611b6a565b613e4d5760405162461bcd60e51b815260206004820152601d60248201527f416464726573733a2063616c6c20746f206e6f6e2d636f6e747261637400000060448201526064016109a2565b600080866001600160a01b03168587604051613e699190614d0b565b60006040518083038185875af1925050503d8060008114613ea6576040519150601f19603f3d011682016040523d82523d6000602084013e613eab565b606091505b5091509150613ebb828286613ec6565b979650505050505050565b60608315613ed5575081611318565b825115613ee55782518084602001fd5b8160405162461bcd60e51b81526004016109a291906144eb565b600054610100900460ff16613f265760405162461bcd60e51b81526004016109a290614baa565b61123a33612f0c565b600054610100900460ff1661123a5760405162461bcd60e51b81526004016109a290614baa565b600054610100900460ff16613f7d5760405162461bcd60e51b81526004016109a290614baa565b61123a614021565b600054610100900460ff16613fac5760405162461bcd60e51b81526004016109a290614baa565b613fb78c8c8c612230565b613fc2898989612812565b613fcd86868661312b565b613fd8838383612f5e565b505050505050505050505050565b600054610100900460ff1661400d5760405162461bcd60e51b81526004016109a290614baa565b6140178261018b55565b610f528161018c55565b600054610100900460ff166140485760405162461bcd60e51b81526004016109a290614baa565b600160fb55565b604080518082019091526000808252602082015290565b60006020828403121561407857600080fd5b81356001600160e01b03198116811461131857600080fd5b60008083601f8401126140a257600080fd5b5081356001600160401b038111156140b957600080fd5b6020830191508360208260051b85010111156140d457600080fd5b9250929050565b600080602083850312156140ee57600080fd5b82356001600160401b0381111561410457600080fd5b61411085828601614090565b90969095509350505050565b80516001600160a01b03168252602090810151910152565b602080825282518282018190526000919060409081850190868401855b828110156141745761416484835161411c565b9284019290850190600101614151565b5091979650505050505050565b6000806000806040858703121561419757600080fd5b84356001600160401b03808211156141ae57600080fd5b6141ba88838901614090565b909650945060208701359150808211156141d357600080fd5b506141e087828801614090565b95989497509550505050565b803562ffffff811681146130ee57600080fd5b60008060006040848603121561421457600080fd5b61421d846141ec565b925060208401356001600160401b0381111561423857600080fd5b61424486828701614090565b9497909650939450505050565b6001600160a01b0381168114610f1657600080fd5b60006020828403121561427857600080fd5b813561131881614251565b8015158114610f1657600080fd5b600080604083850312156142a457600080fd5b82356142af81614283565b915060208301356142bf81614283565b809150509250929050565b602080825282518282018190526000919060409081850190868401855b82811015614174576142fa84835161411c565b92840192908501906001016142e7565b6001600160a01b0391909116815260200190565b60006020828403121561433057600080fd5b5035919050565b6000806040838503121561434a57600080fd5b82356001811061435957600080fd5b915060208301356142bf81614251565b60008060008060006080868803121561438157600080fd5b8535945060208601359350604086013561439a81614251565b925060608601356001600160401b038111156143b557600080fd5b6143c188828901614090565b969995985093965092949392505050565b634e487b7160e01b600052604160045260246000fd5b604051601f8201601f191681016001600160401b0381118282101715614410576144106143d2565b604052919050565b6000806040838503121561442b57600080fd5b823561443681614251565b91506020838101356001600160401b038082111561445357600080fd5b818601915086601f83011261446757600080fd5b813581811115614479576144796143d2565b61448b601f8201601f191685016143e8565b915080825287848285010111156144a157600080fd5b80848401858401376000848284010152508093505050509250929050565b60005b838110156144da5781810151838201526020016144c2565b838111156134b85750506000910152565b602081526000825180602084015261450a8160408501602087016144bf565b601f01601f19169190910160400192915050565b60008060006040848603121561453357600080fd5b833561421d81614251565b634e487b7160e01b600052602160045260246000fd5b604081016001841061457657634e487b7160e01b600052602160045260246000fd5b9281526001600160a01b039190911660209091015290565b60008060008060008060c087890312156145a757600080fd5b86356001600160401b038111156145bd57600080fd5b8701610200818a0312156145d057600080fd5b955060208701356145e081614251565b945060408701356145f081614251565b9350606087013561460081614251565b9250608087013561461081614251565b915060a087013561462081614251565b809150509295509295509295565b6020808252601f908201527f5265656e7472616e637947756172643a207265656e7472616e742063616c6c00604082015260600190565b634e487b7160e01b600052601160045260246000fd5b6000821982111561468e5761468e614665565b500190565b6000602082840312156146a557600080fd5b5051919050565b6000828210156146be576146be614665565b500390565b6020808252818101527f4f776e61626c653a2063616c6c6572206973206e6f7420746865206f776e6572604082015260600190565b634e487b7160e01b600052603260045260246000fd5b600060001982141561472257614722614665565b5060010190565b6020808252602c90820152600080516020614e0083398151915260408201526b19195b1959d85d1958d85b1b60a21b606082015260800190565b6020808252602c90820152600080516020614e0083398151915260408201526b6163746976652070726f787960a01b606082015260800190565b60208082526010908201526f14185d5cd8589b194e881c185d5cd95960821b604082015260600190565b6000604082840312156147d957600080fd5b604080519081016001600160401b03811182821017156147fb576147fb6143d2565b604052825181526020928301519281019290925250919050565b60006020828403121561482757600080fd5b815161131881614251565b60006080828403121561484457600080fd5b604051608081016001600160401b0381118282101715614866576148666143d2565b604052825161487481614251565b808252506020830151602082015260408301516040820152606083015160608201528091505092915050565b6001600160a01b03929092168252602082015260400190565b6000602082840312156148cb57600080fd5b815161131881614283565b60008160001904831182151516156148f0576148f0614665565b500290565b6000808335601e1984360301811261490c57600080fd5b83016020810192503590506001600160401b0381111561492b57600080fd5b8036038313156140d457600080fd5b81835281816020850137506000828201602090810191909152601f909101601f19169091010190565b81835260006020808501808196508560051b81019150846000805b888110156149f5578385038a528235603e1989360301811261499e578283fd5b880160406149ac82806148f5565b8289526149bc838a01828461493a565b925050506149cc888301836148f5565b9250878203898901526149e082848361493a565b9c89019c97505050928601925060010161497e565b509298975050505050505050565b62ffffff84168152604060208201526000613ba4604083018486614963565b600082614a3f57634e487b7160e01b600052601260045260246000fd5b500490565b600181815b80851115614a7f578160001904821115614a6557614a65614665565b80851615614a7257918102915b93841c9390800290614a49565b509250929050565b600082614a9657506001610979565b81614aa357506000610979565b8160018114614ab95760028114614ac357614adf565b6001915050610979565b60ff841115614ad457614ad4614665565b50506001821b610979565b5060208310610133831016604e8410600b8410161715614b02575081810a610979565b614b0c8383614a44565b8060001904821115614b2057614b20614665565b029392505050565b600061131860ff841683614a87565b6001600160a01b0384168152604060208201819052600090613ba49083018486614963565b6020808252602e908201527f496e697469616c697a61626c653a20636f6e747261637420697320616c72656160408201526d191e481a5b9a5d1a585b1a5e995960921b606082015260800190565b6020808252602b908201527f496e697469616c697a61626c653a20636f6e7472616374206973206e6f74206960408201526a6e697469616c697a696e6760a81b606082015260800190565b600060a082018783526020878185015260a0604085015281875180845260c086019150828901935060005b81811015614c455784516001600160a01b031683529383019391830191600101614c20565b50506001600160a01b03969096166060850152505050608001529392505050565b60006020808385031215614c7957600080fd5b82516001600160401b0380821115614c9057600080fd5b818501915085601f830112614ca457600080fd5b815181811115614cb657614cb66143d2565b8060051b9150614cc78483016143e8565b8181529183018401918481019088841115614ce157600080fd5b938501935b83851015614cff57845182529385019390850190614ce6565b98975050505050505050565b60008251614d1d8184602087016144bf565b9190910192915050565b600060208284031215614d3957600080fd5b611318826141ec565b6000808335601e19843603018112614d5957600080fd5b8301803591506001600160401b03821115614d7357600080fd5b6020019150600581901b36038213156140d457600080fd5b600060208284031215614d9d57600080fd5b813560ff8116811461131857600080fdfe62726f6b6b722e73746172676174655f73747261746567792e73746172676174655f73747261746567795f76322e302e305548c837ab068cf56a2c2479df0882a4922fd203edb7517321831d95078c5f6246756e6374696f6e206d7573742062652063616c6c6564207468726f75676820360894a13ba1a3210667c828492db98dca3e2076cc3735a920a3ca505d382bbc416464726573733a206c6f772d6c6576656c2064656c65676174652063616c6c206661696c6564a2646970667358221220e1d5603d1665961db6f287b76b18f0d268ee1973d5e24c8b72701c58f8e7107364736f6c634300080a0033",
  "linkReferences": {},
  "deployedLinkReferences": {}
}