{
  "_format": "hh-sol-artifact-1",
  "contractName": "GmxOracle",
  "sourceName": "contracts/common/oracles/GmxOracle.sol",
  "abi": [
    {
      "inputs": [],
      "stateMutability": "nonpayable",
      "type": "constructor"
    },
    {
      "inputs": [],
      "name": "InvalidAssetPrice",
      "type": "error"
    },
    {
      "anonymous": false,
      "inputs": [
        {
          "indexed": false,
          "internalType": "address",
          "name": "previousAdmin",
          "type": "address"
        },
        {
          "indexed": false,
          "internalType": "address",
          "name": "newAdmin",
          "type": "address"
        }
      ],
      "name": "AdminChanged",
      "type": "event"
    },
    {
      "anonymous": false,
      "inputs": [
        {
          "indexed": true,
          "internalType": "address",
          "name": "beacon",
          "type": "address"
        }
      ],
      "name": "BeaconUpgraded",
      "type": "event"
    },
    {
      "anonymous": false,
      "inputs": [
        {
          "indexed": false,
          "internalType": "uint8",
          "name": "version",
          "type": "uint8"
        }
      ],
      "name": "Initialized",
      "type": "event"
    },
    {
      "anonymous": false,
      "inputs": [
        {
          "indexed": true,
          "internalType": "address",
          "name": "previousOwner",
          "type": "address"
        },
        {
          "indexed": true,
          "internalType": "address",
          "name": "newOwner",
          "type": "address"
        }
      ],
      "name": "OwnershipTransferred",
      "type": "event"
    },
    {
      "anonymous": false,
      "inputs": [
        {
          "indexed": true,
          "internalType": "address",
          "name": "implementation",
          "type": "address"
        }
      ],
      "name": "Upgraded",
      "type": "event"
    },
    {
      "inputs": [
        {
          "internalType": "contract IERC20Upgradeable",
          "name": "token",
          "type": "address"
        },
        {
          "internalType": "bool",
          "name": "shouldMaximise",
          "type": "bool"
        },
        {
          "internalType": "bool",
          "name": "includeAmmPrice",
          "type": "bool"
        }
      ],
      "name": "getPrice",
      "outputs": [
        {
          "internalType": "uint256",
          "name": "",
          "type": "uint256"
        }
      ],
      "stateMutability": "view",
      "type": "function"
    },
    {
      "inputs": [
        {
          "internalType": "address",
          "name": "vendorFeed_",
          "type": "address"
        },
        {
          "internalType": "address",
          "name": "usdcToken_",
          "type": "address"
        }
      ],
      "name": "initialize",
      "outputs": [],
      "stateMutability": "nonpayable",
      "type": "function"
    },
    {
      "inputs": [],
      "name": "owner",
      "outputs": [
        {
          "internalType": "address",
          "name": "",
          "type": "address"
        }
      ],
      "stateMutability": "view",
      "type": "function"
    },
    {
      "inputs": [],
      "name": "proxiableUUID",
      "outputs": [
        {
          "internalType": "bytes32",
          "name": "",
          "type": "bytes32"
        }
      ],
      "stateMutability": "view",
      "type": "function"
    },
    {
      "inputs": [],
      "name": "renounceOwnership",
      "outputs": [],
      "stateMutability": "nonpayable",
      "type": "function"
    },
    {
      "inputs": [
        {
          "internalType": "address",
          "name": "vendorFeed_",
          "type": "address"
        }
      ],
      "name": "setVendorFeed",
      "outputs": [],
      "stateMutability": "nonpayable",
      "type": "function"
    },
    {
      "inputs": [
        {
          "internalType": "address",
          "name": "newOwner",
          "type": "address"
        }
      ],
      "name": "transferOwnership",
      "outputs": [],
      "stateMutability": "nonpayable",
      "type": "function"
    },
    {
      "inputs": [
        {
          "internalType": "address",
          "name": "newImplementation",
          "type": "address"
        }
      ],
      "name": "upgradeTo",
      "outputs": [],
      "stateMutability": "nonpayable",
      "type": "function"
    },
    {
      "inputs": [
        {
          "internalType": "address",
          "name": "newImplementation",
          "type": "address"
        },
        {
          "internalType": "bytes",
          "name": "data",
          "type": "bytes"
        }
      ],
      "name": "upgradeToAndCall",
      "outputs": [],
      "stateMutability": "payable",
      "type": "function"
    },
    {
      "inputs": [],
      "name": "vendorFeed",
      "outputs": [
        {
          "internalType": "contract IVaultPriceFeed",
          "name": "",
          "type": "address"
        }
      ],
      "stateMutability": "view",
      "type": "function"
    }
  ],
  "bytecode": "0x60a0604052306080523480156200001557600080fd5b506200002062000026565b6200013f565b6200003260ff62000035565b50565b60008054610100900460ff16156200009e578160ff1660011480156200006e57506200006c30620000e260201b620007501760201c565b155b620000965760405162461bcd60e51b81526004016200008d90620000f1565b60405180910390fd5b506000919050565b60005460ff808416911610620000c85760405162461bcd60e51b81526004016200008d90620000f1565b506000805460ff191660ff92909216919091179055600190565b6001600160a01b03163b151590565b6020808252602e908201527f496e697469616c697a61626c653a20636f6e747261637420697320616c72656160408201526d191e481a5b9a5d1a585b1a5e995960921b606082015260800190565b60805161127b620001776000396000818161022a0152818161026a01528181610396015281816103d60152610452015261127b6000f3fe6080604052600436106100815760003560e01c80631bcb8d76146100865780633659cfe6146100a8578063485cc955146100c85780634f1ef286146100e857806352d1902d146100fb5780635ae6916314610123578063715018a6146101435780638da5cb5b14610158578063d58a8eda14610185578063f2fde38b146101a5575b600080fd5b34801561009257600080fd5b506100a66100a1366004610d10565b6101c5565b005b3480156100b457600080fd5b506100a66100c3366004610d10565b61021f565b3480156100d457600080fd5b506100a66100e3366004610d2d565b6102e8565b6100a66100f6366004610d7c565b61038b565b34801561010757600080fd5b50610110610445565b6040519081526020015b60405180910390f35b34801561012f57600080fd5b5061011061013e366004610e4f565b6104f3565b34801561014f57600080fd5b506100a6610669565b34801561016457600080fd5b5061016d6106a4565b6040516001600160a01b03909116815260200161011a565b34801561019157600080fd5b5060c95461016d906001600160a01b031681565b3480156101b157600080fd5b506100a66101c0366004610d10565b6106b3565b336101ce6106a4565b6001600160a01b0316146101fd5760405162461bcd60e51b81526004016101f490610e94565b60405180910390fd5b60c980546001600160a01b0319166001600160a01b0392909216919091179055565b306001600160a01b037f00000000000000000000000000000000000000000000000000000000000000001614156102685760405162461bcd60e51b81526004016101f490610ec9565b7f00000000000000000000000000000000000000000000000000000000000000006001600160a01b031661029a61075f565b6001600160a01b0316146102c05760405162461bcd60e51b81526004016101f490610f03565b6102c98161077b565b604080516000808252602082019092526102e5918391906107aa565b50565b60006102f46001610915565b9050801561030c576000805461ff0019166101001790555b6103146109a9565b61031c6109d8565b610325836101c5565b60ca80546001600160a01b0319166001600160a01b0384161790558015610386576000805461ff0019169055604051600181527f7f26b83ff96e1f2b6a682f133852f6798a09c465da95921460cefb38474024989060200160405180910390a15b505050565b306001600160a01b037f00000000000000000000000000000000000000000000000000000000000000001614156103d45760405162461bcd60e51b81526004016101f490610ec9565b7f00000000000000000000000000000000000000000000000000000000000000006001600160a01b031661040661075f565b6001600160a01b03161461042c5760405162461bcd60e51b81526004016101f490610f03565b6104358261077b565b610441828260016107aa565b5050565b6000306001600160a01b037f000000000000000000000000000000000000000000000000000000000000000016146104e05760405162461bcd60e51b815260206004820152603860248201527f555550535570677261646561626c653a206d757374206e6f742062652063616c6044820152771b1959081d1a1c9bdd59da0819195b1959d85d1958d85b1b60421b60648201526084016101f4565b506000805160206111ff83398151915290565b60c9546040516317e1d38560e11b815260009182916001600160a01b0390911690632fc3a70a9061052e908890889088908790600401610f3d565b602060405180830381865afa15801561054b573d6000803e3d6000fd5b505050506040513d601f19601f8201168201806040525081019061056f9190610f67565b60c95460ca546040516317e1d38560e11b81529293506000926001600160a01b0392831692632fc3a70a926105af92911690899089908790600401610f3d565b602060405180830381865afa1580156105cc573d6000803e3d6000fd5b505050506040513d601f19601f820116820180604052508101906105f09190610f67565b90508115806105fd575080155b1561061b57604051631d59567b60e11b815260040160405180910390fd5b61065d8161063568327cb2734119d3b7a9601e1b85610f96565b61063f9190610fb5565b68327cb2734119d3b7a9601e1b6106586006600a6110bb565b6109ff565b925050505b9392505050565b336106726106a4565b6001600160a01b0316146106985760405162461bcd60e51b81526004016101f490610e94565b6106a26000610a47565b565b6033546001600160a01b031690565b336106bc6106a4565b6001600160a01b0316146106e25760405162461bcd60e51b81526004016101f490610e94565b6001600160a01b0381166107475760405162461bcd60e51b815260206004820152602660248201527f4f776e61626c653a206e6577206f776e657220697320746865207a65726f206160448201526564647265737360d01b60648201526084016101f4565b6102e581610a47565b6001600160a01b03163b151590565b6000805160206111ff833981519152546001600160a01b031690565b336107846106a4565b6001600160a01b0316146102e55760405162461bcd60e51b81526004016101f490610e94565b7f4910fdfa16fed3260ed0e7147f7cc6da11a60208b5b9406d12a635614ffd91435460ff16156107dd5761038683610a99565b826001600160a01b03166352d1902d6040518163ffffffff1660e01b8152600401602060405180830381865afa925050508015610837575060408051601f3d908101601f1916820190925261083491810190610f67565b60015b61089a5760405162461bcd60e51b815260206004820152602e60248201527f45524331393637557067726164653a206e657720696d706c656d656e7461746960448201526d6f6e206973206e6f74205555505360901b60648201526084016101f4565b6000805160206111ff83398151915281146109095760405162461bcd60e51b815260206004820152602960248201527f45524331393637557067726164653a20756e737570706f727465642070726f786044820152681a58589b195555525160ba1b60648201526084016101f4565b50610386838383610b33565b60008054610100900460ff1615610963578160ff16600114801561093f575061093d30610750565b155b61095b5760405162461bcd60e51b81526004016101f4906110ca565b506000919050565b60005460ff80841691161061098a5760405162461bcd60e51b81526004016101f4906110ca565b506000805460ff191660ff92909216919091179055600190565b919050565b600054610100900460ff166109d05760405162461bcd60e51b81526004016101f490611118565b6106a2610b5e565b600054610100900460ff166106a25760405162461bcd60e51b81526004016101f490611118565b600081831115610a2457610a138284610fb5565b610a1d9085610fb5565b9050610662565b81831015610a4057610a368383610fb5565b610a1d9085610f96565b5082610662565b603380546001600160a01b038381166001600160a01b0319831681179093556040519116919082907f8be0079c531659141344cd1fd0a4f28419497f9722a3daafe3b4186f6b6457e090600090a35050565b610aa281610750565b610b045760405162461bcd60e51b815260206004820152602d60248201527f455243313936373a206e657720696d706c656d656e746174696f6e206973206e60448201526c1bdd08184818dbdb9d1c9858dd609a1b60648201526084016101f4565b6000805160206111ff83398151915280546001600160a01b0319166001600160a01b0392909216919091179055565b610b3c83610b8e565b600082511180610b495750805b1561038657610b588383610bce565b50505050565b600054610100900460ff16610b855760405162461bcd60e51b81526004016101f490611118565b6106a233610a47565b610b9781610a99565b6040516001600160a01b038216907fbc7cd75a20ee27fd9adebab32041f755214dbc6bffa90cc0225b39da2e5c2d3b90600090a250565b6060610bd983610750565b610c345760405162461bcd60e51b815260206004820152602660248201527f416464726573733a2064656c65676174652063616c6c20746f206e6f6e2d636f6044820152651b9d1c9858dd60d21b60648201526084016101f4565b600080846001600160a01b031684604051610c4f919061118f565b600060405180830381855af49150503d8060008114610c8a576040519150601f19603f3d011682016040523d82523d6000602084013e610c8f565b606091505b5091509150610cb7828260405180606001604052806027815260200161121f60279139610cc2565b925050505b92915050565b60608315610cd1575081610662565b825115610ce15782518084602001fd5b8160405162461bcd60e51b81526004016101f491906111ab565b6001600160a01b03811681146102e557600080fd5b600060208284031215610d2257600080fd5b813561066281610cfb565b60008060408385031215610d4057600080fd5b8235610d4b81610cfb565b91506020830135610d5b81610cfb565b809150509250929050565b634e487b7160e01b600052604160045260246000fd5b60008060408385031215610d8f57600080fd5b8235610d9a81610cfb565b915060208301356001600160401b0380821115610db657600080fd5b818501915085601f830112610dca57600080fd5b813581811115610ddc57610ddc610d66565b604051601f8201601f19908116603f01168101908382118183101715610e0457610e04610d66565b81604052828152886020848701011115610e1d57600080fd5b8260208601602083013760006020848301015280955050505050509250929050565b803580151581146109a457600080fd5b600080600060608486031215610e6457600080fd5b8335610e6f81610cfb565b9250610e7d60208501610e3f565b9150610e8b60408501610e3f565b90509250925092565b6020808252818101527f4f776e61626c653a2063616c6c6572206973206e6f7420746865206f776e6572604082015260600190565b6020808252602c908201526000805160206111df83398151915260408201526b19195b1959d85d1958d85b1b60a21b606082015260800190565b6020808252602c908201526000805160206111df83398151915260408201526b6163746976652070726f787960a01b606082015260800190565b6001600160a01b039490941684529115156020840152151560408301521515606082015260800190565b600060208284031215610f7957600080fd5b5051919050565b634e487b7160e01b600052601160045260246000fd5b6000816000190483118215151615610fb057610fb0610f80565b500290565b600082610fd257634e487b7160e01b600052601260045260246000fd5b500490565b600181815b80851115611012578160001904821115610ff857610ff8610f80565b8085161561100557918102915b93841c9390800290610fdc565b509250929050565b60008261102957506001610cbc565b8161103657506000610cbc565b816001811461104c576002811461105657611072565b6001915050610cbc565b60ff84111561106757611067610f80565b50506001821b610cbc565b5060208310610133831016604e8410600b8410161715611095575081810a610cbc565b61109f8383610fd7565b80600019048211156110b3576110b3610f80565b029392505050565b600061066260ff84168361101a565b6020808252602e908201527f496e697469616c697a61626c653a20636f6e747261637420697320616c72656160408201526d191e481a5b9a5d1a585b1a5e995960921b606082015260800190565b6020808252602b908201527f496e697469616c697a61626c653a20636f6e7472616374206973206e6f74206960408201526a6e697469616c697a696e6760a81b606082015260800190565b60005b8381101561117e578181015183820152602001611166565b83811115610b585750506000910152565b600082516111a1818460208701611163565b9190910192915050565b60208152600082518060208401526111ca816040850160208701611163565b601f01601f1916919091016040019291505056fe46756e6374696f6e206d7573742062652063616c6c6564207468726f75676820360894a13ba1a3210667c828492db98dca3e2076cc3735a920a3ca505d382bbc416464726573733a206c6f772d6c6576656c2064656c65676174652063616c6c206661696c6564a26469706673582212209b78dc856ec6765b4c5a19351a8c3232fd1daa9ade4f05403e8d77773d8255be64736f6c634300080a0033",
  "linkReferences": {},
  "deployedLinkReferences": {}
}