{
  "_format": "hh-sol-artifact-1",
  "contractName": "InvestmentToken",
  "sourceName": "contracts/common/InvestmentToken.sol",
  "abi": [
    {
      "inputs": [],
      "stateMutability": "nonpayable",
      "type": "constructor"
    },
    {
      "anonymous": false,
      "inputs": [
        {
          "indexed": false,
          "internalType": "address",
          "name": "previousAdmin",
          "type": "address"
        },
        {
          "indexed": false,
          "internalType": "address",
          "name": "newAdmin",
          "type": "address"
        }
      ],
      "name": "AdminChanged",
      "type": "event"
    },
    {
      "anonymous": false,
      "inputs": [
        {
          "indexed": true,
          "internalType": "address",
          "name": "owner",
          "type": "address"
        },
        {
          "indexed": true,
          "internalType": "address",
          "name": "spender",
          "type": "address"
        },
        {
          "indexed": false,
          "internalType": "uint256",
          "name": "value",
          "type": "uint256"
        }
      ],
      "name": "Approval",
      "type": "event"
    },
    {
      "anonymous": false,
      "inputs": [
        {
          "indexed": true,
          "internalType": "address",
          "name": "beacon",
          "type": "address"
        }
      ],
      "name": "BeaconUpgraded",
      "type": "event"
    },
    {
      "anonymous": false,
      "inputs": [
        {
          "indexed": false,
          "internalType": "uint8",
          "name": "version",
          "type": "uint8"
        }
      ],
      "name": "Initialized",
      "type": "event"
    },
    {
      "anonymous": false,
      "inputs": [
        {
          "indexed": true,
          "internalType": "address",
          "name": "previousOwner",
          "type": "address"
        },
        {
          "indexed": true,
          "internalType": "address",
          "name": "newOwner",
          "type": "address"
        }
      ],
      "name": "OwnershipTransferred",
      "type": "event"
    },
    {
      "anonymous": false,
      "inputs": [
        {
          "indexed": true,
          "internalType": "address",
          "name": "from",
          "type": "address"
        },
        {
          "indexed": true,
          "internalType": "address",
          "name": "to",
          "type": "address"
        },
        {
          "indexed": false,
          "internalType": "uint256",
          "name": "value",
          "type": "uint256"
        }
      ],
      "name": "Transfer",
      "type": "event"
    },
    {
      "anonymous": false,
      "inputs": [
        {
          "indexed": true,
          "internalType": "address",
          "name": "implementation",
          "type": "address"
        }
      ],
      "name": "Upgraded",
      "type": "event"
    },
    {
      "inputs": [
        {
          "internalType": "address",
          "name": "owner",
          "type": "address"
        },
        {
          "internalType": "address",
          "name": "spender",
          "type": "address"
        }
      ],
      "name": "allowance",
      "outputs": [
        {
          "internalType": "uint256",
          "name": "",
          "type": "uint256"
        }
      ],
      "stateMutability": "view",
      "type": "function"
    },
    {
      "inputs": [
        {
          "internalType": "address",
          "name": "spender",
          "type": "address"
        },
        {
          "internalType": "uint256",
          "name": "amount",
          "type": "uint256"
        }
      ],
      "name": "approve",
      "outputs": [
        {
          "internalType": "bool",
          "name": "",
          "type": "bool"
        }
      ],
      "stateMutability": "nonpayable",
      "type": "function"
    },
    {
      "inputs": [
        {
          "internalType": "address",
          "name": "account",
          "type": "address"
        }
      ],
      "name": "balanceOf",
      "outputs": [
        {
          "internalType": "uint256",
          "name": "",
          "type": "uint256"
        }
      ],
      "stateMutability": "view",
      "type": "function"
    },
    {
      "inputs": [
        {
          "internalType": "uint256",
          "name": "amount",
          "type": "uint256"
        }
      ],
      "name": "burn",
      "outputs": [],
      "stateMutability": "nonpayable",
      "type": "function"
    },
    {
      "inputs": [
        {
          "internalType": "address",
          "name": "account",
          "type": "address"
        },
        {
          "internalType": "uint256",
          "name": "amount",
          "type": "uint256"
        }
      ],
      "name": "burnFrom",
      "outputs": [],
      "stateMutability": "nonpayable",
      "type": "function"
    },
    {
      "inputs": [],
      "name": "decimals",
      "outputs": [
        {
          "internalType": "uint8",
          "name": "",
          "type": "uint8"
        }
      ],
      "stateMutability": "pure",
      "type": "function"
    },
    {
      "inputs": [
        {
          "internalType": "address",
          "name": "spender",
          "type": "address"
        },
        {
          "internalType": "uint256",
          "name": "subtractedValue",
          "type": "uint256"
        }
      ],
      "name": "decreaseAllowance",
      "outputs": [
        {
          "internalType": "bool",
          "name": "",
          "type": "bool"
        }
      ],
      "stateMutability": "nonpayable",
      "type": "function"
    },
    {
      "inputs": [
        {
          "internalType": "address",
          "name": "spender",
          "type": "address"
        },
        {
          "internalType": "uint256",
          "name": "addedValue",
          "type": "uint256"
        }
      ],
      "name": "increaseAllowance",
      "outputs": [
        {
          "internalType": "bool",
          "name": "",
          "type": "bool"
        }
      ],
      "stateMutability": "nonpayable",
      "type": "function"
    },
    {
      "inputs": [
        {
          "internalType": "string",
          "name": "name_",
          "type": "string"
        },
        {
          "internalType": "string",
          "name": "symbol_",
          "type": "string"
        }
      ],
      "name": "initialize",
      "outputs": [],
      "stateMutability": "nonpayable",
      "type": "function"
    },
    {
      "inputs": [
        {
          "internalType": "address",
          "name": "account_",
          "type": "address"
        },
        {
          "internalType": "uint256",
          "name": "amount_",
          "type": "uint256"
        }
      ],
      "name": "mint",
      "outputs": [],
      "stateMutability": "nonpayable",
      "type": "function"
    },
    {
      "inputs": [],
      "name": "name",
      "outputs": [
        {
          "internalType": "string",
          "name": "",
          "type": "string"
        }
      ],
      "stateMutability": "view",
      "type": "function"
    },
    {
      "inputs": [],
      "name": "owner",
      "outputs": [
        {
          "internalType": "address",
          "name": "",
          "type": "address"
        }
      ],
      "stateMutability": "view",
      "type": "function"
    },
    {
      "inputs": [],
      "name": "proxiableUUID",
      "outputs": [
        {
          "internalType": "bytes32",
          "name": "",
          "type": "bytes32"
        }
      ],
      "stateMutability": "view",
      "type": "function"
    },
    {
      "inputs": [],
      "name": "renounceOwnership",
      "outputs": [],
      "stateMutability": "nonpayable",
      "type": "function"
    },
    {
      "inputs": [
        {
          "internalType": "string",
          "name": "name_",
          "type": "string"
        }
      ],
      "name": "setName",
      "outputs": [],
      "stateMutability": "nonpayable",
      "type": "function"
    },
    {
      "inputs": [
        {
          "internalType": "string",
          "name": "symbol_",
          "type": "string"
        }
      ],
      "name": "setSymbol",
      "outputs": [],
      "stateMutability": "nonpayable",
      "type": "function"
    },
    {
      "inputs": [],
      "name": "symbol",
      "outputs": [
        {
          "internalType": "string",
          "name": "",
          "type": "string"
        }
      ],
      "stateMutability": "view",
      "type": "function"
    },
    {
      "inputs": [],
      "name": "totalSupply",
      "outputs": [
        {
          "internalType": "uint256",
          "name": "",
          "type": "uint256"
        }
      ],
      "stateMutability": "view",
      "type": "function"
    },
    {
      "inputs": [
        {
          "internalType": "address",
          "name": "to",
          "type": "address"
        },
        {
          "internalType": "uint256",
          "name": "amount",
          "type": "uint256"
        }
      ],
      "name": "transfer",
      "outputs": [
        {
          "internalType": "bool",
          "name": "",
          "type": "bool"
        }
      ],
      "stateMutability": "nonpayable",
      "type": "function"
    },
    {
      "inputs": [
        {
          "internalType": "address",
          "name": "from",
          "type": "address"
        },
        {
          "internalType": "address",
          "name": "to",
          "type": "address"
        },
        {
          "internalType": "uint256",
          "name": "amount",
          "type": "uint256"
        }
      ],
      "name": "transferFrom",
      "outputs": [
        {
          "internalType": "bool",
          "name": "",
          "type": "bool"
        }
      ],
      "stateMutability": "nonpayable",
      "type": "function"
    },
    {
      "inputs": [
        {
          "internalType": "address",
          "name": "newOwner",
          "type": "address"
        }
      ],
      "name": "transferOwnership",
      "outputs": [],
      "stateMutability": "nonpayable",
      "type": "function"
    },
    {
      "inputs": [
        {
          "internalType": "address",
          "name": "newImplementation",
          "type": "address"
        }
      ],
      "name": "upgradeTo",
      "outputs": [],
      "stateMutability": "nonpayable",
      "type": "function"
    },
    {
      "inputs": [
        {
          "internalType": "address",
          "name": "newImplementation",
          "type": "address"
        },
        {
          "internalType": "bytes",
          "name": "data",
          "type": "bytes"
        }
      ],
      "name": "upgradeToAndCall",
      "outputs": [],
      "stateMutability": "payable",
      "type": "function"
    }
  ],
  "bytecode": "0x60a0604052306080523480156200001557600080fd5b506200002062000026565b6200013f565b6200003260ff62000035565b50565b60008054610100900460ff16156200009e578160ff1660011480156200006e57506200006c30620000e260201b62000a9c1760201c565b155b620000965760405162461bcd60e51b81526004016200008d90620000f1565b60405180910390fd5b506000919050565b60005460ff808416911610620000c85760405162461bcd60e51b81526004016200008d90620000f1565b506000805460ff191660ff92909216919091179055600190565b6001600160a01b03163b151590565b6020808252602e908201527f496e697469616c697a61626c653a20636f6e747261637420697320616c72656160408201526d191e481a5b9a5d1a585b1a5e995960921b606082015260800190565b608051611c0a62000177600039600081816104de01528181610527015281816106f20152818161073201526107aa0152611c0a6000f3fe6080604052600436106101105760003560e01c806306fdde0314610115578063095ea7b31461014057806318160ddd1461017057806323b872dd1461018f578063313ce567146101af5780633659cfe6146101cb57806339509351146101ed57806340c10f191461020d57806342966c681461022d5780634cd88b761461024d5780634f1ef2861461026d57806352d1902d1461028057806370a0823114610295578063715018a6146102cb57806379cc6790146102e05780638da5cb5b1461030057806395d89b411461032d578063a457c2d714610342578063a9059cbb14610362578063b84c824614610382578063c47f0027146103a2578063dd62ed3e146103c2578063f2fde38b146103e2575b600080fd5b34801561012157600080fd5b5061012a610402565b604051610137919061169e565b60405180910390f35b34801561014c57600080fd5b5061016061015b3660046116e8565b610495565b6040519015158152602001610137565b34801561017c57600080fd5b5060cb545b604051908152602001610137565b34801561019b57600080fd5b506101606101aa366004611712565b6104ad565b3480156101bb57600080fd5b5060405160068152602001610137565b3480156101d757600080fd5b506101eb6101e636600461174e565b6104d3565b005b3480156101f957600080fd5b506101606102083660046116e8565b6105a5565b34801561021957600080fd5b506101eb6102283660046116e8565b6105c7565b34801561023957600080fd5b506101eb610248366004611769565b610604565b34801561025957600080fd5b506101eb61026836600461182d565b61060e565b6101eb61027b366004611890565b6106e7565b34801561028c57600080fd5b5061018161079d565b3480156102a157600080fd5b506101816102b036600461174e565b6001600160a01b0316600090815260c9602052604090205490565b3480156102d757600080fd5b506101eb61084b565b3480156102ec57600080fd5b506101eb6102fb3660046116e8565b610886565b34801561030c57600080fd5b5061031561089b565b6040516001600160a01b039091168152602001610137565b34801561033957600080fd5b5061012a6108aa565b34801561034e57600080fd5b5061016061035d3660046116e8565b6108ba565b34801561036e57600080fd5b5061016061037d3660046116e8565b610940565b34801561038e57600080fd5b506101eb61039d3660046118e7565b61094e565b3480156103ae57600080fd5b506101eb6103bd3660046118e7565b610991565b3480156103ce57600080fd5b506101816103dd366004611923565b6109d4565b3480156103ee57600080fd5b506101eb6103fd36600461174e565b6109ff565b606061012d805461041290611956565b80601f016020809104026020016040519081016040528092919081815260200182805461043e90611956565b801561048b5780601f106104605761010080835404028352916020019161048b565b820191906000526020600020905b81548152906001019060200180831161046e57829003601f168201915b5050505050905090565b6000336104a3818585610aab565b5060019392505050565b6000336104bb858285610bcf565b6104c6858585610c49565b60019150505b9392505050565b306001600160a01b037f00000000000000000000000000000000000000000000000000000000000000001614156105255760405162461bcd60e51b815260040161051c90611991565b60405180910390fd5b7f00000000000000000000000000000000000000000000000000000000000000006001600160a01b0316610557610e05565b6001600160a01b03161461057d5760405162461bcd60e51b815260040161051c906119cb565b61058681610e21565b604080516000808252602082019092526105a291839190610e50565b50565b6000336104a38185856105b883836109d4565b6105c29190611a1b565b610aab565b336105d061089b565b6001600160a01b0316146105f65760405162461bcd60e51b815260040161051c90611a33565b6106008282610fbb565b5050565b6105a23382611088565b600061061a60016111c4565b90508015610632576000805461ff0019166101001790555b61063a611258565b61064261127f565b61064a611258565b61067260405180602001604052806000815250604051806020016040528060008152506112ae565b82516106869061012d9060208601906115d9565b50815161069b9061012e9060208501906115d9565b5080156106e2576000805461ff0019169055604051600181527f7f26b83ff96e1f2b6a682f133852f6798a09c465da95921460cefb38474024989060200160405180910390a15b505050565b306001600160a01b037f00000000000000000000000000000000000000000000000000000000000000001614156107305760405162461bcd60e51b815260040161051c90611991565b7f00000000000000000000000000000000000000000000000000000000000000006001600160a01b0316610762610e05565b6001600160a01b0316146107885760405162461bcd60e51b815260040161051c906119cb565b61079182610e21565b61060082826001610e50565b6000306001600160a01b037f000000000000000000000000000000000000000000000000000000000000000016146108385760405162461bcd60e51b815260206004820152603860248201527f555550535570677261646561626c653a206d757374206e6f742062652063616c6044820152771b1959081d1a1c9bdd59da0819195b1959d85d1958d85b1b60421b606482015260840161051c565b50600080516020611b6e83398151915290565b3361085461089b565b6001600160a01b03161461087a5760405162461bcd60e51b815260040161051c90611a33565b61088460006112df565b565b610891823383610bcf565b6106008282611088565b6033546001600160a01b031690565b606061012e805461041290611956565b600033816108c882866109d4565b9050838110156109285760405162461bcd60e51b815260206004820152602560248201527f45524332303a2064656372656173656420616c6c6f77616e63652062656c6f77604482015264207a65726f60d81b606482015260840161051c565b6109358286868403610aab565b506001949350505050565b6000336104a3818585610c49565b3361095761089b565b6001600160a01b03161461097d5760405162461bcd60e51b815260040161051c90611a33565b80516106009061012e9060208401906115d9565b3361099a61089b565b6001600160a01b0316146109c05760405162461bcd60e51b815260040161051c90611a33565b80516106009061012d9060208401906115d9565b6001600160a01b03918216600090815260ca6020908152604080832093909416825291909152205490565b33610a0861089b565b6001600160a01b031614610a2e5760405162461bcd60e51b815260040161051c90611a33565b6001600160a01b038116610a935760405162461bcd60e51b815260206004820152602660248201527f4f776e61626c653a206e6577206f776e657220697320746865207a65726f206160448201526564647265737360d01b606482015260840161051c565b6105a2816112df565b6001600160a01b03163b151590565b6001600160a01b038316610b0d5760405162461bcd60e51b8152602060048201526024808201527f45524332303a20617070726f76652066726f6d20746865207a65726f206164646044820152637265737360e01b606482015260840161051c565b6001600160a01b038216610b6e5760405162461bcd60e51b815260206004820152602260248201527f45524332303a20617070726f766520746f20746865207a65726f206164647265604482015261737360f01b606482015260840161051c565b6001600160a01b03838116600081815260ca602090815260408083209487168084529482529182902085905590518481527f8c5be1e5ebec7d5bd14f71427d1e84f3dd0314c0f7b2291e5b200ac8c7c3b925910160405180910390a3505050565b6000610bdb84846109d4565b90506000198114610c435781811015610c365760405162461bcd60e51b815260206004820152601d60248201527f45524332303a20696e73756666696369656e7420616c6c6f77616e6365000000604482015260640161051c565b610c438484848403610aab565b50505050565b6001600160a01b038316610cad5760405162461bcd60e51b815260206004820152602560248201527f45524332303a207472616e736665722066726f6d20746865207a65726f206164604482015264647265737360d81b606482015260840161051c565b6001600160a01b038216610d0f5760405162461bcd60e51b815260206004820152602360248201527f45524332303a207472616e7366657220746f20746865207a65726f206164647260448201526265737360e81b606482015260840161051c565b6001600160a01b038316600090815260c9602052604090205481811015610d875760405162461bcd60e51b815260206004820152602660248201527f45524332303a207472616e7366657220616d6f756e7420657863656564732062604482015265616c616e636560d01b606482015260840161051c565b6001600160a01b03808516600090815260c96020526040808220858503905591851681529081208054849290610dbe908490611a1b565b92505081905550826001600160a01b0316846001600160a01b0316600080516020611bb583398151915284604051610df891815260200190565b60405180910390a3610c43565b600080516020611b6e833981519152546001600160a01b031690565b33610e2a61089b565b6001600160a01b0316146105a25760405162461bcd60e51b815260040161051c90611a33565b7f4910fdfa16fed3260ed0e7147f7cc6da11a60208b5b9406d12a635614ffd91435460ff1615610e83576106e283611331565b826001600160a01b03166352d1902d6040518163ffffffff1660e01b8152600401602060405180830381865afa925050508015610edd575060408051601f3d908101601f19168201909252610eda91810190611a68565b60015b610f405760405162461bcd60e51b815260206004820152602e60248201527f45524331393637557067726164653a206e657720696d706c656d656e7461746960448201526d6f6e206973206e6f74205555505360901b606482015260840161051c565b600080516020611b6e8339815191528114610faf5760405162461bcd60e51b815260206004820152602960248201527f45524331393637557067726164653a20756e737570706f727465642070726f786044820152681a58589b195555525160ba1b606482015260840161051c565b506106e28383836113cb565b6001600160a01b0382166110115760405162461bcd60e51b815260206004820152601f60248201527f45524332303a206d696e7420746f20746865207a65726f206164647265737300604482015260640161051c565b8060cb60008282546110239190611a1b565b90915550506001600160a01b038216600090815260c9602052604081208054839290611050908490611a1b565b90915550506040518181526001600160a01b03831690600090600080516020611bb58339815191529060200160405180910390a35050565b6001600160a01b0382166110e85760405162461bcd60e51b815260206004820152602160248201527f45524332303a206275726e2066726f6d20746865207a65726f206164647265736044820152607360f81b606482015260840161051c565b6001600160a01b038216600090815260c960205260409020548181101561115c5760405162461bcd60e51b815260206004820152602260248201527f45524332303a206275726e20616d6f756e7420657863656564732062616c616e604482015261636560f01b606482015260840161051c565b6001600160a01b038316600090815260c960205260408120838303905560cb805484929061118b908490611a81565b90915550506040518281526000906001600160a01b03851690600080516020611bb58339815191529060200160405180910390a3505050565b60008054610100900460ff1615611212578160ff1660011480156111ee57506111ec30610a9c565b155b61120a5760405162461bcd60e51b815260040161051c90611a98565b506000919050565b60005460ff8084169116106112395760405162461bcd60e51b815260040161051c90611a98565b506000805460ff191660ff92909216919091179055600190565b919050565b600054610100900460ff166108845760405162461bcd60e51b815260040161051c90611ae6565b600054610100900460ff166112a65760405162461bcd60e51b815260040161051c90611ae6565b6108846113f0565b600054610100900460ff166112d55760405162461bcd60e51b815260040161051c90611ae6565b6106008282611420565b603380546001600160a01b038381166001600160a01b0319831681179093556040519116919082907f8be0079c531659141344cd1fd0a4f28419497f9722a3daafe3b4186f6b6457e090600090a35050565b61133a81610a9c565b61139c5760405162461bcd60e51b815260206004820152602d60248201527f455243313936373a206e657720696d706c656d656e746174696f6e206973206e60448201526c1bdd08184818dbdb9d1c9858dd609a1b606482015260840161051c565b600080516020611b6e83398151915280546001600160a01b0319166001600160a01b0392909216919091179055565b6113d48361146e565b6000825111806113e15750805b156106e257610c4383836114ae565b600054610100900460ff166114175760405162461bcd60e51b815260040161051c90611ae6565b610884336112df565b600054610100900460ff166114475760405162461bcd60e51b815260040161051c90611ae6565b815161145a9060cc9060208501906115d9565b5080516106e29060cd9060208401906115d9565b61147781611331565b6040516001600160a01b038216907fbc7cd75a20ee27fd9adebab32041f755214dbc6bffa90cc0225b39da2e5c2d3b90600090a250565b60606114b983610a9c565b6115145760405162461bcd60e51b815260206004820152602660248201527f416464726573733a2064656c65676174652063616c6c20746f206e6f6e2d636f6044820152651b9d1c9858dd60d21b606482015260840161051c565b600080846001600160a01b03168460405161152f9190611b31565b600060405180830381855af49150503d806000811461156a576040519150601f19603f3d011682016040523d82523d6000602084013e61156f565b606091505b50915091506115978282604051806060016040528060278152602001611b8e602791396115a0565b95945050505050565b606083156115af5750816104cc565b8251156115bf5782518084602001fd5b8160405162461bcd60e51b815260040161051c919061169e565b8280546115e590611956565b90600052602060002090601f016020900481019282611607576000855561164d565b82601f1061162057805160ff191683800117855561164d565b8280016001018555821561164d579182015b8281111561164d578251825591602001919060010190611632565b5061165992915061165d565b5090565b5b80821115611659576000815560010161165e565b60005b8381101561168d578181015183820152602001611675565b83811115610c435750506000910152565b60208152600082518060208401526116bd816040850160208701611672565b601f01601f19169190910160400192915050565b80356001600160a01b038116811461125357600080fd5b600080604083850312156116fb57600080fd5b611704836116d1565b946020939093013593505050565b60008060006060848603121561172757600080fd5b611730846116d1565b925061173e602085016116d1565b9150604084013590509250925092565b60006020828403121561176057600080fd5b6104cc826116d1565b60006020828403121561177b57600080fd5b5035919050565b634e487b7160e01b600052604160045260246000fd5b60006001600160401b03808411156117b2576117b2611782565b604051601f8501601f19908116603f011681019082821181831017156117da576117da611782565b816040528093508581528686860111156117f357600080fd5b858560208301376000602087830101525050509392505050565b600082601f83011261181e57600080fd5b6104cc83833560208501611798565b6000806040838503121561184057600080fd5b82356001600160401b038082111561185757600080fd5b6118638683870161180d565b9350602085013591508082111561187957600080fd5b506118868582860161180d565b9150509250929050565b600080604083850312156118a357600080fd5b6118ac836116d1565b915060208301356001600160401b038111156118c757600080fd5b8301601f810185136118d857600080fd5b61188685823560208401611798565b6000602082840312156118f957600080fd5b81356001600160401b0381111561190f57600080fd5b61191b8482850161180d565b949350505050565b6000806040838503121561193657600080fd5b61193f836116d1565b915061194d602084016116d1565b90509250929050565b600181811c9082168061196a57607f821691505b6020821081141561198b57634e487b7160e01b600052602260045260246000fd5b50919050565b6020808252602c90820152600080516020611b4e83398151915260408201526b19195b1959d85d1958d85b1b60a21b606082015260800190565b6020808252602c90820152600080516020611b4e83398151915260408201526b6163746976652070726f787960a01b606082015260800190565b634e487b7160e01b600052601160045260246000fd5b60008219821115611a2e57611a2e611a05565b500190565b6020808252818101527f4f776e61626c653a2063616c6c6572206973206e6f7420746865206f776e6572604082015260600190565b600060208284031215611a7a57600080fd5b5051919050565b600082821015611a9357611a93611a05565b500390565b6020808252602e908201527f496e697469616c697a61626c653a20636f6e747261637420697320616c72656160408201526d191e481a5b9a5d1a585b1a5e995960921b606082015260800190565b6020808252602b908201527f496e697469616c697a61626c653a20636f6e7472616374206973206e6f74206960408201526a6e697469616c697a696e6760a81b606082015260800190565b60008251611b43818460208701611672565b919091019291505056fe46756e6374696f6e206d7573742062652063616c6c6564207468726f75676820360894a13ba1a3210667c828492db98dca3e2076cc3735a920a3ca505d382bbc416464726573733a206c6f772d6c6576656c2064656c65676174652063616c6c206661696c6564ddf252ad1be2c89b69c2b068fc378daa952ba7f163c4a11628f55a4df523b3efa2646970667358221220276fe349fac8231610b83f263f85cebb4fc40dce381510f300f98984506a59dc64736f6c634300080a0033",
  "linkReferences": {},
  "deployedLinkReferences": {}
}