{
  "_format": "hh-sol-artifact-1",
  "contractName": "InvestableLib",
  "sourceName": "contracts/common/libraries/InvestableLib.sol",
  "abi": [
    {
      "inputs": [],
      "name": "NATIVE_AVAX",
      "outputs": [
        {
          "internalType": "address",
          "name": "",
          "type": "address"
        }
      ],
      "stateMutability": "view",
      "type": "function"
    },
    {
      "inputs": [],
      "name": "PRICE_PRECISION_DIGITS",
      "outputs": [
        {
          "internalType": "uint8",
          "name": "",
          "type": "uint8"
        }
      ],
      "stateMutability": "view",
      "type": "function"
    },
    {
      "inputs": [],
      "name": "PRICE_PRECISION_FACTOR",
      "outputs": [
        {
          "internalType": "uint256",
          "name": "",
          "type": "uint256"
        }
      ],
      "stateMutability": "view",
      "type": "function"
    },
    {
      "inputs": [],
      "name": "USDC",
      "outputs": [
        {
          "internalType": "address",
          "name": "",
          "type": "address"
        }
      ],
      "stateMutability": "view",
      "type": "function"
    },
    {
      "inputs": [],
      "name": "USDT",
      "outputs": [
        {
          "internalType": "address",
          "name": "",
          "type": "address"
        }
      ],
      "stateMutability": "view",
      "type": "function"
    },
    {
      "inputs": [],
      "name": "WAVAX",
      "outputs": [
        {
          "internalType": "address",
          "name": "",
          "type": "address"
        }
      ],
      "stateMutability": "view",
      "type": "function"
    }
  ],
  "bytecode": "0x61026e61003a600b82828239805160001a60731461002d57634e487b7160e01b600052600060045260246000fd5b30600052607381538281f3fe730000000000000000000000000000000000000000301460806040526004361061006c5760003560e01c8063598886861461007157806373b295c21461009657806389a30271146100b15780638e5c1b36146100cc578063c54e44eb146100e6578063cd5e31cb14610101575b600080fd5b610079600181565b6040516001600160a01b0390911681526020015b60405180910390f35b61007973b31f66aa3c1e785363f0875a1b74e27b85fd66c781565b61007973b97ef9ef8734c71904d8002f8b6bc66dd9c48a6e81565b6100d4600681565b60405160ff909116815260200161008d565b610079739702230a8ea53601f5cd2dc00fdbc13d4df4a8c781565b610109610117565b60405190815260200161008d565b6101236006600a610222565b81565b634e487b7160e01b600052601160045260246000fd5b600181815b8085111561017757816000190482111561015d5761015d610126565b8085161561016a57918102915b93841c9390800290610141565b509250929050565b60008261018e5750600161021c565b8161019b5750600061021c565b81600181146101b157600281146101bb576101d7565b600191505061021c565b60ff8411156101cc576101cc610126565b50506001821b61021c565b5060208310610133831016604e8410600b84101617156101fa575081810a61021c565b610204838361013c565b806000190482111561021857610218610126565b0290505b92915050565b600061023160ff84168361017f565b939250505056fea26469706673582212204bc1ba6c4961fdb34da203cb9f9bbb1b06e7a19e0b9aa15a492197ca4a48821364736f6c634300080a0033",
  "linkReferences": {},
  "deployedLinkReferences": {}
}