{
  "_format": "hh-sol-artifact-1",
  "contractName": "TraderJoeV2",
  "sourceName": "contracts/tests/strategies/traderjoe/TraderJoeV2.sol",
  "abi": [
    {
      "inputs": [],
      "stateMutability": "nonpayable",
      "type": "constructor"
    },
    {
      "inputs": [],
      "name": "InvalidFeeError",
      "type": "error"
    },
    {
      "inputs": [],
      "name": "InvalidSwapServiceProvider",
      "type": "error"
    },
    {
      "inputs": [],
      "name": "InvalidTraderJoeLpToken",
      "type": "error"
    },
    {
      "inputs": [],
      "name": "InvestmentLimitPerAddressExceeded",
      "type": "error"
    },
    {
      "inputs": [],
      "name": "TooSmallDepositTokenAmountOut",
      "type": "error"
    },
    {
      "inputs": [],
      "name": "TotalInvestmentLimitExceeded",
      "type": "error"
    },
    {
      "inputs": [],
      "name": "ZeroAmountDeposited",
      "type": "error"
    },
    {
      "inputs": [],
      "name": "ZeroAmountInvested",
      "type": "error"
    },
    {
      "inputs": [],
      "name": "ZeroAmountWithdrawn",
      "type": "error"
    },
    {
      "inputs": [],
      "name": "ZeroDepositTokenReceiver",
      "type": "error"
    },
    {
      "inputs": [],
      "name": "ZeroFeeReceiver",
      "type": "error"
    },
    {
      "inputs": [],
      "name": "ZeroInvestmentTokenReceiver",
      "type": "error"
    },
    {
      "anonymous": false,
      "inputs": [
        {
          "indexed": false,
          "internalType": "address",
          "name": "previousAdmin",
          "type": "address"
        },
        {
          "indexed": false,
          "internalType": "address",
          "name": "newAdmin",
          "type": "address"
        }
      ],
      "name": "AdminChanged",
      "type": "event"
    },
    {
      "anonymous": false,
      "inputs": [
        {
          "indexed": true,
          "internalType": "address",
          "name": "beacon",
          "type": "address"
        }
      ],
      "name": "BeaconUpgraded",
      "type": "event"
    },
    {
      "anonymous": false,
      "inputs": [
        {
          "indexed": true,
          "internalType": "address",
          "name": "initiator",
          "type": "address"
        },
        {
          "indexed": true,
          "internalType": "address",
          "name": "investmentTokenReceiver",
          "type": "address"
        },
        {
          "indexed": false,
          "internalType": "uint256",
          "name": "amount",
          "type": "uint256"
        }
      ],
      "name": "Deposit",
      "type": "event"
    },
    {
      "anonymous": false,
      "inputs": [
        {
          "indexed": false,
          "internalType": "uint256",
          "name": "fee",
          "type": "uint256"
        },
        {
          "components": [
            {
              "internalType": "string",
              "name": "key",
              "type": "string"
            },
            {
              "internalType": "string",
              "name": "value",
              "type": "string"
            }
          ],
          "indexed": false,
          "internalType": "struct NameValuePair[]",
          "name": "params",
          "type": "tuple[]"
        }
      ],
      "name": "DepositFeeChange",
      "type": "event"
    },
    {
      "anonymous": false,
      "inputs": [
        {
          "indexed": false,
          "internalType": "uint256",
          "name": "fee",
          "type": "uint256"
        }
      ],
      "name": "FeeClaim",
      "type": "event"
    },
    {
      "anonymous": false,
      "inputs": [
        {
          "indexed": false,
          "internalType": "address",
          "name": "feeReceiver",
          "type": "address"
        },
        {
          "components": [
            {
              "internalType": "string",
              "name": "key",
              "type": "string"
            },
            {
              "internalType": "string",
              "name": "value",
              "type": "string"
            }
          ],
          "indexed": false,
          "internalType": "struct NameValuePair[]",
          "name": "params",
          "type": "tuple[]"
        }
      ],
      "name": "FeeReceiverChange",
      "type": "event"
    },
    {
      "anonymous": false,
      "inputs": [
        {
          "indexed": false,
          "internalType": "uint8",
          "name": "version",
          "type": "uint8"
        }
      ],
      "name": "Initialized",
      "type": "event"
    },
    {
      "anonymous": false,
      "inputs": [
        {
          "indexed": true,
          "internalType": "address",
          "name": "previousOwner",
          "type": "address"
        },
        {
          "indexed": true,
          "internalType": "address",
          "name": "newOwner",
          "type": "address"
        }
      ],
      "name": "OwnershipTransferred",
      "type": "event"
    },
    {
      "anonymous": false,
      "inputs": [
        {
          "indexed": false,
          "internalType": "address",
          "name": "account",
          "type": "address"
        }
      ],
      "name": "Paused",
      "type": "event"
    },
    {
      "anonymous": false,
      "inputs": [
        {
          "indexed": false,
          "internalType": "uint256",
          "name": "fee",
          "type": "uint256"
        },
        {
          "components": [
            {
              "internalType": "string",
              "name": "key",
              "type": "string"
            },
            {
              "internalType": "string",
              "name": "value",
              "type": "string"
            }
          ],
          "indexed": false,
          "internalType": "struct NameValuePair[]",
          "name": "params",
          "type": "tuple[]"
        }
      ],
      "name": "PerformanceFeeChange",
      "type": "event"
    },
    {
      "anonymous": false,
      "inputs": [
        {
          "indexed": false,
          "internalType": "uint256",
          "name": "amount",
          "type": "uint256"
        }
      ],
      "name": "RewardProcess",
      "type": "event"
    },
    {
      "anonymous": false,
      "inputs": [
        {
          "indexed": true,
          "internalType": "address",
          "name": "withdrawer",
          "type": "address"
        },
        {
          "indexed": false,
          "internalType": "uint256",
          "name": "amount",
          "type": "uint256"
        }
      ],
      "name": "RewardWithdraw",
      "type": "event"
    },
    {
      "anonymous": false,
      "inputs": [
        {
          "indexed": false,
          "internalType": "address",
          "name": "account",
          "type": "address"
        }
      ],
      "name": "Unpaused",
      "type": "event"
    },
    {
      "anonymous": false,
      "inputs": [
        {
          "indexed": true,
          "internalType": "address",
          "name": "implementation",
          "type": "address"
        }
      ],
      "name": "Upgraded",
      "type": "event"
    },
    {
      "anonymous": false,
      "inputs": [
        {
          "indexed": true,
          "internalType": "address",
          "name": "initiator",
          "type": "address"
        },
        {
          "indexed": true,
          "internalType": "address",
          "name": "depositTokenReceiver",
          "type": "address"
        },
        {
          "indexed": false,
          "internalType": "uint256",
          "name": "amount",
          "type": "uint256"
        }
      ],
      "name": "Withdrawal",
      "type": "event"
    },
    {
      "anonymous": false,
      "inputs": [
        {
          "indexed": false,
          "internalType": "uint256",
          "name": "fee",
          "type": "uint256"
        },
        {
          "components": [
            {
              "internalType": "string",
              "name": "key",
              "type": "string"
            },
            {
              "internalType": "string",
              "name": "value",
              "type": "string"
            }
          ],
          "indexed": false,
          "internalType": "struct NameValuePair[]",
          "name": "params",
          "type": "tuple[]"
        }
      ],
      "name": "WithdrawalFeeChange",
      "type": "event"
    },
    {
      "inputs": [
        {
          "components": [
            {
              "internalType": "string",
              "name": "key",
              "type": "string"
            },
            {
              "internalType": "string",
              "name": "value",
              "type": "string"
            }
          ],
          "internalType": "struct NameValuePair[]",
          "name": "",
          "type": "tuple[]"
        }
      ],
      "name": "claimFee",
      "outputs": [],
      "stateMutability": "nonpayable",
      "type": "function"
    },
    {
      "inputs": [
        {
          "internalType": "uint256",
          "name": "depositTokenAmountIn",
          "type": "uint256"
        },
        {
          "internalType": "uint256",
          "name": "minimumDepositTokenAmountOut",
          "type": "uint256"
        },
        {
          "internalType": "address",
          "name": "investmentTokenReceiver",
          "type": "address"
        },
        {
          "components": [
            {
              "internalType": "string",
              "name": "key",
              "type": "string"
            },
            {
              "internalType": "string",
              "name": "value",
              "type": "string"
            }
          ],
          "internalType": "struct NameValuePair[]",
          "name": "params",
          "type": "tuple[]"
        }
      ],
      "name": "deposit",
      "outputs": [],
      "stateMutability": "nonpayable",
      "type": "function"
    },
    {
      "inputs": [],
      "name": "getAssetBalances",
      "outputs": [
        {
          "components": [
            {
              "internalType": "address",
              "name": "asset",
              "type": "address"
            },
            {
              "internalType": "uint256",
              "name": "balance",
              "type": "uint256"
            }
          ],
          "internalType": "struct IAum.Balance[]",
          "name": "balances",
          "type": "tuple[]"
        }
      ],
      "stateMutability": "view",
      "type": "function"
    },
    {
      "inputs": [
        {
          "internalType": "bool",
          "name": "shouldMaximise",
          "type": "bool"
        },
        {
          "internalType": "bool",
          "name": "shouldIncludeAmmPrice",
          "type": "bool"
        }
      ],
      "name": "getAssetValuations",
      "outputs": [
        {
          "components": [
            {
              "internalType": "address",
              "name": "asset",
              "type": "address"
            },
            {
              "internalType": "uint256",
              "name": "valuation",
              "type": "uint256"
            }
          ],
          "internalType": "struct IAum.Valuation[]",
          "name": "valuations",
          "type": "tuple[]"
        }
      ],
      "stateMutability": "view",
      "type": "function"
    },
    {
      "inputs": [],
      "name": "getClaimedFee",
      "outputs": [
        {
          "internalType": "uint256",
          "name": "",
          "type": "uint256"
        }
      ],
      "stateMutability": "view",
      "type": "function"
    },
    {
      "inputs": [],
      "name": "getCurrentAccumulatedFee",
      "outputs": [
        {
          "internalType": "uint256",
          "name": "",
          "type": "uint256"
        }
      ],
      "stateMutability": "view",
      "type": "function"
    },
    {
      "inputs": [
        {
          "components": [
            {
              "internalType": "string",
              "name": "key",
              "type": "string"
            },
            {
              "internalType": "string",
              "name": "value",
              "type": "string"
            }
          ],
          "internalType": "struct NameValuePair[]",
          "name": "",
          "type": "tuple[]"
        }
      ],
      "name": "getDepositFee",
      "outputs": [
        {
          "internalType": "uint24",
          "name": "",
          "type": "uint24"
        }
      ],
      "stateMutability": "view",
      "type": "function"
    },
    {
      "inputs": [],
      "name": "getDepositToken",
      "outputs": [
        {
          "internalType": "contract IERC20Upgradeable",
          "name": "",
          "type": "address"
        }
      ],
      "stateMutability": "view",
      "type": "function"
    },
    {
      "inputs": [
        {
          "internalType": "bool",
          "name": "shouldMaximise",
          "type": "bool"
        },
        {
          "internalType": "bool",
          "name": "shouldIncludeAmmPrice",
          "type": "bool"
        }
      ],
      "name": "getEquityValuation",
      "outputs": [
        {
          "internalType": "uint256",
          "name": "",
          "type": "uint256"
        }
      ],
      "stateMutability": "view",
      "type": "function"
    },
    {
      "inputs": [
        {
          "components": [
            {
              "internalType": "string",
              "name": "key",
              "type": "string"
            },
            {
              "internalType": "string",
              "name": "value",
              "type": "string"
            }
          ],
          "internalType": "struct NameValuePair[]",
          "name": "",
          "type": "tuple[]"
        }
      ],
      "name": "getFeeReceiver",
      "outputs": [
        {
          "internalType": "address",
          "name": "",
          "type": "address"
        }
      ],
      "stateMutability": "view",
      "type": "function"
    },
    {
      "inputs": [],
      "name": "getInvestmentLimitPerAddress",
      "outputs": [
        {
          "internalType": "uint256",
          "name": "",
          "type": "uint256"
        }
      ],
      "stateMutability": "view",
      "type": "function"
    },
    {
      "inputs": [],
      "name": "getInvestmentToken",
      "outputs": [
        {
          "internalType": "contract IInvestmentToken",
          "name": "",
          "type": "address"
        }
      ],
      "stateMutability": "view",
      "type": "function"
    },
    {
      "inputs": [
        {
          "internalType": "address",
          "name": "account",
          "type": "address"
        }
      ],
      "name": "getInvestmentTokenBalanceOf",
      "outputs": [
        {
          "internalType": "uint256",
          "name": "",
          "type": "uint256"
        }
      ],
      "stateMutability": "view",
      "type": "function"
    },
    {
      "inputs": [],
      "name": "getInvestmentTokenSupply",
      "outputs": [
        {
          "internalType": "uint256",
          "name": "",
          "type": "uint256"
        }
      ],
      "stateMutability": "view",
      "type": "function"
    },
    {
      "inputs": [],
      "name": "getLiabilityBalances",
      "outputs": [
        {
          "components": [
            {
              "internalType": "address",
              "name": "asset",
              "type": "address"
            },
            {
              "internalType": "uint256",
              "name": "balance",
              "type": "uint256"
            }
          ],
          "internalType": "struct IAum.Balance[]",
          "name": "balances",
          "type": "tuple[]"
        }
      ],
      "stateMutability": "view",
      "type": "function"
    },
    {
      "inputs": [
        {
          "internalType": "bool",
          "name": "shouldMaximise",
          "type": "bool"
        },
        {
          "internalType": "bool",
          "name": "shouldIncludeAmmPrice",
          "type": "bool"
        }
      ],
      "name": "getLiabilityValuations",
      "outputs": [
        {
          "components": [
            {
              "internalType": "address",
              "name": "asset",
              "type": "address"
            },
            {
              "internalType": "uint256",
              "name": "valuation",
              "type": "uint256"
            }
          ],
          "internalType": "struct IAum.Valuation[]",
          "name": "",
          "type": "tuple[]"
        }
      ],
      "stateMutability": "view",
      "type": "function"
    },
    {
      "inputs": [
        {
          "components": [
            {
              "internalType": "string",
              "name": "key",
              "type": "string"
            },
            {
              "internalType": "string",
              "name": "value",
              "type": "string"
            }
          ],
          "internalType": "struct NameValuePair[]",
          "name": "",
          "type": "tuple[]"
        }
      ],
      "name": "getPerformanceFee",
      "outputs": [
        {
          "internalType": "uint24",
          "name": "",
          "type": "uint24"
        }
      ],
      "stateMutability": "view",
      "type": "function"
    },
    {
      "inputs": [
        {
          "components": [
            {
              "internalType": "string",
              "name": "key",
              "type": "string"
            },
            {
              "internalType": "string",
              "name": "value",
              "type": "string"
            }
          ],
          "internalType": "struct NameValuePair[]",
          "name": "params",
          "type": "tuple[]"
        }
      ],
      "name": "getTotalDepositFee",
      "outputs": [
        {
          "internalType": "uint24",
          "name": "",
          "type": "uint24"
        }
      ],
      "stateMutability": "view",
      "type": "function"
    },
    {
      "inputs": [],
      "name": "getTotalInvestmentLimit",
      "outputs": [
        {
          "internalType": "uint256",
          "name": "",
          "type": "uint256"
        }
      ],
      "stateMutability": "view",
      "type": "function"
    },
    {
      "inputs": [
        {
          "components": [
            {
              "internalType": "string",
              "name": "key",
              "type": "string"
            },
            {
              "internalType": "string",
              "name": "value",
              "type": "string"
            }
          ],
          "internalType": "struct NameValuePair[]",
          "name": "params",
          "type": "tuple[]"
        }
      ],
      "name": "getTotalPerformanceFee",
      "outputs": [
        {
          "internalType": "uint24",
          "name": "",
          "type": "uint24"
        }
      ],
      "stateMutability": "view",
      "type": "function"
    },
    {
      "inputs": [
        {
          "components": [
            {
              "internalType": "string",
              "name": "key",
              "type": "string"
            },
            {
              "internalType": "string",
              "name": "value",
              "type": "string"
            }
          ],
          "internalType": "struct NameValuePair[]",
          "name": "params",
          "type": "tuple[]"
        }
      ],
      "name": "getTotalWithdrawalFee",
      "outputs": [
        {
          "internalType": "uint24",
          "name": "",
          "type": "uint24"
        }
      ],
      "stateMutability": "view",
      "type": "function"
    },
    {
      "inputs": [],
      "name": "getTraderJoeLpBalance",
      "outputs": [
        {
          "internalType": "uint256",
          "name": "",
          "type": "uint256"
        }
      ],
      "stateMutability": "view",
      "type": "function"
    },
    {
      "inputs": [],
      "name": "getTraderJoeLpReserve",
      "outputs": [
        {
          "internalType": "uint256",
          "name": "",
          "type": "uint256"
        }
      ],
      "stateMutability": "view",
      "type": "function"
    },
    {
      "inputs": [
        {
          "components": [
            {
              "internalType": "string",
              "name": "key",
              "type": "string"
            },
            {
              "internalType": "string",
              "name": "value",
              "type": "string"
            }
          ],
          "internalType": "struct NameValuePair[]",
          "name": "",
          "type": "tuple[]"
        }
      ],
      "name": "getWithdrawalFee",
      "outputs": [
        {
          "internalType": "uint24",
          "name": "",
          "type": "uint24"
        }
      ],
      "stateMutability": "view",
      "type": "function"
    },
    {
      "inputs": [],
      "name": "humanReadableName",
      "outputs": [
        {
          "internalType": "string",
          "name": "",
          "type": "string"
        }
      ],
      "stateMutability": "view",
      "type": "function"
    },
    {
      "inputs": [
        {
          "components": [
            {
              "internalType": "contract IInvestmentToken",
              "name": "investmentToken",
              "type": "address"
            },
            {
              "internalType": "contract IERC20Upgradeable",
              "name": "depositToken",
              "type": "address"
            },
            {
              "internalType": "uint24",
              "name": "depositFee",
              "type": "uint24"
            },
            {
              "components": [
                {
                  "internalType": "string",
                  "name": "key",
                  "type": "string"
                },
                {
                  "internalType": "string",
                  "name": "value",
                  "type": "string"
                }
              ],
              "internalType": "struct NameValuePair[]",
              "name": "depositFeeParams",
              "type": "tuple[]"
            },
            {
              "internalType": "uint24",
              "name": "withdrawalFee",
              "type": "uint24"
            },
            {
              "components": [
                {
                  "internalType": "string",
                  "name": "key",
                  "type": "string"
                },
                {
                  "internalType": "string",
                  "name": "value",
                  "type": "string"
                }
              ],
              "internalType": "struct NameValuePair[]",
              "name": "withdrawFeeParams",
              "type": "tuple[]"
            },
            {
              "internalType": "uint24",
              "name": "performanceFee",
              "type": "uint24"
            },
            {
              "components": [
                {
                  "internalType": "string",
                  "name": "key",
                  "type": "string"
                },
                {
                  "internalType": "string",
                  "name": "value",
                  "type": "string"
                }
              ],
              "internalType": "struct NameValuePair[]",
              "name": "performanceFeeParams",
              "type": "tuple[]"
            },
            {
              "internalType": "address",
              "name": "feeReceiver",
              "type": "address"
            },
            {
              "components": [
                {
                  "internalType": "string",
                  "name": "key",
                  "type": "string"
                },
                {
                  "internalType": "string",
                  "name": "value",
                  "type": "string"
                }
              ],
              "internalType": "struct NameValuePair[]",
              "name": "feeReceiverParams",
              "type": "tuple[]"
            },
            {
              "internalType": "uint256",
              "name": "totalInvestmentLimit",
              "type": "uint256"
            },
            {
              "internalType": "uint256",
              "name": "investmentLimitPerAddress",
              "type": "uint256"
            },
            {
              "internalType": "contract IPriceOracle",
              "name": "priceOracle",
              "type": "address"
            },
            {
              "internalType": "uint8",
              "name": "swapServiceProvider",
              "type": "uint8"
            },
            {
              "internalType": "address",
              "name": "swapServiceRouter",
              "type": "address"
            },
            {
              "components": [
                {
                  "internalType": "bytes32",
                  "name": "role",
                  "type": "bytes32"
                },
                {
                  "internalType": "address[]",
                  "name": "user",
                  "type": "address[]"
                }
              ],
              "internalType": "struct RoleToUsers[]",
              "name": "roleToUsersArray",
              "type": "tuple[]"
            }
          ],
          "internalType": "struct StrategyArgs",
          "name": "strategyArgs",
          "type": "tuple"
        },
        {
          "internalType": "contract ITraderJoeRouter",
          "name": "router",
          "type": "address"
        },
        {
          "internalType": "contract ITraderJoeMasterChef",
          "name": "masterChef",
          "type": "address"
        },
        {
          "internalType": "contract ITraderJoePair",
          "name": "lpToken",
          "type": "address"
        },
        {
          "internalType": "contract IERC20Upgradeable",
          "name": "joeToken",
          "type": "address"
        }
      ],
      "name": "initialize",
      "outputs": [],
      "stateMutability": "nonpayable",
      "type": "function"
    },
    {
      "inputs": [],
      "name": "owner",
      "outputs": [
        {
          "internalType": "address",
          "name": "",
          "type": "address"
        }
      ],
      "stateMutability": "view",
      "type": "function"
    },
    {
      "inputs": [],
      "name": "pause",
      "outputs": [],
      "stateMutability": "nonpayable",
      "type": "function"
    },
    {
      "inputs": [],
      "name": "paused",
      "outputs": [
        {
          "internalType": "bool",
          "name": "",
          "type": "bool"
        }
      ],
      "stateMutability": "view",
      "type": "function"
    },
    {
      "inputs": [],
      "name": "priceOracle",
      "outputs": [
        {
          "internalType": "contract IPriceOracle",
          "name": "",
          "type": "address"
        }
      ],
      "stateMutability": "view",
      "type": "function"
    },
    {
      "inputs": [
        {
          "components": [
            {
              "internalType": "string",
              "name": "key",
              "type": "string"
            },
            {
              "internalType": "string",
              "name": "value",
              "type": "string"
            }
          ],
          "internalType": "struct NameValuePair[]",
          "name": "depositParams",
          "type": "tuple[]"
        },
        {
          "components": [
            {
              "internalType": "string",
              "name": "key",
              "type": "string"
            },
            {
              "internalType": "string",
              "name": "value",
              "type": "string"
            }
          ],
          "internalType": "struct NameValuePair[]",
          "name": "reapRewardParams",
          "type": "tuple[]"
        }
      ],
      "name": "processReward",
      "outputs": [],
      "stateMutability": "nonpayable",
      "type": "function"
    },
    {
      "inputs": [],
      "name": "proxiableUUID",
      "outputs": [
        {
          "internalType": "bytes32",
          "name": "",
          "type": "bytes32"
        }
      ],
      "stateMutability": "view",
      "type": "function"
    },
    {
      "inputs": [],
      "name": "renounceOwnership",
      "outputs": [],
      "stateMutability": "nonpayable",
      "type": "function"
    },
    {
      "inputs": [
        {
          "internalType": "uint24",
          "name": "fee_",
          "type": "uint24"
        },
        {
          "components": [
            {
              "internalType": "string",
              "name": "key",
              "type": "string"
            },
            {
              "internalType": "string",
              "name": "value",
              "type": "string"
            }
          ],
          "internalType": "struct NameValuePair[]",
          "name": "params",
          "type": "tuple[]"
        }
      ],
      "name": "setDepositFee",
      "outputs": [],
      "stateMutability": "nonpayable",
      "type": "function"
    },
    {
      "inputs": [
        {
          "internalType": "address",
          "name": "feeReceiver_",
          "type": "address"
        },
        {
          "components": [
            {
              "internalType": "string",
              "name": "key",
              "type": "string"
            },
            {
              "internalType": "string",
              "name": "value",
              "type": "string"
            }
          ],
          "internalType": "struct NameValuePair[]",
          "name": "params",
          "type": "tuple[]"
        }
      ],
      "name": "setFeeReceiver",
      "outputs": [],
      "stateMutability": "nonpayable",
      "type": "function"
    },
    {
      "inputs": [
        {
          "internalType": "uint256",
          "name": "investmentLimitPerAddress",
          "type": "uint256"
        }
      ],
      "name": "setInvestmentLimitPerAddress",
      "outputs": [],
      "stateMutability": "nonpayable",
      "type": "function"
    },
    {
      "inputs": [
        {
          "internalType": "contract IInvestmentToken",
          "name": "investmentToken",
          "type": "address"
        }
      ],
      "name": "setInvestmentToken",
      "outputs": [],
      "stateMutability": "nonpayable",
      "type": "function"
    },
    {
      "inputs": [
        {
          "internalType": "uint24",
          "name": "fee_",
          "type": "uint24"
        },
        {
          "components": [
            {
              "internalType": "string",
              "name": "key",
              "type": "string"
            },
            {
              "internalType": "string",
              "name": "value",
              "type": "string"
            }
          ],
          "internalType": "struct NameValuePair[]",
          "name": "params",
          "type": "tuple[]"
        }
      ],
      "name": "setPerformanceFee",
      "outputs": [],
      "stateMutability": "nonpayable",
      "type": "function"
    },
    {
      "inputs": [
        {
          "internalType": "contract IPriceOracle",
          "name": "priceOracle",
          "type": "address"
        }
      ],
      "name": "setPriceOracle",
      "outputs": [],
      "stateMutability": "nonpayable",
      "type": "function"
    },
    {
      "inputs": [
        {
          "internalType": "enum StrategyBaseUpgradeable.SwapServiceProvider",
          "name": "provider",
          "type": "uint8"
        },
        {
          "internalType": "address",
          "name": "router",
          "type": "address"
        }
      ],
      "name": "setSwapService",
      "outputs": [],
      "stateMutability": "nonpayable",
      "type": "function"
    },
    {
      "inputs": [
        {
          "internalType": "uint256",
          "name": "totalInvestmentLimit",
          "type": "uint256"
        }
      ],
      "name": "setTotalInvestmentLimit",
      "outputs": [],
      "stateMutability": "nonpayable",
      "type": "function"
    },
    {
      "inputs": [
        {
          "internalType": "uint24",
          "name": "fee_",
          "type": "uint24"
        },
        {
          "components": [
            {
              "internalType": "string",
              "name": "key",
              "type": "string"
            },
            {
              "internalType": "string",
              "name": "value",
              "type": "string"
            }
          ],
          "internalType": "struct NameValuePair[]",
          "name": "params",
          "type": "tuple[]"
        }
      ],
      "name": "setWithdrawalFee",
      "outputs": [],
      "stateMutability": "nonpayable",
      "type": "function"
    },
    {
      "inputs": [
        {
          "internalType": "bytes4",
          "name": "interfaceId",
          "type": "bytes4"
        }
      ],
      "name": "supportsInterface",
      "outputs": [
        {
          "internalType": "bool",
          "name": "",
          "type": "bool"
        }
      ],
      "stateMutability": "view",
      "type": "function"
    },
    {
      "inputs": [],
      "name": "swapService",
      "outputs": [
        {
          "internalType": "enum StrategyBaseUpgradeable.SwapServiceProvider",
          "name": "provider",
          "type": "uint8"
        },
        {
          "internalType": "address",
          "name": "router",
          "type": "address"
        }
      ],
      "stateMutability": "view",
      "type": "function"
    },
    {
      "inputs": [],
      "name": "trackingName",
      "outputs": [
        {
          "internalType": "string",
          "name": "",
          "type": "string"
        }
      ],
      "stateMutability": "view",
      "type": "function"
    },
    {
      "inputs": [
        {
          "internalType": "address",
          "name": "newOwner",
          "type": "address"
        }
      ],
      "name": "transferOwnership",
      "outputs": [],
      "stateMutability": "nonpayable",
      "type": "function"
    },
    {
      "inputs": [],
      "name": "uninvestedDepositTokenAmount",
      "outputs": [
        {
          "internalType": "uint256",
          "name": "",
          "type": "uint256"
        }
      ],
      "stateMutability": "view",
      "type": "function"
    },
    {
      "inputs": [],
      "name": "unpause",
      "outputs": [],
      "stateMutability": "nonpayable",
      "type": "function"
    },
    {
      "inputs": [
        {
          "internalType": "address",
          "name": "newImplementation",
          "type": "address"
        }
      ],
      "name": "upgradeTo",
      "outputs": [],
      "stateMutability": "nonpayable",
      "type": "function"
    },
    {
      "inputs": [
        {
          "internalType": "address",
          "name": "newImplementation",
          "type": "address"
        },
        {
          "internalType": "bytes",
          "name": "data",
          "type": "bytes"
        }
      ],
      "name": "upgradeToAndCall",
      "outputs": [],
      "stateMutability": "payable",
      "type": "function"
    },
    {
      "inputs": [],
      "name": "version",
      "outputs": [
        {
          "internalType": "string",
          "name": "",
          "type": "string"
        }
      ],
      "stateMutability": "view",
      "type": "function"
    },
    {
      "inputs": [
        {
          "internalType": "uint256",
          "name": "investmentTokenAmountIn",
          "type": "uint256"
        },
        {
          "internalType": "uint256",
          "name": "minimumDepositTokenAmountOut",
          "type": "uint256"
        },
        {
          "internalType": "address",
          "name": "depositTokenReceiver",
          "type": "address"
        },
        {
          "components": [
            {
              "internalType": "string",
              "name": "key",
              "type": "string"
            },
            {
              "internalType": "string",
              "name": "value",
              "type": "string"
            }
          ],
          "internalType": "struct NameValuePair[]",
          "name": "params",
          "type": "tuple[]"
        }
      ],
      "name": "withdraw",
      "outputs": [],
      "stateMutability": "nonpayable",
      "type": "function"
    },
    {
      "inputs": [
        {
          "components": [
            {
              "internalType": "string",
              "name": "key",
              "type": "string"
            },
            {
              "internalType": "string",
              "name": "value",
              "type": "string"
            }
          ],
          "internalType": "struct NameValuePair[]",
          "name": "withdrawParams",
          "type": "tuple[]"
        }
      ],
      "name": "withdrawReward",
      "outputs": [],
      "stateMutability": "nonpayable",
      "type": "function"
    }
  ],
  "bytecode": "0x60a0604052306080523480156200001557600080fd5b506200002062000026565b6200013f565b6200003260ff62000035565b50565b60008054610100900460ff16156200009e578160ff1660011480156200006e57506200006c30620000e260201b62001c9e1760201c565b155b620000965760405162461bcd60e51b81526004016200008d90620000f1565b60405180910390fd5b506000919050565b60005460ff808416911610620000c85760405162461bcd60e51b81526004016200008d90620000f1565b506000805460ff191660ff92909216919091179055600190565b6001600160a01b03163b151590565b6020808252602e908201527f496e697469616c697a61626c653a20636f6e747261637420697320616c72656160408201526d191e481a5b9a5d1a585b1a5e995960921b606082015260800190565b608051614cd662000177600039600081816111a4015281816111e4015281816114030152818161144301526114bb0152614cd66000f3fe60806040526004361061025a5760003560e01c806301ffc9a71461025f5780630c976b9a14610294578063146264db146102b6578063163c210a146102d3578063181534ae146102f35780631fda1214146103165780632075fcf81461033657806320a4cd6d146103565780632630c12f1461038357806327b3a8c9146103b15780632f28690e146103d1578063308dade1146103f1578063346cd3c5146104065780633659cfe6146104265780633acefea7146104465780633c3129e3146104665780633f4ba83a14610486578063402cb4d11461049b57806344dc283b146104bb57806349eca013146104ef5780634ab2d57b1461050f5780634f1ef2861461052f57806352d1902d14610542578063530e784f1461055757806354fd4d50146105775780635c975abb146105b55780635ccadb88146105cd57806362f18a69146105e357806364ea9f1d14610603578063715018a6146106185780637bd075411461062d578063803bdca11461064d5780638456cb591461066d57806385a73627146106825780638b2014b6146106a25780638da5cb5b146106b85780638e35c3f8146106cd578063924e72ab146107065780639465345114610726578063958b87f914610746578063a190a85514610773578063aa6446ce14610793578063b4464c46146107d1578063b55541f5146107fa578063cf7b960514610811578063cfcab38c14610830578063d622e73e14610845578063dcd4d52514610865578063eb2dc9b61461087a578063f2fde38b14610890578063fa835329146108b0578063fb1b5c7b146108c6578063fcd1e90c146108e5575b600080fd5b34801561026b57600080fd5b5061027f61027a366004613ee9565b610905565b60405190151581526020015b60405180910390f35b3480156102a057600080fd5b506102b46102af366004613f5e565b6109a0565b005b3480156102c257600080fd5b5060605b60405161028b9190613fb7565b3480156102df57600080fd5b506102b46102ee366004614004565b610a5e565b3480156102ff57600080fd5b50610308610d1f565b60405190815260200161028b565b34801561032257600080fd5b506102b4610331366004614082565b610dcb565b34801561034257600080fd5b506103086103513660046140e9565b610e0a565b34801561036257600080fd5b50610376610371366004614114565b610e7d565b60405161028b919061414d565b34801561038f57600080fd5b50610197546103a4906001600160a01b031681565b60405161028b919061418d565b3480156103bd57600080fd5b506102b46103cc3660046141a1565b610faa565b3480156103dd57600080fd5b506102b46103ec3660046141ba565b610fe6565b3480156103fd57600080fd5b506102c6611023565b34801561041257600080fd5b506102b46104213660046140e9565b61114b565b34801561043257600080fd5b506102b46104413660046140e9565b611199565b34801561045257600080fd5b506102b4610461366004614082565b61125f565b34801561047257600080fd5b506102b46104813660046141ec565b611299565b34801561049257600080fd5b506102b46112d0565b3480156104a757600080fd5b506103086104b6366004614114565b611309565b3480156104c757600080fd5b506104db6104d6366004613f5e565b6113cc565b60405162ffffff909116815260200161028b565b3480156104fb57600080fd5b5061037661050a366004614114565b6113e1565b34801561051b57600080fd5b506104db61052a366004613f5e565b6113ec565b6102b461053d36600461429b565b6113f8565b34801561054e57600080fd5b506103086114ae565b34801561056357600080fd5b506102b46105723660046140e9565b61155c565b34801561058357600080fd5b506105a8604051806040016040528060058152602001640322e302e360dc1b81525081565b60405161028b919061436e565b3480156105c157600080fd5b5060975460ff1661027f565b3480156105d957600080fd5b5061018b54610308565b3480156105ef57600080fd5b506102b46105fe3660046141ec565b611594565b34801561060f57600080fd5b506103086115c4565b34801561062457600080fd5b506102b4611633565b34801561063957600080fd5b506104db610648366004613f5e565b61166c565b34801561065957600080fd5b506102b46106683660046143a1565b611678565b34801561067957600080fd5b506102b46116b2565b34801561068e57600080fd5b506102b461069d3660046141a1565b6116e9565b3480156106ae57600080fd5b5061018c54610308565b3480156106c457600080fd5b506103a4611722565b3480156106d957600080fd5b50610198546106f89060ff81169061010090046001600160a01b031682565b60405161028b9291906143d7565b34801561071257600080fd5b506102b4610721366004614411565b611731565b34801561073257600080fd5b506104db610741366004613f5e565b611ad5565b34801561075257600080fd5b506103a4610761366004613f5e565b5050610162546001600160a01b031690565b34801561077f57600080fd5b506102b461078e366004613f5e565b611aea565b34801561079f57600080fd5b506105a8604051806040016040528060128152602001715472616465724a6f6520537472617465677960701b81525081565b3480156107dd57600080fd5b506104db6107ec366004613f5e565b505061015f5462ffffff1690565b34801561080657600080fd5b506103086101995481565b34801561081d57600080fd5b50610195546001600160a01b03166103a4565b34801561083c57600080fd5b506105a8611b0d565b34801561085157600080fd5b506104db610860366004613f5e565b611b29565b34801561087157600080fd5b50610308611b3a565b34801561088657600080fd5b5061016154610308565b34801561089c57600080fd5b506102b46108ab3660046140e9565b611bc7565b3480156108bc57600080fd5b5061016054610308565b3480156108d257600080fd5b50610196546001600160a01b03166103a4565b3480156108f157600080fd5b506102b4610900366004614082565b611c64565b60006001600160e01b03198216630491473760e41b148061093657506001600160e01b03198216632979dc6560e11b145b8061095157506001600160e01b03198216631a6153f360e01b145b8061096c57506001600160e01b0319821663b7ac895f60e01b145b8061097f57506001600160e01b03198216155b8061099a57506301ffc9a760e01b6001600160e01b03198316145b92915050565b600260fb5414156109cc5760405162461bcd60e51b81526004016109c3906144a0565b60405180910390fd5b600260fb55610160546109f26109e26101615490565b6109ec90836144ed565b61016155565b6109fd600061016055565b6040518181527f296614b32c3d193fb9c7a7bcbec919dedece17659a90d0cc2b5b23da167e6fcd9060200160405180910390a16101625461019654610a4f916001600160a01b03918216911683611cad565b5050600160fb5550565b905090565b600260fb541415610a815760405162461bcd60e51b81526004016109c3906144a0565b600260fb55610196546040516370a0823160e01b81526000916001600160a01b0316906370a0823190610ab890309060040161418d565b602060405180830381865afa158015610ad5573d6000803e3d6000fd5b505050506040513d601f19601f82011682018060405250810190610af99190614505565b9050610b058383611d03565b610196546040516370a0823160e01b815260009183916001600160a01b03909116906370a0823190610b3b90309060040161418d565b602060405180830381865afa158015610b58573d6000803e3d6000fd5b505050506040513d601f19601f82011682018060405250810190610b7c9190614505565b610b86919061451e565b90506101995481610b9791906144ed565b90507f7e3eaf1040dd23019433d0b1d9507d1f28cdfb716f87723fa836d747b7444cb381604051610bca91815260200190565b60405180910390a180610bde575050610d14565b610196546040516370a0823160e01b81526001600160a01b03909116906370a0823190610c0f90309060040161418d565b602060405180830381865afa158015610c2c573d6000803e3d6000fd5b505050506040513d601f19601f82011682018060405250810190610c509190614505565b9150610c5d818787611ee2565b610196546040516370a0823160e01b81526000916001600160a01b0316906370a0823190610c8f90309060040161418d565b602060405180830381865afa158015610cac573d6000803e3d6000fd5b505050506040513d601f19601f82011682018060405250810190610cd09190614505565b610cda908461451e565b9050610ce6818361451e565b610199556040518281526000903090600080516020614be78339815191529060200160405180910390a35050505b5050600160fb555050565b600080610d2a612296565b90506000808260030160009054906101000a90046001600160a01b03166001600160a01b0316630902f1ac6040518163ffffffff1660e01b8152600401606060405180830381865afa158015610d84573d6000803e3d6000fd5b505050506040513d601f19601f82011682018060405250810190610da8919061454c565b506001600160701b039182169350169050610dc381836144ed565b935050505090565b33610dd4611722565b6001600160a01b031614610dfa5760405162461bcd60e51b81526004016109c39061459c565b610e058383836122ba565b505050565b610195546040516370a0823160e01b81526000916001600160a01b0316906370a0823190610e3c90859060040161418d565b602060405180830381865afa158015610e59573d6000803e3d6000fd5b505050506040513d601f19601f8201168201806040525081019061099a9190614505565b60606000610e8b8484612357565b9050600081516001610e9d91906144ed565b9050806001600160401b03811115610eb757610eb7614255565b604051908082528060200260200182016040528015610ef057816020015b610edd613ed2565b815260200190600190039081610ed55790505b50925060005b610f0160018361451e565b811015610f5057828181518110610f1a57610f1a6145d1565b6020026020010151848281518110610f3457610f346145d1565b602002602001018190525080610f49906145e7565b9050610ef6565b506040805180820190915273b97ef9ef8734c71904d8002f8b6bc66dd9c48a6e815261019954602082015283610f8760018461451e565b81518110610f9757610f976145d1565b6020026020010181905250505092915050565b33610fb3611722565b6001600160a01b031614610fd95760405162461bcd60e51b81526004016109c39061459c565b610fe38161018c55565b50565b33610fef611722565b6001600160a01b0316146110155760405162461bcd60e51b81526004016109c39061459c565b61101f828261245d565b5050565b6060600061102f6124de565b905060008151600161104191906144ed565b9050806001600160401b0381111561105b5761105b614255565b60405190808252806020026020018201604052801561109457816020015b611081613ed2565b8152602001906001900390816110795790505b50925060005b6110a560018361451e565b8110156110f4578281815181106110be576110be6145d1565b60200260200101518482815181106110d8576110d86145d1565b6020026020010181905250806110ed906145e7565b905061109a565b506040805180820190915273b97ef9ef8734c71904d8002f8b6bc66dd9c48a6e81526101995460208201528361112b60018461451e565b8151811061113b5761113b6145d1565b6020026020010181905250505090565b33611154611722565b6001600160a01b03161461117a5760405162461bcd60e51b81526004016109c39061459c565b61019580546001600160a01b0319166001600160a01b03831617905550565b306001600160a01b037f00000000000000000000000000000000000000000000000000000000000000001614156111e25760405162461bcd60e51b81526004016109c390614602565b7f00000000000000000000000000000000000000000000000000000000000000006001600160a01b0316611214612569565b6001600160a01b03161461123a5760405162461bcd60e51b81526004016109c39061463c565b61124381612585565b60408051600080825260208201909252610fe3918391906125b4565b33611268611722565b6001600160a01b03161461128e5760405162461bcd60e51b81526004016109c39061459c565b610e0583838361271f565b60975460ff16156112bc5760405162461bcd60e51b81526004016109c390614676565b6112c9858585858561279a565b5050505050565b336112d9611722565b6001600160a01b0316146112ff5760405162461bcd60e51b81526004016109c39061459c565b611307612ab6565b565b60008060006113188585610e7d565b805190915060005b818110156113655782818151811061133a5761133a6145d1565b6020026020010151602001518461135191906144ed565b93508061135d816145e7565b915050611320565b50600061137287876113e1565b805190915060005b818110156113bf57828181518110611394576113946145d1565b602002602001015160200151866113ab919061451e565b9550806113b7816145e7565b91505061137a565b5093979650505050505050565b505061015f546301000000900462ffffff1690565b6060805b9392505050565b60006113e58383611ad5565b306001600160a01b037f00000000000000000000000000000000000000000000000000000000000000001614156114415760405162461bcd60e51b81526004016109c390614602565b7f00000000000000000000000000000000000000000000000000000000000000006001600160a01b0316611473612569565b6001600160a01b0316146114995760405162461bcd60e51b81526004016109c39061463c565b6114a282612585565b61101f828260016125b4565b6000306001600160a01b037f000000000000000000000000000000000000000000000000000000000000000016146115495760405162461bcd60e51b815260206004820152603860248201527f555550535570677261646561626c653a206d757374206e6f742062652063616c6044820152771b1959081d1a1c9bdd59da0819195b1959d85d1958d85b1b60421b60648201526084016109c3565b50600080516020614c5a83398151915290565b33611565611722565b6001600160a01b03161461158b5760405162461bcd60e51b81526004016109c39061459c565b610fe381612b43565b60975460ff16156115b75760405162461bcd60e51b81526004016109c390614676565b6112c98585858585612b66565b61019554604080516318160ddd60e01b815290516000926001600160a01b0316916318160ddd9160048083019260209291908290030181865afa15801561160f573d6000803e3d6000fd5b505050506040513d601f19601f82011682018060405250810190610a599190614505565b3361163c611722565b6001600160a01b0316146116625760405162461bcd60e51b81526004016109c39061459c565b6113076000612e19565b60006113e583836113cc565b33611681611722565b6001600160a01b0316146116a75760405162461bcd60e51b81526004016109c39061459c565b610e05838383612e6b565b336116bb611722565b6001600160a01b0316146116e15760405162461bcd60e51b81526004016109c39061459c565b611307612ef0565b336116f2611722565b6001600160a01b0316146117185760405162461bcd60e51b81526004016109c39061459c565b610fe38161018b55565b60c9546001600160a01b031690565b6002600061173e82612f48565b90508015611756576000805461ff0019166101001790555b61175f87612fdc565b6000611769612296565b80546001600160a01b03808a166001600160a01b03199283161783556001830180548a8316908416179055600383018054898316908416811790915560048085018054938a16939094169290921790925560408051630dfe168160e01b81529051939450600093630dfe1681928281019260209291908290030181865afa1580156117f8573d6000803e3d6000fd5b505050506040513d601f19601f8201168201806040525081019061181c91906146a0565b90506000866001600160a01b031663d21220a76040518163ffffffff1660e01b8152600401602060405180830381865afa15801561185e573d6000803e3d6000fd5b505050506040513d601f19601f8201168201806040525081019061188291906146a0565b610196549091506001600160a01b038381169116146118bd576002830180546001600160a01b0319166001600160a01b03841617905561190e565b610196546001600160a01b038281169116146118f5576002830180546001600160a01b0319166001600160a01b03831617905561190e565b60405163123957c760e11b815260040160405180910390fd5b611942604051806080016040528060006001600160a01b031681526020016000815260200160008152602001600081525090565b6000896001600160a01b031663081e3eda6040518163ffffffff1660e01b8152600401602060405180830381865afa158015611982573d6000803e3d6000fd5b505050506040513d601f19601f820116820180604052508101906119a69190614505565b90506000805b82811015611a5f57604051631526fe2760e01b8152600481018290526001600160a01b038d1690631526fe2790602401608060405180830381865afa1580156119f9573d6000803e3d6000fd5b505050506040513d601f19601f82011682018060405250810190611a1d91906146bd565b93508a6001600160a01b031684600001516001600160a01b03161415611a4d576005870181905560019150611a5f565b80611a57816145e7565b9150506119ac565b5080611a7e5760405163123957c760e11b815260040160405180910390fd5b5050505050508015611acc576000805461ff001916905560405160ff831681527f7f26b83ff96e1f2b6a682f133852f6798a09c465da95921460cefb38474024989060200160405180910390a15b50505050505050565b505061015f54600160301b900462ffffff1690565b60975460ff161561101f5760405162461bcd60e51b81526004016109c390614676565b604051806060016040528060338152602001614c076033913981565b60006113e561015f5462ffffff1690565b600080611b45612296565b600181015460058201546040516393f1a40b60e01b815260048101919091523060248201529192506001600160a01b0316906393f1a40b906044016040805180830381865afa158015611b9c573d6000803e3d6000fd5b505050506040513d601f19601f82011682018060405250810190611bc0919061472b565b5192915050565b33611bd0611722565b6001600160a01b031614611bf65760405162461bcd60e51b81526004016109c39061459c565b6001600160a01b038116611c5b5760405162461bcd60e51b815260206004820152602660248201527f4f776e61626c653a206e6577206f776e657220697320746865207a65726f206160448201526564647265737360d01b60648201526084016109c3565b610fe381612e19565b33611c6d611722565b6001600160a01b031614611c935760405162461bcd60e51b81526004016109c39061459c565b610e05838383613014565b6001600160a01b03163b151590565b610e058363a9059cbb60e01b8484604051602401611ccc929190614779565b60408051601f198184030181529190526020810180516001600160e01b03166001600160e01b0319909316929092179091526130a3565b6000611d0d612296565b60018101546005820154604051631c57762b60e31b81526004810191909152600060248201529192506001600160a01b03169063e2bbb15890604401600060405180830381600087803b158015611d6357600080fd5b505af1158015611d77573d6000803e3d6000fd5b506000925060029150611d879050565b604051908082528060200260200182016040528015611db0578160200160208202803683370190505b50600483015481519192506001600160a01b0316908290600090611dd657611dd66145d1565b6001600160a01b03928316602091820292909201015261019654825191169082906001908110611e0857611e086145d1565b6001600160a01b03909216602092830291909101909101526040805180820190915261019880546112c9929190829060ff168015611e4857611e486143c1565b8015611e5657611e566143c1565b815290546001600160a01b0361010090910481166020909201919091526004808601546040516370a0823160e01b81529216916370a0823191611e9b9130910161418d565b602060405180830381865afa158015611eb8573d6000803e3d6000fd5b505050506040513d601f19601f82011682018060405250810190611edc9190614505565b83613175565b6000611eec612296565b90506000611efb600286614792565b604080516002808252606082018352929350600092909160208301908036833750506101965482519293506001600160a01b031691839150600090611f4257611f426145d1565b6001600160a01b0392831660209182029290920101526002840154825191169082906001908110611f7557611f756145d1565b6001600160a01b0390921660209283029190910190910152604080518082019091526101988054600092611fe5929091829060ff168015611fb857611fb86143c1565b8015611fc657611fc66143c1565b8152905461010090046001600160a01b03166020909101528484613175565b90506000611ff3848961451e565b6002860154865460405163095ea7b360e01b81529293506001600160a01b039182169263095ea7b39261202c9216908690600401614779565b6020604051808303816000875af115801561204b573d6000803e3d6000fd5b505050506040513d601f19601f8201168201806040525081019061206f91906147b4565b5061019654855460405163095ea7b360e01b81526001600160a01b039283169263095ea7b3926120a6929116908590600401614779565b6020604051808303816000875af11580156120c5573d6000803e3d6000fd5b505050506040513d601f19601f820116820180604052508101906120e991906147b4565b50845460028601546101965460405162e8e33760e81b81526001600160a01b0392831660048201529082166024820152604481018590526064810184905260006084820181905260a482018190523060c48301524260e483015292919091169063e8e3370090610104016060604051808303816000875af1158015612172573d6000803e3d6000fd5b505050506040513d601f19601f8201168201806040525081019061219691906147d1565b600389015460018a015460405163095ea7b360e01b81529295506001600160a01b03918216945063095ea7b393506121d5929116908590600401614779565b6020604051808303816000875af11580156121f4573d6000803e3d6000fd5b505050506040513d601f19601f8201168201806040525081019061221891906147b4565b5060018601546005870154604051631c57762b60e31b81526001600160a01b039092169163e2bbb15891612259918590600401918252602082015260400190565b600060405180830381600087803b15801561227357600080fd5b505af1158015612287573d6000803e3d6000fd5b50505050505050505050505050565b7f2c18a668c6ed16d1abb08a50aa4bef7a42b8953231af749500b07f3b5a121f2590565b826122c86103e860646147ff565b8162ffffff16106122ec576040516303689ded60e51b815260040160405180910390fd5b61015f805465ffffff0000001916630100000062ffffff878116820292909217928390556040517f562ffa77d0627a8704e5d9641e53b90a135392b6fb458b619c3cf64555a0adea9361234993929004909116908690869061492c565b60405180910390a150505050565b60606000612363612296565b604080516001808252818301909252919250816020015b612382613ed2565b81526020019060019003908161237a57505060408051808201825260038401546001600160a01b031680825282516318160ddd60e01b8152925193955090926020808501936318160ddd92600480830193928290030181865afa1580156123ed573d6000803e3d6000fd5b505050506040513d601f19601f820116820180604052508101906124119190614505565b612419610d1f565b612421611b3a565b61242b91906147ff565b6124359190614792565b8152508260008151811061244b5761244b6145d1565b60200260200101819052505092915050565b604051806040016040528083600081111561247a5761247a6143c1565b81526001600160a01b03831660209091015280516101988054909190829060ff191660018380156124ad576124ad6143c1565b02179055506020919091015181546001600160a01b0390911661010002610100600160a81b03199091161790555050565b606060006124ea612296565b604080516001808252818301909252919250816020015b612509613ed2565b8152602001906001900390816125015750506040805180820190915260038301546001600160a01b0316815290925060208101612544611b3a565b8152508260008151811061255a5761255a6145d1565b60200260200101819052505090565b600080516020614c5a833981519152546001600160a01b031690565b3361258e611722565b6001600160a01b031614610fe35760405162461bcd60e51b81526004016109c39061459c565b7f4910fdfa16fed3260ed0e7147f7cc6da11a60208b5b9406d12a635614ffd91435460ff16156125e757610e05836132e2565b826001600160a01b03166352d1902d6040518163ffffffff1660e01b8152600401602060405180830381865afa925050508015612641575060408051601f3d908101601f1916820190925261263e91810190614505565b60015b6126a45760405162461bcd60e51b815260206004820152602e60248201527f45524331393637557067726164653a206e657720696d706c656d656e7461746960448201526d6f6e206973206e6f74205555505360901b60648201526084016109c3565b600080516020614c5a83398151915281146127135760405162461bcd60e51b815260206004820152602960248201527f45524331393637557067726164653a20756e737570706f727465642070726f786044820152681a58589b195555525160ba1b60648201526084016109c3565b50610e0583838361337c565b8261272d6103e860646147ff565b8162ffffff1610612751576040516303689ded60e51b815260040160405180910390fd5b61015f805462ffffff191662ffffff86169081179091556040517f7e81a23ec68969b22ae39faba6faa8633338046c205f9d04a30c8a0df04ca3b991612349918690869061492c565b600260fb5414156127bd5760405162461bcd60e51b81526004016109c3906144a0565b600260fb55846127e0576040516347aedd1b60e11b815260040160405180910390fd5b6001600160a01b0383166128075760405163115fd31d60e31b815260040160405180910390fd5b600061281560016000611309565b90506000806128226115c4565b9050801561285057600061283587610e0a565b90508161284282866147ff565b61284c9190614792565b9250505b61285a88846133a7565b61286488836133d4565b610196546040516370a0823160e01b81526000916001600160a01b0316906370a082319061289690309060040161418d565b602060405180830381865afa1580156128b3573d6000803e3d6000fd5b505050506040513d601f19601f820116820180604052508101906128d79190614505565b90506128f233610196546001600160a01b031690308c613401565b6128fd898787611ee2565b610196546040516370a0823160e01b815260009183916001600160a01b03909116906370a082319061293390309060040161418d565b602060405180830381865afa158015612950573d6000803e3d6000fd5b505050506040513d601f19601f820116820180604052508101906129749190614505565b61297e919061451e565b905080610199600082825461299391906144ed565b90915550600090506129a6600182611309565b905060006129b4878361451e565b9050806129d457604051632f1b0c0f60e01b815260040160405180910390fd5b8a8110156129f55760405163c327661d60e01b815260040160405180910390fd5b610195546001600160a01b03166340c10f198b612a138a858a613439565b6040518363ffffffff1660e01b8152600401612a30929190614779565b600060405180830381600087803b158015612a4a57600080fd5b505af1158015612a5e573d6000803e3d6000fd5b50505050896001600160a01b0316612a733390565b6001600160a01b0316600080516020614be78339815191528e604051612a9b91815260200190565b60405180910390a35050600160fb5550505050505050505050565b60975460ff16612aff5760405162461bcd60e51b815260206004820152601460248201527314185d5cd8589b194e881b9bdd081c185d5cd95960621b60448201526064016109c3565b6097805460ff191690557f5db9ee0a495bf2e6ff9c91a7834c1ba4fdd244a5e8aa4e537bd38aeae4b073aa335b604051612b39919061418d565b60405180910390a1565b61019780546001600160a01b0319166001600160a01b0392909216919091179055565b600260fb541415612b895760405162461bcd60e51b81526004016109c3906144a0565b600260fb5584612bac57604051636d8bee0b60e11b815260040160405180910390fd5b6001600160a01b038316612bd3576040516314f3686160e11b815260040160405180910390fd5b6000612be0868484613463565b9050612bed8684846134de565b600081612bfb888686613463565b612c05919061451e565b9050600061019560009054906101000a90046001600160a01b03166001600160a01b03166318160ddd6040518163ffffffff1660e01b8152600401602060405180830381865afa158015612c5d573d6000803e3d6000fd5b505050506040513d601f19601f82011682018060405250810190612c819190614505565b8861019954612c9091906147ff565b612c9a9190614792565b9050612ca681836144ed565b9150806101996000828254612cbb919061451e565b909155506000905060646103e8612cd761015f5462ffffff1690565b612ce69062ffffff16866147ff565b612cf09190614792565b612cfa9190614792565b905087612d07828561451e565b1015612d265760405163c327661d60e01b815260040160405180910390fd5b610195546001600160a01b03166379cc6790338b6040518363ffffffff1660e01b8152600401612d57929190614779565b600060405180830381600087803b158015612d7157600080fd5b505af1158015612d85573d6000803e3d6000fd5b50505050612da781612d976101605490565b612da191906144ed565b61016055565b612dc987612db5838661451e565b610196546001600160a01b03169190611cad565b6040518981526001600160a01b0388169033907f2717ead6b9200dd235aad468c9809ea400fe33ac69b5bfaa6d3e90fc922b63989060200160405180910390a35050600160fb5550505050505050565b60c980546001600160a01b038381166001600160a01b0319831681179093556040519116919082907f8be0079c531659141344cd1fd0a4f28419497f9722a3daafe3b4186f6b6457e090600090a35050565b6001600160a01b038316612e925760405163b6802b7f60e01b815260040160405180910390fd5b61016280546001600160a01b0319166001600160a01b0385169081179091556040517fa3fe39fe39850ddb39697065123e293302f3e8948984fde991b5a291ed1ad05b91612ee3918590859061494b565b60405180910390a1505050565b60975460ff1615612f135760405162461bcd60e51b81526004016109c390614676565b6097805460ff191660011790557f62e78cea01bee320cd4e420270b5ea74000d11b0c9f74754ebdbfc544b05a258612b2c3390565b60008054610100900460ff1615612f96578160ff166001148015612f725750612f7030611c9e565b155b612f8e5760405162461bcd60e51b81526004016109c390614970565b506000919050565b60005460ff808416911610612fbd5760405162461bcd60e51b81526004016109c390614970565b506000805460ff191660ff92909216919091179055600190565b919050565b600054610100900460ff166130035760405162461bcd60e51b81526004016109c3906149be565b61300b613888565b610fe3816138b7565b826130226103e860646147ff565b8162ffffff1610613046576040516303689ded60e51b815260040160405180910390fd5b61015f805462ffffff60301b1916600160301b62ffffff878116820292909217928390556040517f05f9aef0771b6541329b82ea24407357fc3ff0f457598588055f84a807dbdb8f9361234993929004909116908690869061492c565b60006130f8826040518060400160405280602081526020017f5361666545524332303a206c6f772d6c6576656c2063616c6c206661696c6564815250856001600160a01b03166138ef9092919063ffffffff16565b805190915015610e05578080602001905181019061311691906147b4565b610e055760405162461bcd60e51b815260206004820152602a60248201527f5361666545524332303a204552433230206f7065726174696f6e20646964206e6044820152691bdd081cdd58d8d9595960b21b60648201526084016109c3565b60008084518015613188576131886143c1565b14156132c9576020840151825183906000906131a6576131a66145d1565b60200260200101516001600160a01b031663095ea7b382866040518363ffffffff1660e01b81526004016131db929190614779565b6020604051808303816000875af11580156131fa573d6000803e3d6000fd5b505050506040513d601f19601f8201168201806040525081019061321e91906147b4565b506040516338ed173960e01b81526001600160a01b038216906338ed173990613254908790600090889030904290600401614a09565b6000604051808303816000875af1158015613273573d6000803e3d6000fd5b505050506040513d6000823e601f3d908101601f1916820160405261329b9190810190614a7a565b600184516132a9919061451e565b815181106132b9576132b96145d1565b60200260200101519150506113e5565b60405163e004e07560e01b815260040160405180910390fd5b6132eb81611c9e565b61334d5760405162461bcd60e51b815260206004820152602d60248201527f455243313936373a206e657720696d706c656d656e746174696f6e206973206e60448201526c1bdd08184818dbdb9d1c9858dd609a1b60648201526084016109c3565b600080516020614c5a83398151915280546001600160a01b0319166001600160a01b0392909216919091179055565b613385836138fe565b6000825111806133925750805b15610e05576133a1838361393e565b50505050565b61018b546133b582846144ed565b111561101f5760405163b761799960e01b815260040160405180910390fd5b61018c546133e282846144ed565b111561101f5760405163973cc40960e01b815260040160405180910390fd5b6040516001600160a01b03808516602483015283166044820152606481018290526133a19085906323b872dd60e01b90608401611ccc565b6000816134475750816113e5565b8361345283856147ff565b61345c9190614792565b90506113e5565b610196546040516370a0823160e01b81526000916001600160a01b0316906370a082319061349590309060040161418d565b602060405180830381865afa1580156134b2573d6000803e3d6000fd5b505050506040513d601f19601f820116820180604052508101906134d69190614505565b949350505050565b60006134e8612296565b905060006134f46115c4565b856134fd611b3a565b61350791906147ff565b6135119190614792565b60028301546040516370a0823160e01b81529192506000916001600160a01b03909116906370a082319061354990309060040161418d565b602060405180830381865afa158015613566573d6000803e3d6000fd5b505050506040513d601f19601f8201168201806040525081019061358a9190614505565b60018401546005850154604051630441a3e760e41b81526004810191909152602481018590529192506001600160a01b03169063441a3e7090604401600060405180830381600087803b1580156135e057600080fd5b505af11580156135f4573d6000803e3d6000fd5b5050506003840154845460405163095ea7b360e01b81526001600160a01b03928316935063095ea7b39261362e9216908690600401614779565b6020604051808303816000875af115801561364d573d6000803e3d6000fd5b505050506040513d601f19601f8201168201806040525081019061367191906147b4565b508254600284015461019654604051635d5155ef60e11b81526001600160a01b03928316600482015290821660248201526044810185905260006064820181905260848201523060a48201524260c482015291169063baa2abde9060e40160408051808303816000875af11580156136ed573d6000803e3d6000fd5b505050506040513d601f19601f820116820180604052508101906137119190614b1f565b505060028301546040516370a0823160e01b81526000916001600160a01b0316906370a082319061374690309060040161418d565b602060405180830381865afa158015613763573d6000803e3d6000fd5b505050506040513d601f19601f820116820180604052508101906137879190614505565b90506000613795838361451e565b6040805160028082526060820183529293506000929091602083019080368337505050600287015481519192506001600160a01b03169082906000906137dd576137dd6145d1565b6001600160a01b0392831660209182029290920101526101965482519116908290600190811061380f5761380f6145d1565b6001600160a01b039092166020928302919091019091015260408051808201909152610198805461387c929190829060ff16801561384f5761384f6143c1565b801561385d5761385d6143c1565b8152905461010090046001600160a01b03166020909101528383613175565b50505050505050505050565b600054610100900460ff166138af5760405162461bcd60e51b81526004016109c3906149be565b611307613a30565b600054610100900460ff166138de5760405162461bcd60e51b81526004016109c3906149be565b6138e6613a63565b610fe381613a92565b60606134d68484600085613c1a565b613907816132e2565b6040516001600160a01b038216907fbc7cd75a20ee27fd9adebab32041f755214dbc6bffa90cc0225b39da2e5c2d3b90600090a250565b606061394983611c9e565b6139a45760405162461bcd60e51b815260206004820152602660248201527f416464726573733a2064656c65676174652063616c6c20746f206e6f6e2d636f6044820152651b9d1c9858dd60d21b60648201526084016109c3565b600080846001600160a01b0316846040516139bf9190614b43565b600060405180830381855af49150503d80600081146139fa576040519150601f19603f3d011682016040523d82523d6000602084013e6139ff565b606091505b5091509150613a278282604051806060016040528060278152602001614c7a60279139613d49565b95945050505050565b600054610100900460ff16613a575760405162461bcd60e51b81526004016109c3906149be565b6097805460ff19169055565b600054610100900460ff16613a8a5760405162461bcd60e51b81526004016109c3906149be565b611307613d82565b600054610100900460ff16613ab95760405162461bcd60e51b81526004016109c3906149be565b613ac1613db2565b613ac9613dd9565b613ad1613db2565b613b50613ae46060830160408401614b5f565b613af16060840184614b7a565b613b0160a0860160808701614b5f565b613b0e60a0870187614b7a565b613b1e60e0890160c08a01614b5f565b613b2b60e08a018a614b7a565b613b3d6101208c016101008d016140e9565b613b4b6101208d018d614b7a565b613e08565b613b64816101400135826101600135613e69565b613b7160208201826140e9565b61019580546001600160a01b0319166001600160a01b0392909216919091179055613ba260408201602083016140e9565b61019680546001600160a01b0319166001600160a01b0392909216919091179055613bdd613bd86101a0830161018084016140e9565b612b43565b610fe3613bf26101c083016101a08401614bc3565b60ff168015613c0357613c036143c1565b613c156101e084016101c085016140e9565b61245d565b606082471015613c7b5760405162461bcd60e51b815260206004820152602660248201527f416464726573733a20696e73756666696369656e742062616c616e636520666f6044820152651c8818d85b1b60d21b60648201526084016109c3565b613c8485611c9e565b613cd05760405162461bcd60e51b815260206004820152601d60248201527f416464726573733a2063616c6c20746f206e6f6e2d636f6e747261637400000060448201526064016109c3565b600080866001600160a01b03168587604051613cec9190614b43565b60006040518083038185875af1925050503d8060008114613d29576040519150601f19603f3d011682016040523d82523d6000602084013e613d2e565b606091505b5091509150613d3e828286613d49565b979650505050505050565b60608315613d585750816113e5565b825115613d685782518084602001fd5b8160405162461bcd60e51b81526004016109c3919061436e565b600054610100900460ff16613da95760405162461bcd60e51b81526004016109c3906149be565b61130733612e19565b600054610100900460ff166113075760405162461bcd60e51b81526004016109c3906149be565b600054610100900460ff16613e005760405162461bcd60e51b81526004016109c3906149be565b611307613ea4565b600054610100900460ff16613e2f5760405162461bcd60e51b81526004016109c3906149be565b613e3a8c8c8c6122ba565b613e4589898961271f565b613e50868686613014565b613e5b838383612e6b565b505050505050505050505050565b600054610100900460ff16613e905760405162461bcd60e51b81526004016109c3906149be565b613e9a8261018b55565b61101f8161018c55565b600054610100900460ff16613ecb5760405162461bcd60e51b81526004016109c3906149be565b600160fb55565b604080518082019091526000808252602082015290565b600060208284031215613efb57600080fd5b81356001600160e01b0319811681146113e557600080fd5b60008083601f840112613f2557600080fd5b5081356001600160401b03811115613f3c57600080fd5b6020830191508360208260051b8501011115613f5757600080fd5b9250929050565b60008060208385031215613f7157600080fd5b82356001600160401b03811115613f8757600080fd5b613f9385828601613f13565b90969095509350505050565b80516001600160a01b03168252602090810151910152565b602080825282518282018190526000919060409081850190868401855b82811015613ff757613fe7848351613f9f565b9284019290850190600101613fd4565b5091979650505050505050565b6000806000806040858703121561401a57600080fd5b84356001600160401b038082111561403157600080fd5b61403d88838901613f13565b9096509450602087013591508082111561405657600080fd5b5061406387828801613f13565b95989497509550505050565b803562ffffff81168114612fd757600080fd5b60008060006040848603121561409757600080fd5b6140a08461406f565b925060208401356001600160401b038111156140bb57600080fd5b6140c786828701613f13565b9497909650939450505050565b6001600160a01b0381168114610fe357600080fd5b6000602082840312156140fb57600080fd5b81356113e5816140d4565b8015158114610fe357600080fd5b6000806040838503121561412757600080fd5b823561413281614106565b9150602083013561414281614106565b809150509250929050565b602080825282518282018190526000919060409081850190868401855b82811015613ff75761417d848351613f9f565b928401929085019060010161416a565b6001600160a01b0391909116815260200190565b6000602082840312156141b357600080fd5b5035919050565b600080604083850312156141cd57600080fd5b8235600181106141dc57600080fd5b91506020830135614142816140d4565b60008060008060006080868803121561420457600080fd5b8535945060208601359350604086013561421d816140d4565b925060608601356001600160401b0381111561423857600080fd5b61424488828901613f13565b969995985093965092949392505050565b634e487b7160e01b600052604160045260246000fd5b604051601f8201601f191681016001600160401b038111828210171561429357614293614255565b604052919050565b600080604083850312156142ae57600080fd5b82356142b9816140d4565b91506020838101356001600160401b03808211156142d657600080fd5b818601915086601f8301126142ea57600080fd5b8135818111156142fc576142fc614255565b61430e601f8201601f1916850161426b565b9150808252878482850101111561432457600080fd5b80848401858401376000848284010152508093505050509250929050565b60005b8381101561435d578181015183820152602001614345565b838111156133a15750506000910152565b602081526000825180602084015261438d816040850160208701614342565b601f01601f19169190910160400192915050565b6000806000604084860312156143b657600080fd5b83356140a0816140d4565b634e487b7160e01b600052602160045260246000fd5b60408101600184106143f957634e487b7160e01b600052602160045260246000fd5b9281526001600160a01b039190911660209091015290565b600080600080600060a0868803121561442957600080fd5b85356001600160401b0381111561443f57600080fd5b8601610200818903121561445257600080fd5b94506020860135614462816140d4565b93506040860135614472816140d4565b92506060860135614482816140d4565b91506080860135614492816140d4565b809150509295509295909350565b6020808252601f908201527f5265656e7472616e637947756172643a207265656e7472616e742063616c6c00604082015260600190565b634e487b7160e01b600052601160045260246000fd5b60008219821115614500576145006144d7565b500190565b60006020828403121561451757600080fd5b5051919050565b600082821015614530576145306144d7565b500390565b80516001600160701b0381168114612fd757600080fd5b60008060006060848603121561456157600080fd5b61456a84614535565b925061457860208501614535565b9150604084015163ffffffff8116811461459157600080fd5b809150509250925092565b6020808252818101527f4f776e61626c653a2063616c6c6572206973206e6f7420746865206f776e6572604082015260600190565b634e487b7160e01b600052603260045260246000fd5b60006000198214156145fb576145fb6144d7565b5060010190565b6020808252602c90820152600080516020614c3a83398151915260408201526b19195b1959d85d1958d85b1b60a21b606082015260800190565b6020808252602c90820152600080516020614c3a83398151915260408201526b6163746976652070726f787960a01b606082015260800190565b60208082526010908201526f14185d5cd8589b194e881c185d5cd95960821b604082015260600190565b6000602082840312156146b257600080fd5b81516113e5816140d4565b6000608082840312156146cf57600080fd5b604051608081016001600160401b03811182821017156146f1576146f1614255565b60405282516146ff816140d4565b808252506020830151602082015260408301516040820152606083015160608201528091505092915050565b60006040828403121561473d57600080fd5b604080519081016001600160401b038111828210171561475f5761475f614255565b604052825181526020928301519281019290925250919050565b6001600160a01b03929092168252602082015260400190565b6000826147af57634e487b7160e01b600052601260045260246000fd5b500490565b6000602082840312156147c657600080fd5b81516113e581614106565b6000806000606084860312156147e657600080fd5b8351925060208401519150604084015190509250925092565b6000816000190483118215151615614819576148196144d7565b500290565b6000808335601e1984360301811261483557600080fd5b83016020810192503590506001600160401b0381111561485457600080fd5b803603831315613f5757600080fd5b81835281816020850137506000828201602090810191909152601f909101601f19169091010190565b81835260006020808501808196508560051b81019150846000805b8881101561491e578385038a528235603e198936030181126148c7578283fd5b880160406148d5828061481e565b8289526148e5838a018284614863565b925050506148f58883018361481e565b925087820389890152614909828483614863565b9c89019c9750505092860192506001016148a7565b509298975050505050505050565b62ffffff84168152604060208201526000613a2760408301848661488c565b6001600160a01b0384168152604060208201819052600090613a27908301848661488c565b6020808252602e908201527f496e697469616c697a61626c653a20636f6e747261637420697320616c72656160408201526d191e481a5b9a5d1a585b1a5e995960921b606082015260800190565b6020808252602b908201527f496e697469616c697a61626c653a20636f6e7472616374206973206e6f74206960408201526a6e697469616c697a696e6760a81b606082015260800190565b600060a082018783526020878185015260a0604085015281875180845260c086019150828901935060005b81811015614a595784516001600160a01b031683529383019391830191600101614a34565b50506001600160a01b03969096166060850152505050608001529392505050565b60006020808385031215614a8d57600080fd5b82516001600160401b0380821115614aa457600080fd5b818501915085601f830112614ab857600080fd5b815181811115614aca57614aca614255565b8060051b9150614adb84830161426b565b8181529183018401918481019088841115614af557600080fd5b938501935b83851015614b1357845182529385019390850190614afa565b98975050505050505050565b60008060408385031215614b3257600080fd5b505080516020909101519092909150565b60008251614b55818460208701614342565b9190910192915050565b600060208284031215614b7157600080fd5b6113e58261406f565b6000808335601e19843603018112614b9157600080fd5b8301803591506001600160401b03821115614bab57600080fd5b6020019150600581901b3603821315613f5757600080fd5b600060208284031215614bd557600080fd5b813560ff811681146113e557600080fdfe5548c837ab068cf56a2c2479df0882a4922fd203edb7517321831d95078c5f6262726f6b6b722e7472616465726a6f655f73747261746567792e7472616465726a6f655f73747261746567795f76322e302e3046756e6374696f6e206d7573742062652063616c6c6564207468726f75676820360894a13ba1a3210667c828492db98dca3e2076cc3735a920a3ca505d382bbc416464726573733a206c6f772d6c6576656c2064656c65676174652063616c6c206661696c6564a2646970667358221220ede59519fc2f9b3d64d34286067ce7a42f370b2650d3ed99aca08d8a916c267964736f6c634300080a0033",
  "linkReferences": {},
  "deployedLinkReferences": {}
}