{
  "_format": "hh-sol-artifact-1",
  "contractName": "TraderJoe",
  "sourceName": "contracts/strategies/traderjoe/TraderJoe.sol",
  "abi": [
    {
      "inputs": [],
      "stateMutability": "nonpayable",
      "type": "constructor"
    },
    {
      "inputs": [],
      "name": "InvalidFeeError",
      "type": "error"
    },
    {
      "inputs": [],
      "name": "InvalidSwapServiceProvider",
      "type": "error"
    },
    {
      "inputs": [],
      "name": "InvalidTraderJoeLpToken",
      "type": "error"
    },
    {
      "inputs": [],
      "name": "InvestmentLimitPerAddressExceeded",
      "type": "error"
    },
    {
      "inputs": [],
      "name": "TooSmallDepositTokenAmountOut",
      "type": "error"
    },
    {
      "inputs": [],
      "name": "TotalInvestmentLimitExceeded",
      "type": "error"
    },
    {
      "inputs": [],
      "name": "ZeroAmountDeposited",
      "type": "error"
    },
    {
      "inputs": [],
      "name": "ZeroAmountInvested",
      "type": "error"
    },
    {
      "inputs": [],
      "name": "ZeroAmountWithdrawn",
      "type": "error"
    },
    {
      "inputs": [],
      "name": "ZeroDepositTokenReceiver",
      "type": "error"
    },
    {
      "inputs": [],
      "name": "ZeroFeeReceiver",
      "type": "error"
    },
    {
      "inputs": [],
      "name": "ZeroInvestmentTokenReceiver",
      "type": "error"
    },
    {
      "anonymous": false,
      "inputs": [
        {
          "indexed": false,
          "internalType": "address",
          "name": "previousAdmin",
          "type": "address"
        },
        {
          "indexed": false,
          "internalType": "address",
          "name": "newAdmin",
          "type": "address"
        }
      ],
      "name": "AdminChanged",
      "type": "event"
    },
    {
      "anonymous": false,
      "inputs": [
        {
          "indexed": true,
          "internalType": "address",
          "name": "beacon",
          "type": "address"
        }
      ],
      "name": "BeaconUpgraded",
      "type": "event"
    },
    {
      "anonymous": false,
      "inputs": [
        {
          "indexed": true,
          "internalType": "address",
          "name": "initiator",
          "type": "address"
        },
        {
          "indexed": true,
          "internalType": "address",
          "name": "investmentTokenReceiver",
          "type": "address"
        },
        {
          "indexed": false,
          "internalType": "uint256",
          "name": "amount",
          "type": "uint256"
        }
      ],
      "name": "Deposit",
      "type": "event"
    },
    {
      "anonymous": false,
      "inputs": [
        {
          "indexed": false,
          "internalType": "uint256",
          "name": "fee",
          "type": "uint256"
        },
        {
          "components": [
            {
              "internalType": "string",
              "name": "key",
              "type": "string"
            },
            {
              "internalType": "string",
              "name": "value",
              "type": "string"
            }
          ],
          "indexed": false,
          "internalType": "struct NameValuePair[]",
          "name": "params",
          "type": "tuple[]"
        }
      ],
      "name": "DepositFeeChange",
      "type": "event"
    },
    {
      "anonymous": false,
      "inputs": [
        {
          "indexed": false,
          "internalType": "uint256",
          "name": "fee",
          "type": "uint256"
        }
      ],
      "name": "FeeClaim",
      "type": "event"
    },
    {
      "anonymous": false,
      "inputs": [
        {
          "indexed": false,
          "internalType": "address",
          "name": "feeReceiver",
          "type": "address"
        },
        {
          "components": [
            {
              "internalType": "string",
              "name": "key",
              "type": "string"
            },
            {
              "internalType": "string",
              "name": "value",
              "type": "string"
            }
          ],
          "indexed": false,
          "internalType": "struct NameValuePair[]",
          "name": "params",
          "type": "tuple[]"
        }
      ],
      "name": "FeeReceiverChange",
      "type": "event"
    },
    {
      "anonymous": false,
      "inputs": [
        {
          "indexed": false,
          "internalType": "uint8",
          "name": "version",
          "type": "uint8"
        }
      ],
      "name": "Initialized",
      "type": "event"
    },
    {
      "anonymous": false,
      "inputs": [
        {
          "indexed": true,
          "internalType": "address",
          "name": "previousOwner",
          "type": "address"
        },
        {
          "indexed": true,
          "internalType": "address",
          "name": "newOwner",
          "type": "address"
        }
      ],
      "name": "OwnershipTransferred",
      "type": "event"
    },
    {
      "anonymous": false,
      "inputs": [
        {
          "indexed": false,
          "internalType": "address",
          "name": "account",
          "type": "address"
        }
      ],
      "name": "Paused",
      "type": "event"
    },
    {
      "anonymous": false,
      "inputs": [
        {
          "indexed": false,
          "internalType": "uint256",
          "name": "fee",
          "type": "uint256"
        },
        {
          "components": [
            {
              "internalType": "string",
              "name": "key",
              "type": "string"
            },
            {
              "internalType": "string",
              "name": "value",
              "type": "string"
            }
          ],
          "indexed": false,
          "internalType": "struct NameValuePair[]",
          "name": "params",
          "type": "tuple[]"
        }
      ],
      "name": "PerformanceFeeChange",
      "type": "event"
    },
    {
      "anonymous": false,
      "inputs": [
        {
          "indexed": false,
          "internalType": "uint256",
          "name": "amount",
          "type": "uint256"
        }
      ],
      "name": "RewardProcess",
      "type": "event"
    },
    {
      "anonymous": false,
      "inputs": [
        {
          "indexed": true,
          "internalType": "address",
          "name": "withdrawer",
          "type": "address"
        },
        {
          "indexed": false,
          "internalType": "uint256",
          "name": "amount",
          "type": "uint256"
        }
      ],
      "name": "RewardWithdraw",
      "type": "event"
    },
    {
      "anonymous": false,
      "inputs": [
        {
          "indexed": false,
          "internalType": "address",
          "name": "account",
          "type": "address"
        }
      ],
      "name": "Unpaused",
      "type": "event"
    },
    {
      "anonymous": false,
      "inputs": [
        {
          "indexed": true,
          "internalType": "address",
          "name": "implementation",
          "type": "address"
        }
      ],
      "name": "Upgraded",
      "type": "event"
    },
    {
      "anonymous": false,
      "inputs": [
        {
          "indexed": true,
          "internalType": "address",
          "name": "initiator",
          "type": "address"
        },
        {
          "indexed": true,
          "internalType": "address",
          "name": "depositTokenReceiver",
          "type": "address"
        },
        {
          "indexed": false,
          "internalType": "uint256",
          "name": "amount",
          "type": "uint256"
        }
      ],
      "name": "Withdrawal",
      "type": "event"
    },
    {
      "anonymous": false,
      "inputs": [
        {
          "indexed": false,
          "internalType": "uint256",
          "name": "fee",
          "type": "uint256"
        },
        {
          "components": [
            {
              "internalType": "string",
              "name": "key",
              "type": "string"
            },
            {
              "internalType": "string",
              "name": "value",
              "type": "string"
            }
          ],
          "indexed": false,
          "internalType": "struct NameValuePair[]",
          "name": "params",
          "type": "tuple[]"
        }
      ],
      "name": "WithdrawalFeeChange",
      "type": "event"
    },
    {
      "inputs": [
        {
          "components": [
            {
              "internalType": "string",
              "name": "key",
              "type": "string"
            },
            {
              "internalType": "string",
              "name": "value",
              "type": "string"
            }
          ],
          "internalType": "struct NameValuePair[]",
          "name": "",
          "type": "tuple[]"
        }
      ],
      "name": "claimFee",
      "outputs": [],
      "stateMutability": "nonpayable",
      "type": "function"
    },
    {
      "inputs": [
        {
          "internalType": "uint256",
          "name": "depositTokenAmountIn",
          "type": "uint256"
        },
        {
          "internalType": "uint256",
          "name": "minimumDepositTokenAmountOut",
          "type": "uint256"
        },
        {
          "internalType": "address",
          "name": "investmentTokenReceiver",
          "type": "address"
        },
        {
          "components": [
            {
              "internalType": "string",
              "name": "key",
              "type": "string"
            },
            {
              "internalType": "string",
              "name": "value",
              "type": "string"
            }
          ],
          "internalType": "struct NameValuePair[]",
          "name": "params",
          "type": "tuple[]"
        }
      ],
      "name": "deposit",
      "outputs": [],
      "stateMutability": "nonpayable",
      "type": "function"
    },
    {
      "inputs": [],
      "name": "getAssetBalances",
      "outputs": [
        {
          "components": [
            {
              "internalType": "address",
              "name": "asset",
              "type": "address"
            },
            {
              "internalType": "uint256",
              "name": "balance",
              "type": "uint256"
            }
          ],
          "internalType": "struct IAum.Balance[]",
          "name": "balances",
          "type": "tuple[]"
        }
      ],
      "stateMutability": "view",
      "type": "function"
    },
    {
      "inputs": [
        {
          "internalType": "bool",
          "name": "shouldMaximise",
          "type": "bool"
        },
        {
          "internalType": "bool",
          "name": "shouldIncludeAmmPrice",
          "type": "bool"
        }
      ],
      "name": "getAssetValuations",
      "outputs": [
        {
          "components": [
            {
              "internalType": "address",
              "name": "asset",
              "type": "address"
            },
            {
              "internalType": "uint256",
              "name": "valuation",
              "type": "uint256"
            }
          ],
          "internalType": "struct IAum.Valuation[]",
          "name": "valuations",
          "type": "tuple[]"
        }
      ],
      "stateMutability": "view",
      "type": "function"
    },
    {
      "inputs": [],
      "name": "getClaimedFee",
      "outputs": [
        {
          "internalType": "uint256",
          "name": "",
          "type": "uint256"
        }
      ],
      "stateMutability": "view",
      "type": "function"
    },
    {
      "inputs": [],
      "name": "getCurrentAccumulatedFee",
      "outputs": [
        {
          "internalType": "uint256",
          "name": "",
          "type": "uint256"
        }
      ],
      "stateMutability": "view",
      "type": "function"
    },
    {
      "inputs": [
        {
          "components": [
            {
              "internalType": "string",
              "name": "key",
              "type": "string"
            },
            {
              "internalType": "string",
              "name": "value",
              "type": "string"
            }
          ],
          "internalType": "struct NameValuePair[]",
          "name": "",
          "type": "tuple[]"
        }
      ],
      "name": "getDepositFee",
      "outputs": [
        {
          "internalType": "uint24",
          "name": "",
          "type": "uint24"
        }
      ],
      "stateMutability": "view",
      "type": "function"
    },
    {
      "inputs": [],
      "name": "getDepositToken",
      "outputs": [
        {
          "internalType": "contract IERC20Upgradeable",
          "name": "",
          "type": "address"
        }
      ],
      "stateMutability": "view",
      "type": "function"
    },
    {
      "inputs": [
        {
          "internalType": "bool",
          "name": "shouldMaximise",
          "type": "bool"
        },
        {
          "internalType": "bool",
          "name": "shouldIncludeAmmPrice",
          "type": "bool"
        }
      ],
      "name": "getEquityValuation",
      "outputs": [
        {
          "internalType": "uint256",
          "name": "",
          "type": "uint256"
        }
      ],
      "stateMutability": "view",
      "type": "function"
    },
    {
      "inputs": [
        {
          "components": [
            {
              "internalType": "string",
              "name": "key",
              "type": "string"
            },
            {
              "internalType": "string",
              "name": "value",
              "type": "string"
            }
          ],
          "internalType": "struct NameValuePair[]",
          "name": "",
          "type": "tuple[]"
        }
      ],
      "name": "getFeeReceiver",
      "outputs": [
        {
          "internalType": "address",
          "name": "",
          "type": "address"
        }
      ],
      "stateMutability": "view",
      "type": "function"
    },
    {
      "inputs": [],
      "name": "getInvestmentLimitPerAddress",
      "outputs": [
        {
          "internalType": "uint256",
          "name": "",
          "type": "uint256"
        }
      ],
      "stateMutability": "view",
      "type": "function"
    },
    {
      "inputs": [],
      "name": "getInvestmentToken",
      "outputs": [
        {
          "internalType": "contract IInvestmentToken",
          "name": "",
          "type": "address"
        }
      ],
      "stateMutability": "view",
      "type": "function"
    },
    {
      "inputs": [
        {
          "internalType": "address",
          "name": "account",
          "type": "address"
        }
      ],
      "name": "getInvestmentTokenBalanceOf",
      "outputs": [
        {
          "internalType": "uint256",
          "name": "",
          "type": "uint256"
        }
      ],
      "stateMutability": "view",
      "type": "function"
    },
    {
      "inputs": [],
      "name": "getInvestmentTokenSupply",
      "outputs": [
        {
          "internalType": "uint256",
          "name": "",
          "type": "uint256"
        }
      ],
      "stateMutability": "view",
      "type": "function"
    },
    {
      "inputs": [],
      "name": "getLiabilityBalances",
      "outputs": [
        {
          "components": [
            {
              "internalType": "address",
              "name": "asset",
              "type": "address"
            },
            {
              "internalType": "uint256",
              "name": "balance",
              "type": "uint256"
            }
          ],
          "internalType": "struct IAum.Balance[]",
          "name": "balances",
          "type": "tuple[]"
        }
      ],
      "stateMutability": "view",
      "type": "function"
    },
    {
      "inputs": [
        {
          "internalType": "bool",
          "name": "shouldMaximise",
          "type": "bool"
        },
        {
          "internalType": "bool",
          "name": "shouldIncludeAmmPrice",
          "type": "bool"
        }
      ],
      "name": "getLiabilityValuations",
      "outputs": [
        {
          "components": [
            {
              "internalType": "address",
              "name": "asset",
              "type": "address"
            },
            {
              "internalType": "uint256",
              "name": "valuation",
              "type": "uint256"
            }
          ],
          "internalType": "struct IAum.Valuation[]",
          "name": "",
          "type": "tuple[]"
        }
      ],
      "stateMutability": "view",
      "type": "function"
    },
    {
      "inputs": [
        {
          "components": [
            {
              "internalType": "string",
              "name": "key",
              "type": "string"
            },
            {
              "internalType": "string",
              "name": "value",
              "type": "string"
            }
          ],
          "internalType": "struct NameValuePair[]",
          "name": "",
          "type": "tuple[]"
        }
      ],
      "name": "getPerformanceFee",
      "outputs": [
        {
          "internalType": "uint24",
          "name": "",
          "type": "uint24"
        }
      ],
      "stateMutability": "view",
      "type": "function"
    },
    {
      "inputs": [
        {
          "components": [
            {
              "internalType": "string",
              "name": "key",
              "type": "string"
            },
            {
              "internalType": "string",
              "name": "value",
              "type": "string"
            }
          ],
          "internalType": "struct NameValuePair[]",
          "name": "params",
          "type": "tuple[]"
        }
      ],
      "name": "getTotalDepositFee",
      "outputs": [
        {
          "internalType": "uint24",
          "name": "",
          "type": "uint24"
        }
      ],
      "stateMutability": "view",
      "type": "function"
    },
    {
      "inputs": [],
      "name": "getTotalInvestmentLimit",
      "outputs": [
        {
          "internalType": "uint256",
          "name": "",
          "type": "uint256"
        }
      ],
      "stateMutability": "view",
      "type": "function"
    },
    {
      "inputs": [
        {
          "components": [
            {
              "internalType": "string",
              "name": "key",
              "type": "string"
            },
            {
              "internalType": "string",
              "name": "value",
              "type": "string"
            }
          ],
          "internalType": "struct NameValuePair[]",
          "name": "params",
          "type": "tuple[]"
        }
      ],
      "name": "getTotalPerformanceFee",
      "outputs": [
        {
          "internalType": "uint24",
          "name": "",
          "type": "uint24"
        }
      ],
      "stateMutability": "view",
      "type": "function"
    },
    {
      "inputs": [
        {
          "components": [
            {
              "internalType": "string",
              "name": "key",
              "type": "string"
            },
            {
              "internalType": "string",
              "name": "value",
              "type": "string"
            }
          ],
          "internalType": "struct NameValuePair[]",
          "name": "params",
          "type": "tuple[]"
        }
      ],
      "name": "getTotalWithdrawalFee",
      "outputs": [
        {
          "internalType": "uint24",
          "name": "",
          "type": "uint24"
        }
      ],
      "stateMutability": "view",
      "type": "function"
    },
    {
      "inputs": [],
      "name": "getTraderJoeLpBalance",
      "outputs": [
        {
          "internalType": "uint256",
          "name": "",
          "type": "uint256"
        }
      ],
      "stateMutability": "view",
      "type": "function"
    },
    {
      "inputs": [],
      "name": "getTraderJoeLpReserve",
      "outputs": [
        {
          "internalType": "uint256",
          "name": "",
          "type": "uint256"
        }
      ],
      "stateMutability": "view",
      "type": "function"
    },
    {
      "inputs": [
        {
          "components": [
            {
              "internalType": "string",
              "name": "key",
              "type": "string"
            },
            {
              "internalType": "string",
              "name": "value",
              "type": "string"
            }
          ],
          "internalType": "struct NameValuePair[]",
          "name": "",
          "type": "tuple[]"
        }
      ],
      "name": "getWithdrawalFee",
      "outputs": [
        {
          "internalType": "uint24",
          "name": "",
          "type": "uint24"
        }
      ],
      "stateMutability": "view",
      "type": "function"
    },
    {
      "inputs": [],
      "name": "humanReadableName",
      "outputs": [
        {
          "internalType": "string",
          "name": "",
          "type": "string"
        }
      ],
      "stateMutability": "view",
      "type": "function"
    },
    {
      "inputs": [
        {
          "components": [
            {
              "internalType": "contract IInvestmentToken",
              "name": "investmentToken",
              "type": "address"
            },
            {
              "internalType": "contract IERC20Upgradeable",
              "name": "depositToken",
              "type": "address"
            },
            {
              "internalType": "uint24",
              "name": "depositFee",
              "type": "uint24"
            },
            {
              "components": [
                {
                  "internalType": "string",
                  "name": "key",
                  "type": "string"
                },
                {
                  "internalType": "string",
                  "name": "value",
                  "type": "string"
                }
              ],
              "internalType": "struct NameValuePair[]",
              "name": "depositFeeParams",
              "type": "tuple[]"
            },
            {
              "internalType": "uint24",
              "name": "withdrawalFee",
              "type": "uint24"
            },
            {
              "components": [
                {
                  "internalType": "string",
                  "name": "key",
                  "type": "string"
                },
                {
                  "internalType": "string",
                  "name": "value",
                  "type": "string"
                }
              ],
              "internalType": "struct NameValuePair[]",
              "name": "withdrawFeeParams",
              "type": "tuple[]"
            },
            {
              "internalType": "uint24",
              "name": "performanceFee",
              "type": "uint24"
            },
            {
              "components": [
                {
                  "internalType": "string",
                  "name": "key",
                  "type": "string"
                },
                {
                  "internalType": "string",
                  "name": "value",
                  "type": "string"
                }
              ],
              "internalType": "struct NameValuePair[]",
              "name": "performanceFeeParams",
              "type": "tuple[]"
            },
            {
              "internalType": "address",
              "name": "feeReceiver",
              "type": "address"
            },
            {
              "components": [
                {
                  "internalType": "string",
                  "name": "key",
                  "type": "string"
                },
                {
                  "internalType": "string",
                  "name": "value",
                  "type": "string"
                }
              ],
              "internalType": "struct NameValuePair[]",
              "name": "feeReceiverParams",
              "type": "tuple[]"
            },
            {
              "internalType": "uint256",
              "name": "totalInvestmentLimit",
              "type": "uint256"
            },
            {
              "internalType": "uint256",
              "name": "investmentLimitPerAddress",
              "type": "uint256"
            },
            {
              "internalType": "contract IPriceOracle",
              "name": "priceOracle",
              "type": "address"
            },
            {
              "internalType": "uint8",
              "name": "swapServiceProvider",
              "type": "uint8"
            },
            {
              "internalType": "address",
              "name": "swapServiceRouter",
              "type": "address"
            },
            {
              "components": [
                {
                  "internalType": "bytes32",
                  "name": "role",
                  "type": "bytes32"
                },
                {
                  "internalType": "address[]",
                  "name": "user",
                  "type": "address[]"
                }
              ],
              "internalType": "struct RoleToUsers[]",
              "name": "roleToUsersArray",
              "type": "tuple[]"
            }
          ],
          "internalType": "struct StrategyArgs",
          "name": "strategyArgs",
          "type": "tuple"
        },
        {
          "internalType": "contract ITraderJoeRouter",
          "name": "router",
          "type": "address"
        },
        {
          "internalType": "contract ITraderJoeMasterChef",
          "name": "masterChef",
          "type": "address"
        },
        {
          "internalType": "contract ITraderJoePair",
          "name": "lpToken",
          "type": "address"
        },
        {
          "internalType": "contract IERC20Upgradeable",
          "name": "joeToken",
          "type": "address"
        }
      ],
      "name": "initialize",
      "outputs": [],
      "stateMutability": "nonpayable",
      "type": "function"
    },
    {
      "inputs": [],
      "name": "owner",
      "outputs": [
        {
          "internalType": "address",
          "name": "",
          "type": "address"
        }
      ],
      "stateMutability": "view",
      "type": "function"
    },
    {
      "inputs": [],
      "name": "pause",
      "outputs": [],
      "stateMutability": "nonpayable",
      "type": "function"
    },
    {
      "inputs": [],
      "name": "paused",
      "outputs": [
        {
          "internalType": "bool",
          "name": "",
          "type": "bool"
        }
      ],
      "stateMutability": "view",
      "type": "function"
    },
    {
      "inputs": [],
      "name": "priceOracle",
      "outputs": [
        {
          "internalType": "contract IPriceOracle",
          "name": "",
          "type": "address"
        }
      ],
      "stateMutability": "view",
      "type": "function"
    },
    {
      "inputs": [
        {
          "components": [
            {
              "internalType": "string",
              "name": "key",
              "type": "string"
            },
            {
              "internalType": "string",
              "name": "value",
              "type": "string"
            }
          ],
          "internalType": "struct NameValuePair[]",
          "name": "depositParams",
          "type": "tuple[]"
        },
        {
          "components": [
            {
              "internalType": "string",
              "name": "key",
              "type": "string"
            },
            {
              "internalType": "string",
              "name": "value",
              "type": "string"
            }
          ],
          "internalType": "struct NameValuePair[]",
          "name": "reapRewardParams",
          "type": "tuple[]"
        }
      ],
      "name": "processReward",
      "outputs": [],
      "stateMutability": "nonpayable",
      "type": "function"
    },
    {
      "inputs": [],
      "name": "proxiableUUID",
      "outputs": [
        {
          "internalType": "bytes32",
          "name": "",
          "type": "bytes32"
        }
      ],
      "stateMutability": "view",
      "type": "function"
    },
    {
      "inputs": [],
      "name": "renounceOwnership",
      "outputs": [],
      "stateMutability": "nonpayable",
      "type": "function"
    },
    {
      "inputs": [
        {
          "internalType": "uint24",
          "name": "fee_",
          "type": "uint24"
        },
        {
          "components": [
            {
              "internalType": "string",
              "name": "key",
              "type": "string"
            },
            {
              "internalType": "string",
              "name": "value",
              "type": "string"
            }
          ],
          "internalType": "struct NameValuePair[]",
          "name": "params",
          "type": "tuple[]"
        }
      ],
      "name": "setDepositFee",
      "outputs": [],
      "stateMutability": "nonpayable",
      "type": "function"
    },
    {
      "inputs": [
        {
          "internalType": "address",
          "name": "feeReceiver_",
          "type": "address"
        },
        {
          "components": [
            {
              "internalType": "string",
              "name": "key",
              "type": "string"
            },
            {
              "internalType": "string",
              "name": "value",
              "type": "string"
            }
          ],
          "internalType": "struct NameValuePair[]",
          "name": "params",
          "type": "tuple[]"
        }
      ],
      "name": "setFeeReceiver",
      "outputs": [],
      "stateMutability": "nonpayable",
      "type": "function"
    },
    {
      "inputs": [
        {
          "internalType": "uint256",
          "name": "investmentLimitPerAddress",
          "type": "uint256"
        }
      ],
      "name": "setInvestmentLimitPerAddress",
      "outputs": [],
      "stateMutability": "nonpayable",
      "type": "function"
    },
    {
      "inputs": [
        {
          "internalType": "contract IInvestmentToken",
          "name": "investmentToken",
          "type": "address"
        }
      ],
      "name": "setInvestmentToken",
      "outputs": [],
      "stateMutability": "nonpayable",
      "type": "function"
    },
    {
      "inputs": [
        {
          "internalType": "uint24",
          "name": "fee_",
          "type": "uint24"
        },
        {
          "components": [
            {
              "internalType": "string",
              "name": "key",
              "type": "string"
            },
            {
              "internalType": "string",
              "name": "value",
              "type": "string"
            }
          ],
          "internalType": "struct NameValuePair[]",
          "name": "params",
          "type": "tuple[]"
        }
      ],
      "name": "setPerformanceFee",
      "outputs": [],
      "stateMutability": "nonpayable",
      "type": "function"
    },
    {
      "inputs": [
        {
          "internalType": "contract IPriceOracle",
          "name": "priceOracle",
          "type": "address"
        }
      ],
      "name": "setPriceOracle",
      "outputs": [],
      "stateMutability": "nonpayable",
      "type": "function"
    },
    {
      "inputs": [
        {
          "internalType": "enum StrategyBaseUpgradeable.SwapServiceProvider",
          "name": "provider",
          "type": "uint8"
        },
        {
          "internalType": "address",
          "name": "router",
          "type": "address"
        }
      ],
      "name": "setSwapService",
      "outputs": [],
      "stateMutability": "nonpayable",
      "type": "function"
    },
    {
      "inputs": [
        {
          "internalType": "uint256",
          "name": "totalInvestmentLimit",
          "type": "uint256"
        }
      ],
      "name": "setTotalInvestmentLimit",
      "outputs": [],
      "stateMutability": "nonpayable",
      "type": "function"
    },
    {
      "inputs": [
        {
          "internalType": "uint24",
          "name": "fee_",
          "type": "uint24"
        },
        {
          "components": [
            {
              "internalType": "string",
              "name": "key",
              "type": "string"
            },
            {
              "internalType": "string",
              "name": "value",
              "type": "string"
            }
          ],
          "internalType": "struct NameValuePair[]",
          "name": "params",
          "type": "tuple[]"
        }
      ],
      "name": "setWithdrawalFee",
      "outputs": [],
      "stateMutability": "nonpayable",
      "type": "function"
    },
    {
      "inputs": [
        {
          "internalType": "bytes4",
          "name": "interfaceId",
          "type": "bytes4"
        }
      ],
      "name": "supportsInterface",
      "outputs": [
        {
          "internalType": "bool",
          "name": "",
          "type": "bool"
        }
      ],
      "stateMutability": "view",
      "type": "function"
    },
    {
      "inputs": [],
      "name": "swapService",
      "outputs": [
        {
          "internalType": "enum StrategyBaseUpgradeable.SwapServiceProvider",
          "name": "provider",
          "type": "uint8"
        },
        {
          "internalType": "address",
          "name": "router",
          "type": "address"
        }
      ],
      "stateMutability": "view",
      "type": "function"
    },
    {
      "inputs": [],
      "name": "trackingName",
      "outputs": [
        {
          "internalType": "string",
          "name": "",
          "type": "string"
        }
      ],
      "stateMutability": "view",
      "type": "function"
    },
    {
      "inputs": [
        {
          "internalType": "address",
          "name": "newOwner",
          "type": "address"
        }
      ],
      "name": "transferOwnership",
      "outputs": [],
      "stateMutability": "nonpayable",
      "type": "function"
    },
    {
      "inputs": [],
      "name": "uninvestedDepositTokenAmount",
      "outputs": [
        {
          "internalType": "uint256",
          "name": "",
          "type": "uint256"
        }
      ],
      "stateMutability": "view",
      "type": "function"
    },
    {
      "inputs": [],
      "name": "unpause",
      "outputs": [],
      "stateMutability": "nonpayable",
      "type": "function"
    },
    {
      "inputs": [
        {
          "internalType": "address",
          "name": "newImplementation",
          "type": "address"
        }
      ],
      "name": "upgradeTo",
      "outputs": [],
      "stateMutability": "nonpayable",
      "type": "function"
    },
    {
      "inputs": [
        {
          "internalType": "address",
          "name": "newImplementation",
          "type": "address"
        },
        {
          "internalType": "bytes",
          "name": "data",
          "type": "bytes"
        }
      ],
      "name": "upgradeToAndCall",
      "outputs": [],
      "stateMutability": "payable",
      "type": "function"
    },
    {
      "inputs": [],
      "name": "version",
      "outputs": [
        {
          "internalType": "string",
          "name": "",
          "type": "string"
        }
      ],
      "stateMutability": "view",
      "type": "function"
    },
    {
      "inputs": [
        {
          "internalType": "uint256",
          "name": "investmentTokenAmountIn",
          "type": "uint256"
        },
        {
          "internalType": "uint256",
          "name": "minimumDepositTokenAmountOut",
          "type": "uint256"
        },
        {
          "internalType": "address",
          "name": "depositTokenReceiver",
          "type": "address"
        },
        {
          "components": [
            {
              "internalType": "string",
              "name": "key",
              "type": "string"
            },
            {
              "internalType": "string",
              "name": "value",
              "type": "string"
            }
          ],
          "internalType": "struct NameValuePair[]",
          "name": "params",
          "type": "tuple[]"
        }
      ],
      "name": "withdraw",
      "outputs": [],
      "stateMutability": "nonpayable",
      "type": "function"
    },
    {
      "inputs": [
        {
          "components": [
            {
              "internalType": "string",
              "name": "key",
              "type": "string"
            },
            {
              "internalType": "string",
              "name": "value",
              "type": "string"
            }
          ],
          "internalType": "struct NameValuePair[]",
          "name": "withdrawParams",
          "type": "tuple[]"
        }
      ],
      "name": "withdrawReward",
      "outputs": [],
      "stateMutability": "nonpayable",
      "type": "function"
    }
  ],
  "bytecode": "0x60a0604052306080523480156200001557600080fd5b506200002062000026565b6200013f565b6200003260ff62000035565b50565b60008054610100900460ff16156200009e578160ff1660011480156200006e57506200006c30620000e260201b62001ca21760201c565b155b620000965760405162461bcd60e51b81526004016200008d90620000f1565b60405180910390fd5b506000919050565b60005460ff808416911610620000c85760405162461bcd60e51b81526004016200008d90620000f1565b506000805460ff191660ff92909216919091179055600190565b6001600160a01b03163b151590565b6020808252602e908201527f496e697469616c697a61626c653a20636f6e747261637420697320616c72656160408201526d191e481a5b9a5d1a585b1a5e995960921b606082015260800190565b608051614ea262000177600039600081816111a4015281816111e4015281816114030152818161144301526114bb0152614ea26000f3fe60806040526004361061025a5760003560e01c806301ffc9a71461025f5780630c976b9a14610294578063146264db146102b6578063163c210a146102d3578063181534ae146102f35780631fda1214146103165780632075fcf81461033657806320a4cd6d146103565780632630c12f1461038357806327b3a8c9146103b15780632f28690e146103d1578063308dade1146103f1578063346cd3c5146104065780633659cfe6146104265780633acefea7146104465780633c3129e3146104665780633f4ba83a14610486578063402cb4d11461049b57806344dc283b146104bb57806349eca013146104ef5780634ab2d57b1461050f5780634f1ef2861461052f57806352d1902d14610542578063530e784f1461055757806354fd4d50146105775780635c975abb146105b55780635ccadb88146105cd57806362f18a69146105e357806364ea9f1d14610603578063715018a6146106185780637bd075411461062d578063803bdca11461064d5780638456cb591461066d57806385a73627146106825780638b2014b6146106a25780638da5cb5b146106b85780638e35c3f8146106cd578063924e72ab146107065780639465345114610726578063958b87f914610746578063a190a85514610773578063aa6446ce14610793578063b4464c46146107d1578063b55541f5146107fa578063cf7b960514610811578063cfcab38c14610830578063d622e73e14610845578063dcd4d52514610865578063eb2dc9b61461087a578063f2fde38b14610890578063fa835329146108b0578063fb1b5c7b146108c6578063fcd1e90c146108e5575b600080fd5b34801561026b57600080fd5b5061027f61027a3660046140b5565b610905565b60405190151581526020015b60405180910390f35b3480156102a057600080fd5b506102b46102af36600461412a565b6109a0565b005b3480156102c257600080fd5b5060605b60405161028b9190614183565b3480156102df57600080fd5b506102b46102ee3660046141d0565b610a5e565b3480156102ff57600080fd5b50610308610d1f565b60405190815260200161028b565b34801561032257600080fd5b506102b461033136600461424e565b610dcb565b34801561034257600080fd5b506103086103513660046142b5565b610e0a565b34801561036257600080fd5b506103766103713660046142e0565b610e7d565b60405161028b9190614319565b34801561038f57600080fd5b50610197546103a4906001600160a01b031681565b60405161028b9190614359565b3480156103bd57600080fd5b506102b46103cc36600461436d565b610faa565b3480156103dd57600080fd5b506102b46103ec366004614386565b610fe6565b3480156103fd57600080fd5b506102c6611023565b34801561041257600080fd5b506102b46104213660046142b5565b61114b565b34801561043257600080fd5b506102b46104413660046142b5565b611199565b34801561045257600080fd5b506102b461046136600461424e565b61125f565b34801561047257600080fd5b506102b46104813660046143b8565b611299565b34801561049257600080fd5b506102b46112d0565b3480156104a757600080fd5b506103086104b63660046142e0565b611309565b3480156104c757600080fd5b506104db6104d636600461412a565b6113cc565b60405162ffffff909116815260200161028b565b3480156104fb57600080fd5b5061037661050a3660046142e0565b6113e1565b34801561051b57600080fd5b506104db61052a36600461412a565b6113ec565b6102b461053d366004614467565b6113f8565b34801561054e57600080fd5b506103086114ae565b34801561056357600080fd5b506102b46105723660046142b5565b61155c565b34801561058357600080fd5b506105a8604051806040016040528060058152602001640312e312e360dc1b81525081565b60405161028b919061453a565b3480156105c157600080fd5b5060975460ff1661027f565b3480156105d957600080fd5b5061018b54610308565b3480156105ef57600080fd5b506102b46105fe3660046143b8565b611594565b34801561060f57600080fd5b506103086115c4565b34801561062457600080fd5b506102b4611633565b34801561063957600080fd5b506104db61064836600461412a565b61166c565b34801561065957600080fd5b506102b461066836600461456d565b611678565b34801561067957600080fd5b506102b46116b2565b34801561068e57600080fd5b506102b461069d36600461436d565b6116e9565b3480156106ae57600080fd5b5061018c54610308565b3480156106c457600080fd5b506103a4611722565b3480156106d957600080fd5b50610198546106f89060ff81169061010090046001600160a01b031682565b60405161028b9291906145a3565b34801561071257600080fd5b506102b46107213660046145dd565b611731565b34801561073257600080fd5b506104db61074136600461412a565b611ad9565b34801561075257600080fd5b506103a461076136600461412a565b5050610162546001600160a01b031690565b34801561077f57600080fd5b506102b461078e36600461412a565b611aee565b34801561079f57600080fd5b506105a8604051806040016040528060128152602001715472616465724a6f6520537472617465677960701b81525081565b3480156107dd57600080fd5b506104db6107ec36600461412a565b505061015f5462ffffff1690565b34801561080657600080fd5b506103086101995481565b34801561081d57600080fd5b50610195546001600160a01b03166103a4565b34801561083c57600080fd5b506105a8611b11565b34801561085157600080fd5b506104db61086036600461412a565b611b2d565b34801561087157600080fd5b50610308611b3e565b34801561088657600080fd5b5061016154610308565b34801561089c57600080fd5b506102b46108ab3660046142b5565b611bcb565b3480156108bc57600080fd5b5061016054610308565b3480156108d257600080fd5b50610196546001600160a01b03166103a4565b3480156108f157600080fd5b506102b461090036600461424e565b611c68565b60006001600160e01b03198216630491473760e41b148061093657506001600160e01b03198216632979dc6560e11b145b8061095157506001600160e01b03198216631a6153f360e01b145b8061096c57506001600160e01b0319821663b7ac895f60e01b145b8061097f57506001600160e01b03198216155b8061099a57506301ffc9a760e01b6001600160e01b03198316145b92915050565b600260fb5414156109cc5760405162461bcd60e51b81526004016109c39061466c565b60405180910390fd5b600260fb55610160546109f26109e26101615490565b6109ec90836146b9565b61016155565b6109fd600061016055565b6040518181527f296614b32c3d193fb9c7a7bcbec919dedece17659a90d0cc2b5b23da167e6fcd9060200160405180910390a16101625461019654610a4f916001600160a01b03918216911683611cb1565b5050600160fb5550565b905090565b600260fb541415610a815760405162461bcd60e51b81526004016109c39061466c565b600260fb55610196546040516370a0823160e01b81526000916001600160a01b0316906370a0823190610ab8903090600401614359565b602060405180830381865afa158015610ad5573d6000803e3d6000fd5b505050506040513d601f19601f82011682018060405250810190610af991906146d1565b9050610b058383611d07565b610196546040516370a0823160e01b815260009183916001600160a01b03909116906370a0823190610b3b903090600401614359565b602060405180830381865afa158015610b58573d6000803e3d6000fd5b505050506040513d601f19601f82011682018060405250810190610b7c91906146d1565b610b8691906146ea565b90506101995481610b9791906146b9565b90507f7e3eaf1040dd23019433d0b1d9507d1f28cdfb716f87723fa836d747b7444cb381604051610bca91815260200190565b60405180910390a180610bde575050610d14565b610196546040516370a0823160e01b81526001600160a01b03909116906370a0823190610c0f903090600401614359565b602060405180830381865afa158015610c2c573d6000803e3d6000fd5b505050506040513d601f19601f82011682018060405250810190610c5091906146d1565b9150610c5d818787611ee6565b610196546040516370a0823160e01b81526000916001600160a01b0316906370a0823190610c8f903090600401614359565b602060405180830381865afa158015610cac573d6000803e3d6000fd5b505050506040513d601f19601f82011682018060405250810190610cd091906146d1565b610cda90846146ea565b9050610ce681836146ea565b610199556040518281526000903090600080516020614db38339815191529060200160405180910390a35050505b5050600160fb555050565b600080610d2a612462565b90506000808260030160009054906101000a90046001600160a01b03166001600160a01b0316630902f1ac6040518163ffffffff1660e01b8152600401606060405180830381865afa158015610d84573d6000803e3d6000fd5b505050506040513d601f19601f82011682018060405250810190610da89190614718565b506001600160701b039182169350169050610dc381836146b9565b935050505090565b33610dd4611722565b6001600160a01b031614610dfa5760405162461bcd60e51b81526004016109c390614768565b610e05838383612486565b505050565b610195546040516370a0823160e01b81526000916001600160a01b0316906370a0823190610e3c908590600401614359565b602060405180830381865afa158015610e59573d6000803e3d6000fd5b505050506040513d601f19601f8201168201806040525081019061099a91906146d1565b60606000610e8b8484612523565b9050600081516001610e9d91906146b9565b9050806001600160401b03811115610eb757610eb7614421565b604051908082528060200260200182016040528015610ef057816020015b610edd61409e565b815260200190600190039081610ed55790505b50925060005b610f016001836146ea565b811015610f5057828181518110610f1a57610f1a61479d565b6020026020010151848281518110610f3457610f3461479d565b602002602001018190525080610f49906147b3565b9050610ef6565b506040805180820190915273b97ef9ef8734c71904d8002f8b6bc66dd9c48a6e815261019954602082015283610f876001846146ea565b81518110610f9757610f9761479d565b6020026020010181905250505092915050565b33610fb3611722565b6001600160a01b031614610fd95760405162461bcd60e51b81526004016109c390614768565b610fe38161018c55565b50565b33610fef611722565b6001600160a01b0316146110155760405162461bcd60e51b81526004016109c390614768565b61101f8282612629565b5050565b6060600061102f6126aa565b905060008151600161104191906146b9565b9050806001600160401b0381111561105b5761105b614421565b60405190808252806020026020018201604052801561109457816020015b61108161409e565b8152602001906001900390816110795790505b50925060005b6110a56001836146ea565b8110156110f4578281815181106110be576110be61479d565b60200260200101518482815181106110d8576110d861479d565b6020026020010181905250806110ed906147b3565b905061109a565b506040805180820190915273b97ef9ef8734c71904d8002f8b6bc66dd9c48a6e81526101995460208201528361112b6001846146ea565b8151811061113b5761113b61479d565b6020026020010181905250505090565b33611154611722565b6001600160a01b03161461117a5760405162461bcd60e51b81526004016109c390614768565b61019580546001600160a01b0319166001600160a01b03831617905550565b306001600160a01b037f00000000000000000000000000000000000000000000000000000000000000001614156111e25760405162461bcd60e51b81526004016109c3906147ce565b7f00000000000000000000000000000000000000000000000000000000000000006001600160a01b0316611214612735565b6001600160a01b03161461123a5760405162461bcd60e51b81526004016109c390614808565b61124381612751565b60408051600080825260208201909252610fe391839190612780565b33611268611722565b6001600160a01b03161461128e5760405162461bcd60e51b81526004016109c390614768565b610e058383836128eb565b60975460ff16156112bc5760405162461bcd60e51b81526004016109c390614842565b6112c98585858585612966565b5050505050565b336112d9611722565b6001600160a01b0316146112ff5760405162461bcd60e51b81526004016109c390614768565b611307612c82565b565b60008060006113188585610e7d565b805190915060005b818110156113655782818151811061133a5761133a61479d565b6020026020010151602001518461135191906146b9565b93508061135d816147b3565b915050611320565b50600061137287876113e1565b805190915060005b818110156113bf578281815181106113945761139461479d565b602002602001015160200151866113ab91906146ea565b9550806113b7816147b3565b91505061137a565b5093979650505050505050565b505061015f546301000000900462ffffff1690565b6060805b9392505050565b60006113e58383611ad9565b306001600160a01b037f00000000000000000000000000000000000000000000000000000000000000001614156114415760405162461bcd60e51b81526004016109c3906147ce565b7f00000000000000000000000000000000000000000000000000000000000000006001600160a01b0316611473612735565b6001600160a01b0316146114995760405162461bcd60e51b81526004016109c390614808565b6114a282612751565b61101f82826001612780565b6000306001600160a01b037f000000000000000000000000000000000000000000000000000000000000000016146115495760405162461bcd60e51b815260206004820152603860248201527f555550535570677261646561626c653a206d757374206e6f742062652063616c6044820152771b1959081d1a1c9bdd59da0819195b1959d85d1958d85b1b60421b60648201526084016109c3565b50600080516020614df383398151915290565b33611565611722565b6001600160a01b03161461158b5760405162461bcd60e51b81526004016109c390614768565b610fe381612d0f565b60975460ff16156115b75760405162461bcd60e51b81526004016109c390614842565b6112c98585858585612d32565b61019554604080516318160ddd60e01b815290516000926001600160a01b0316916318160ddd9160048083019260209291908290030181865afa15801561160f573d6000803e3d6000fd5b505050506040513d601f19601f82011682018060405250810190610a5991906146d1565b3361163c611722565b6001600160a01b0316146116625760405162461bcd60e51b81526004016109c390614768565b6113076000612fe5565b60006113e583836113cc565b33611681611722565b6001600160a01b0316146116a75760405162461bcd60e51b81526004016109c390614768565b610e05838383613037565b336116bb611722565b6001600160a01b0316146116e15760405162461bcd60e51b81526004016109c390614768565b6113076130bc565b336116f2611722565b6001600160a01b0316146117185760405162461bcd60e51b81526004016109c390614768565b610fe38161018b55565b60c9546001600160a01b031690565b600061173d6001613114565b90508015611755576000805461ff0019166101001790555b61175d6131a8565b611766866131cf565b6000611770612462565b80546001600160a01b038089166001600160a01b0319928316178355600183018054898316908416179055600383018054888316908416811790915560048085018054938916939094169290921790925560408051630dfe168160e01b81529051939450600093630dfe1681928281019260209291908290030181865afa1580156117ff573d6000803e3d6000fd5b505050506040513d601f19601f82011682018060405250810190611823919061486c565b90506000856001600160a01b031663d21220a76040518163ffffffff1660e01b8152600401602060405180830381865afa158015611865573d6000803e3d6000fd5b505050506040513d601f19601f82011682018060405250810190611889919061486c565b610196549091506001600160a01b038381169116146118c4576002830180546001600160a01b0319166001600160a01b038416179055611915565b610196546001600160a01b038281169116146118fc576002830180546001600160a01b0319166001600160a01b038316179055611915565b60405163123957c760e11b815260040160405180910390fd5b611949604051806080016040528060006001600160a01b031681526020016000815260200160008152602001600081525090565b6000886001600160a01b031663081e3eda6040518163ffffffff1660e01b8152600401602060405180830381865afa158015611989573d6000803e3d6000fd5b505050506040513d601f19601f820116820180604052508101906119ad91906146d1565b90506000805b82811015611a6657604051631526fe2760e01b8152600481018290526001600160a01b038c1690631526fe2790602401608060405180830381865afa158015611a00573d6000803e3d6000fd5b505050506040513d601f19601f82011682018060405250810190611a249190614889565b9350896001600160a01b031684600001516001600160a01b03161415611a54576005870181905560019150611a66565b80611a5e816147b3565b9150506119b3565b5080611a855760405163123957c760e11b815260040160405180910390fd5b5050505050508015611ad1576000805461ff0019169055604051600181527f7f26b83ff96e1f2b6a682f133852f6798a09c465da95921460cefb38474024989060200160405180910390a15b505050505050565b505061015f54600160301b900462ffffff1690565b60975460ff161561101f5760405162461bcd60e51b81526004016109c390614842565b604051806060016040528060338152602001614e3a6033913981565b60006113e561015f5462ffffff1690565b600080611b49612462565b600181015460058201546040516393f1a40b60e01b815260048101919091523060248201529192506001600160a01b0316906393f1a40b906044016040805180830381865afa158015611ba0573d6000803e3d6000fd5b505050506040513d601f19601f82011682018060405250810190611bc491906148f7565b5192915050565b33611bd4611722565b6001600160a01b031614611bfa5760405162461bcd60e51b81526004016109c390614768565b6001600160a01b038116611c5f5760405162461bcd60e51b815260206004820152602660248201527f4f776e61626c653a206e6577206f776e657220697320746865207a65726f206160448201526564647265737360d01b60648201526084016109c3565b610fe381612fe5565b33611c71611722565b6001600160a01b031614611c975760405162461bcd60e51b81526004016109c390614768565b610e05838383613207565b6001600160a01b03163b151590565b610e058363a9059cbb60e01b8484604051602401611cd0929190614945565b60408051601f198184030181529190526020810180516001600160e01b03166001600160e01b031990931692909217909152613296565b6000611d11612462565b60018101546005820154604051631c57762b60e31b81526004810191909152600060248201529192506001600160a01b03169063e2bbb15890604401600060405180830381600087803b158015611d6757600080fd5b505af1158015611d7b573d6000803e3d6000fd5b506000925060029150611d8b9050565b604051908082528060200260200182016040528015611db4578160200160208202803683370190505b50600483015481519192506001600160a01b0316908290600090611dda57611dda61479d565b6001600160a01b03928316602091820292909201015261019654825191169082906001908110611e0c57611e0c61479d565b6001600160a01b03909216602092830291909101909101526040805180820190915261019880546112c9929190829060ff168015611e4c57611e4c61458d565b8015611e5a57611e5a61458d565b815290546001600160a01b0361010090910481166020909201919091526004808601546040516370a0823160e01b81529216916370a0823191611e9f91309101614359565b602060405180830381865afa158015611ebc573d6000803e3d6000fd5b505050506040513d601f19601f82011682018060405250810190611ee091906146d1565b83613368565b6000611ef0612462565b60028101546040516370a0823160e01b81529192506000916001600160a01b03909116906370a0823190611f28903090600401614359565b602060405180830381865afa158015611f45573d6000803e3d6000fd5b505050506040513d601f19601f82011682018060405250810190611f6991906146d1565b90506000611f7860028761495e565b604080516002808252606082018352929350600092909160208301908036833750506101965482519293506001600160a01b031691839150600090611fbf57611fbf61479d565b6001600160a01b0392831660209182029290920101526002850154825191169082906001908110611ff257611ff261479d565b6001600160a01b0390921660209283029190910190910152604080518082019091526101988054600092612062929091829060ff1680156120355761203561458d565b80156120435761204361458d565b8152905461010090046001600160a01b03166020909101528484613368565b90506000612070848a6146ea565b6002870154875460405163095ea7b360e01b81529293506001600160a01b039182169263095ea7b3926120a99216908690600401614945565b6020604051808303816000875af11580156120c8573d6000803e3d6000fd5b505050506040513d601f19601f820116820180604052508101906120ec9190614980565b5061019654865460405163095ea7b360e01b81526001600160a01b039283169263095ea7b392612123929116908590600401614945565b6020604051808303816000875af1158015612142573d6000803e3d6000fd5b505050506040513d601f19601f820116820180604052508101906121669190614980565b50855460028701546101965460405162e8e33760e81b81526001600160a01b0392831660048201529082166024820152604481018590526064810184905260006084820181905260a482018190523060c48301524260e483015292919091169063e8e3370090610104016060604051808303816000875af11580156121ef573d6000803e3d6000fd5b505050506040513d601f19601f82011682018060405250810190612213919061499d565b60028a01546040516370a0823160e01b8152919450600093508992506001600160a01b0316906370a082319061224d903090600401614359565b602060405180830381865afa15801561226a573d6000803e3d6000fd5b505050506040513d601f19601f8201168201806040525081019061228e91906146d1565b61229891906146ea565b9050801561236557600288015485516001600160a01b039091169086906000906122c4576122c461479d565b6001600160a01b039283166020918202929092010152610196548651911690869060019081106122f6576122f661479d565b6001600160a01b0390921660209283029190910190910152604080518082019091526101988054612363929190829060ff1680156123365761233661458d565b80156123445761234461458d565b8152905461010090046001600160a01b03166020909101528287613368565b505b6003880154600189015460405163095ea7b360e01b81526001600160a01b039283169263095ea7b39261239f929116908690600401614945565b6020604051808303816000875af11580156123be573d6000803e3d6000fd5b505050506040513d601f19601f820116820180604052508101906123e29190614980565b5060018801546005890154604051631c57762b60e31b81526001600160a01b039092169163e2bbb15891612423918690600401918252602082015260400190565b600060405180830381600087803b15801561243d57600080fd5b505af1158015612451573d6000803e3d6000fd5b505050505050505050505050505050565b7f2c18a668c6ed16d1abb08a50aa4bef7a42b8953231af749500b07f3b5a121f2590565b826124946103e860646149cb565b8162ffffff16106124b8576040516303689ded60e51b815260040160405180910390fd5b61015f805465ffffff0000001916630100000062ffffff878116820292909217928390556040517f562ffa77d0627a8704e5d9641e53b90a135392b6fb458b619c3cf64555a0adea93612515939290049091169086908690614af8565b60405180910390a150505050565b6060600061252f612462565b604080516001808252818301909252919250816020015b61254e61409e565b81526020019060019003908161254657505060408051808201825260038401546001600160a01b031680825282516318160ddd60e01b8152925193955090926020808501936318160ddd92600480830193928290030181865afa1580156125b9573d6000803e3d6000fd5b505050506040513d601f19601f820116820180604052508101906125dd91906146d1565b6125e5610d1f565b6125ed611b3e565b6125f791906149cb565b612601919061495e565b815250826000815181106126175761261761479d565b60200260200101819052505092915050565b60405180604001604052808360008111156126465761264661458d565b81526001600160a01b03831660209091015280516101988054909190829060ff191660018380156126795761267961458d565b02179055506020919091015181546001600160a01b0390911661010002610100600160a81b03199091161790555050565b606060006126b6612462565b604080516001808252818301909252919250816020015b6126d561409e565b8152602001906001900390816126cd5750506040805180820190915260038301546001600160a01b0316815290925060208101612710611b3e565b815250826000815181106127265761272661479d565b60200260200101819052505090565b600080516020614df3833981519152546001600160a01b031690565b3361275a611722565b6001600160a01b031614610fe35760405162461bcd60e51b81526004016109c390614768565b7f4910fdfa16fed3260ed0e7147f7cc6da11a60208b5b9406d12a635614ffd91435460ff16156127b357610e05836134d5565b826001600160a01b03166352d1902d6040518163ffffffff1660e01b8152600401602060405180830381865afa92505050801561280d575060408051601f3d908101601f1916820190925261280a918101906146d1565b60015b6128705760405162461bcd60e51b815260206004820152602e60248201527f45524331393637557067726164653a206e657720696d706c656d656e7461746960448201526d6f6e206973206e6f74205555505360901b60648201526084016109c3565b600080516020614df383398151915281146128df5760405162461bcd60e51b815260206004820152602960248201527f45524331393637557067726164653a20756e737570706f727465642070726f786044820152681a58589b195555525160ba1b60648201526084016109c3565b50610e0583838361356f565b826128f96103e860646149cb565b8162ffffff161061291d576040516303689ded60e51b815260040160405180910390fd5b61015f805462ffffff191662ffffff86169081179091556040517f7e81a23ec68969b22ae39faba6faa8633338046c205f9d04a30c8a0df04ca3b9916125159186908690614af8565b600260fb5414156129895760405162461bcd60e51b81526004016109c39061466c565b600260fb55846129ac576040516347aedd1b60e11b815260040160405180910390fd5b6001600160a01b0383166129d35760405163115fd31d60e31b815260040160405180910390fd5b60006129e160016000611309565b90506000806129ee6115c4565b90508015612a1c576000612a0187610e0a565b905081612a0e82866149cb565b612a18919061495e565b9250505b612a26888461359a565b612a3088836135c7565b610196546040516370a0823160e01b81526000916001600160a01b0316906370a0823190612a62903090600401614359565b602060405180830381865afa158015612a7f573d6000803e3d6000fd5b505050506040513d601f19601f82011682018060405250810190612aa391906146d1565b9050612abe33610196546001600160a01b031690308c6135f4565b612ac9898787611ee6565b610196546040516370a0823160e01b815260009183916001600160a01b03909116906370a0823190612aff903090600401614359565b602060405180830381865afa158015612b1c573d6000803e3d6000fd5b505050506040513d601f19601f82011682018060405250810190612b4091906146d1565b612b4a91906146ea565b9050806101996000828254612b5f91906146b9565b9091555060009050612b72600182611309565b90506000612b8087836146ea565b905080612ba057604051632f1b0c0f60e01b815260040160405180910390fd5b8a811015612bc15760405163c327661d60e01b815260040160405180910390fd5b610195546001600160a01b03166340c10f198b612bdf8a858a61362c565b6040518363ffffffff1660e01b8152600401612bfc929190614945565b600060405180830381600087803b158015612c1657600080fd5b505af1158015612c2a573d6000803e3d6000fd5b50505050896001600160a01b0316612c3f3390565b6001600160a01b0316600080516020614db38339815191528e604051612c6791815260200190565b60405180910390a35050600160fb5550505050505050505050565b60975460ff16612ccb5760405162461bcd60e51b815260206004820152601460248201527314185d5cd8589b194e881b9bdd081c185d5cd95960621b60448201526064016109c3565b6097805460ff191690557f5db9ee0a495bf2e6ff9c91a7834c1ba4fdd244a5e8aa4e537bd38aeae4b073aa335b604051612d059190614359565b60405180910390a1565b61019780546001600160a01b0319166001600160a01b0392909216919091179055565b600260fb541415612d555760405162461bcd60e51b81526004016109c39061466c565b600260fb5584612d7857604051636d8bee0b60e11b815260040160405180910390fd5b6001600160a01b038316612d9f576040516314f3686160e11b815260040160405180910390fd5b6000612dac868484613656565b9050612db98684846136d1565b600081612dc7888686613656565b612dd191906146ea565b9050600061019560009054906101000a90046001600160a01b03166001600160a01b03166318160ddd6040518163ffffffff1660e01b8152600401602060405180830381865afa158015612e29573d6000803e3d6000fd5b505050506040513d601f19601f82011682018060405250810190612e4d91906146d1565b8861019954612e5c91906149cb565b612e66919061495e565b9050612e7281836146b9565b9150806101996000828254612e8791906146ea565b909155506000905060646103e8612ea361015f5462ffffff1690565b612eb29062ffffff16866149cb565b612ebc919061495e565b612ec6919061495e565b905087612ed382856146ea565b1015612ef25760405163c327661d60e01b815260040160405180910390fd5b610195546001600160a01b03166379cc6790338b6040518363ffffffff1660e01b8152600401612f23929190614945565b600060405180830381600087803b158015612f3d57600080fd5b505af1158015612f51573d6000803e3d6000fd5b50505050612f7381612f636101605490565b612f6d91906146b9565b61016055565b612f9587612f8183866146ea565b610196546001600160a01b03169190611cb1565b6040518981526001600160a01b0388169033907f2717ead6b9200dd235aad468c9809ea400fe33ac69b5bfaa6d3e90fc922b63989060200160405180910390a35050600160fb5550505050505050565b60c980546001600160a01b038381166001600160a01b0319831681179093556040519116919082907f8be0079c531659141344cd1fd0a4f28419497f9722a3daafe3b4186f6b6457e090600090a35050565b6001600160a01b03831661305e5760405163b6802b7f60e01b815260040160405180910390fd5b61016280546001600160a01b0319166001600160a01b0385169081179091556040517fa3fe39fe39850ddb39697065123e293302f3e8948984fde991b5a291ed1ad05b916130af9185908590614b17565b60405180910390a1505050565b60975460ff16156130df5760405162461bcd60e51b81526004016109c390614842565b6097805460ff191660011790557f62e78cea01bee320cd4e420270b5ea74000d11b0c9f74754ebdbfc544b05a258612cf83390565b60008054610100900460ff1615613162578160ff16600114801561313e575061313c30611ca2565b155b61315a5760405162461bcd60e51b81526004016109c390614b3c565b506000919050565b60005460ff8084169116106131895760405162461bcd60e51b81526004016109c390614b3c565b506000805460ff191660ff92909216919091179055600190565b919050565b600054610100900460ff166113075760405162461bcd60e51b81526004016109c390614b8a565b600054610100900460ff166131f65760405162461bcd60e51b81526004016109c390614b8a565b6131fe613a7b565b610fe381613aaa565b826132156103e860646149cb565b8162ffffff1610613239576040516303689ded60e51b815260040160405180910390fd5b61015f805462ffffff60301b1916600160301b62ffffff878116820292909217928390556040517f05f9aef0771b6541329b82ea24407357fc3ff0f457598588055f84a807dbdb8f93612515939290049091169086908690614af8565b60006132eb826040518060400160405280602081526020017f5361666545524332303a206c6f772d6c6576656c2063616c6c206661696c6564815250856001600160a01b0316613ae29092919063ffffffff16565b805190915015610e0557808060200190518101906133099190614980565b610e055760405162461bcd60e51b815260206004820152602a60248201527f5361666545524332303a204552433230206f7065726174696f6e20646964206e6044820152691bdd081cdd58d8d9595960b21b60648201526084016109c3565b6000808451801561337b5761337b61458d565b14156134bc576020840151825183906000906133995761339961479d565b60200260200101516001600160a01b031663095ea7b382866040518363ffffffff1660e01b81526004016133ce929190614945565b6020604051808303816000875af11580156133ed573d6000803e3d6000fd5b505050506040513d601f19601f820116820180604052508101906134119190614980565b506040516338ed173960e01b81526001600160a01b038216906338ed173990613447908790600090889030904290600401614bd5565b6000604051808303816000875af1158015613466573d6000803e3d6000fd5b505050506040513d6000823e601f3d908101601f1916820160405261348e9190810190614c46565b6001845161349c91906146ea565b815181106134ac576134ac61479d565b60200260200101519150506113e5565b60405163e004e07560e01b815260040160405180910390fd5b6134de81611ca2565b6135405760405162461bcd60e51b815260206004820152602d60248201527f455243313936373a206e657720696d706c656d656e746174696f6e206973206e60448201526c1bdd08184818dbdb9d1c9858dd609a1b60648201526084016109c3565b600080516020614df383398151915280546001600160a01b0319166001600160a01b0392909216919091179055565b61357883613af1565b6000825111806135855750805b15610e05576135948383613b31565b50505050565b61018b546135a882846146b9565b111561101f5760405163b761799960e01b815260040160405180910390fd5b61018c546135d582846146b9565b111561101f5760405163973cc40960e01b815260040160405180910390fd5b6040516001600160a01b03808516602483015283166044820152606481018290526135949085906323b872dd60e01b90608401611cd0565b60008161363a5750816113e5565b8361364583856149cb565b61364f919061495e565b90506113e5565b610196546040516370a0823160e01b81526000916001600160a01b0316906370a0823190613688903090600401614359565b602060405180830381865afa1580156136a5573d6000803e3d6000fd5b505050506040513d601f19601f820116820180604052508101906136c991906146d1565b949350505050565b60006136db612462565b905060006136e76115c4565b856136f0611b3e565b6136fa91906149cb565b613704919061495e565b60028301546040516370a0823160e01b81529192506000916001600160a01b03909116906370a082319061373c903090600401614359565b602060405180830381865afa158015613759573d6000803e3d6000fd5b505050506040513d601f19601f8201168201806040525081019061377d91906146d1565b60018401546005850154604051630441a3e760e41b81526004810191909152602481018590529192506001600160a01b03169063441a3e7090604401600060405180830381600087803b1580156137d357600080fd5b505af11580156137e7573d6000803e3d6000fd5b5050506003840154845460405163095ea7b360e01b81526001600160a01b03928316935063095ea7b3926138219216908690600401614945565b6020604051808303816000875af1158015613840573d6000803e3d6000fd5b505050506040513d601f19601f820116820180604052508101906138649190614980565b508254600284015461019654604051635d5155ef60e11b81526001600160a01b03928316600482015290821660248201526044810185905260006064820181905260848201523060a48201524260c482015291169063baa2abde9060e40160408051808303816000875af11580156138e0573d6000803e3d6000fd5b505050506040513d601f19601f820116820180604052508101906139049190614ceb565b505060028301546040516370a0823160e01b81526000916001600160a01b0316906370a0823190613939903090600401614359565b602060405180830381865afa158015613956573d6000803e3d6000fd5b505050506040513d601f19601f8201168201806040525081019061397a91906146d1565b9050600061398883836146ea565b6040805160028082526060820183529293506000929091602083019080368337505050600287015481519192506001600160a01b03169082906000906139d0576139d061479d565b6001600160a01b03928316602091820292909201015261019654825191169082906001908110613a0257613a0261479d565b6001600160a01b0390921660209283029190910190910152604080518082019091526101988054613a6f929190829060ff168015613a4257613a4261458d565b8015613a5057613a5061458d565b8152905461010090046001600160a01b03166020909101528383613368565b50505050505050505050565b600054610100900460ff16613aa25760405162461bcd60e51b81526004016109c390614b8a565b611307613c23565b600054610100900460ff16613ad15760405162461bcd60e51b81526004016109c390614b8a565b613ad9613c56565b610fe381613c85565b60606136c98484600085613e0d565b613afa816134d5565b6040516001600160a01b038216907fbc7cd75a20ee27fd9adebab32041f755214dbc6bffa90cc0225b39da2e5c2d3b90600090a250565b6060613b3c83611ca2565b613b975760405162461bcd60e51b815260206004820152602660248201527f416464726573733a2064656c65676174652063616c6c20746f206e6f6e2d636f6044820152651b9d1c9858dd60d21b60648201526084016109c3565b600080846001600160a01b031684604051613bb29190614d0f565b600060405180830381855af49150503d8060008114613bed576040519150601f19603f3d011682016040523d82523d6000602084013e613bf2565b606091505b5091509150613c1a8282604051806060016040528060278152602001614e1360279139613f3c565b95945050505050565b600054610100900460ff16613c4a5760405162461bcd60e51b81526004016109c390614b8a565b6097805460ff19169055565b600054610100900460ff16613c7d5760405162461bcd60e51b81526004016109c390614b8a565b611307613f75565b600054610100900460ff16613cac5760405162461bcd60e51b81526004016109c390614b8a565b613cb46131a8565b613cbc613fa5565b613cc46131a8565b613d43613cd76060830160408401614d2b565b613ce46060840184614d46565b613cf460a0860160808701614d2b565b613d0160a0870187614d46565b613d1160e0890160c08a01614d2b565b613d1e60e08a018a614d46565b613d306101208c016101008d016142b5565b613d3e6101208d018d614d46565b613fd4565b613d57816101400135826101600135614035565b613d6460208201826142b5565b61019580546001600160a01b0319166001600160a01b0392909216919091179055613d9560408201602083016142b5565b61019680546001600160a01b0319166001600160a01b0392909216919091179055613dd0613dcb6101a0830161018084016142b5565b612d0f565b610fe3613de56101c083016101a08401614d8f565b60ff168015613df657613df661458d565b613e086101e084016101c085016142b5565b612629565b606082471015613e6e5760405162461bcd60e51b815260206004820152602660248201527f416464726573733a20696e73756666696369656e742062616c616e636520666f6044820152651c8818d85b1b60d21b60648201526084016109c3565b613e7785611ca2565b613ec35760405162461bcd60e51b815260206004820152601d60248201527f416464726573733a2063616c6c20746f206e6f6e2d636f6e747261637400000060448201526064016109c3565b600080866001600160a01b03168587604051613edf9190614d0f565b60006040518083038185875af1925050503d8060008114613f1c576040519150601f19603f3d011682016040523d82523d6000602084013e613f21565b606091505b5091509150613f31828286613f3c565b979650505050505050565b60608315613f4b5750816113e5565b825115613f5b5782518084602001fd5b8160405162461bcd60e51b81526004016109c3919061453a565b600054610100900460ff16613f9c5760405162461bcd60e51b81526004016109c390614b8a565b61130733612fe5565b600054610100900460ff16613fcc5760405162461bcd60e51b81526004016109c390614b8a565b611307614070565b600054610100900460ff16613ffb5760405162461bcd60e51b81526004016109c390614b8a565b6140068c8c8c612486565b6140118989896128eb565b61401c868686613207565b614027838383613037565b505050505050505050505050565b600054610100900460ff1661405c5760405162461bcd60e51b81526004016109c390614b8a565b6140668261018b55565b61101f8161018c55565b600054610100900460ff166140975760405162461bcd60e51b81526004016109c390614b8a565b600160fb55565b604080518082019091526000808252602082015290565b6000602082840312156140c757600080fd5b81356001600160e01b0319811681146113e557600080fd5b60008083601f8401126140f157600080fd5b5081356001600160401b0381111561410857600080fd5b6020830191508360208260051b850101111561412357600080fd5b9250929050565b6000806020838503121561413d57600080fd5b82356001600160401b0381111561415357600080fd5b61415f858286016140df565b90969095509350505050565b80516001600160a01b03168252602090810151910152565b602080825282518282018190526000919060409081850190868401855b828110156141c3576141b384835161416b565b92840192908501906001016141a0565b5091979650505050505050565b600080600080604085870312156141e657600080fd5b84356001600160401b03808211156141fd57600080fd5b614209888389016140df565b9096509450602087013591508082111561422257600080fd5b5061422f878288016140df565b95989497509550505050565b803562ffffff811681146131a357600080fd5b60008060006040848603121561426357600080fd5b61426c8461423b565b925060208401356001600160401b0381111561428757600080fd5b614293868287016140df565b9497909650939450505050565b6001600160a01b0381168114610fe357600080fd5b6000602082840312156142c757600080fd5b81356113e5816142a0565b8015158114610fe357600080fd5b600080604083850312156142f357600080fd5b82356142fe816142d2565b9150602083013561430e816142d2565b809150509250929050565b602080825282518282018190526000919060409081850190868401855b828110156141c35761434984835161416b565b9284019290850190600101614336565b6001600160a01b0391909116815260200190565b60006020828403121561437f57600080fd5b5035919050565b6000806040838503121561439957600080fd5b8235600181106143a857600080fd5b9150602083013561430e816142a0565b6000806000806000608086880312156143d057600080fd5b853594506020860135935060408601356143e9816142a0565b925060608601356001600160401b0381111561440457600080fd5b614410888289016140df565b969995985093965092949392505050565b634e487b7160e01b600052604160045260246000fd5b604051601f8201601f191681016001600160401b038111828210171561445f5761445f614421565b604052919050565b6000806040838503121561447a57600080fd5b8235614485816142a0565b91506020838101356001600160401b03808211156144a257600080fd5b818601915086601f8301126144b657600080fd5b8135818111156144c8576144c8614421565b6144da601f8201601f19168501614437565b915080825287848285010111156144f057600080fd5b80848401858401376000848284010152508093505050509250929050565b60005b83811015614529578181015183820152602001614511565b838111156135945750506000910152565b602081526000825180602084015261455981604085016020870161450e565b601f01601f19169190910160400192915050565b60008060006040848603121561458257600080fd5b833561426c816142a0565b634e487b7160e01b600052602160045260246000fd5b60408101600184106145c557634e487b7160e01b600052602160045260246000fd5b9281526001600160a01b039190911660209091015290565b600080600080600060a086880312156145f557600080fd5b85356001600160401b0381111561460b57600080fd5b8601610200818903121561461e57600080fd5b9450602086013561462e816142a0565b9350604086013561463e816142a0565b9250606086013561464e816142a0565b9150608086013561465e816142a0565b809150509295509295909350565b6020808252601f908201527f5265656e7472616e637947756172643a207265656e7472616e742063616c6c00604082015260600190565b634e487b7160e01b600052601160045260246000fd5b600082198211156146cc576146cc6146a3565b500190565b6000602082840312156146e357600080fd5b5051919050565b6000828210156146fc576146fc6146a3565b500390565b80516001600160701b03811681146131a357600080fd5b60008060006060848603121561472d57600080fd5b61473684614701565b925061474460208501614701565b9150604084015163ffffffff8116811461475d57600080fd5b809150509250925092565b6020808252818101527f4f776e61626c653a2063616c6c6572206973206e6f7420746865206f776e6572604082015260600190565b634e487b7160e01b600052603260045260246000fd5b60006000198214156147c7576147c76146a3565b5060010190565b6020808252602c90820152600080516020614dd383398151915260408201526b19195b1959d85d1958d85b1b60a21b606082015260800190565b6020808252602c90820152600080516020614dd383398151915260408201526b6163746976652070726f787960a01b606082015260800190565b60208082526010908201526f14185d5cd8589b194e881c185d5cd95960821b604082015260600190565b60006020828403121561487e57600080fd5b81516113e5816142a0565b60006080828403121561489b57600080fd5b604051608081016001600160401b03811182821017156148bd576148bd614421565b60405282516148cb816142a0565b808252506020830151602082015260408301516040820152606083015160608201528091505092915050565b60006040828403121561490957600080fd5b604080519081016001600160401b038111828210171561492b5761492b614421565b604052825181526020928301519281019290925250919050565b6001600160a01b03929092168252602082015260400190565b60008261497b57634e487b7160e01b600052601260045260246000fd5b500490565b60006020828403121561499257600080fd5b81516113e5816142d2565b6000806000606084860312156149b257600080fd5b8351925060208401519150604084015190509250925092565b60008160001904831182151516156149e5576149e56146a3565b500290565b6000808335601e19843603018112614a0157600080fd5b83016020810192503590506001600160401b03811115614a2057600080fd5b80360383131561412357600080fd5b81835281816020850137506000828201602090810191909152601f909101601f19169091010190565b81835260006020808501808196508560051b81019150846000805b88811015614aea578385038a528235603e19893603018112614a93578283fd5b88016040614aa182806149ea565b828952614ab1838a018284614a2f565b92505050614ac1888301836149ea565b925087820389890152614ad5828483614a2f565b9c89019c975050509286019250600101614a73565b509298975050505050505050565b62ffffff84168152604060208201526000613c1a604083018486614a58565b6001600160a01b0384168152604060208201819052600090613c1a9083018486614a58565b6020808252602e908201527f496e697469616c697a61626c653a20636f6e747261637420697320616c72656160408201526d191e481a5b9a5d1a585b1a5e995960921b606082015260800190565b6020808252602b908201527f496e697469616c697a61626c653a20636f6e7472616374206973206e6f74206960408201526a6e697469616c697a696e6760a81b606082015260800190565b600060a082018783526020878185015260a0604085015281875180845260c086019150828901935060005b81811015614c255784516001600160a01b031683529383019391830191600101614c00565b50506001600160a01b03969096166060850152505050608001529392505050565b60006020808385031215614c5957600080fd5b82516001600160401b0380821115614c7057600080fd5b818501915085601f830112614c8457600080fd5b815181811115614c9657614c96614421565b8060051b9150614ca7848301614437565b8181529183018401918481019088841115614cc157600080fd5b938501935b83851015614cdf57845182529385019390850190614cc6565b98975050505050505050565b60008060408385031215614cfe57600080fd5b505080516020909101519092909150565b60008251614d2181846020870161450e565b9190910192915050565b600060208284031215614d3d57600080fd5b6113e58261423b565b6000808335601e19843603018112614d5d57600080fd5b8301803591506001600160401b03821115614d7757600080fd5b6020019150600581901b360382131561412357600080fd5b600060208284031215614da157600080fd5b813560ff811681146113e557600080fdfe5548c837ab068cf56a2c2479df0882a4922fd203edb7517321831d95078c5f6246756e6374696f6e206d7573742062652063616c6c6564207468726f75676820360894a13ba1a3210667c828492db98dca3e2076cc3735a920a3ca505d382bbc416464726573733a206c6f772d6c6576656c2064656c65676174652063616c6c206661696c656462726f6b6b722e7472616465726a6f655f73747261746567792e7472616465726a6f655f73747261746567795f76312e312e30a2646970667358221220f8ed847bc1c3f920cb5bed07b3b4ba94a0c7c4bad411bcf39c0eda0a003fd34f64736f6c634300080a0033",
  "linkReferences": {},
  "deployedLinkReferences": {}
}