{
  "_format": "hh-sol-artifact-1",
  "contractName": "Math",
  "sourceName": "contracts/common/libraries/Math.sol",
  "abi": [
    {
      "inputs": [],
      "name": "LONG_FIXED_DECIMAL_FACTOR",
      "outputs": [
        {
          "internalType": "uint256",
          "name": "",
          "type": "uint256"
        }
      ],
      "stateMutability": "view",
      "type": "function"
    },
    {
      "inputs": [],
      "name": "MEDIUM_FIXED_DECIMAL_FACTOR",
      "outputs": [
        {
          "internalType": "uint24",
          "name": "",
          "type": "uint24"
        }
      ],
      "stateMutability": "view",
      "type": "function"
    },
    {
      "inputs": [],
      "name": "SHORT_FIXED_DECIMAL_FACTOR",
      "outputs": [
        {
          "internalType": "uint16",
          "name": "",
          "type": "uint16"
        }
      ],
      "stateMutability": "view",
      "type": "function"
    }
  ],
  "bytecode": "0x60dd610039600b82828239805160001a60731461002c57634e487b7160e01b600052600060045260246000fd5b30600052607381538281f3fe730000000000000000000000000000000000000000301460806040526004361060475760003560e01c806304c180dd14604c578063970a3d1d14606c578063ee913d92146088575b600080fd5b60546103e881565b60405161ffff90911681526020015b60405180910390f35b6075620f424081565b60405162ffffff90911681526020016063565b609a68327cb2734119d3b7a9601e1b81565b604051908152602001606356fea2646970667358221220c37ac69c16c87cc6519cb3fcdb94291f6cfbc70cdd3366f513a70c5a254ec5d464736f6c634300080a0033",
  "linkReferences": {},
  "deployedLinkReferences": {}
}