{
  "_format": "hh-sol-artifact-1",
  "contractName": "PercentageAllocationV2",
  "sourceName": "contracts/tests/portfolios/percentageAllocation/PercentageAllocationV2.sol",
  "abi": [
    {
      "inputs": [],
      "stateMutability": "nonpayable",
      "type": "constructor"
    },
    {
      "inputs": [],
      "name": "InvalidFeeError",
      "type": "error"
    },
    {
      "inputs": [],
      "name": "InvestableAlreadyAdded",
      "type": "error"
    },
    {
      "inputs": [],
      "name": "InvestableHasNonZeroAllocation",
      "type": "error"
    },
    {
      "inputs": [],
      "name": "InvestableNotYetAdded",
      "type": "error"
    },
    {
      "inputs": [],
      "name": "InvestmentLimitPerAddressExceeded",
      "type": "error"
    },
    {
      "inputs": [],
      "name": "RebalanceIncorrectAllocationsLength",
      "type": "error"
    },
    {
      "inputs": [],
      "name": "RebalancePercentageNot100",
      "type": "error"
    },
    {
      "inputs": [],
      "name": "TooSmallDepositTokenAmountOut",
      "type": "error"
    },
    {
      "inputs": [],
      "name": "TotalInvestmentLimitExceeded",
      "type": "error"
    },
    {
      "inputs": [],
      "name": "ZeroAmountDeposited",
      "type": "error"
    },
    {
      "inputs": [],
      "name": "ZeroAmountInvested",
      "type": "error"
    },
    {
      "inputs": [],
      "name": "ZeroAmountWithdrawn",
      "type": "error"
    },
    {
      "inputs": [],
      "name": "ZeroDepositTokenReceiver",
      "type": "error"
    },
    {
      "inputs": [],
      "name": "ZeroFeeReceiver",
      "type": "error"
    },
    {
      "inputs": [],
      "name": "ZeroInvestmentTokenReceiver",
      "type": "error"
    },
    {
      "anonymous": false,
      "inputs": [
        {
          "indexed": false,
          "internalType": "address",
          "name": "previousAdmin",
          "type": "address"
        },
        {
          "indexed": false,
          "internalType": "address",
          "name": "newAdmin",
          "type": "address"
        }
      ],
      "name": "AdminChanged",
      "type": "event"
    },
    {
      "anonymous": false,
      "inputs": [
        {
          "indexed": true,
          "internalType": "address",
          "name": "beacon",
          "type": "address"
        }
      ],
      "name": "BeaconUpgraded",
      "type": "event"
    },
    {
      "anonymous": false,
      "inputs": [
        {
          "indexed": true,
          "internalType": "address",
          "name": "initiator",
          "type": "address"
        },
        {
          "indexed": true,
          "internalType": "address",
          "name": "investmentTokenReceiver",
          "type": "address"
        },
        {
          "indexed": false,
          "internalType": "uint256",
          "name": "amount",
          "type": "uint256"
        }
      ],
      "name": "Deposit",
      "type": "event"
    },
    {
      "anonymous": false,
      "inputs": [
        {
          "indexed": false,
          "internalType": "uint256",
          "name": "fee",
          "type": "uint256"
        },
        {
          "components": [
            {
              "internalType": "string",
              "name": "key",
              "type": "string"
            },
            {
              "internalType": "string",
              "name": "value",
              "type": "string"
            }
          ],
          "indexed": false,
          "internalType": "struct NameValuePair[]",
          "name": "params",
          "type": "tuple[]"
        }
      ],
      "name": "DepositFeeChange",
      "type": "event"
    },
    {
      "anonymous": false,
      "inputs": [
        {
          "indexed": false,
          "internalType": "uint256",
          "name": "fee",
          "type": "uint256"
        }
      ],
      "name": "FeeClaim",
      "type": "event"
    },
    {
      "anonymous": false,
      "inputs": [
        {
          "indexed": false,
          "internalType": "address",
          "name": "feeReceiver",
          "type": "address"
        },
        {
          "components": [
            {
              "internalType": "string",
              "name": "key",
              "type": "string"
            },
            {
              "internalType": "string",
              "name": "value",
              "type": "string"
            }
          ],
          "indexed": false,
          "internalType": "struct NameValuePair[]",
          "name": "params",
          "type": "tuple[]"
        }
      ],
      "name": "FeeReceiverChange",
      "type": "event"
    },
    {
      "anonymous": false,
      "inputs": [
        {
          "indexed": false,
          "internalType": "uint8",
          "name": "version",
          "type": "uint8"
        }
      ],
      "name": "Initialized",
      "type": "event"
    },
    {
      "anonymous": false,
      "inputs": [
        {
          "indexed": false,
          "internalType": "contract IInvestable",
          "name": "investable",
          "type": "address"
        },
        {
          "indexed": false,
          "internalType": "uint24[]",
          "name": "newAllocations",
          "type": "uint24[]"
        },
        {
          "components": [
            {
              "internalType": "string",
              "name": "key",
              "type": "string"
            },
            {
              "internalType": "string",
              "name": "value",
              "type": "string"
            }
          ],
          "indexed": false,
          "internalType": "struct NameValuePair[]",
          "name": "params",
          "type": "tuple[]"
        }
      ],
      "name": "InvestableAdd",
      "type": "event"
    },
    {
      "anonymous": false,
      "inputs": [
        {
          "indexed": false,
          "internalType": "contract IInvestable",
          "name": "investable",
          "type": "address"
        },
        {
          "components": [
            {
              "internalType": "string",
              "name": "key",
              "type": "string"
            },
            {
              "internalType": "string",
              "name": "value",
              "type": "string"
            }
          ],
          "indexed": false,
          "internalType": "struct NameValuePair[]",
          "name": "params",
          "type": "tuple[]"
        }
      ],
      "name": "InvestableChange",
      "type": "event"
    },
    {
      "anonymous": false,
      "inputs": [
        {
          "indexed": false,
          "internalType": "contract IInvestable",
          "name": "investable",
          "type": "address"
        },
        {
          "indexed": false,
          "internalType": "uint24[]",
          "name": "newAllocations",
          "type": "uint24[]"
        }
      ],
      "name": "InvestableRemove",
      "type": "event"
    },
    {
      "anonymous": false,
      "inputs": [
        {
          "indexed": true,
          "internalType": "address",
          "name": "previousOwner",
          "type": "address"
        },
        {
          "indexed": true,
          "internalType": "address",
          "name": "newOwner",
          "type": "address"
        }
      ],
      "name": "OwnershipTransferred",
      "type": "event"
    },
    {
      "anonymous": false,
      "inputs": [
        {
          "indexed": false,
          "internalType": "address",
          "name": "account",
          "type": "address"
        }
      ],
      "name": "Paused",
      "type": "event"
    },
    {
      "anonymous": false,
      "inputs": [
        {
          "indexed": false,
          "internalType": "uint256",
          "name": "fee",
          "type": "uint256"
        },
        {
          "components": [
            {
              "internalType": "string",
              "name": "key",
              "type": "string"
            },
            {
              "internalType": "string",
              "name": "value",
              "type": "string"
            }
          ],
          "indexed": false,
          "internalType": "struct NameValuePair[]",
          "name": "params",
          "type": "tuple[]"
        }
      ],
      "name": "PerformanceFeeChange",
      "type": "event"
    },
    {
      "anonymous": false,
      "inputs": [],
      "name": "Rebalance",
      "type": "event"
    },
    {
      "anonymous": false,
      "inputs": [
        {
          "indexed": false,
          "internalType": "uint24[]",
          "name": "newAllocations",
          "type": "uint24[]"
        }
      ],
      "name": "TargetInvestableAllocationsSet",
      "type": "event"
    },
    {
      "anonymous": false,
      "inputs": [
        {
          "indexed": false,
          "internalType": "address",
          "name": "account",
          "type": "address"
        }
      ],
      "name": "Unpaused",
      "type": "event"
    },
    {
      "anonymous": false,
      "inputs": [
        {
          "indexed": true,
          "internalType": "address",
          "name": "implementation",
          "type": "address"
        }
      ],
      "name": "Upgraded",
      "type": "event"
    },
    {
      "anonymous": false,
      "inputs": [
        {
          "indexed": true,
          "internalType": "address",
          "name": "initiator",
          "type": "address"
        },
        {
          "indexed": true,
          "internalType": "address",
          "name": "depositTokenReceiver",
          "type": "address"
        },
        {
          "indexed": false,
          "internalType": "uint256",
          "name": "amount",
          "type": "uint256"
        }
      ],
      "name": "Withdrawal",
      "type": "event"
    },
    {
      "anonymous": false,
      "inputs": [
        {
          "indexed": false,
          "internalType": "uint256",
          "name": "fee",
          "type": "uint256"
        },
        {
          "components": [
            {
              "internalType": "string",
              "name": "key",
              "type": "string"
            },
            {
              "internalType": "string",
              "name": "value",
              "type": "string"
            }
          ],
          "indexed": false,
          "internalType": "struct NameValuePair[]",
          "name": "params",
          "type": "tuple[]"
        }
      ],
      "name": "WithdrawalFeeChange",
      "type": "event"
    },
    {
      "inputs": [
        {
          "internalType": "contract IInvestable",
          "name": "investable",
          "type": "address"
        },
        {
          "internalType": "uint24[]",
          "name": "newAllocations",
          "type": "uint24[]"
        },
        {
          "components": [
            {
              "internalType": "string",
              "name": "key",
              "type": "string"
            },
            {
              "internalType": "string",
              "name": "value",
              "type": "string"
            }
          ],
          "internalType": "struct NameValuePair[]",
          "name": "params",
          "type": "tuple[]"
        }
      ],
      "name": "addInvestable",
      "outputs": [],
      "stateMutability": "nonpayable",
      "type": "function"
    },
    {
      "inputs": [
        {
          "internalType": "contract IInvestable",
          "name": "investable",
          "type": "address"
        },
        {
          "components": [
            {
              "internalType": "string",
              "name": "key",
              "type": "string"
            },
            {
              "internalType": "string",
              "name": "value",
              "type": "string"
            }
          ],
          "internalType": "struct NameValuePair[]",
          "name": "params",
          "type": "tuple[]"
        }
      ],
      "name": "changeInvestable",
      "outputs": [],
      "stateMutability": "nonpayable",
      "type": "function"
    },
    {
      "inputs": [
        {
          "components": [
            {
              "internalType": "string",
              "name": "key",
              "type": "string"
            },
            {
              "internalType": "string",
              "name": "value",
              "type": "string"
            }
          ],
          "internalType": "struct NameValuePair[]",
          "name": "params",
          "type": "tuple[]"
        }
      ],
      "name": "claimFee",
      "outputs": [],
      "stateMutability": "nonpayable",
      "type": "function"
    },
    {
      "inputs": [
        {
          "internalType": "uint256",
          "name": "depositTokenAmountIn",
          "type": "uint256"
        },
        {
          "internalType": "uint256",
          "name": "minimumDepositTokenAmountOut",
          "type": "uint256"
        },
        {
          "internalType": "address",
          "name": "investmentTokenReceiver",
          "type": "address"
        },
        {
          "components": [
            {
              "internalType": "string",
              "name": "key",
              "type": "string"
            },
            {
              "internalType": "string",
              "name": "value",
              "type": "string"
            }
          ],
          "internalType": "struct NameValuePair[]",
          "name": "params",
          "type": "tuple[]"
        }
      ],
      "name": "deposit",
      "outputs": [],
      "stateMutability": "nonpayable",
      "type": "function"
    },
    {
      "inputs": [],
      "name": "getAssetBalances",
      "outputs": [
        {
          "components": [
            {
              "internalType": "address",
              "name": "asset",
              "type": "address"
            },
            {
              "internalType": "uint256",
              "name": "balance",
              "type": "uint256"
            }
          ],
          "internalType": "struct IAum.Balance[]",
          "name": "",
          "type": "tuple[]"
        }
      ],
      "stateMutability": "view",
      "type": "function"
    },
    {
      "inputs": [
        {
          "internalType": "bool",
          "name": "shouldMaximise",
          "type": "bool"
        },
        {
          "internalType": "bool",
          "name": "shouldIncludeAmmPrice",
          "type": "bool"
        }
      ],
      "name": "getAssetValuations",
      "outputs": [
        {
          "components": [
            {
              "internalType": "address",
              "name": "asset",
              "type": "address"
            },
            {
              "internalType": "uint256",
              "name": "valuation",
              "type": "uint256"
            }
          ],
          "internalType": "struct IAum.Valuation[]",
          "name": "",
          "type": "tuple[]"
        }
      ],
      "stateMutability": "view",
      "type": "function"
    },
    {
      "inputs": [],
      "name": "getClaimedFee",
      "outputs": [
        {
          "internalType": "uint256",
          "name": "",
          "type": "uint256"
        }
      ],
      "stateMutability": "view",
      "type": "function"
    },
    {
      "inputs": [],
      "name": "getCurrentAccumulatedFee",
      "outputs": [
        {
          "internalType": "uint256",
          "name": "",
          "type": "uint256"
        }
      ],
      "stateMutability": "view",
      "type": "function"
    },
    {
      "inputs": [
        {
          "components": [
            {
              "internalType": "string",
              "name": "key",
              "type": "string"
            },
            {
              "internalType": "string",
              "name": "value",
              "type": "string"
            }
          ],
          "internalType": "struct NameValuePair[]",
          "name": "",
          "type": "tuple[]"
        }
      ],
      "name": "getDepositFee",
      "outputs": [
        {
          "internalType": "uint24",
          "name": "",
          "type": "uint24"
        }
      ],
      "stateMutability": "view",
      "type": "function"
    },
    {
      "inputs": [],
      "name": "getDepositToken",
      "outputs": [
        {
          "internalType": "contract IERC20Upgradeable",
          "name": "",
          "type": "address"
        }
      ],
      "stateMutability": "view",
      "type": "function"
    },
    {
      "inputs": [
        {
          "internalType": "bool",
          "name": "shouldMaximise",
          "type": "bool"
        },
        {
          "internalType": "bool",
          "name": "shouldIncludeAmmPrice",
          "type": "bool"
        }
      ],
      "name": "getEquityValuation",
      "outputs": [
        {
          "internalType": "uint256",
          "name": "",
          "type": "uint256"
        }
      ],
      "stateMutability": "view",
      "type": "function"
    },
    {
      "inputs": [
        {
          "components": [
            {
              "internalType": "string",
              "name": "key",
              "type": "string"
            },
            {
              "internalType": "string",
              "name": "value",
              "type": "string"
            }
          ],
          "internalType": "struct NameValuePair[]",
          "name": "",
          "type": "tuple[]"
        }
      ],
      "name": "getFeeReceiver",
      "outputs": [
        {
          "internalType": "address",
          "name": "",
          "type": "address"
        }
      ],
      "stateMutability": "view",
      "type": "function"
    },
    {
      "inputs": [],
      "name": "getInvestables",
      "outputs": [
        {
          "components": [
            {
              "internalType": "contract IInvestable",
              "name": "investable",
              "type": "address"
            },
            {
              "internalType": "uint24",
              "name": "allocationPercentage",
              "type": "uint24"
            },
            {
              "internalType": "string[]",
              "name": "keys",
              "type": "string[]"
            },
            {
              "internalType": "string[]",
              "name": "values",
              "type": "string[]"
            }
          ],
          "internalType": "struct InvestableDesc[]",
          "name": "",
          "type": "tuple[]"
        }
      ],
      "stateMutability": "view",
      "type": "function"
    },
    {
      "inputs": [],
      "name": "getInvestmentLimitPerAddress",
      "outputs": [
        {
          "internalType": "uint256",
          "name": "",
          "type": "uint256"
        }
      ],
      "stateMutability": "view",
      "type": "function"
    },
    {
      "inputs": [],
      "name": "getInvestmentToken",
      "outputs": [
        {
          "internalType": "contract IInvestmentToken",
          "name": "",
          "type": "address"
        }
      ],
      "stateMutability": "view",
      "type": "function"
    },
    {
      "inputs": [
        {
          "internalType": "address",
          "name": "account",
          "type": "address"
        }
      ],
      "name": "getInvestmentTokenBalanceOf",
      "outputs": [
        {
          "internalType": "uint256",
          "name": "",
          "type": "uint256"
        }
      ],
      "stateMutability": "view",
      "type": "function"
    },
    {
      "inputs": [],
      "name": "getInvestmentTokenSupply",
      "outputs": [
        {
          "internalType": "uint256",
          "name": "",
          "type": "uint256"
        }
      ],
      "stateMutability": "view",
      "type": "function"
    },
    {
      "inputs": [],
      "name": "getLiabilityBalances",
      "outputs": [
        {
          "components": [
            {
              "internalType": "address",
              "name": "asset",
              "type": "address"
            },
            {
              "internalType": "uint256",
              "name": "balance",
              "type": "uint256"
            }
          ],
          "internalType": "struct IAum.Balance[]",
          "name": "",
          "type": "tuple[]"
        }
      ],
      "stateMutability": "view",
      "type": "function"
    },
    {
      "inputs": [
        {
          "internalType": "bool",
          "name": "",
          "type": "bool"
        },
        {
          "internalType": "bool",
          "name": "",
          "type": "bool"
        }
      ],
      "name": "getLiabilityValuations",
      "outputs": [
        {
          "components": [
            {
              "internalType": "address",
              "name": "asset",
              "type": "address"
            },
            {
              "internalType": "uint256",
              "name": "valuation",
              "type": "uint256"
            }
          ],
          "internalType": "struct IAum.Valuation[]",
          "name": "",
          "type": "tuple[]"
        }
      ],
      "stateMutability": "view",
      "type": "function"
    },
    {
      "inputs": [
        {
          "components": [
            {
              "internalType": "string",
              "name": "key",
              "type": "string"
            },
            {
              "internalType": "string",
              "name": "value",
              "type": "string"
            }
          ],
          "internalType": "struct NameValuePair[]",
          "name": "",
          "type": "tuple[]"
        }
      ],
      "name": "getPerformanceFee",
      "outputs": [
        {
          "internalType": "uint24",
          "name": "",
          "type": "uint24"
        }
      ],
      "stateMutability": "view",
      "type": "function"
    },
    {
      "inputs": [
        {
          "components": [
            {
              "internalType": "string",
              "name": "key",
              "type": "string"
            },
            {
              "internalType": "string",
              "name": "value",
              "type": "string"
            }
          ],
          "internalType": "struct NameValuePair[]",
          "name": "params",
          "type": "tuple[]"
        }
      ],
      "name": "getTotalDepositFee",
      "outputs": [
        {
          "internalType": "uint24",
          "name": "",
          "type": "uint24"
        }
      ],
      "stateMutability": "view",
      "type": "function"
    },
    {
      "inputs": [],
      "name": "getTotalInvestmentLimit",
      "outputs": [
        {
          "internalType": "uint256",
          "name": "",
          "type": "uint256"
        }
      ],
      "stateMutability": "view",
      "type": "function"
    },
    {
      "inputs": [
        {
          "components": [
            {
              "internalType": "string",
              "name": "key",
              "type": "string"
            },
            {
              "internalType": "string",
              "name": "value",
              "type": "string"
            }
          ],
          "internalType": "struct NameValuePair[]",
          "name": "params",
          "type": "tuple[]"
        }
      ],
      "name": "getTotalPerformanceFee",
      "outputs": [
        {
          "internalType": "uint24",
          "name": "",
          "type": "uint24"
        }
      ],
      "stateMutability": "view",
      "type": "function"
    },
    {
      "inputs": [
        {
          "components": [
            {
              "internalType": "string",
              "name": "key",
              "type": "string"
            },
            {
              "internalType": "string",
              "name": "value",
              "type": "string"
            }
          ],
          "internalType": "struct NameValuePair[]",
          "name": "params",
          "type": "tuple[]"
        }
      ],
      "name": "getTotalWithdrawalFee",
      "outputs": [
        {
          "internalType": "uint24",
          "name": "",
          "type": "uint24"
        }
      ],
      "stateMutability": "view",
      "type": "function"
    },
    {
      "inputs": [
        {
          "components": [
            {
              "internalType": "string",
              "name": "key",
              "type": "string"
            },
            {
              "internalType": "string",
              "name": "value",
              "type": "string"
            }
          ],
          "internalType": "struct NameValuePair[]",
          "name": "",
          "type": "tuple[]"
        }
      ],
      "name": "getWithdrawalFee",
      "outputs": [
        {
          "internalType": "uint24",
          "name": "",
          "type": "uint24"
        }
      ],
      "stateMutability": "view",
      "type": "function"
    },
    {
      "inputs": [],
      "name": "humanReadableName",
      "outputs": [
        {
          "internalType": "string",
          "name": "",
          "type": "string"
        }
      ],
      "stateMutability": "view",
      "type": "function"
    },
    {
      "inputs": [
        {
          "components": [
            {
              "internalType": "contract IInvestmentToken",
              "name": "investmentToken",
              "type": "address"
            },
            {
              "internalType": "contract IERC20Upgradeable",
              "name": "depositToken",
              "type": "address"
            },
            {
              "internalType": "uint24",
              "name": "depositFee",
              "type": "uint24"
            },
            {
              "components": [
                {
                  "internalType": "string",
                  "name": "key",
                  "type": "string"
                },
                {
                  "internalType": "string",
                  "name": "value",
                  "type": "string"
                }
              ],
              "internalType": "struct NameValuePair[]",
              "name": "depositFeeParams",
              "type": "tuple[]"
            },
            {
              "internalType": "uint24",
              "name": "withdrawalFee",
              "type": "uint24"
            },
            {
              "components": [
                {
                  "internalType": "string",
                  "name": "key",
                  "type": "string"
                },
                {
                  "internalType": "string",
                  "name": "value",
                  "type": "string"
                }
              ],
              "internalType": "struct NameValuePair[]",
              "name": "withdrawFeeParams",
              "type": "tuple[]"
            },
            {
              "internalType": "uint24",
              "name": "performanceFee",
              "type": "uint24"
            },
            {
              "components": [
                {
                  "internalType": "string",
                  "name": "key",
                  "type": "string"
                },
                {
                  "internalType": "string",
                  "name": "value",
                  "type": "string"
                }
              ],
              "internalType": "struct NameValuePair[]",
              "name": "performanceFeeParams",
              "type": "tuple[]"
            },
            {
              "internalType": "address",
              "name": "feeReceiver",
              "type": "address"
            },
            {
              "components": [
                {
                  "internalType": "string",
                  "name": "key",
                  "type": "string"
                },
                {
                  "internalType": "string",
                  "name": "value",
                  "type": "string"
                }
              ],
              "internalType": "struct NameValuePair[]",
              "name": "feeReceiverParams",
              "type": "tuple[]"
            },
            {
              "internalType": "uint256",
              "name": "totalInvestmentLimit",
              "type": "uint256"
            },
            {
              "internalType": "uint256",
              "name": "investmentLimitPerAddress",
              "type": "uint256"
            }
          ],
          "internalType": "struct PortfolioArgs",
          "name": "portfolioArgs",
          "type": "tuple"
        }
      ],
      "name": "initialize",
      "outputs": [],
      "stateMutability": "nonpayable",
      "type": "function"
    },
    {
      "inputs": [],
      "name": "owner",
      "outputs": [
        {
          "internalType": "address",
          "name": "",
          "type": "address"
        }
      ],
      "stateMutability": "view",
      "type": "function"
    },
    {
      "inputs": [],
      "name": "pause",
      "outputs": [],
      "stateMutability": "nonpayable",
      "type": "function"
    },
    {
      "inputs": [],
      "name": "paused",
      "outputs": [
        {
          "internalType": "bool",
          "name": "",
          "type": "bool"
        }
      ],
      "stateMutability": "view",
      "type": "function"
    },
    {
      "inputs": [],
      "name": "proxiableUUID",
      "outputs": [
        {
          "internalType": "bytes32",
          "name": "",
          "type": "bytes32"
        }
      ],
      "stateMutability": "view",
      "type": "function"
    },
    {
      "inputs": [
        {
          "internalType": "uint256",
          "name": "minimumDepositTokenAmountOut",
          "type": "uint256"
        },
        {
          "components": [
            {
              "internalType": "string",
              "name": "key",
              "type": "string"
            },
            {
              "internalType": "string",
              "name": "value",
              "type": "string"
            }
          ],
          "internalType": "struct NameValuePair[][]",
          "name": "depositParams",
          "type": "tuple[][]"
        },
        {
          "components": [
            {
              "internalType": "string",
              "name": "key",
              "type": "string"
            },
            {
              "internalType": "string",
              "name": "value",
              "type": "string"
            }
          ],
          "internalType": "struct NameValuePair[][]",
          "name": "withdrawParams",
          "type": "tuple[][]"
        }
      ],
      "name": "rebalance",
      "outputs": [],
      "stateMutability": "nonpayable",
      "type": "function"
    },
    {
      "inputs": [
        {
          "internalType": "contract IInvestable",
          "name": "investable",
          "type": "address"
        },
        {
          "internalType": "uint24[]",
          "name": "newAllocations",
          "type": "uint24[]"
        }
      ],
      "name": "removeInvestable",
      "outputs": [],
      "stateMutability": "nonpayable",
      "type": "function"
    },
    {
      "inputs": [],
      "name": "renounceOwnership",
      "outputs": [],
      "stateMutability": "nonpayable",
      "type": "function"
    },
    {
      "inputs": [
        {
          "internalType": "uint24",
          "name": "fee_",
          "type": "uint24"
        },
        {
          "components": [
            {
              "internalType": "string",
              "name": "key",
              "type": "string"
            },
            {
              "internalType": "string",
              "name": "value",
              "type": "string"
            }
          ],
          "internalType": "struct NameValuePair[]",
          "name": "params",
          "type": "tuple[]"
        }
      ],
      "name": "setDepositFee",
      "outputs": [],
      "stateMutability": "nonpayable",
      "type": "function"
    },
    {
      "inputs": [
        {
          "internalType": "address",
          "name": "feeReceiver_",
          "type": "address"
        },
        {
          "components": [
            {
              "internalType": "string",
              "name": "key",
              "type": "string"
            },
            {
              "internalType": "string",
              "name": "value",
              "type": "string"
            }
          ],
          "internalType": "struct NameValuePair[]",
          "name": "params",
          "type": "tuple[]"
        }
      ],
      "name": "setFeeReceiver",
      "outputs": [],
      "stateMutability": "nonpayable",
      "type": "function"
    },
    {
      "inputs": [
        {
          "internalType": "uint256",
          "name": "investmentLimitPerAddress",
          "type": "uint256"
        }
      ],
      "name": "setInvestmentLimitPerAddress",
      "outputs": [],
      "stateMutability": "nonpayable",
      "type": "function"
    },
    {
      "inputs": [
        {
          "internalType": "contract IInvestmentToken",
          "name": "investmentToken",
          "type": "address"
        }
      ],
      "name": "setInvestmentToken",
      "outputs": [],
      "stateMutability": "nonpayable",
      "type": "function"
    },
    {
      "inputs": [
        {
          "internalType": "uint24",
          "name": "fee_",
          "type": "uint24"
        },
        {
          "components": [
            {
              "internalType": "string",
              "name": "key",
              "type": "string"
            },
            {
              "internalType": "string",
              "name": "value",
              "type": "string"
            }
          ],
          "internalType": "struct NameValuePair[]",
          "name": "params",
          "type": "tuple[]"
        }
      ],
      "name": "setPerformanceFee",
      "outputs": [],
      "stateMutability": "nonpayable",
      "type": "function"
    },
    {
      "inputs": [
        {
          "internalType": "uint24[]",
          "name": "newAllocations",
          "type": "uint24[]"
        }
      ],
      "name": "setTargetInvestableAllocations",
      "outputs": [],
      "stateMutability": "nonpayable",
      "type": "function"
    },
    {
      "inputs": [
        {
          "internalType": "uint256",
          "name": "totalInvestmentLimit",
          "type": "uint256"
        }
      ],
      "name": "setTotalInvestmentLimit",
      "outputs": [],
      "stateMutability": "nonpayable",
      "type": "function"
    },
    {
      "inputs": [
        {
          "internalType": "uint24",
          "name": "fee_",
          "type": "uint24"
        },
        {
          "components": [
            {
              "internalType": "string",
              "name": "key",
              "type": "string"
            },
            {
              "internalType": "string",
              "name": "value",
              "type": "string"
            }
          ],
          "internalType": "struct NameValuePair[]",
          "name": "params",
          "type": "tuple[]"
        }
      ],
      "name": "setWithdrawalFee",
      "outputs": [],
      "stateMutability": "nonpayable",
      "type": "function"
    },
    {
      "inputs": [
        {
          "internalType": "bytes4",
          "name": "interfaceId",
          "type": "bytes4"
        }
      ],
      "name": "supportsInterface",
      "outputs": [
        {
          "internalType": "bool",
          "name": "",
          "type": "bool"
        }
      ],
      "stateMutability": "view",
      "type": "function"
    },
    {
      "inputs": [],
      "name": "trackingName",
      "outputs": [
        {
          "internalType": "string",
          "name": "",
          "type": "string"
        }
      ],
      "stateMutability": "view",
      "type": "function"
    },
    {
      "inputs": [
        {
          "internalType": "address",
          "name": "newOwner",
          "type": "address"
        }
      ],
      "name": "transferOwnership",
      "outputs": [],
      "stateMutability": "nonpayable",
      "type": "function"
    },
    {
      "inputs": [],
      "name": "unpause",
      "outputs": [],
      "stateMutability": "nonpayable",
      "type": "function"
    },
    {
      "inputs": [
        {
          "internalType": "address",
          "name": "newImplementation",
          "type": "address"
        }
      ],
      "name": "upgradeTo",
      "outputs": [],
      "stateMutability": "nonpayable",
      "type": "function"
    },
    {
      "inputs": [
        {
          "internalType": "address",
          "name": "newImplementation",
          "type": "address"
        },
        {
          "internalType": "bytes",
          "name": "data",
          "type": "bytes"
        }
      ],
      "name": "upgradeToAndCall",
      "outputs": [],
      "stateMutability": "payable",
      "type": "function"
    },
    {
      "inputs": [],
      "name": "version",
      "outputs": [
        {
          "internalType": "string",
          "name": "",
          "type": "string"
        }
      ],
      "stateMutability": "view",
      "type": "function"
    },
    {
      "inputs": [
        {
          "internalType": "uint256",
          "name": "investmentTokenAmountIn",
          "type": "uint256"
        },
        {
          "internalType": "uint256",
          "name": "minimumDepositTokenAmountOut",
          "type": "uint256"
        },
        {
          "internalType": "address",
          "name": "depositTokenReceiver",
          "type": "address"
        },
        {
          "components": [
            {
              "internalType": "string",
              "name": "key",
              "type": "string"
            },
            {
              "internalType": "string",
              "name": "value",
              "type": "string"
            }
          ],
          "internalType": "struct NameValuePair[]",
          "name": "params",
          "type": "tuple[]"
        }
      ],
      "name": "withdraw",
      "outputs": [],
      "stateMutability": "nonpayable",
      "type": "function"
    }
  ],
  "bytecode": "0x60a0604052306080523480156200001557600080fd5b506200002062000026565b6200013f565b6200003260ff62000035565b50565b60008054610100900460ff16156200009e578160ff1660011480156200006e57506200006c30620000e260201b6200193e1760201c565b155b620000965760405162461bcd60e51b81526004016200008d90620000f1565b60405180910390fd5b506000919050565b60005460ff808416911610620000c85760405162461bcd60e51b81526004016200008d90620000f1565b506000805460ff191660ff92909216919091179055600190565b6001600160a01b03163b151590565b6020808252602e908201527f496e697469616c697a61626c653a20636f6e747261637420697320616c72656160408201526d191e481a5b9a5d1a585b1a5e995960921b606082015260800190565b6080516158416200017760003960008181610faf01528181610fef0152818161123601528181611276015261132b01526158416000f3fe6080604052600436106102395760003560e01c806301ffc9a71461023e5780630399ef07146102735780630c976b9a14610295578063146264db146102b55780631fda1214146102d25780632075fcf8146102f257806320a4cd6d1461032057806327b3a8c91461034d5780632e85913e1461036d578063308dade11461038d578063346cd3c5146103a25780633659cfe6146103c2578063384e16f9146103e25780633acefea7146104025780633c3129e3146104225780633f4ba83a14610442578063402cb4d11461045757806344dc283b1461047757806349eca013146104ab5780634ab2d57b146104ce5780634f1ef286146104ee5780634fff42761461050157806352d1902d1461052157806354fd4d50146105365780635c975abb146105745780635ccadb881461058c57806362f18a69146105a257806364ea9f1d146105c25780636d4e75db146105d7578063715018a6146105f75780637bd075411461060c578063803bdca11461062c5780638456cb591461064c57806385a73627146106615780638b2014b6146106815780638da5cb5b1461069757806394653451146106b9578063958b87f9146106d9578063aa6446ce14610706578063b4464c461461074f578063ce4f7c4814610778578063cf7b960514610798578063cfcab38c146107b7578063d622e73e146107cc578063eb2bf876146107ec578063eb2dc9b61461080e578063f2fde38b14610824578063fa83532914610844578063fb1b5c7b1461085a578063fcd1e90c14610879575b600080fd5b34801561024a57600080fd5b5061025e610259366004614a97565b610899565b60405190151581526020015b60405180910390f35b34801561027f57600080fd5b5061029361028e366004614b21565b610921565b005b3480156102a157600080fd5b506102936102b0366004614ba3565b61096d565b3480156102c157600080fd5b5060605b60405161026a9190614bfc565b3480156102de57600080fd5b506102936102ed366004614c5a565b610999565b3480156102fe57600080fd5b5061031261030d366004614cae565b6109d8565b60405190815260200161026a565b34801561032c57600080fd5b5061034061033b366004614cd9565b610a4b565b60405161026a9190614d12565b34801561035957600080fd5b50610293610368366004614d52565b610d14565b34801561037957600080fd5b50610293610388366004614d6b565b610d50565b34801561039957600080fd5b506102c5610d8c565b3480156103ae57600080fd5b506102936103bd366004614cae565b610f56565b3480156103ce57600080fd5b506102936103dd366004614cae565b610fa4565b3480156103ee57600080fd5b506102936103fd366004614da1565b61106a565b34801561040e57600080fd5b5061029361041d366004614c5a565b6110e5565b34801561042e57600080fd5b5061029361043d366004614ddc565b61111f565b34801561044e57600080fd5b5061029361114f565b34801561046357600080fd5b50610312610472366004614cd9565b611188565b34801561048357600080fd5b50610497610492366004614ba3565b6111ef565b60405162ffffff909116815260200161026a565b3480156104b757600080fd5b506103406104c6366004614cd9565b606092915050565b3480156104da57600080fd5b506104976104e9366004614ba3565b611204565b6102936104fc366004614e4a565b61122b565b34801561050d57600080fd5b5061029361051c366004614ba3565b6112e5565b34801561052d57600080fd5b5061031261131e565b34801561054257600080fd5b50610567604051806040016040528060058152602001640322e302e360dc1b81525081565b60405161026a9190614f65565b34801561058057600080fd5b5060975460ff1661025e565b34801561059857600080fd5b5061018b54610312565b3480156105ae57600080fd5b506102936105bd366004614ddc565b6113cc565b3480156105ce57600080fd5b506103126113fc565b3480156105e357600080fd5b506102936105f2366004614f78565b611470565b34801561060357600080fd5b506102936114aa565b34801561061857600080fd5b50610497610627366004614ba3565b6114e3565b34801561063857600080fd5b50610293610647366004614f78565b6114f9565b34801561065857600080fd5b50610293611533565b34801561066d57600080fd5b5061029361067c366004614d52565b61156a565b34801561068d57600080fd5b5061018c54610312565b3480156106a357600080fd5b506106ac6115a3565b60405161026a9190614f98565b3480156106c557600080fd5b506104976106d4366004614ba3565b6115b2565b3480156106e557600080fd5b506106ac6106f4366004614ba3565b5050610162546001600160a01b031690565b34801561071257600080fd5b506105676040518060400160405280601f81526020017f50657263656e7461676520616c6c6f636174696f6e20706f7274666f6c696f0081525081565b34801561075b57600080fd5b5061049761076a366004614ba3565b505061015f5462ffffff1690565b34801561078457600080fd5b50610293610793366004614f78565b6115c7565b3480156107a457600080fd5b50610196546001600160a01b03166106ac565b3480156107c357600080fd5b50610567611601565b3480156107d857600080fd5b506104976107e7366004614ba3565b61161d565b3480156107f857600080fd5b50610801611638565b60405161026a9190614ff4565b34801561081a57600080fd5b5061016154610312565b34801561083057600080fd5b5061029361083f366004614cae565b611867565b34801561085057600080fd5b5061016054610312565b34801561086657600080fd5b50610197546001600160a01b03166106ac565b34801561088557600080fd5b50610293610894366004614c5a565b611904565b60006001600160e01b03198216630491473760e41b14806108ca57506001600160e01b03198216632979dc6560e11b145b806108e557506001600160e01b03198216631a6153f360e01b145b8061090057506001600160e01b03198216631564e6d560e11b145b8061091b57506301ffc9a760e01b6001600160e01b03198316145b92915050565b3361092a6115a3565b6001600160a01b0316146109595760405162461bcd60e51b8152600401610950906150a0565b60405180910390fd5b610966858585858561194d565b5050505050565b600260fb5414156109905760405162461bcd60e51b8152600401610950906150d5565b5050600160fb55565b336109a26115a3565b6001600160a01b0316146109c85760405162461bcd60e51b8152600401610950906150a0565b6109d3838383611ac6565b505050565b610196546040516370a0823160e01b81526000916001600160a01b0316906370a0823190610a0a908590600401614f98565b602060405180830381865afa158015610a27573d6000803e3d6000fd5b505050506040513d601f19601f8201168201806040525081019061091b919061510c565b610195546060906000816001600160401b03811115610a6c57610a6c614e34565b604051908082528060200260200182016040528015610ab157816020015b6040805180820190915260008082526020820152815260200190600190039081610a8a5790505b50905060005b82811015610d0b5760006101958281548110610ad557610ad5615125565b906000526020600020906003020160000160009054906101000a90046001600160a01b031690506040518060400160405280826001600160a01b03168152602001826001600160a01b03166364ea9f1d6040518163ffffffff1660e01b8152600401602060405180830381865afa158015610b54573d6000803e3d6000fd5b505050506040513d601f19601f82011682018060405250810190610b78919061510c565b15610cd457826001600160a01b03166364ea9f1d6040518163ffffffff1660e01b8152600401602060405180830381865afa158015610bbb573d6000803e3d6000fd5b505050506040513d601f19601f82011682018060405250810190610bdf919061510c565b60405163040ebf9f60e31b81526001600160a01b03851690632075fcf890610c0b903090600401614f98565b602060405180830381865afa158015610c28573d6000803e3d6000fd5b505050506040513d601f19601f82011682018060405250810190610c4c919061510c565b60405163402cb4d160e01b81526001600160a01b0386169063402cb4d190610c7a908e908e9060040161513b565b602060405180830381865afa158015610c97573d6000803e3d6000fd5b505050506040513d601f19601f82011682018060405250810190610cbb919061510c565b610cc59190615163565b610ccf9190615182565b610cd7565b60005b815250838381518110610cec57610cec615125565b6020026020010181905250508080610d03906151a4565b915050610ab7565b50949350505050565b33610d1d6115a3565b6001600160a01b031614610d435760405162461bcd60e51b8152600401610950906150a0565b610d4d8161018c55565b50565b33610d596115a3565b6001600160a01b031614610d7f5760405162461bcd60e51b8152600401610950906150a0565b6109668585858585611b63565b610195546060906000816001600160401b03811115610dad57610dad614e34565b604051908082528060200260200182016040528015610df257816020015b6040805180820190915260008082526020820152815260200190600190039081610dcb5790505b50905060005b82811015610f4f5760006101958281548110610e1657610e16615125565b600091825260208083206003909202909101546040805163cf7b960560e01b815290516001600160a01b039092169450849263cf7b9605926004808401938290030181865afa158015610e6d573d6000803e3d6000fd5b505050506040513d601f19601f82011682018060405250810190610e9191906151bf565b90506040518060400160405280826001600160a01b03168152602001826001600160a01b03166370a08231306040518263ffffffff1660e01b8152600401610ed99190614f98565b602060405180830381865afa158015610ef6573d6000803e3d6000fd5b505050506040513d601f19601f82011682018060405250810190610f1a919061510c565b815250848481518110610f2f57610f2f615125565b602002602001018190525050508080610f47906151a4565b915050610df8565b5092915050565b33610f5f6115a3565b6001600160a01b031614610f855760405162461bcd60e51b8152600401610950906150a0565b61019680546001600160a01b0319166001600160a01b03831617905550565b306001600160a01b037f0000000000000000000000000000000000000000000000000000000000000000161415610fed5760405162461bcd60e51b8152600401610950906151dc565b7f00000000000000000000000000000000000000000000000000000000000000006001600160a01b031661101f612348565b6001600160a01b0316146110455760405162461bcd60e51b815260040161095090615216565b61104e81612364565b60408051600080825260208201909252610d4d91839190612393565b60026000611077826124fe565b9050801561108f576000805461ff0019166101001790555b6110988361258d565b80156109d3576000805461ff001916905560405160ff831681527f7f26b83ff96e1f2b6a682f133852f6798a09c465da95921460cefb3847402498906020015b60405180910390a1505050565b336110ee6115a3565b6001600160a01b0316146111145760405162461bcd60e51b8152600401610950906150a0565b6109d38383836125c5565b60975460ff16156111425760405162461bcd60e51b815260040161095090615250565b6109668585858585612640565b336111586115a3565b6001600160a01b03161461117e5760405162461bcd60e51b8152600401610950906150a0565b6111866129fe565b565b60008060006111978585610a4b565b805190915060005b818110156111e4578281815181106111b9576111b9615125565b602002602001015160200151846111d0919061527a565b9350806111dc816151a4565b91505061119f565b509195945050505050565b505061015f546301000000900462ffffff1690565b600061121083836115b2565b61121a8484612a8b565b6112249190615292565b9392505050565b306001600160a01b037f00000000000000000000000000000000000000000000000000000000000000001614156112745760405162461bcd60e51b8152600401610950906151dc565b7f00000000000000000000000000000000000000000000000000000000000000006001600160a01b03166112a6612348565b6001600160a01b0316146112cc5760405162461bcd60e51b815260040161095090615216565b6112d582612364565b6112e182826001612393565b5050565b336112ee6115a3565b6001600160a01b0316146113145760405162461bcd60e51b8152600401610950906150a0565b6112e18282612a99565b6000306001600160a01b037f000000000000000000000000000000000000000000000000000000000000000016146113b95760405162461bcd60e51b815260206004820152603860248201527f555550535570677261646561626c653a206d757374206e6f742062652063616c6044820152771b1959081d1a1c9bdd59da0819195b1959d85d1958d85b1b60421b6064820152608401610950565b5060008051602061577883398151915290565b60975460ff16156113ef5760405162461bcd60e51b815260040161095090615250565b6109668585858585612c07565b61019654604080516318160ddd60e01b815290516000926001600160a01b0316916318160ddd9160048083019260209291908290030181865afa158015611447573d6000803e3d6000fd5b505050506040513d601f19601f8201168201806040525081019061146b919061510c565b905090565b336114796115a3565b6001600160a01b03161461149f5760405162461bcd60e51b8152600401610950906150a0565b6109d3838383613086565b336114b36115a3565b6001600160a01b0316146114d95760405162461bcd60e51b8152600401610950906150a0565b6111866000613261565b60006114ef83836111ef565b61121a84846132b3565b336115026115a3565b6001600160a01b0316146115285760405162461bcd60e51b8152600401610950906150a0565b6109d38383836132c1565b3361153c6115a3565b6001600160a01b0316146115625760405162461bcd60e51b8152600401610950906150a0565b611186613339565b336115736115a3565b6001600160a01b0316146115995760405162461bcd60e51b8152600401610950906150a0565b610d4d8161018b55565b60c9546001600160a01b031690565b505061015f54600160301b900462ffffff1690565b336115d06115a3565b6001600160a01b0316146115f65760405162461bcd60e51b8152600401610950906150a0565b6109d3838383613391565b6040518060800160405280604d81526020016157bf604d913981565b600061162e61015f5462ffffff1690565b61121a8484613457565b6060610195805480602002602001604051908101604052809291908181526020016000905b8282101561185e5760008481526020808220604080516080810182526003870290920180546001600160a01b0381168452600160a01b900462ffffff168385015260018101805483518187028101870185528181529496929593870194939192909184015b8282101561176e5783829060005260206000200180546116e1906152b9565b80601f016020809104026020016040519081016040528092919081815260200182805461170d906152b9565b801561175a5780601f1061172f5761010080835404028352916020019161175a565b820191906000526020600020905b81548152906001019060200180831161173d57829003601f168201915b5050505050815260200190600101906116c2565b50505050815260200160028201805480602002602001604051908101604052809291908181526020016000905b828210156118475783829060005260206000200180546117ba906152b9565b80601f01602080910402602001604051908101604052809291908181526020018280546117e6906152b9565b80156118335780601f1061180857610100808354040283529160200191611833565b820191906000526020600020905b81548152906001019060200180831161181657829003601f168201915b50505050508152602001906001019061179b565b50505050815250508152602001906001019061165d565b50505050905090565b336118706115a3565b6001600160a01b0316146118965760405162461bcd60e51b8152600401610950906150a0565b6001600160a01b0381166118fb5760405162461bcd60e51b815260206004820152602660248201527f4f776e61626c653a206e6577206f776e657220697320746865207a65726f206160448201526564647265737360d01b6064820152608401610950565b610d4d81613261565b3361190d6115a3565b6001600160a01b0316146119335760405162461bcd60e51b8152600401610950906150a0565b6109d3838383613822565b6001600160a01b03163b151590565b611956856138b1565b1561197457604051630b571eb360e11b815260040160405180910390fd5b60008061198184846138c7565b60408051608081019091526001600160a01b038a1681529193509150610195906020810188886119b26001826152f4565b8181106119c1576119c1615125565b90506020020160208101906119d6919061530b565b62ffffff9081168252602080830187905260409283018690528454600181810187556000968752958290208551600390920201805486840151909416600160a01b026001600160b81b03199094166001600160a01b039092169190911792909217825591830151805193949193611a559392850192919091019061485f565b5060608201518051611a7191600284019160209091019061485f565b505050611a7e8686612a99565b7fa4c19d80e4b75115912f2b1db9863466462140d4bb4aea447b687921fbf3103f8787878787604051611ab595949392919061547b565b60405180910390a150505050505050565b82611ad46103e86064615163565b8162ffffff1610611af8576040516303689ded60e51b815260040160405180910390fd5b61015f805465ffffff0000001916630100000062ffffff878116820292909217928390556040517f562ffa77d0627a8704e5d9641e53b90a135392b6fb458b619c3cf64555a0adea93611b559392900490911690869086906154bf565b60405180910390a150505050565b600260fb541415611b865760405162461bcd60e51b8152600401610950906150d5565b600260fb81905550611bb96040518060800160405280600081526020016000815260200160008152602001600081525090565b610195546060611bc7613a92565b808552909150611bd95750505061233c565b6000826001600160401b03811115611bf357611bf3614e34565b604051908082528060200260200182016040528015611c1c578160200160208202803683370190505b50905060005b83811015611cb35760646103e861ffff166101958381548110611c4757611c47615125565b60009182526020909120600390910201548751611c7091600160a01b900462ffffff1690615163565b611c7a9190615182565b611c849190615182565b828281518110611c9657611c96615125565b602090810291909101015280611cab816151a4565b915050611c22565b50610197546040516370a0823160e01b81526001600160a01b03909116906370a0823190611ce5903090600401614f98565b602060405180830381865afa158015611d02573d6000803e3d6000fd5b505050506040513d601f19601f82011682018060405250810190611d26919061510c565b604085015260005b838110156120475760006101958281548110611d4c57611d4c615125565b600091825260209091206003909102015483516001600160a01b039091169150839083908110611d7e57611d7e615125565b6020026020010151848381518110611d9857611d98615125565b60200260200101511115612034576000848381518110611dba57611dba615125565b6020026020010151848481518110611dd457611dd4615125565b6020026020010151836001600160a01b0316632075fcf8306040518263ffffffff1660e01b8152600401611e089190614f98565b602060405180830381865afa158015611e25573d6000803e3d6000fd5b505050506040513d601f19601f82011682018060405250810190611e49919061510c565b611e539190615163565b611e5d9190615182565b60405163040ebf9f60e31b81526001600160a01b03841690632075fcf890611e89903090600401614f98565b602060405180830381865afa158015611ea6573d6000803e3d6000fd5b505050506040513d601f19601f82011682018060405250810190611eca919061510c565b611ed491906152f4565b9050816001600160a01b031663cf7b96056040518163ffffffff1660e01b8152600401602060405180830381865afa158015611f14573d6000803e3d6000fd5b505050506040513d601f19601f82011682018060405250810190611f3891906151bf565b6001600160a01b031663095ea7b383836040518363ffffffff1660e01b8152600401611f659291906154de565b6020604051808303816000875af1158015611f84573d6000803e3d6000fd5b505050506040513d601f19601f82011682018060405250810190611fa891906154f7565b50816001600160a01b03166362f18a69826000308d8d89818110611fce57611fce615125565b9050602002810190611fe09190615514565b6040518663ffffffff1660e01b815260040161200095949392919061555d565b600060405180830381600087803b15801561201a57600080fd5b505af115801561202e573d6000803e3d6000fd5b50505050505b508061203f816151a4565b915050611d2e565b506040808501516101975491516370a0823160e01b815290916001600160a01b0316906370a082319061207e903090600401614f98565b602060405180830381865afa15801561209b573d6000803e3d6000fd5b505050506040513d601f19601f820116820180604052508101906120bf919061510c565b6120c991906152f4565b60408501819052606085015260005b838110156122db57600061019582815481106120f6576120f6615125565b600091825260209091206003909102015483516001600160a01b03909116915083908390811061212857612128615125565b602002602001015184838151811061214257612142615125565b602002602001015110156122c857600061219d876060015186858151811061216c5761216c615125565b602002602001015186868151811061218657612186615125565b602002602001015161219891906152f4565b613d32565b905080156122aa576101975460405163095ea7b360e01b81526001600160a01b039091169063095ea7b3906121d890859085906004016154de565b6020604051808303816000875af11580156121f7573d6000803e3d6000fd5b505050506040513d601f19601f8201168201806040525081019061221b91906154f7565b50816001600160a01b0316633c3129e3826000308f8f8981811061224157612241615125565b90506020028101906122539190615514565b6040518663ffffffff1660e01b815260040161227395949392919061555d565b600060405180830381600087803b15801561228d57600080fd5b505af11580156122a1573d6000803e3d6000fd5b505050506122b1565b50506122db565b80876060018181516122c391906152f4565b905250505b50806122d3816151a4565b9150506120d8565b506122e4613a92565b6020860181905290925089111561230e5760405163c327661d60e01b815260040160405180910390fd5b6040517ff57243a1fddfdc9fa2c7de26cc3503b1b94cfd4368d2b82d0970bfbb2fbce3a490600090a1505050505b5050600160fb55505050565b600080516020615778833981519152546001600160a01b031690565b3361236d6115a3565b6001600160a01b031614610d4d5760405162461bcd60e51b8152600401610950906150a0565b7f4910fdfa16fed3260ed0e7147f7cc6da11a60208b5b9406d12a635614ffd91435460ff16156123c6576109d383613d48565b826001600160a01b03166352d1902d6040518163ffffffff1660e01b8152600401602060405180830381865afa925050508015612420575060408051601f3d908101601f1916820190925261241d9181019061510c565b60015b6124835760405162461bcd60e51b815260206004820152602e60248201527f45524331393637557067726164653a206e657720696d706c656d656e7461746960448201526d6f6e206973206e6f74205555505360901b6064820152608401610950565b60008051602061577883398151915281146124f25760405162461bcd60e51b815260206004820152602960248201527f45524331393637557067726164653a20756e737570706f727465642070726f786044820152681a58589b195555525160ba1b6064820152608401610950565b506109d3838383613de2565b60008054610100900460ff161561254c578160ff16600114801561252857506125263061193e565b155b6125445760405162461bcd60e51b81526004016109509061558b565b506000919050565b60005460ff8084169116106125735760405162461bcd60e51b81526004016109509061558b565b506000805460ff191660ff92909216919091179055600190565b600054610100900460ff166125b45760405162461bcd60e51b8152600401610950906155d9565b6125bc613e0d565b610d4d81613e3c565b826125d36103e86064615163565b8162ffffff16106125f7576040516303689ded60e51b815260040160405180910390fd5b61015f805462ffffff191662ffffff86169081179091556040517f7e81a23ec68969b22ae39faba6faa8633338046c205f9d04a30c8a0df04ca3b991611b5591869086906154bf565b600260fb5414156126635760405162461bcd60e51b8152600401610950906150d5565b600260fb5584612686576040516347aedd1b60e11b815260040160405180910390fd5b6001600160a01b0383166126ad5760405163115fd31d60e31b815260040160405180910390fd5b60006126bb60016000611188565b90506000806126c86113fc565b905080156126f65760006126db876109d8565b9050816126e88286615163565b6126f29190615182565b9250505b6127008884613e74565b61270a8883613ea1565b61272333610197546001600160a01b031690308b613ece565b6040518881526001600160a01b0387169033907f5548c837ab068cf56a2c2479df0882a4922fd203edb7517321831d95078c5f629060200160405180910390a360005b6101955481101561292257600060646103e861ffff16610195848154811061279057612790615125565b60009182526020909120600390910201546127b790600160a01b900462ffffff168d615163565b6127c19190615182565b6127cb9190615182565b9050806127d85750612910565b6101975461019580546001600160a01b039092169163095ea7b391908590811061280457612804615125565b60009182526020909120600390910201546040516001600160e01b031960e084901b168152612841916001600160a01b03169085906004016154de565b6020604051808303816000875af1158015612860573d6000803e3d6000fd5b505050506040513d601f19601f8201168201806040525081019061288491906154f7565b50610195828154811061289957612899615125565b60009182526020822060039091020154604051633c3129e360e01b81526001600160a01b0390911691633c3129e3916128dc91859130908d908d9060040161555d565b600060405180830381600087803b1580156128f657600080fd5b505af115801561290a573d6000803e3d6000fd5b50505050505b8061291a816151a4565b915050612766565b50600061293160016000611188565b9050600061293f85836152f4565b90508061295f57604051632f1b0c0f60e01b815260040160405180910390fd5b888110156129805760405163c327661d60e01b815260040160405180910390fd5b610196546001600160a01b03166340c10f198961299e888588613f39565b6040518363ffffffff1660e01b81526004016129bb9291906154de565b600060405180830381600087803b1580156129d557600080fd5b505af11580156129e9573d6000803e3d6000fd5b5050600160fb55505050505050505050505050565b60975460ff16612a475760405162461bcd60e51b815260206004820152601460248201527314185d5cd8589b194e881b9bdd081c185d5cd95960621b6044820152606401610950565b6097805460ff191690557f5db9ee0a495bf2e6ff9c91a7834c1ba4fdd244a5e8aa4e537bd38aeae4b073aa335b604051612a819190614f98565b60405180910390a1565b600061122460028484613f64565b6101955460009082825b81811015612af357858582818110612abd57612abd615125565b9050602002016020810190612ad2919061530b565b612ae19062ffffff168561527a565b9350612aec816151a4565b9050612aa3565b50612b016103e86064615163565b8314612b205760405163a869135760e01b815260040160405180910390fd5b808214612b40576040516324e1450560e11b815260040160405180910390fd5b60005b82811015612bc657858582818110612b5d57612b5d615125565b9050602002016020810190612b72919061530b565b6101958281548110612b8657612b86615125565b906000526020600020906003020160000160146101000a81548162ffffff021916908362ffffff1602179055508080612bbe906151a4565b915050612b43565b507f482790488fb971aceca78045a1987bda889926f371246027b565e5b8a97c076c8585604051612bf8929190615624565b60405180910390a15050505050565b600260fb541415612c2a5760405162461bcd60e51b8152600401610950906150d5565b600260fb5584612c4d57604051636d8bee0b60e11b815260040160405180910390fd5b6001600160a01b038316612c74576040516314f3686160e11b815260040160405180910390fd5b610197546040516370a0823160e01b81526000916001600160a01b0316906370a0823190612ca6903090600401614f98565b602060405180830381865afa158015612cc3573d6000803e3d6000fd5b505050506040513d601f19601f82011682018060405250810190612ce7919061510c565b90506001600160a01b038416336001600160a01b03167f2717ead6b9200dd235aad468c9809ea400fe33ac69b5bfaa6d3e90fc922b639888604051612d2e91815260200190565b60405180910390a36000612d406113fc565b905060005b61019554811015612f5c5760006101958281548110612d6657612d66615125565b6000918252602082206003909102015460405163040ebf9f60e31b81526001600160a01b03909116925084908b908490632075fcf890612daa903090600401614f98565b602060405180830381865afa158015612dc7573d6000803e3d6000fd5b505050506040513d601f19601f82011682018060405250810190612deb919061510c565b612df59190615163565b612dff9190615182565b905080612e0d575050612f4a565b816001600160a01b031663cf7b96056040518163ffffffff1660e01b8152600401602060405180830381865afa158015612e4b573d6000803e3d6000fd5b505050506040513d601f19601f82011682018060405250810190612e6f91906151bf565b6001600160a01b031663095ea7b383836040518363ffffffff1660e01b8152600401612e9c9291906154de565b6020604051808303816000875af1158015612ebb573d6000803e3d6000fd5b505050506040513d601f19601f82011682018060405250810190612edf91906154f7565b506040516362f18a6960e01b81526001600160a01b038316906362f18a6990612f1590849060009030908d908d9060040161555d565b600060405180830381600087803b158015612f2f57600080fd5b505af1158015612f43573d6000803e3d6000fd5b5050505050505b80612f54816151a4565b915050612d45565b50610197546040516370a0823160e01b815283916001600160a01b0316906370a0823190612f8e903090600401614f98565b602060405180830381865afa158015612fab573d6000803e3d6000fd5b505050506040513d601f19601f82011682018060405250810190612fcf919061510c565b612fd991906152f4565b915085821015612ffc5760405163c327661d60e01b815260040160405180910390fd5b610196546001600160a01b03166379cc679033896040518363ffffffff1660e01b815260040161302d9291906154de565b600060405180830381600087803b15801561304757600080fd5b505af115801561305b573d6000803e3d6000fd5b50506101975461307892506001600160a01b031690508684614172565b5050600160fb555050505050565b600061309184614191565b90506000198114156130b657604051631339c0ab60e01b815260040160405180910390fd5b600061019582815481106130cc576130cc615125565b600091825260209091206003909102018054909150600160a01b900462ffffff161561310b5760405163242e802b60e01b815260040160405180910390fd5b610195805461311c906001906152f4565b8154811061312c5761312c615125565b9060005260206000209060030201610195838154811061314e5761314e615125565b60009182526020909120825460039092020180546001600160a01b039092166001600160a01b031983168117825583546001600160b81b031990931617600160a01b9283900462ffffff16909202919091178155600180830180546131b692840191906148bc565b50600282810180546131cb92840191906148bc565b509050506101958054806131e1576131e1615638565b60008281526020812060036000199093019283020180546001600160b81b0319168155906132126001830182614912565b613220600283016000614912565b5050905561322e8484612a99565b7f61aed98b969929f0db9787da6b0d94c396d15b19e58385894b37410be45c8c21858585604051612bf89392919061564e565b60c980546001600160a01b038381166001600160a01b0319831681179093556040519116919082907f8be0079c531659141344cd1fd0a4f28419497f9722a3daafe3b4186f6b6457e090600090a35050565b600061122460008484613f64565b6001600160a01b0383166132e85760405163b6802b7f60e01b815260040160405180910390fd5b61016280546001600160a01b0319166001600160a01b0385169081179091556040517fa3fe39fe39850ddb39697065123e293302f3e8948984fde991b5a291ed1ad05b916110d89185908590615673565b60975460ff161561335c5760405162461bcd60e51b815260040161095090615250565b6097805460ff191660011790557f62e78cea01bee320cd4e420270b5ea74000d11b0c9f74754ebdbfc544b05a258612a743390565b600061339c84614191565b90506000198114156133c157604051631339c0ab60e01b815260040160405180910390fd5b600061019582815481106133d7576133d7615125565b906000526020600020906003020190506133f184846138c7565b8051600184019060009061340e906002870190602086019061485f565b505082516134219190602085019061485f565b5050507f1d56d93c6c64a0efeab05e521e74080ff659502658caf262c622cdfbf5c465b2858585604051612bf893929190615673565b610195546000908190819081816001600160401b0381111561347b5761347b614e34565b6040519080825280602002602001820160405280156134a4578160200160208202803683370190505b50905060005b828110156136f357600061019582815481106134c8576134c8615125565b600091825260209182902060039091020154604080516364ea9f1d60e01b815290516001600160a01b03909216935083926364ea9f1d926004808401938290030181865afa15801561351e573d6000803e3d6000fd5b505050506040513d601f19601f82011682018060405250810190613542919061510c565b156136e057806001600160a01b03166364ea9f1d6040518163ffffffff1660e01b8152600401602060405180830381865afa158015613585573d6000803e3d6000fd5b505050506040513d601f19601f820116820180604052508101906135a9919061510c565b60405163040ebf9f60e31b81526001600160a01b03831690632075fcf8906135d5903090600401614f98565b602060405180830381865afa1580156135f2573d6000803e3d6000fd5b505050506040513d601f19601f82011682018060405250810190613616919061510c565b60405163402cb4d160e01b81526001600160a01b0384169063402cb4d19061364590600090819060040161513b565b602060405180830381865afa158015613662573d6000803e3d6000fd5b505050506040513d601f19601f82011682018060405250810190613686919061510c565b6136909190615163565b61369a9190615182565b8383815181106136ac576136ac615125565b6020026020010181815250508282815181106136ca576136ca615125565b6020026020010151856136dd919061527a565b94505b50806136eb816151a4565b9150506134aa565b50826137105761370560018888613f64565b94505050505061091b565b60005b82811015613815576000610195828154811061373157613731615125565b600091825260209091206003909102015483516001600160a01b039091169150859084908490811061376557613765615125565b6020026020010151826001600160a01b031663d622e73e8c8c6040518363ffffffff1660e01b815260040161379b929190615698565b602060405180830381865afa1580156137b8573d6000803e3d6000fd5b505050506040513d601f19601f820116820180604052508101906137dc91906156ac565b62ffffff166137eb9190615163565b6137f59190615182565b6137ff908761527a565b955050808061380d906151a4565b915050613713565b508394505050505061091b565b826138306103e86064615163565b8162ffffff1610613854576040516303689ded60e51b815260040160405180910390fd5b61015f805462ffffff60301b1916600160301b62ffffff878116820292909217928390556040517f05f9aef0771b6541329b82ea24407357fc3ff0f457598588055f84a807dbdb8f93611b559392900490911690869086906154bf565b60006000196138bf83614191565b141592915050565b60608082806001600160401b038111156138e3576138e3614e34565b60405190808252806020026020018201604052801561391657816020015b60608152602001906001900390816139015790505b509250806001600160401b0381111561393157613931614e34565b60405190808252806020026020018201604052801561396457816020015b606081526020019060019003908161394f5790505b50915060005b81811015613a895785858281811061398457613984615125565b905060200281019061399691906156c9565b6139a090806156e9565b8080601f01602080910402602001604051908101604052809392919081815260200183838082843760009201919091525050865187925084915081106139e8576139e8615125565b6020026020010181905250858582818110613a0557613a05615125565b9050602002810190613a1791906156c9565b613a259060208101906156e9565b8080601f0160208091040260200160405190810160405280939291908181526020018383808284376000920191909152505085518692508491508110613a6d57613a6d615125565b602002602001018190525080613a82906151a4565b905061396a565b50509250929050565b61019554606090600090806001600160401b03811115613ab457613ab4614e34565b604051908082528060200260200182016040528015613add578160200160208202803683370190505b50925060005b81811015613d2c5760006101958281548110613b0157613b01615125565b600091825260209182902060039091020154604080516364ea9f1d60e01b815290516001600160a01b03909216935083926364ea9f1d926004808401938290030181865afa158015613b57573d6000803e3d6000fd5b505050506040513d601f19601f82011682018060405250810190613b7b919061510c565b15613d1957806001600160a01b03166364ea9f1d6040518163ffffffff1660e01b8152600401602060405180830381865afa158015613bbe573d6000803e3d6000fd5b505050506040513d601f19601f82011682018060405250810190613be2919061510c565b60405163040ebf9f60e31b81526001600160a01b03831690632075fcf890613c0e903090600401614f98565b602060405180830381865afa158015613c2b573d6000803e3d6000fd5b505050506040513d601f19601f82011682018060405250810190613c4f919061510c565b60405163402cb4d160e01b81526001600160a01b0384169063402cb4d190613c7e90600090819060040161513b565b602060405180830381865afa158015613c9b573d6000803e3d6000fd5b505050506040513d601f19601f82011682018060405250810190613cbf919061510c565b613cc99190615163565b613cd39190615182565b858381518110613ce557613ce5615125565b602002602001018181525050848281518110613d0357613d03615125565b602002602001015184613d16919061527a565b93505b5080613d24816151a4565b915050613ae3565b50509091565b6000818310613d415781611224565b5090919050565b613d518161193e565b613db35760405162461bcd60e51b815260206004820152602d60248201527f455243313936373a206e657720696d706c656d656e746174696f6e206973206e60448201526c1bdd08184818dbdb9d1c9858dd609a1b6064820152608401610950565b60008051602061577883398151915280546001600160a01b0319166001600160a01b0392909216919091179055565b613deb836141fe565b600082511180613df85750805b156109d357613e07838361423e565b50505050565b600054610100900460ff16613e345760405162461bcd60e51b8152600401610950906155d9565b611186614330565b600054610100900460ff16613e635760405162461bcd60e51b8152600401610950906155d9565b613e6b614363565b610d4d81614392565b61018b54613e82828461527a565b11156112e15760405163b761799960e01b815260040160405180910390fd5b61018c54613eaf828461527a565b11156112e15760405163973cc40960e01b815260040160405180910390fd5b6040516001600160a01b0380851660248301528316604482015260648101829052613e079085906323b872dd60e01b906084015b60408051601f198184030181529190526020810180516001600160e01b03166001600160e01b0319909316929092179091526144c6565b600081613f47575081611224565b83613f528385615163565b613f5c9190615182565b949350505050565b610195546000908190815b8181101561414f5760006101958281548110613f8d57613f8d615125565b600091825260209091206003909102015461019580546001600160a01b0390921692509083908110613fc157613fc1615125565b6000918252602082206003909102015462ffffff600160a01b9091041690896002811115613ff157613ff161572f565b146140b157600189600281111561400a5761400a61572f565b1461408357604051634ab2d57b60e01b81526001600160a01b03831690634ab2d57b9061403d908b908b90600401615698565b602060405180830381865afa15801561405a573d6000803e3d6000fd5b505050506040513d601f19601f8201168201806040525081019061407e91906156ac565b614120565b604051636b11739f60e11b81526001600160a01b0383169063d622e73e9061403d908b908b90600401615698565b604051637bd0754160e01b81526001600160a01b03831690637bd07541906140df908b908b90600401615698565b602060405180830381865afa1580156140fc573d6000803e3d6000fd5b505050506040513d601f19601f8201168201806040525081019061412091906156ac565b62ffffff1661412f9190615163565b614139908561527a565b9350508080614147906151a4565b915050613f6f565b50606461415e6103e884615182565b6141689190615182565b9695505050505050565b6109d38363a9059cbb60e01b8484604051602401613f029291906154de565b6000805b610195548110156141f457826001600160a01b031661019582815481106141be576141be615125565b60009182526020909120600390910201546001600160a01b031614156141e45792915050565b6141ed816151a4565b9050614195565b5060001992915050565b61420781613d48565b6040516001600160a01b038216907fbc7cd75a20ee27fd9adebab32041f755214dbc6bffa90cc0225b39da2e5c2d3b90600090a250565b60606142498361193e565b6142a45760405162461bcd60e51b815260206004820152602660248201527f416464726573733a2064656c65676174652063616c6c20746f206e6f6e2d636f6044820152651b9d1c9858dd60d21b6064820152608401610950565b600080846001600160a01b0316846040516142bf9190615745565b600060405180830381855af49150503d80600081146142fa576040519150601f19603f3d011682016040523d82523d6000602084013e6142ff565b606091505b5091509150614327828260405180606001604052806027815260200161579860279139614598565b95945050505050565b600054610100900460ff166143575760405162461bcd60e51b8152600401610950906155d9565b6097805460ff19169055565b600054610100900460ff1661438a5760405162461bcd60e51b8152600401610950906155d9565b6111866145d1565b600054610100900460ff166143b95760405162461bcd60e51b8152600401610950906155d9565b6143c1614601565b6143c9614630565b6143d1614630565b6144506143e4606083016040840161530b565b6143f16060840184615514565b61440160a086016080870161530b565b61440e60a0870187615514565b61441e60e0890160c08a0161530b565b61442b60e08a018a615514565b61443d6101208c016101008d01614cae565b61444b6101208d018d615514565b614657565b6144648161014001358261016001356146b8565b6144716020820182614cae565b61019680546001600160a01b0319166001600160a01b03929092169190911790556144a26040820160208301614cae565b61019780546001600160a01b0319166001600160a01b039290921691909117905550565b600061451b826040518060400160405280602081526020017f5361666545524332303a206c6f772d6c6576656c2063616c6c206661696c6564815250856001600160a01b03166146f39092919063ffffffff16565b8051909150156109d3578080602001905181019061453991906154f7565b6109d35760405162461bcd60e51b815260206004820152602a60248201527f5361666545524332303a204552433230206f7065726174696f6e20646964206e6044820152691bdd081cdd58d8d9595960b21b6064820152608401610950565b606083156145a7575081611224565b8251156145b75782518084602001fd5b8160405162461bcd60e51b81526004016109509190614f65565b600054610100900460ff166145f85760405162461bcd60e51b8152600401610950906155d9565b61118633613261565b600054610100900460ff166146285760405162461bcd60e51b8152600401610950906155d9565b611186614702565b600054610100900460ff166111865760405162461bcd60e51b8152600401610950906155d9565b600054610100900460ff1661467e5760405162461bcd60e51b8152600401610950906155d9565b6146898c8c8c611ac6565b6146948989896125c5565b61469f868686613822565b6146aa8383836132c1565b505050505050505050505050565b600054610100900460ff166146df5760405162461bcd60e51b8152600401610950906155d9565b6146e98261018b55565b6112e18161018c55565b6060613f5c8484600085614730565b600054610100900460ff166147295760405162461bcd60e51b8152600401610950906155d9565b600160fb55565b6060824710156147915760405162461bcd60e51b815260206004820152602660248201527f416464726573733a20696e73756666696369656e742062616c616e636520666f6044820152651c8818d85b1b60d21b6064820152608401610950565b61479a8561193e565b6147e65760405162461bcd60e51b815260206004820152601d60248201527f416464726573733a2063616c6c20746f206e6f6e2d636f6e74726163740000006044820152606401610950565b600080866001600160a01b031685876040516148029190615745565b60006040518083038185875af1925050503d806000811461483f576040519150601f19603f3d011682016040523d82523d6000602084013e614844565b606091505b5091509150614854828286614598565b979650505050505050565b8280548282559060005260206000209081019282156148ac579160200282015b828111156148ac578251805161489c918491602090910190614930565b509160200191906001019061487f565b506148b89291506149b0565b5090565b8280548282559060005260206000209081019282156148ac5760005260206000209182015b828111156148ac5782829080546148f7906152b9565b6149029291906149cd565b50916001019190600101906148e1565b5080546000825590600052602060002090810190610d4d91906149b0565b82805461493c906152b9565b90600052602060002090601f01602090048101928261495e57600085556149a4565b82601f1061497757805160ff19168380011785556149a4565b828001600101855582156149a4579182015b828111156149a4578251825591602001919060010190614989565b506148b8929150614a48565b808211156148b85760006149c48282614a5d565b506001016149b0565b8280546149d9906152b9565b90600052602060002090601f0160209004810192826149fb57600085556149a4565b82601f10614a0c57805485556149a4565b828001600101855582156149a457600052602060002091601f016020900482015b828111156149a4578254825591600101919060010190614a2d565b5b808211156148b85760008155600101614a49565b508054614a69906152b9565b6000825580601f10614a79575050565b601f016020900490600052602060002090810190610d4d9190614a48565b600060208284031215614aa957600080fd5b81356001600160e01b03198116811461122457600080fd5b6001600160a01b0381168114610d4d57600080fd5b60008083601f840112614ae857600080fd5b5081356001600160401b03811115614aff57600080fd5b6020830191508360208260051b8501011115614b1a57600080fd5b9250929050565b600080600080600060608688031215614b3957600080fd5b8535614b4481614ac1565b945060208601356001600160401b0380821115614b6057600080fd5b614b6c89838a01614ad6565b90965094506040880135915080821115614b8557600080fd5b50614b9288828901614ad6565b969995985093965092949392505050565b60008060208385031215614bb657600080fd5b82356001600160401b03811115614bcc57600080fd5b614bd885828601614ad6565b90969095509350505050565b80516001600160a01b03168252602090810151910152565b602080825282518282018190526000919060409081850190868401855b82811015614c3c57614c2c848351614be4565b9284019290850190600101614c19565b5091979650505050505050565b62ffffff81168114610d4d57600080fd5b600080600060408486031215614c6f57600080fd5b8335614c7a81614c49565b925060208401356001600160401b03811115614c9557600080fd5b614ca186828701614ad6565b9497909650939450505050565b600060208284031215614cc057600080fd5b813561122481614ac1565b8015158114610d4d57600080fd5b60008060408385031215614cec57600080fd5b8235614cf781614ccb565b91506020830135614d0781614ccb565b809150509250929050565b602080825282518282018190526000919060409081850190868401855b82811015614c3c57614d42848351614be4565b9284019290850190600101614d2f565b600060208284031215614d6457600080fd5b5035919050565b600080600080600060608688031215614d8357600080fd5b8535945060208601356001600160401b0380821115614b6057600080fd5b600060208284031215614db357600080fd5b81356001600160401b03811115614dc957600080fd5b8201610180818503121561122457600080fd5b600080600080600060808688031215614df457600080fd5b85359450602086013593506040860135614e0d81614ac1565b925060608601356001600160401b03811115614e2857600080fd5b614b9288828901614ad6565b634e487b7160e01b600052604160045260246000fd5b60008060408385031215614e5d57600080fd5b8235614e6881614ac1565b915060208301356001600160401b0380821115614e8457600080fd5b818501915085601f830112614e9857600080fd5b813581811115614eaa57614eaa614e34565b604051601f8201601f19908116603f01168101908382118183101715614ed257614ed2614e34565b81604052828152886020848701011115614eeb57600080fd5b8260208601602083013760006020848301015280955050505050509250929050565b60005b83811015614f28578181015183820152602001614f10565b83811115613e075750506000910152565b60008151808452614f51816020860160208601614f0d565b601f01601f19169290920160200192915050565b6020815260006112246020830184614f39565b600080600060408486031215614f8d57600080fd5b8335614c7a81614ac1565b6001600160a01b0391909116815260200190565b600081518084526020808501808196508360051b8101915082860160005b85811015614c3c578284038952614fe2848351614f39565b98850198935090840190600101614fca565b60006020808301818452808551808352604092508286019150828160051b87010184880160005b8381101561509257888303603f19018552815180516001600160a01b031684528781015162ffffff16888501528681015160808886018190529061506182870182614fac565b9150506060808301519250858203818701525061507e8183614fac565b96890196945050509086019060010161501b565b509098975050505050505050565b6020808252818101527f4f776e61626c653a2063616c6c6572206973206e6f7420746865206f776e6572604082015260600190565b6020808252601f908201527f5265656e7472616e637947756172643a207265656e7472616e742063616c6c00604082015260600190565b60006020828403121561511e57600080fd5b5051919050565b634e487b7160e01b600052603260045260246000fd5b91151582521515602082015260400190565b634e487b7160e01b600052601160045260246000fd5b600081600019048311821515161561517d5761517d61514d565b500290565b60008261519f57634e487b7160e01b600052601260045260246000fd5b500490565b60006000198214156151b8576151b861514d565b5060010190565b6000602082840312156151d157600080fd5b815161122481614ac1565b6020808252602c9082015260008051602061575883398151915260408201526b19195b1959d85d1958d85b1b60a21b606082015260800190565b6020808252602c9082015260008051602061575883398151915260408201526b6163746976652070726f787960a01b606082015260800190565b60208082526010908201526f14185d5cd8589b194e881c185d5cd95960821b604082015260600190565b6000821982111561528d5761528d61514d565b500190565b600062ffffff8083168185168083038211156152b0576152b061514d565b01949350505050565b600181811c908216806152cd57607f821691505b602082108114156152ee57634e487b7160e01b600052602260045260246000fd5b50919050565b6000828210156153065761530661514d565b500390565b60006020828403121561531d57600080fd5b813561122481614c49565b8183526000602080850194508260005b8581101561536257813561534b81614c49565b62ffffff1687529582019590820190600101615338565b509495945050505050565b6000808335601e1984360301811261538457600080fd5b83016020810192503590506001600160401b038111156153a357600080fd5b803603831315614b1a57600080fd5b81835281816020850137506000828201602090810191909152601f909101601f19169091010190565b81835260006020808501808196508560051b81019150846000805b8881101561546d578385038a528235603e19893603018112615416578283fd5b88016040615424828061536d565b828952615434838a0182846153b2565b925050506154448883018361536d565b9250878203898901526154588284836153b2565b9c89019c9750505092860192506001016153f6565b509298975050505050505050565b6001600160a01b03861681526060602082018190526000906154a09083018688615328565b82810360408401526154b38185876153db565b98975050505050505050565b62ffffff841681526040602082015260006143276040830184866153db565b6001600160a01b03929092168252602082015260400190565b60006020828403121561550957600080fd5b815161122481614ccb565b6000808335601e1984360301811261552b57600080fd5b8301803591506001600160401b0382111561554557600080fd5b6020019150600581901b3603821315614b1a57600080fd5b85815284602082015260018060a01b03841660408201526080606082015260006148546080830184866153db565b6020808252602e908201527f496e697469616c697a61626c653a20636f6e747261637420697320616c72656160408201526d191e481a5b9a5d1a585b1a5e995960921b606082015260800190565b6020808252602b908201527f496e697469616c697a61626c653a20636f6e7472616374206973206e6f74206960408201526a6e697469616c697a696e6760a81b606082015260800190565b602081526000613f5c602083018486615328565b634e487b7160e01b600052603160045260246000fd5b6001600160a01b03841681526040602082018190526000906143279083018486615328565b6001600160a01b038416815260406020820181905260009061432790830184866153db565b602081526000613f5c6020830184866153db565b6000602082840312156156be57600080fd5b815161122481614c49565b60008235603e198336030181126156df57600080fd5b9190910192915050565b6000808335601e1984360301811261570057600080fd5b8301803591506001600160401b0382111561571a57600080fd5b602001915036819003821315614b1a57600080fd5b634e487b7160e01b600052602160045260246000fd5b600082516156df818460208701614f0d56fe46756e6374696f6e206d7573742062652063616c6c6564207468726f75676820360894a13ba1a3210667c828492db98dca3e2076cc3735a920a3ca505d382bbc416464726573733a206c6f772d6c6576656c2064656c65676174652063616c6c206661696c656462726f6b6b722e70657263656e746167655f616c6c6f636174696f6e5f706f7274666f6c696f2e70657263656e746167655f616c6c6f636174696f6e5f706f7274666f6c696f5f76322e302e30a26469706673582212209bcdf4d1bbd795287cb46920c6f73da26b13edd0efba077d3f5af9fc5c67899f64736f6c634300080a0033",
  "linkReferences": {},
  "deployedLinkReferences": {}
}