{
  "_format": "hh-sol-artifact-1",
  "contractName": "TestUpgradedPortfolio",
  "sourceName": "contracts/tests/TestUpgradedPortfolio.sol",
  "abi": [
    {
      "inputs": [],
      "stateMutability": "nonpayable",
      "type": "constructor"
    },
    {
      "inputs": [],
      "name": "InvalidFeeError",
      "type": "error"
    },
    {
      "inputs": [],
      "name": "InvestableAlreadyAdded",
      "type": "error"
    },
    {
      "inputs": [],
      "name": "InvestableHasNonZeroAllocation",
      "type": "error"
    },
    {
      "inputs": [],
      "name": "InvestableNotYetAdded",
      "type": "error"
    },
    {
      "inputs": [],
      "name": "InvestmentLimitPerAddressExceeded",
      "type": "error"
    },
    {
      "inputs": [],
      "name": "RebalanceIncorrectAllocationsLength",
      "type": "error"
    },
    {
      "inputs": [],
      "name": "RebalancePercentageNot100",
      "type": "error"
    },
    {
      "inputs": [],
      "name": "TooSmallDepositTokenAmountOut",
      "type": "error"
    },
    {
      "inputs": [],
      "name": "TotalInvestmentLimitExceeded",
      "type": "error"
    },
    {
      "inputs": [],
      "name": "ZeroAmountDeposited",
      "type": "error"
    },
    {
      "inputs": [],
      "name": "ZeroAmountInvested",
      "type": "error"
    },
    {
      "inputs": [],
      "name": "ZeroAmountWithdrawn",
      "type": "error"
    },
    {
      "inputs": [],
      "name": "ZeroDepositTokenReceiver",
      "type": "error"
    },
    {
      "inputs": [],
      "name": "ZeroFeeReceiver",
      "type": "error"
    },
    {
      "inputs": [],
      "name": "ZeroInvestmentTokenReceiver",
      "type": "error"
    },
    {
      "anonymous": false,
      "inputs": [
        {
          "indexed": false,
          "internalType": "address",
          "name": "previousAdmin",
          "type": "address"
        },
        {
          "indexed": false,
          "internalType": "address",
          "name": "newAdmin",
          "type": "address"
        }
      ],
      "name": "AdminChanged",
      "type": "event"
    },
    {
      "anonymous": false,
      "inputs": [
        {
          "indexed": true,
          "internalType": "address",
          "name": "beacon",
          "type": "address"
        }
      ],
      "name": "BeaconUpgraded",
      "type": "event"
    },
    {
      "anonymous": false,
      "inputs": [
        {
          "indexed": true,
          "internalType": "address",
          "name": "initiator",
          "type": "address"
        },
        {
          "indexed": true,
          "internalType": "address",
          "name": "investmentTokenReceiver",
          "type": "address"
        },
        {
          "indexed": false,
          "internalType": "uint256",
          "name": "amount",
          "type": "uint256"
        }
      ],
      "name": "Deposit",
      "type": "event"
    },
    {
      "anonymous": false,
      "inputs": [
        {
          "indexed": false,
          "internalType": "uint256",
          "name": "fee",
          "type": "uint256"
        },
        {
          "components": [
            {
              "internalType": "string",
              "name": "key",
              "type": "string"
            },
            {
              "internalType": "string",
              "name": "value",
              "type": "string"
            }
          ],
          "indexed": false,
          "internalType": "struct NameValuePair[]",
          "name": "params",
          "type": "tuple[]"
        }
      ],
      "name": "DepositFeeChange",
      "type": "event"
    },
    {
      "anonymous": false,
      "inputs": [
        {
          "indexed": false,
          "internalType": "uint256",
          "name": "fee",
          "type": "uint256"
        }
      ],
      "name": "FeeClaim",
      "type": "event"
    },
    {
      "anonymous": false,
      "inputs": [
        {
          "indexed": false,
          "internalType": "address",
          "name": "feeReceiver",
          "type": "address"
        },
        {
          "components": [
            {
              "internalType": "string",
              "name": "key",
              "type": "string"
            },
            {
              "internalType": "string",
              "name": "value",
              "type": "string"
            }
          ],
          "indexed": false,
          "internalType": "struct NameValuePair[]",
          "name": "params",
          "type": "tuple[]"
        }
      ],
      "name": "FeeReceiverChange",
      "type": "event"
    },
    {
      "anonymous": false,
      "inputs": [
        {
          "indexed": false,
          "internalType": "uint8",
          "name": "version",
          "type": "uint8"
        }
      ],
      "name": "Initialized",
      "type": "event"
    },
    {
      "anonymous": false,
      "inputs": [
        {
          "indexed": false,
          "internalType": "contract IInvestable",
          "name": "investable",
          "type": "address"
        },
        {
          "indexed": false,
          "internalType": "uint24[]",
          "name": "newAllocations",
          "type": "uint24[]"
        },
        {
          "components": [
            {
              "internalType": "string",
              "name": "key",
              "type": "string"
            },
            {
              "internalType": "string",
              "name": "value",
              "type": "string"
            }
          ],
          "indexed": false,
          "internalType": "struct NameValuePair[]",
          "name": "params",
          "type": "tuple[]"
        }
      ],
      "name": "InvestableAdd",
      "type": "event"
    },
    {
      "anonymous": false,
      "inputs": [
        {
          "indexed": false,
          "internalType": "contract IInvestable",
          "name": "investable",
          "type": "address"
        },
        {
          "components": [
            {
              "internalType": "string",
              "name": "key",
              "type": "string"
            },
            {
              "internalType": "string",
              "name": "value",
              "type": "string"
            }
          ],
          "indexed": false,
          "internalType": "struct NameValuePair[]",
          "name": "params",
          "type": "tuple[]"
        }
      ],
      "name": "InvestableChange",
      "type": "event"
    },
    {
      "anonymous": false,
      "inputs": [
        {
          "indexed": false,
          "internalType": "contract IInvestable",
          "name": "investable",
          "type": "address"
        },
        {
          "indexed": false,
          "internalType": "uint24[]",
          "name": "newAllocations",
          "type": "uint24[]"
        }
      ],
      "name": "InvestableRemove",
      "type": "event"
    },
    {
      "anonymous": false,
      "inputs": [
        {
          "indexed": true,
          "internalType": "address",
          "name": "previousOwner",
          "type": "address"
        },
        {
          "indexed": true,
          "internalType": "address",
          "name": "newOwner",
          "type": "address"
        }
      ],
      "name": "OwnershipTransferred",
      "type": "event"
    },
    {
      "anonymous": false,
      "inputs": [
        {
          "indexed": false,
          "internalType": "address",
          "name": "account",
          "type": "address"
        }
      ],
      "name": "Paused",
      "type": "event"
    },
    {
      "anonymous": false,
      "inputs": [
        {
          "indexed": false,
          "internalType": "uint256",
          "name": "fee",
          "type": "uint256"
        },
        {
          "components": [
            {
              "internalType": "string",
              "name": "key",
              "type": "string"
            },
            {
              "internalType": "string",
              "name": "value",
              "type": "string"
            }
          ],
          "indexed": false,
          "internalType": "struct NameValuePair[]",
          "name": "params",
          "type": "tuple[]"
        }
      ],
      "name": "PerformanceFeeChange",
      "type": "event"
    },
    {
      "anonymous": false,
      "inputs": [],
      "name": "Rebalance",
      "type": "event"
    },
    {
      "anonymous": false,
      "inputs": [
        {
          "indexed": false,
          "internalType": "uint24[]",
          "name": "newAllocations",
          "type": "uint24[]"
        }
      ],
      "name": "TargetInvestableAllocationsSet",
      "type": "event"
    },
    {
      "anonymous": false,
      "inputs": [
        {
          "indexed": false,
          "internalType": "address",
          "name": "account",
          "type": "address"
        }
      ],
      "name": "Unpaused",
      "type": "event"
    },
    {
      "anonymous": false,
      "inputs": [
        {
          "indexed": true,
          "internalType": "address",
          "name": "implementation",
          "type": "address"
        }
      ],
      "name": "Upgraded",
      "type": "event"
    },
    {
      "anonymous": false,
      "inputs": [
        {
          "indexed": true,
          "internalType": "address",
          "name": "initiator",
          "type": "address"
        },
        {
          "indexed": true,
          "internalType": "address",
          "name": "depositTokenReceiver",
          "type": "address"
        },
        {
          "indexed": false,
          "internalType": "uint256",
          "name": "amount",
          "type": "uint256"
        }
      ],
      "name": "Withdrawal",
      "type": "event"
    },
    {
      "anonymous": false,
      "inputs": [
        {
          "indexed": false,
          "internalType": "uint256",
          "name": "fee",
          "type": "uint256"
        },
        {
          "components": [
            {
              "internalType": "string",
              "name": "key",
              "type": "string"
            },
            {
              "internalType": "string",
              "name": "value",
              "type": "string"
            }
          ],
          "indexed": false,
          "internalType": "struct NameValuePair[]",
          "name": "params",
          "type": "tuple[]"
        }
      ],
      "name": "WithdrawalFeeChange",
      "type": "event"
    },
    {
      "inputs": [
        {
          "internalType": "contract IInvestable",
          "name": "investable",
          "type": "address"
        },
        {
          "internalType": "uint24[]",
          "name": "newAllocations",
          "type": "uint24[]"
        },
        {
          "components": [
            {
              "internalType": "string",
              "name": "key",
              "type": "string"
            },
            {
              "internalType": "string",
              "name": "value",
              "type": "string"
            }
          ],
          "internalType": "struct NameValuePair[]",
          "name": "params",
          "type": "tuple[]"
        }
      ],
      "name": "addInvestable",
      "outputs": [],
      "stateMutability": "nonpayable",
      "type": "function"
    },
    {
      "inputs": [
        {
          "internalType": "contract IInvestable",
          "name": "investable",
          "type": "address"
        },
        {
          "components": [
            {
              "internalType": "string",
              "name": "key",
              "type": "string"
            },
            {
              "internalType": "string",
              "name": "value",
              "type": "string"
            }
          ],
          "internalType": "struct NameValuePair[]",
          "name": "params",
          "type": "tuple[]"
        }
      ],
      "name": "changeInvestable",
      "outputs": [],
      "stateMutability": "nonpayable",
      "type": "function"
    },
    {
      "inputs": [
        {
          "components": [
            {
              "internalType": "string",
              "name": "key",
              "type": "string"
            },
            {
              "internalType": "string",
              "name": "value",
              "type": "string"
            }
          ],
          "internalType": "struct NameValuePair[]",
          "name": "params",
          "type": "tuple[]"
        }
      ],
      "name": "claimFee",
      "outputs": [],
      "stateMutability": "nonpayable",
      "type": "function"
    },
    {
      "inputs": [
        {
          "internalType": "uint256",
          "name": "depositTokenAmountIn",
          "type": "uint256"
        },
        {
          "internalType": "uint256",
          "name": "minimumDepositTokenAmountOut",
          "type": "uint256"
        },
        {
          "internalType": "address",
          "name": "investmentTokenReceiver",
          "type": "address"
        },
        {
          "components": [
            {
              "internalType": "string",
              "name": "key",
              "type": "string"
            },
            {
              "internalType": "string",
              "name": "value",
              "type": "string"
            }
          ],
          "internalType": "struct NameValuePair[]",
          "name": "params",
          "type": "tuple[]"
        }
      ],
      "name": "deposit",
      "outputs": [],
      "stateMutability": "nonpayable",
      "type": "function"
    },
    {
      "inputs": [],
      "name": "getAssetBalances",
      "outputs": [
        {
          "components": [
            {
              "internalType": "address",
              "name": "asset",
              "type": "address"
            },
            {
              "internalType": "uint256",
              "name": "balance",
              "type": "uint256"
            }
          ],
          "internalType": "struct IAum.Balance[]",
          "name": "",
          "type": "tuple[]"
        }
      ],
      "stateMutability": "view",
      "type": "function"
    },
    {
      "inputs": [
        {
          "internalType": "bool",
          "name": "shouldMaximise",
          "type": "bool"
        },
        {
          "internalType": "bool",
          "name": "shouldIncludeAmmPrice",
          "type": "bool"
        }
      ],
      "name": "getAssetValuations",
      "outputs": [
        {
          "components": [
            {
              "internalType": "address",
              "name": "asset",
              "type": "address"
            },
            {
              "internalType": "uint256",
              "name": "valuation",
              "type": "uint256"
            }
          ],
          "internalType": "struct IAum.Valuation[]",
          "name": "",
          "type": "tuple[]"
        }
      ],
      "stateMutability": "view",
      "type": "function"
    },
    {
      "inputs": [],
      "name": "getClaimedFee",
      "outputs": [
        {
          "internalType": "uint256",
          "name": "",
          "type": "uint256"
        }
      ],
      "stateMutability": "view",
      "type": "function"
    },
    {
      "inputs": [],
      "name": "getCurrentAccumulatedFee",
      "outputs": [
        {
          "internalType": "uint256",
          "name": "",
          "type": "uint256"
        }
      ],
      "stateMutability": "view",
      "type": "function"
    },
    {
      "inputs": [
        {
          "components": [
            {
              "internalType": "string",
              "name": "key",
              "type": "string"
            },
            {
              "internalType": "string",
              "name": "value",
              "type": "string"
            }
          ],
          "internalType": "struct NameValuePair[]",
          "name": "",
          "type": "tuple[]"
        }
      ],
      "name": "getDepositFee",
      "outputs": [
        {
          "internalType": "uint24",
          "name": "",
          "type": "uint24"
        }
      ],
      "stateMutability": "view",
      "type": "function"
    },
    {
      "inputs": [],
      "name": "getDepositToken",
      "outputs": [
        {
          "internalType": "contract IERC20Upgradeable",
          "name": "",
          "type": "address"
        }
      ],
      "stateMutability": "view",
      "type": "function"
    },
    {
      "inputs": [
        {
          "internalType": "bool",
          "name": "shouldMaximise",
          "type": "bool"
        },
        {
          "internalType": "bool",
          "name": "shouldIncludeAmmPrice",
          "type": "bool"
        }
      ],
      "name": "getEquityValuation",
      "outputs": [
        {
          "internalType": "uint256",
          "name": "",
          "type": "uint256"
        }
      ],
      "stateMutability": "view",
      "type": "function"
    },
    {
      "inputs": [
        {
          "components": [
            {
              "internalType": "string",
              "name": "key",
              "type": "string"
            },
            {
              "internalType": "string",
              "name": "value",
              "type": "string"
            }
          ],
          "internalType": "struct NameValuePair[]",
          "name": "",
          "type": "tuple[]"
        }
      ],
      "name": "getFeeReceiver",
      "outputs": [
        {
          "internalType": "address",
          "name": "",
          "type": "address"
        }
      ],
      "stateMutability": "view",
      "type": "function"
    },
    {
      "inputs": [],
      "name": "getInvestables",
      "outputs": [
        {
          "components": [
            {
              "internalType": "contract IInvestable",
              "name": "investable",
              "type": "address"
            },
            {
              "internalType": "uint24",
              "name": "allocationPercentage",
              "type": "uint24"
            },
            {
              "internalType": "string[]",
              "name": "keys",
              "type": "string[]"
            },
            {
              "internalType": "string[]",
              "name": "values",
              "type": "string[]"
            }
          ],
          "internalType": "struct InvestableDesc[]",
          "name": "",
          "type": "tuple[]"
        }
      ],
      "stateMutability": "view",
      "type": "function"
    },
    {
      "inputs": [],
      "name": "getInvestmentLimitPerAddress",
      "outputs": [
        {
          "internalType": "uint256",
          "name": "",
          "type": "uint256"
        }
      ],
      "stateMutability": "view",
      "type": "function"
    },
    {
      "inputs": [],
      "name": "getInvestmentToken",
      "outputs": [
        {
          "internalType": "contract IInvestmentToken",
          "name": "",
          "type": "address"
        }
      ],
      "stateMutability": "view",
      "type": "function"
    },
    {
      "inputs": [
        {
          "internalType": "address",
          "name": "account",
          "type": "address"
        }
      ],
      "name": "getInvestmentTokenBalanceOf",
      "outputs": [
        {
          "internalType": "uint256",
          "name": "",
          "type": "uint256"
        }
      ],
      "stateMutability": "view",
      "type": "function"
    },
    {
      "inputs": [],
      "name": "getInvestmentTokenSupply",
      "outputs": [
        {
          "internalType": "uint256",
          "name": "",
          "type": "uint256"
        }
      ],
      "stateMutability": "view",
      "type": "function"
    },
    {
      "inputs": [],
      "name": "getLiabilityBalances",
      "outputs": [
        {
          "components": [
            {
              "internalType": "address",
              "name": "asset",
              "type": "address"
            },
            {
              "internalType": "uint256",
              "name": "balance",
              "type": "uint256"
            }
          ],
          "internalType": "struct IAum.Balance[]",
          "name": "",
          "type": "tuple[]"
        }
      ],
      "stateMutability": "view",
      "type": "function"
    },
    {
      "inputs": [
        {
          "internalType": "bool",
          "name": "",
          "type": "bool"
        },
        {
          "internalType": "bool",
          "name": "",
          "type": "bool"
        }
      ],
      "name": "getLiabilityValuations",
      "outputs": [
        {
          "components": [
            {
              "internalType": "address",
              "name": "asset",
              "type": "address"
            },
            {
              "internalType": "uint256",
              "name": "valuation",
              "type": "uint256"
            }
          ],
          "internalType": "struct IAum.Valuation[]",
          "name": "",
          "type": "tuple[]"
        }
      ],
      "stateMutability": "view",
      "type": "function"
    },
    {
      "inputs": [
        {
          "components": [
            {
              "internalType": "string",
              "name": "key",
              "type": "string"
            },
            {
              "internalType": "string",
              "name": "value",
              "type": "string"
            }
          ],
          "internalType": "struct NameValuePair[]",
          "name": "",
          "type": "tuple[]"
        }
      ],
      "name": "getPerformanceFee",
      "outputs": [
        {
          "internalType": "uint24",
          "name": "",
          "type": "uint24"
        }
      ],
      "stateMutability": "view",
      "type": "function"
    },
    {
      "inputs": [
        {
          "components": [
            {
              "internalType": "string",
              "name": "key",
              "type": "string"
            },
            {
              "internalType": "string",
              "name": "value",
              "type": "string"
            }
          ],
          "internalType": "struct NameValuePair[]",
          "name": "params",
          "type": "tuple[]"
        }
      ],
      "name": "getTotalDepositFee",
      "outputs": [
        {
          "internalType": "uint24",
          "name": "",
          "type": "uint24"
        }
      ],
      "stateMutability": "view",
      "type": "function"
    },
    {
      "inputs": [],
      "name": "getTotalInvestmentLimit",
      "outputs": [
        {
          "internalType": "uint256",
          "name": "",
          "type": "uint256"
        }
      ],
      "stateMutability": "view",
      "type": "function"
    },
    {
      "inputs": [
        {
          "components": [
            {
              "internalType": "string",
              "name": "key",
              "type": "string"
            },
            {
              "internalType": "string",
              "name": "value",
              "type": "string"
            }
          ],
          "internalType": "struct NameValuePair[]",
          "name": "params",
          "type": "tuple[]"
        }
      ],
      "name": "getTotalPerformanceFee",
      "outputs": [
        {
          "internalType": "uint24",
          "name": "",
          "type": "uint24"
        }
      ],
      "stateMutability": "view",
      "type": "function"
    },
    {
      "inputs": [
        {
          "components": [
            {
              "internalType": "string",
              "name": "key",
              "type": "string"
            },
            {
              "internalType": "string",
              "name": "value",
              "type": "string"
            }
          ],
          "internalType": "struct NameValuePair[]",
          "name": "params",
          "type": "tuple[]"
        }
      ],
      "name": "getTotalWithdrawalFee",
      "outputs": [
        {
          "internalType": "uint24",
          "name": "",
          "type": "uint24"
        }
      ],
      "stateMutability": "view",
      "type": "function"
    },
    {
      "inputs": [
        {
          "components": [
            {
              "internalType": "string",
              "name": "key",
              "type": "string"
            },
            {
              "internalType": "string",
              "name": "value",
              "type": "string"
            }
          ],
          "internalType": "struct NameValuePair[]",
          "name": "",
          "type": "tuple[]"
        }
      ],
      "name": "getWithdrawalFee",
      "outputs": [
        {
          "internalType": "uint24",
          "name": "",
          "type": "uint24"
        }
      ],
      "stateMutability": "view",
      "type": "function"
    },
    {
      "inputs": [],
      "name": "humanReadableName",
      "outputs": [
        {
          "internalType": "string",
          "name": "",
          "type": "string"
        }
      ],
      "stateMutability": "view",
      "type": "function"
    },
    {
      "inputs": [
        {
          "components": [
            {
              "internalType": "contract IInvestmentToken",
              "name": "investmentToken",
              "type": "address"
            },
            {
              "internalType": "contract IERC20Upgradeable",
              "name": "depositToken",
              "type": "address"
            },
            {
              "internalType": "uint24",
              "name": "depositFee",
              "type": "uint24"
            },
            {
              "components": [
                {
                  "internalType": "string",
                  "name": "key",
                  "type": "string"
                },
                {
                  "internalType": "string",
                  "name": "value",
                  "type": "string"
                }
              ],
              "internalType": "struct NameValuePair[]",
              "name": "depositFeeParams",
              "type": "tuple[]"
            },
            {
              "internalType": "uint24",
              "name": "withdrawalFee",
              "type": "uint24"
            },
            {
              "components": [
                {
                  "internalType": "string",
                  "name": "key",
                  "type": "string"
                },
                {
                  "internalType": "string",
                  "name": "value",
                  "type": "string"
                }
              ],
              "internalType": "struct NameValuePair[]",
              "name": "withdrawFeeParams",
              "type": "tuple[]"
            },
            {
              "internalType": "uint24",
              "name": "performanceFee",
              "type": "uint24"
            },
            {
              "components": [
                {
                  "internalType": "string",
                  "name": "key",
                  "type": "string"
                },
                {
                  "internalType": "string",
                  "name": "value",
                  "type": "string"
                }
              ],
              "internalType": "struct NameValuePair[]",
              "name": "performanceFeeParams",
              "type": "tuple[]"
            },
            {
              "internalType": "address",
              "name": "feeReceiver",
              "type": "address"
            },
            {
              "components": [
                {
                  "internalType": "string",
                  "name": "key",
                  "type": "string"
                },
                {
                  "internalType": "string",
                  "name": "value",
                  "type": "string"
                }
              ],
              "internalType": "struct NameValuePair[]",
              "name": "feeReceiverParams",
              "type": "tuple[]"
            },
            {
              "internalType": "uint256",
              "name": "totalInvestmentLimit",
              "type": "uint256"
            },
            {
              "internalType": "uint256",
              "name": "investmentLimitPerAddress",
              "type": "uint256"
            }
          ],
          "internalType": "struct PortfolioArgs",
          "name": "portfolioArgs",
          "type": "tuple"
        }
      ],
      "name": "initialize",
      "outputs": [],
      "stateMutability": "nonpayable",
      "type": "function"
    },
    {
      "inputs": [],
      "name": "owner",
      "outputs": [
        {
          "internalType": "address",
          "name": "",
          "type": "address"
        }
      ],
      "stateMutability": "view",
      "type": "function"
    },
    {
      "inputs": [],
      "name": "pause",
      "outputs": [],
      "stateMutability": "nonpayable",
      "type": "function"
    },
    {
      "inputs": [],
      "name": "paused",
      "outputs": [
        {
          "internalType": "bool",
          "name": "",
          "type": "bool"
        }
      ],
      "stateMutability": "view",
      "type": "function"
    },
    {
      "inputs": [],
      "name": "proxiableUUID",
      "outputs": [
        {
          "internalType": "bytes32",
          "name": "",
          "type": "bytes32"
        }
      ],
      "stateMutability": "view",
      "type": "function"
    },
    {
      "inputs": [
        {
          "internalType": "uint256",
          "name": "minimumDepositTokenAmountOut",
          "type": "uint256"
        },
        {
          "components": [
            {
              "internalType": "string",
              "name": "key",
              "type": "string"
            },
            {
              "internalType": "string",
              "name": "value",
              "type": "string"
            }
          ],
          "internalType": "struct NameValuePair[][]",
          "name": "depositParams",
          "type": "tuple[][]"
        },
        {
          "components": [
            {
              "internalType": "string",
              "name": "key",
              "type": "string"
            },
            {
              "internalType": "string",
              "name": "value",
              "type": "string"
            }
          ],
          "internalType": "struct NameValuePair[][]",
          "name": "withdrawParams",
          "type": "tuple[][]"
        }
      ],
      "name": "rebalance",
      "outputs": [],
      "stateMutability": "nonpayable",
      "type": "function"
    },
    {
      "inputs": [
        {
          "internalType": "contract IInvestable",
          "name": "investable",
          "type": "address"
        },
        {
          "internalType": "uint24[]",
          "name": "newAllocations",
          "type": "uint24[]"
        }
      ],
      "name": "removeInvestable",
      "outputs": [],
      "stateMutability": "nonpayable",
      "type": "function"
    },
    {
      "inputs": [],
      "name": "renounceOwnership",
      "outputs": [],
      "stateMutability": "nonpayable",
      "type": "function"
    },
    {
      "inputs": [
        {
          "internalType": "uint24",
          "name": "fee_",
          "type": "uint24"
        },
        {
          "components": [
            {
              "internalType": "string",
              "name": "key",
              "type": "string"
            },
            {
              "internalType": "string",
              "name": "value",
              "type": "string"
            }
          ],
          "internalType": "struct NameValuePair[]",
          "name": "params",
          "type": "tuple[]"
        }
      ],
      "name": "setDepositFee",
      "outputs": [],
      "stateMutability": "nonpayable",
      "type": "function"
    },
    {
      "inputs": [
        {
          "internalType": "address",
          "name": "feeReceiver_",
          "type": "address"
        },
        {
          "components": [
            {
              "internalType": "string",
              "name": "key",
              "type": "string"
            },
            {
              "internalType": "string",
              "name": "value",
              "type": "string"
            }
          ],
          "internalType": "struct NameValuePair[]",
          "name": "params",
          "type": "tuple[]"
        }
      ],
      "name": "setFeeReceiver",
      "outputs": [],
      "stateMutability": "nonpayable",
      "type": "function"
    },
    {
      "inputs": [
        {
          "internalType": "uint256",
          "name": "investmentLimitPerAddress",
          "type": "uint256"
        }
      ],
      "name": "setInvestmentLimitPerAddress",
      "outputs": [],
      "stateMutability": "nonpayable",
      "type": "function"
    },
    {
      "inputs": [
        {
          "internalType": "contract IInvestmentToken",
          "name": "investmentToken",
          "type": "address"
        }
      ],
      "name": "setInvestmentToken",
      "outputs": [],
      "stateMutability": "nonpayable",
      "type": "function"
    },
    {
      "inputs": [
        {
          "internalType": "uint24",
          "name": "fee_",
          "type": "uint24"
        },
        {
          "components": [
            {
              "internalType": "string",
              "name": "key",
              "type": "string"
            },
            {
              "internalType": "string",
              "name": "value",
              "type": "string"
            }
          ],
          "internalType": "struct NameValuePair[]",
          "name": "params",
          "type": "tuple[]"
        }
      ],
      "name": "setPerformanceFee",
      "outputs": [],
      "stateMutability": "nonpayable",
      "type": "function"
    },
    {
      "inputs": [
        {
          "internalType": "uint24[]",
          "name": "newAllocations",
          "type": "uint24[]"
        }
      ],
      "name": "setTargetInvestableAllocations",
      "outputs": [],
      "stateMutability": "nonpayable",
      "type": "function"
    },
    {
      "inputs": [
        {
          "internalType": "uint256",
          "name": "totalInvestmentLimit",
          "type": "uint256"
        }
      ],
      "name": "setTotalInvestmentLimit",
      "outputs": [],
      "stateMutability": "nonpayable",
      "type": "function"
    },
    {
      "inputs": [
        {
          "internalType": "uint24",
          "name": "fee_",
          "type": "uint24"
        },
        {
          "components": [
            {
              "internalType": "string",
              "name": "key",
              "type": "string"
            },
            {
              "internalType": "string",
              "name": "value",
              "type": "string"
            }
          ],
          "internalType": "struct NameValuePair[]",
          "name": "params",
          "type": "tuple[]"
        }
      ],
      "name": "setWithdrawalFee",
      "outputs": [],
      "stateMutability": "nonpayable",
      "type": "function"
    },
    {
      "inputs": [
        {
          "internalType": "bytes4",
          "name": "interfaceId",
          "type": "bytes4"
        }
      ],
      "name": "supportsInterface",
      "outputs": [
        {
          "internalType": "bool",
          "name": "",
          "type": "bool"
        }
      ],
      "stateMutability": "view",
      "type": "function"
    },
    {
      "inputs": [],
      "name": "trackingName",
      "outputs": [
        {
          "internalType": "string",
          "name": "",
          "type": "string"
        }
      ],
      "stateMutability": "view",
      "type": "function"
    },
    {
      "inputs": [
        {
          "internalType": "address",
          "name": "newOwner",
          "type": "address"
        }
      ],
      "name": "transferOwnership",
      "outputs": [],
      "stateMutability": "nonpayable",
      "type": "function"
    },
    {
      "inputs": [],
      "name": "unpause",
      "outputs": [],
      "stateMutability": "nonpayable",
      "type": "function"
    },
    {
      "inputs": [
        {
          "internalType": "address",
          "name": "newImplementation",
          "type": "address"
        }
      ],
      "name": "upgradeTo",
      "outputs": [],
      "stateMutability": "nonpayable",
      "type": "function"
    },
    {
      "inputs": [
        {
          "internalType": "address",
          "name": "newImplementation",
          "type": "address"
        },
        {
          "internalType": "bytes",
          "name": "data",
          "type": "bytes"
        }
      ],
      "name": "upgradeToAndCall",
      "outputs": [],
      "stateMutability": "payable",
      "type": "function"
    },
    {
      "inputs": [],
      "name": "version",
      "outputs": [
        {
          "internalType": "string",
          "name": "",
          "type": "string"
        }
      ],
      "stateMutability": "view",
      "type": "function"
    },
    {
      "inputs": [
        {
          "internalType": "uint256",
          "name": "investmentTokenAmountIn",
          "type": "uint256"
        },
        {
          "internalType": "uint256",
          "name": "minimumDepositTokenAmountOut",
          "type": "uint256"
        },
        {
          "internalType": "address",
          "name": "depositTokenReceiver",
          "type": "address"
        },
        {
          "components": [
            {
              "internalType": "string",
              "name": "key",
              "type": "string"
            },
            {
              "internalType": "string",
              "name": "value",
              "type": "string"
            }
          ],
          "internalType": "struct NameValuePair[]",
          "name": "params",
          "type": "tuple[]"
        }
      ],
      "name": "withdraw",
      "outputs": [],
      "stateMutability": "nonpayable",
      "type": "function"
    }
  ],
  "bytecode": "0x60a0604052306080523480156200001557600080fd5b506200002062000026565b6200013f565b6200003260ff62000035565b50565b60008054610100900460ff16156200009e578160ff1660011480156200006e57506200006c30620000e260201b6200192f1760201c565b155b620000965760405162461bcd60e51b81526004016200008d90620000f1565b60405180910390fd5b506000919050565b60005460ff808416911610620000c85760405162461bcd60e51b81526004016200008d90620000f1565b506000805460ff191660ff92909216919091179055600190565b6001600160a01b03163b151590565b6020808252602e908201527f496e697469616c697a61626c653a20636f6e747261637420697320616c72656160408201526d191e481a5b9a5d1a585b1a5e995960921b606082015260800190565b6080516158126200017760003960008181610fa001528181610fe00152818161122701528181611267015261131c01526158126000f3fe6080604052600436106102395760003560e01c806301ffc9a71461023e5780630399ef07146102735780630c976b9a14610295578063146264db146102b55780631fda1214146102d25780632075fcf8146102f257806320a4cd6d1461032057806327b3a8c91461034d5780632e85913e1461036d578063308dade11461038d578063346cd3c5146103a25780633659cfe6146103c2578063384e16f9146103e25780633acefea7146104025780633c3129e3146104225780633f4ba83a14610442578063402cb4d11461045757806344dc283b1461047757806349eca013146104ab5780634ab2d57b146104ce5780634f1ef286146104ee5780634fff42761461050157806352d1902d1461052157806354fd4d50146105365780635c975abb146105745780635ccadb881461058c57806362f18a69146105a257806364ea9f1d146105c25780636d4e75db146105d7578063715018a6146105f75780637bd075411461060c578063803bdca11461062c5780638456cb591461064c57806385a73627146106615780638b2014b6146106815780638da5cb5b1461069757806394653451146106b9578063958b87f9146106d9578063aa6446ce14610706578063b4464c4614610740578063ce4f7c4814610769578063cf7b960514610789578063cfcab38c146107a8578063d622e73e146107bd578063eb2bf876146107dd578063eb2dc9b6146107ff578063f2fde38b14610815578063fa83532914610835578063fb1b5c7b1461084b578063fcd1e90c1461086a575b600080fd5b34801561024a57600080fd5b5061025e610259366004614a88565b61088a565b60405190151581526020015b60405180910390f35b34801561027f57600080fd5b5061029361028e366004614b12565b610912565b005b3480156102a157600080fd5b506102936102b0366004614b94565b61095e565b3480156102c157600080fd5b5060605b60405161026a9190614bed565b3480156102de57600080fd5b506102936102ed366004614c4b565b61098a565b3480156102fe57600080fd5b5061031261030d366004614c9f565b6109c9565b60405190815260200161026a565b34801561032c57600080fd5b5061034061033b366004614cca565b610a3c565b60405161026a9190614d03565b34801561035957600080fd5b50610293610368366004614d43565b610d05565b34801561037957600080fd5b50610293610388366004614d5c565b610d41565b34801561039957600080fd5b506102c5610d7d565b3480156103ae57600080fd5b506102936103bd366004614c9f565b610f47565b3480156103ce57600080fd5b506102936103dd366004614c9f565b610f95565b3480156103ee57600080fd5b506102936103fd366004614d92565b61105b565b34801561040e57600080fd5b5061029361041d366004614c4b565b6110d6565b34801561042e57600080fd5b5061029361043d366004614dcd565b611110565b34801561044e57600080fd5b50610293611140565b34801561046357600080fd5b50610312610472366004614cca565b611179565b34801561048357600080fd5b50610497610492366004614b94565b6111e0565b60405162ffffff909116815260200161026a565b3480156104b757600080fd5b506103406104c6366004614cca565b606092915050565b3480156104da57600080fd5b506104976104e9366004614b94565b6111f5565b6102936104fc366004614e3b565b61121c565b34801561050d57600080fd5b5061029361051c366004614b94565b6112d6565b34801561052d57600080fd5b5061031261130f565b34801561054257600080fd5b50610567604051806040016040528060058152602001640322e302e360dc1b81525081565b60405161026a9190614f56565b34801561058057600080fd5b5060975460ff1661025e565b34801561059857600080fd5b5061018b54610312565b3480156105ae57600080fd5b506102936105bd366004614dcd565b6113bd565b3480156105ce57600080fd5b506103126113ed565b3480156105e357600080fd5b506102936105f2366004614f69565b611461565b34801561060357600080fd5b5061029361149b565b34801561061857600080fd5b50610497610627366004614b94565b6114d4565b34801561063857600080fd5b50610293610647366004614f69565b6114ea565b34801561065857600080fd5b50610293611524565b34801561066d57600080fd5b5061029361067c366004614d43565b61155b565b34801561068d57600080fd5b5061018c54610312565b3480156106a357600080fd5b506106ac611594565b60405161026a9190614f89565b3480156106c557600080fd5b506104976106d4366004614b94565b6115a3565b3480156106e557600080fd5b506106ac6106f4366004614b94565b5050610162546001600160a01b031690565b34801561071257600080fd5b506105676040518060400160405280600e81526020016d5465737420706f7274666f6c696f60901b81525081565b34801561074c57600080fd5b5061049761075b366004614b94565b505061015f5462ffffff1690565b34801561077557600080fd5b50610293610784366004614f69565b6115b8565b34801561079557600080fd5b50610196546001600160a01b03166106ac565b3480156107b457600080fd5b506105676115f2565b3480156107c957600080fd5b506104976107d8366004614b94565b61160e565b3480156107e957600080fd5b506107f2611629565b60405161026a9190614fe5565b34801561080b57600080fd5b5061016154610312565b34801561082157600080fd5b50610293610830366004614c9f565b611858565b34801561084157600080fd5b5061016054610312565b34801561085757600080fd5b50610197546001600160a01b03166106ac565b34801561087657600080fd5b50610293610885366004614c4b565b6118f5565b60006001600160e01b03198216630491473760e41b14806108bb57506001600160e01b03198216632979dc6560e11b145b806108d657506001600160e01b03198216631a6153f360e01b145b806108f157506001600160e01b03198216631564e6d560e11b145b8061090c57506301ffc9a760e01b6001600160e01b03198316145b92915050565b3361091b611594565b6001600160a01b03161461094a5760405162461bcd60e51b815260040161094190615091565b60405180910390fd5b610957858585858561193e565b5050505050565b600260fb5414156109815760405162461bcd60e51b8152600401610941906150c6565b5050600160fb55565b33610993611594565b6001600160a01b0316146109b95760405162461bcd60e51b815260040161094190615091565b6109c4838383611ab7565b505050565b610196546040516370a0823160e01b81526000916001600160a01b0316906370a08231906109fb908590600401614f89565b602060405180830381865afa158015610a18573d6000803e3d6000fd5b505050506040513d601f19601f8201168201806040525081019061090c91906150fd565b610195546060906000816001600160401b03811115610a5d57610a5d614e25565b604051908082528060200260200182016040528015610aa257816020015b6040805180820190915260008082526020820152815260200190600190039081610a7b5790505b50905060005b82811015610cfc5760006101958281548110610ac657610ac6615116565b906000526020600020906003020160000160009054906101000a90046001600160a01b031690506040518060400160405280826001600160a01b03168152602001826001600160a01b03166364ea9f1d6040518163ffffffff1660e01b8152600401602060405180830381865afa158015610b45573d6000803e3d6000fd5b505050506040513d601f19601f82011682018060405250810190610b6991906150fd565b15610cc557826001600160a01b03166364ea9f1d6040518163ffffffff1660e01b8152600401602060405180830381865afa158015610bac573d6000803e3d6000fd5b505050506040513d601f19601f82011682018060405250810190610bd091906150fd565b60405163040ebf9f60e31b81526001600160a01b03851690632075fcf890610bfc903090600401614f89565b602060405180830381865afa158015610c19573d6000803e3d6000fd5b505050506040513d601f19601f82011682018060405250810190610c3d91906150fd565b60405163402cb4d160e01b81526001600160a01b0386169063402cb4d190610c6b908e908e9060040161512c565b602060405180830381865afa158015610c88573d6000803e3d6000fd5b505050506040513d601f19601f82011682018060405250810190610cac91906150fd565b610cb69190615154565b610cc09190615173565b610cc8565b60005b815250838381518110610cdd57610cdd615116565b6020026020010181905250508080610cf490615195565b915050610aa8565b50949350505050565b33610d0e611594565b6001600160a01b031614610d345760405162461bcd60e51b815260040161094190615091565b610d3e8161018c55565b50565b33610d4a611594565b6001600160a01b031614610d705760405162461bcd60e51b815260040161094190615091565b6109578585858585611b54565b610195546060906000816001600160401b03811115610d9e57610d9e614e25565b604051908082528060200260200182016040528015610de357816020015b6040805180820190915260008082526020820152815260200190600190039081610dbc5790505b50905060005b82811015610f405760006101958281548110610e0757610e07615116565b600091825260208083206003909202909101546040805163cf7b960560e01b815290516001600160a01b039092169450849263cf7b9605926004808401938290030181865afa158015610e5e573d6000803e3d6000fd5b505050506040513d601f19601f82011682018060405250810190610e8291906151b0565b90506040518060400160405280826001600160a01b03168152602001826001600160a01b03166370a08231306040518263ffffffff1660e01b8152600401610eca9190614f89565b602060405180830381865afa158015610ee7573d6000803e3d6000fd5b505050506040513d601f19601f82011682018060405250810190610f0b91906150fd565b815250848481518110610f2057610f20615116565b602002602001018190525050508080610f3890615195565b915050610de9565b5092915050565b33610f50611594565b6001600160a01b031614610f765760405162461bcd60e51b815260040161094190615091565b61019680546001600160a01b0319166001600160a01b03831617905550565b306001600160a01b037f0000000000000000000000000000000000000000000000000000000000000000161415610fde5760405162461bcd60e51b8152600401610941906151cd565b7f00000000000000000000000000000000000000000000000000000000000000006001600160a01b0316611010612339565b6001600160a01b0316146110365760405162461bcd60e51b815260040161094190615207565b61103f81612355565b60408051600080825260208201909252610d3e91839190612384565b60026000611068826124ef565b90508015611080576000805461ff0019166101001790555b6110898361257e565b80156109c4576000805461ff001916905560405160ff831681527f7f26b83ff96e1f2b6a682f133852f6798a09c465da95921460cefb3847402498906020015b60405180910390a1505050565b336110df611594565b6001600160a01b0316146111055760405162461bcd60e51b815260040161094190615091565b6109c48383836125b6565b60975460ff16156111335760405162461bcd60e51b815260040161094190615241565b6109578585858585612631565b33611149611594565b6001600160a01b03161461116f5760405162461bcd60e51b815260040161094190615091565b6111776129ef565b565b60008060006111888585610a3c565b805190915060005b818110156111d5578281815181106111aa576111aa615116565b602002602001015160200151846111c1919061526b565b9350806111cd81615195565b915050611190565b509195945050505050565b505061015f546301000000900462ffffff1690565b600061120183836115a3565b61120b8484612a7c565b6112159190615283565b9392505050565b306001600160a01b037f00000000000000000000000000000000000000000000000000000000000000001614156112655760405162461bcd60e51b8152600401610941906151cd565b7f00000000000000000000000000000000000000000000000000000000000000006001600160a01b0316611297612339565b6001600160a01b0316146112bd5760405162461bcd60e51b815260040161094190615207565b6112c682612355565b6112d282826001612384565b5050565b336112df611594565b6001600160a01b0316146113055760405162461bcd60e51b815260040161094190615091565b6112d28282612a8a565b6000306001600160a01b037f000000000000000000000000000000000000000000000000000000000000000016146113aa5760405162461bcd60e51b815260206004820152603860248201527f555550535570677261646561626c653a206d757374206e6f742062652063616c6044820152771b1959081d1a1c9bdd59da0819195b1959d85d1958d85b1b60421b6064820152608401610941565b5060008051602061576983398151915290565b60975460ff16156113e05760405162461bcd60e51b815260040161094190615241565b6109578585858585612bf8565b61019654604080516318160ddd60e01b815290516000926001600160a01b0316916318160ddd9160048083019260209291908290030181865afa158015611438573d6000803e3d6000fd5b505050506040513d601f19601f8201168201806040525081019061145c91906150fd565b905090565b3361146a611594565b6001600160a01b0316146114905760405162461bcd60e51b815260040161094190615091565b6109c4838383613077565b336114a4611594565b6001600160a01b0316146114ca5760405162461bcd60e51b815260040161094190615091565b6111776000613252565b60006114e083836111e0565b61120b84846132a4565b336114f3611594565b6001600160a01b0316146115195760405162461bcd60e51b815260040161094190615091565b6109c48383836132b2565b3361152d611594565b6001600160a01b0316146115535760405162461bcd60e51b815260040161094190615091565b61117761332a565b33611564611594565b6001600160a01b03161461158a5760405162461bcd60e51b815260040161094190615091565b610d3e8161018b55565b60c9546001600160a01b031690565b505061015f54600160301b900462ffffff1690565b336115c1611594565b6001600160a01b0316146115e75760405162461bcd60e51b815260040161094190615091565b6109c4838383613382565b6040518060600160405280602d81526020016157b0602d913981565b600061161f61015f5462ffffff1690565b61120b8484613448565b6060610195805480602002602001604051908101604052809291908181526020016000905b8282101561184f5760008481526020808220604080516080810182526003870290920180546001600160a01b0381168452600160a01b900462ffffff168385015260018101805483518187028101870185528181529496929593870194939192909184015b8282101561175f5783829060005260206000200180546116d2906152aa565b80601f01602080910402602001604051908101604052809291908181526020018280546116fe906152aa565b801561174b5780601f106117205761010080835404028352916020019161174b565b820191906000526020600020905b81548152906001019060200180831161172e57829003601f168201915b5050505050815260200190600101906116b3565b50505050815260200160028201805480602002602001604051908101604052809291908181526020016000905b828210156118385783829060005260206000200180546117ab906152aa565b80601f01602080910402602001604051908101604052809291908181526020018280546117d7906152aa565b80156118245780601f106117f957610100808354040283529160200191611824565b820191906000526020600020905b81548152906001019060200180831161180757829003601f168201915b50505050508152602001906001019061178c565b50505050815250508152602001906001019061164e565b50505050905090565b33611861611594565b6001600160a01b0316146118875760405162461bcd60e51b815260040161094190615091565b6001600160a01b0381166118ec5760405162461bcd60e51b815260206004820152602660248201527f4f776e61626c653a206e6577206f776e657220697320746865207a65726f206160448201526564647265737360d01b6064820152608401610941565b610d3e81613252565b336118fe611594565b6001600160a01b0316146119245760405162461bcd60e51b815260040161094190615091565b6109c4838383613813565b6001600160a01b03163b151590565b611947856138a2565b1561196557604051630b571eb360e11b815260040160405180910390fd5b60008061197284846138b8565b60408051608081019091526001600160a01b038a1681529193509150610195906020810188886119a36001826152e5565b8181106119b2576119b2615116565b90506020020160208101906119c791906152fc565b62ffffff9081168252602080830187905260409283018690528454600181810187556000968752958290208551600390920201805486840151909416600160a01b026001600160b81b03199094166001600160a01b039092169190911792909217825591830151805193949193611a4693928501929190910190614850565b5060608201518051611a62916002840191602090910190614850565b505050611a6f8686612a8a565b7fa4c19d80e4b75115912f2b1db9863466462140d4bb4aea447b687921fbf3103f8787878787604051611aa695949392919061546c565b60405180910390a150505050505050565b82611ac56103e86064615154565b8162ffffff1610611ae9576040516303689ded60e51b815260040160405180910390fd5b61015f805465ffffff0000001916630100000062ffffff878116820292909217928390556040517f562ffa77d0627a8704e5d9641e53b90a135392b6fb458b619c3cf64555a0adea93611b469392900490911690869086906154b0565b60405180910390a150505050565b600260fb541415611b775760405162461bcd60e51b8152600401610941906150c6565b600260fb81905550611baa6040518060800160405280600081526020016000815260200160008152602001600081525090565b610195546060611bb8613a83565b808552909150611bca5750505061232d565b6000826001600160401b03811115611be457611be4614e25565b604051908082528060200260200182016040528015611c0d578160200160208202803683370190505b50905060005b83811015611ca45760646103e861ffff166101958381548110611c3857611c38615116565b60009182526020909120600390910201548751611c6191600160a01b900462ffffff1690615154565b611c6b9190615173565b611c759190615173565b828281518110611c8757611c87615116565b602090810291909101015280611c9c81615195565b915050611c13565b50610197546040516370a0823160e01b81526001600160a01b03909116906370a0823190611cd6903090600401614f89565b602060405180830381865afa158015611cf3573d6000803e3d6000fd5b505050506040513d601f19601f82011682018060405250810190611d1791906150fd565b604085015260005b838110156120385760006101958281548110611d3d57611d3d615116565b600091825260209091206003909102015483516001600160a01b039091169150839083908110611d6f57611d6f615116565b6020026020010151848381518110611d8957611d89615116565b60200260200101511115612025576000848381518110611dab57611dab615116565b6020026020010151848481518110611dc557611dc5615116565b6020026020010151836001600160a01b0316632075fcf8306040518263ffffffff1660e01b8152600401611df99190614f89565b602060405180830381865afa158015611e16573d6000803e3d6000fd5b505050506040513d601f19601f82011682018060405250810190611e3a91906150fd565b611e449190615154565b611e4e9190615173565b60405163040ebf9f60e31b81526001600160a01b03841690632075fcf890611e7a903090600401614f89565b602060405180830381865afa158015611e97573d6000803e3d6000fd5b505050506040513d601f19601f82011682018060405250810190611ebb91906150fd565b611ec591906152e5565b9050816001600160a01b031663cf7b96056040518163ffffffff1660e01b8152600401602060405180830381865afa158015611f05573d6000803e3d6000fd5b505050506040513d601f19601f82011682018060405250810190611f2991906151b0565b6001600160a01b031663095ea7b383836040518363ffffffff1660e01b8152600401611f569291906154cf565b6020604051808303816000875af1158015611f75573d6000803e3d6000fd5b505050506040513d601f19601f82011682018060405250810190611f9991906154e8565b50816001600160a01b03166362f18a69826000308d8d89818110611fbf57611fbf615116565b9050602002810190611fd19190615505565b6040518663ffffffff1660e01b8152600401611ff195949392919061554e565b600060405180830381600087803b15801561200b57600080fd5b505af115801561201f573d6000803e3d6000fd5b50505050505b508061203081615195565b915050611d1f565b506040808501516101975491516370a0823160e01b815290916001600160a01b0316906370a082319061206f903090600401614f89565b602060405180830381865afa15801561208c573d6000803e3d6000fd5b505050506040513d601f19601f820116820180604052508101906120b091906150fd565b6120ba91906152e5565b60408501819052606085015260005b838110156122cc57600061019582815481106120e7576120e7615116565b600091825260209091206003909102015483516001600160a01b03909116915083908390811061211957612119615116565b602002602001015184838151811061213357612133615116565b602002602001015110156122b957600061218e876060015186858151811061215d5761215d615116565b602002602001015186868151811061217757612177615116565b602002602001015161218991906152e5565b613d23565b9050801561229b576101975460405163095ea7b360e01b81526001600160a01b039091169063095ea7b3906121c990859085906004016154cf565b6020604051808303816000875af11580156121e8573d6000803e3d6000fd5b505050506040513d601f19601f8201168201806040525081019061220c91906154e8565b50816001600160a01b0316633c3129e3826000308f8f8981811061223257612232615116565b90506020028101906122449190615505565b6040518663ffffffff1660e01b815260040161226495949392919061554e565b600060405180830381600087803b15801561227e57600080fd5b505af1158015612292573d6000803e3d6000fd5b505050506122a2565b50506122cc565b80876060018181516122b491906152e5565b905250505b50806122c481615195565b9150506120c9565b506122d5613a83565b602086018190529092508911156122ff5760405163c327661d60e01b815260040160405180910390fd5b6040517ff57243a1fddfdc9fa2c7de26cc3503b1b94cfd4368d2b82d0970bfbb2fbce3a490600090a1505050505b5050600160fb55505050565b600080516020615769833981519152546001600160a01b031690565b3361235e611594565b6001600160a01b031614610d3e5760405162461bcd60e51b815260040161094190615091565b7f4910fdfa16fed3260ed0e7147f7cc6da11a60208b5b9406d12a635614ffd91435460ff16156123b7576109c483613d39565b826001600160a01b03166352d1902d6040518163ffffffff1660e01b8152600401602060405180830381865afa925050508015612411575060408051601f3d908101601f1916820190925261240e918101906150fd565b60015b6124745760405162461bcd60e51b815260206004820152602e60248201527f45524331393637557067726164653a206e657720696d706c656d656e7461746960448201526d6f6e206973206e6f74205555505360901b6064820152608401610941565b60008051602061576983398151915281146124e35760405162461bcd60e51b815260206004820152602960248201527f45524331393637557067726164653a20756e737570706f727465642070726f786044820152681a58589b195555525160ba1b6064820152608401610941565b506109c4838383613dd3565b60008054610100900460ff161561253d578160ff16600114801561251957506125173061192f565b155b6125355760405162461bcd60e51b81526004016109419061557c565b506000919050565b60005460ff8084169116106125645760405162461bcd60e51b81526004016109419061557c565b506000805460ff191660ff92909216919091179055600190565b600054610100900460ff166125a55760405162461bcd60e51b8152600401610941906155ca565b6125ad613dfe565b610d3e81613e2d565b826125c46103e86064615154565b8162ffffff16106125e8576040516303689ded60e51b815260040160405180910390fd5b61015f805462ffffff191662ffffff86169081179091556040517f7e81a23ec68969b22ae39faba6faa8633338046c205f9d04a30c8a0df04ca3b991611b4691869086906154b0565b600260fb5414156126545760405162461bcd60e51b8152600401610941906150c6565b600260fb5584612677576040516347aedd1b60e11b815260040160405180910390fd5b6001600160a01b03831661269e5760405163115fd31d60e31b815260040160405180910390fd5b60006126ac60016000611179565b90506000806126b96113ed565b905080156126e75760006126cc876109c9565b9050816126d98286615154565b6126e39190615173565b9250505b6126f18884613e65565b6126fb8883613e92565b61271433610197546001600160a01b031690308b613ebf565b6040518881526001600160a01b0387169033907f5548c837ab068cf56a2c2479df0882a4922fd203edb7517321831d95078c5f629060200160405180910390a360005b6101955481101561291357600060646103e861ffff16610195848154811061278157612781615116565b60009182526020909120600390910201546127a890600160a01b900462ffffff168d615154565b6127b29190615173565b6127bc9190615173565b9050806127c95750612901565b6101975461019580546001600160a01b039092169163095ea7b39190859081106127f5576127f5615116565b60009182526020909120600390910201546040516001600160e01b031960e084901b168152612832916001600160a01b03169085906004016154cf565b6020604051808303816000875af1158015612851573d6000803e3d6000fd5b505050506040513d601f19601f8201168201806040525081019061287591906154e8565b50610195828154811061288a5761288a615116565b60009182526020822060039091020154604051633c3129e360e01b81526001600160a01b0390911691633c3129e3916128cd91859130908d908d9060040161554e565b600060405180830381600087803b1580156128e757600080fd5b505af11580156128fb573d6000803e3d6000fd5b50505050505b8061290b81615195565b915050612757565b50600061292260016000611179565b9050600061293085836152e5565b90508061295057604051632f1b0c0f60e01b815260040160405180910390fd5b888110156129715760405163c327661d60e01b815260040160405180910390fd5b610196546001600160a01b03166340c10f198961298f888588613f2a565b6040518363ffffffff1660e01b81526004016129ac9291906154cf565b600060405180830381600087803b1580156129c657600080fd5b505af11580156129da573d6000803e3d6000fd5b5050600160fb55505050505050505050505050565b60975460ff16612a385760405162461bcd60e51b815260206004820152601460248201527314185d5cd8589b194e881b9bdd081c185d5cd95960621b6044820152606401610941565b6097805460ff191690557f5db9ee0a495bf2e6ff9c91a7834c1ba4fdd244a5e8aa4e537bd38aeae4b073aa335b604051612a729190614f89565b60405180910390a1565b600061121560028484613f55565b6101955460009082825b81811015612ae457858582818110612aae57612aae615116565b9050602002016020810190612ac391906152fc565b612ad29062ffffff168561526b565b9350612add81615195565b9050612a94565b50612af26103e86064615154565b8314612b115760405163a869135760e01b815260040160405180910390fd5b808214612b31576040516324e1450560e11b815260040160405180910390fd5b60005b82811015612bb757858582818110612b4e57612b4e615116565b9050602002016020810190612b6391906152fc565b6101958281548110612b7757612b77615116565b906000526020600020906003020160000160146101000a81548162ffffff021916908362ffffff1602179055508080612baf90615195565b915050612b34565b507f482790488fb971aceca78045a1987bda889926f371246027b565e5b8a97c076c8585604051612be9929190615615565b60405180910390a15050505050565b600260fb541415612c1b5760405162461bcd60e51b8152600401610941906150c6565b600260fb5584612c3e57604051636d8bee0b60e11b815260040160405180910390fd5b6001600160a01b038316612c65576040516314f3686160e11b815260040160405180910390fd5b610197546040516370a0823160e01b81526000916001600160a01b0316906370a0823190612c97903090600401614f89565b602060405180830381865afa158015612cb4573d6000803e3d6000fd5b505050506040513d601f19601f82011682018060405250810190612cd891906150fd565b90506001600160a01b038416336001600160a01b03167f2717ead6b9200dd235aad468c9809ea400fe33ac69b5bfaa6d3e90fc922b639888604051612d1f91815260200190565b60405180910390a36000612d316113ed565b905060005b61019554811015612f4d5760006101958281548110612d5757612d57615116565b6000918252602082206003909102015460405163040ebf9f60e31b81526001600160a01b03909116925084908b908490632075fcf890612d9b903090600401614f89565b602060405180830381865afa158015612db8573d6000803e3d6000fd5b505050506040513d601f19601f82011682018060405250810190612ddc91906150fd565b612de69190615154565b612df09190615173565b905080612dfe575050612f3b565b816001600160a01b031663cf7b96056040518163ffffffff1660e01b8152600401602060405180830381865afa158015612e3c573d6000803e3d6000fd5b505050506040513d601f19601f82011682018060405250810190612e6091906151b0565b6001600160a01b031663095ea7b383836040518363ffffffff1660e01b8152600401612e8d9291906154cf565b6020604051808303816000875af1158015612eac573d6000803e3d6000fd5b505050506040513d601f19601f82011682018060405250810190612ed091906154e8565b506040516362f18a6960e01b81526001600160a01b038316906362f18a6990612f0690849060009030908d908d9060040161554e565b600060405180830381600087803b158015612f2057600080fd5b505af1158015612f34573d6000803e3d6000fd5b5050505050505b80612f4581615195565b915050612d36565b50610197546040516370a0823160e01b815283916001600160a01b0316906370a0823190612f7f903090600401614f89565b602060405180830381865afa158015612f9c573d6000803e3d6000fd5b505050506040513d601f19601f82011682018060405250810190612fc091906150fd565b612fca91906152e5565b915085821015612fed5760405163c327661d60e01b815260040160405180910390fd5b610196546001600160a01b03166379cc679033896040518363ffffffff1660e01b815260040161301e9291906154cf565b600060405180830381600087803b15801561303857600080fd5b505af115801561304c573d6000803e3d6000fd5b50506101975461306992506001600160a01b031690508684614163565b5050600160fb555050505050565b600061308284614182565b90506000198114156130a757604051631339c0ab60e01b815260040160405180910390fd5b600061019582815481106130bd576130bd615116565b600091825260209091206003909102018054909150600160a01b900462ffffff16156130fc5760405163242e802b60e01b815260040160405180910390fd5b610195805461310d906001906152e5565b8154811061311d5761311d615116565b9060005260206000209060030201610195838154811061313f5761313f615116565b60009182526020909120825460039092020180546001600160a01b039092166001600160a01b031983168117825583546001600160b81b031990931617600160a01b9283900462ffffff16909202919091178155600180830180546131a792840191906148ad565b50600282810180546131bc92840191906148ad565b509050506101958054806131d2576131d2615629565b60008281526020812060036000199093019283020180546001600160b81b0319168155906132036001830182614903565b613211600283016000614903565b5050905561321f8484612a8a565b7f61aed98b969929f0db9787da6b0d94c396d15b19e58385894b37410be45c8c21858585604051612be99392919061563f565b60c980546001600160a01b038381166001600160a01b0319831681179093556040519116919082907f8be0079c531659141344cd1fd0a4f28419497f9722a3daafe3b4186f6b6457e090600090a35050565b600061121560008484613f55565b6001600160a01b0383166132d95760405163b6802b7f60e01b815260040160405180910390fd5b61016280546001600160a01b0319166001600160a01b0385169081179091556040517fa3fe39fe39850ddb39697065123e293302f3e8948984fde991b5a291ed1ad05b916110c99185908590615664565b60975460ff161561334d5760405162461bcd60e51b815260040161094190615241565b6097805460ff191660011790557f62e78cea01bee320cd4e420270b5ea74000d11b0c9f74754ebdbfc544b05a258612a653390565b600061338d84614182565b90506000198114156133b257604051631339c0ab60e01b815260040160405180910390fd5b600061019582815481106133c8576133c8615116565b906000526020600020906003020190506133e284846138b8565b805160018401906000906133ff9060028701906020860190614850565b5050825161341291906020850190614850565b5050507f1d56d93c6c64a0efeab05e521e74080ff659502658caf262c622cdfbf5c465b2858585604051612be993929190615664565b610195546000908190819081816001600160401b0381111561346c5761346c614e25565b604051908082528060200260200182016040528015613495578160200160208202803683370190505b50905060005b828110156136e457600061019582815481106134b9576134b9615116565b600091825260209182902060039091020154604080516364ea9f1d60e01b815290516001600160a01b03909216935083926364ea9f1d926004808401938290030181865afa15801561350f573d6000803e3d6000fd5b505050506040513d601f19601f8201168201806040525081019061353391906150fd565b156136d157806001600160a01b03166364ea9f1d6040518163ffffffff1660e01b8152600401602060405180830381865afa158015613576573d6000803e3d6000fd5b505050506040513d601f19601f8201168201806040525081019061359a91906150fd565b60405163040ebf9f60e31b81526001600160a01b03831690632075fcf8906135c6903090600401614f89565b602060405180830381865afa1580156135e3573d6000803e3d6000fd5b505050506040513d601f19601f8201168201806040525081019061360791906150fd565b60405163402cb4d160e01b81526001600160a01b0384169063402cb4d19061363690600090819060040161512c565b602060405180830381865afa158015613653573d6000803e3d6000fd5b505050506040513d601f19601f8201168201806040525081019061367791906150fd565b6136819190615154565b61368b9190615173565b83838151811061369d5761369d615116565b6020026020010181815250508282815181106136bb576136bb615116565b6020026020010151856136ce919061526b565b94505b50806136dc81615195565b91505061349b565b5082613701576136f660018888613f55565b94505050505061090c565b60005b82811015613806576000610195828154811061372257613722615116565b600091825260209091206003909102015483516001600160a01b039091169150859084908490811061375657613756615116565b6020026020010151826001600160a01b031663d622e73e8c8c6040518363ffffffff1660e01b815260040161378c929190615689565b602060405180830381865afa1580156137a9573d6000803e3d6000fd5b505050506040513d601f19601f820116820180604052508101906137cd919061569d565b62ffffff166137dc9190615154565b6137e69190615173565b6137f0908761526b565b95505080806137fe90615195565b915050613704565b508394505050505061090c565b826138216103e86064615154565b8162ffffff1610613845576040516303689ded60e51b815260040160405180910390fd5b61015f805462ffffff60301b1916600160301b62ffffff878116820292909217928390556040517f05f9aef0771b6541329b82ea24407357fc3ff0f457598588055f84a807dbdb8f93611b469392900490911690869086906154b0565b60006000196138b083614182565b141592915050565b60608082806001600160401b038111156138d4576138d4614e25565b60405190808252806020026020018201604052801561390757816020015b60608152602001906001900390816138f25790505b509250806001600160401b0381111561392257613922614e25565b60405190808252806020026020018201604052801561395557816020015b60608152602001906001900390816139405790505b50915060005b81811015613a7a5785858281811061397557613975615116565b905060200281019061398791906156ba565b61399190806156da565b8080601f01602080910402602001604051908101604052809392919081815260200183838082843760009201919091525050865187925084915081106139d9576139d9615116565b60200260200101819052508585828181106139f6576139f6615116565b9050602002810190613a0891906156ba565b613a169060208101906156da565b8080601f0160208091040260200160405190810160405280939291908181526020018383808284376000920191909152505085518692508491508110613a5e57613a5e615116565b602002602001018190525080613a7390615195565b905061395b565b50509250929050565b61019554606090600090806001600160401b03811115613aa557613aa5614e25565b604051908082528060200260200182016040528015613ace578160200160208202803683370190505b50925060005b81811015613d1d5760006101958281548110613af257613af2615116565b600091825260209182902060039091020154604080516364ea9f1d60e01b815290516001600160a01b03909216935083926364ea9f1d926004808401938290030181865afa158015613b48573d6000803e3d6000fd5b505050506040513d601f19601f82011682018060405250810190613b6c91906150fd565b15613d0a57806001600160a01b03166364ea9f1d6040518163ffffffff1660e01b8152600401602060405180830381865afa158015613baf573d6000803e3d6000fd5b505050506040513d601f19601f82011682018060405250810190613bd391906150fd565b60405163040ebf9f60e31b81526001600160a01b03831690632075fcf890613bff903090600401614f89565b602060405180830381865afa158015613c1c573d6000803e3d6000fd5b505050506040513d601f19601f82011682018060405250810190613c4091906150fd565b60405163402cb4d160e01b81526001600160a01b0384169063402cb4d190613c6f90600090819060040161512c565b602060405180830381865afa158015613c8c573d6000803e3d6000fd5b505050506040513d601f19601f82011682018060405250810190613cb091906150fd565b613cba9190615154565b613cc49190615173565b858381518110613cd657613cd6615116565b602002602001018181525050848281518110613cf457613cf4615116565b602002602001015184613d07919061526b565b93505b5080613d1581615195565b915050613ad4565b50509091565b6000818310613d325781611215565b5090919050565b613d428161192f565b613da45760405162461bcd60e51b815260206004820152602d60248201527f455243313936373a206e657720696d706c656d656e746174696f6e206973206e60448201526c1bdd08184818dbdb9d1c9858dd609a1b6064820152608401610941565b60008051602061576983398151915280546001600160a01b0319166001600160a01b0392909216919091179055565b613ddc836141ef565b600082511180613de95750805b156109c457613df8838361422f565b50505050565b600054610100900460ff16613e255760405162461bcd60e51b8152600401610941906155ca565b611177614321565b600054610100900460ff16613e545760405162461bcd60e51b8152600401610941906155ca565b613e5c614354565b610d3e81614383565b61018b54613e73828461526b565b11156112d25760405163b761799960e01b815260040160405180910390fd5b61018c54613ea0828461526b565b11156112d25760405163973cc40960e01b815260040160405180910390fd5b6040516001600160a01b0380851660248301528316604482015260648101829052613df89085906323b872dd60e01b906084015b60408051601f198184030181529190526020810180516001600160e01b03166001600160e01b0319909316929092179091526144b7565b600081613f38575081611215565b83613f438385615154565b613f4d9190615173565b949350505050565b610195546000908190815b818110156141405760006101958281548110613f7e57613f7e615116565b600091825260209091206003909102015461019580546001600160a01b0390921692509083908110613fb257613fb2615116565b6000918252602082206003909102015462ffffff600160a01b9091041690896002811115613fe257613fe2615720565b146140a2576001896002811115613ffb57613ffb615720565b1461407457604051634ab2d57b60e01b81526001600160a01b03831690634ab2d57b9061402e908b908b90600401615689565b602060405180830381865afa15801561404b573d6000803e3d6000fd5b505050506040513d601f19601f8201168201806040525081019061406f919061569d565b614111565b604051636b11739f60e11b81526001600160a01b0383169063d622e73e9061402e908b908b90600401615689565b604051637bd0754160e01b81526001600160a01b03831690637bd07541906140d0908b908b90600401615689565b602060405180830381865afa1580156140ed573d6000803e3d6000fd5b505050506040513d601f19601f82011682018060405250810190614111919061569d565b62ffffff166141209190615154565b61412a908561526b565b935050808061413890615195565b915050613f60565b50606461414f6103e884615173565b6141599190615173565b9695505050505050565b6109c48363a9059cbb60e01b8484604051602401613ef39291906154cf565b6000805b610195548110156141e557826001600160a01b031661019582815481106141af576141af615116565b60009182526020909120600390910201546001600160a01b031614156141d55792915050565b6141de81615195565b9050614186565b5060001992915050565b6141f881613d39565b6040516001600160a01b038216907fbc7cd75a20ee27fd9adebab32041f755214dbc6bffa90cc0225b39da2e5c2d3b90600090a250565b606061423a8361192f565b6142955760405162461bcd60e51b815260206004820152602660248201527f416464726573733a2064656c65676174652063616c6c20746f206e6f6e2d636f6044820152651b9d1c9858dd60d21b6064820152608401610941565b600080846001600160a01b0316846040516142b09190615736565b600060405180830381855af49150503d80600081146142eb576040519150601f19603f3d011682016040523d82523d6000602084013e6142f0565b606091505b5091509150614318828260405180606001604052806027815260200161578960279139614589565b95945050505050565b600054610100900460ff166143485760405162461bcd60e51b8152600401610941906155ca565b6097805460ff19169055565b600054610100900460ff1661437b5760405162461bcd60e51b8152600401610941906155ca565b6111776145c2565b600054610100900460ff166143aa5760405162461bcd60e51b8152600401610941906155ca565b6143b26145f2565b6143ba614621565b6143c2614621565b6144416143d560608301604084016152fc565b6143e26060840184615505565b6143f260a08601608087016152fc565b6143ff60a0870187615505565b61440f60e0890160c08a016152fc565b61441c60e08a018a615505565b61442e6101208c016101008d01614c9f565b61443c6101208d018d615505565b614648565b6144558161014001358261016001356146a9565b6144626020820182614c9f565b61019680546001600160a01b0319166001600160a01b03929092169190911790556144936040820160208301614c9f565b61019780546001600160a01b0319166001600160a01b039290921691909117905550565b600061450c826040518060400160405280602081526020017f5361666545524332303a206c6f772d6c6576656c2063616c6c206661696c6564815250856001600160a01b03166146e49092919063ffffffff16565b8051909150156109c4578080602001905181019061452a91906154e8565b6109c45760405162461bcd60e51b815260206004820152602a60248201527f5361666545524332303a204552433230206f7065726174696f6e20646964206e6044820152691bdd081cdd58d8d9595960b21b6064820152608401610941565b60608315614598575081611215565b8251156145a85782518084602001fd5b8160405162461bcd60e51b81526004016109419190614f56565b600054610100900460ff166145e95760405162461bcd60e51b8152600401610941906155ca565b61117733613252565b600054610100900460ff166146195760405162461bcd60e51b8152600401610941906155ca565b6111776146f3565b600054610100900460ff166111775760405162461bcd60e51b8152600401610941906155ca565b600054610100900460ff1661466f5760405162461bcd60e51b8152600401610941906155ca565b61467a8c8c8c611ab7565b6146858989896125b6565b614690868686613813565b61469b8383836132b2565b505050505050505050505050565b600054610100900460ff166146d05760405162461bcd60e51b8152600401610941906155ca565b6146da8261018b55565b6112d28161018c55565b6060613f4d8484600085614721565b600054610100900460ff1661471a5760405162461bcd60e51b8152600401610941906155ca565b600160fb55565b6060824710156147825760405162461bcd60e51b815260206004820152602660248201527f416464726573733a20696e73756666696369656e742062616c616e636520666f6044820152651c8818d85b1b60d21b6064820152608401610941565b61478b8561192f565b6147d75760405162461bcd60e51b815260206004820152601d60248201527f416464726573733a2063616c6c20746f206e6f6e2d636f6e74726163740000006044820152606401610941565b600080866001600160a01b031685876040516147f39190615736565b60006040518083038185875af1925050503d8060008114614830576040519150601f19603f3d011682016040523d82523d6000602084013e614835565b606091505b5091509150614845828286614589565b979650505050505050565b82805482825590600052602060002090810192821561489d579160200282015b8281111561489d578251805161488d918491602090910190614921565b5091602001919060010190614870565b506148a99291506149a1565b5090565b82805482825590600052602060002090810192821561489d5760005260206000209182015b8281111561489d5782829080546148e8906152aa565b6148f39291906149be565b50916001019190600101906148d2565b5080546000825590600052602060002090810190610d3e91906149a1565b82805461492d906152aa565b90600052602060002090601f01602090048101928261494f5760008555614995565b82601f1061496857805160ff1916838001178555614995565b82800160010185558215614995579182015b8281111561499557825182559160200191906001019061497a565b506148a9929150614a39565b808211156148a95760006149b58282614a4e565b506001016149a1565b8280546149ca906152aa565b90600052602060002090601f0160209004810192826149ec5760008555614995565b82601f106149fd5780548555614995565b8280016001018555821561499557600052602060002091601f016020900482015b82811115614995578254825591600101919060010190614a1e565b5b808211156148a95760008155600101614a3a565b508054614a5a906152aa565b6000825580601f10614a6a575050565b601f016020900490600052602060002090810190610d3e9190614a39565b600060208284031215614a9a57600080fd5b81356001600160e01b03198116811461121557600080fd5b6001600160a01b0381168114610d3e57600080fd5b60008083601f840112614ad957600080fd5b5081356001600160401b03811115614af057600080fd5b6020830191508360208260051b8501011115614b0b57600080fd5b9250929050565b600080600080600060608688031215614b2a57600080fd5b8535614b3581614ab2565b945060208601356001600160401b0380821115614b5157600080fd5b614b5d89838a01614ac7565b90965094506040880135915080821115614b7657600080fd5b50614b8388828901614ac7565b969995985093965092949392505050565b60008060208385031215614ba757600080fd5b82356001600160401b03811115614bbd57600080fd5b614bc985828601614ac7565b90969095509350505050565b80516001600160a01b03168252602090810151910152565b602080825282518282018190526000919060409081850190868401855b82811015614c2d57614c1d848351614bd5565b9284019290850190600101614c0a565b5091979650505050505050565b62ffffff81168114610d3e57600080fd5b600080600060408486031215614c6057600080fd5b8335614c6b81614c3a565b925060208401356001600160401b03811115614c8657600080fd5b614c9286828701614ac7565b9497909650939450505050565b600060208284031215614cb157600080fd5b813561121581614ab2565b8015158114610d3e57600080fd5b60008060408385031215614cdd57600080fd5b8235614ce881614cbc565b91506020830135614cf881614cbc565b809150509250929050565b602080825282518282018190526000919060409081850190868401855b82811015614c2d57614d33848351614bd5565b9284019290850190600101614d20565b600060208284031215614d5557600080fd5b5035919050565b600080600080600060608688031215614d7457600080fd5b8535945060208601356001600160401b0380821115614b5157600080fd5b600060208284031215614da457600080fd5b81356001600160401b03811115614dba57600080fd5b8201610180818503121561121557600080fd5b600080600080600060808688031215614de557600080fd5b85359450602086013593506040860135614dfe81614ab2565b925060608601356001600160401b03811115614e1957600080fd5b614b8388828901614ac7565b634e487b7160e01b600052604160045260246000fd5b60008060408385031215614e4e57600080fd5b8235614e5981614ab2565b915060208301356001600160401b0380821115614e7557600080fd5b818501915085601f830112614e8957600080fd5b813581811115614e9b57614e9b614e25565b604051601f8201601f19908116603f01168101908382118183101715614ec357614ec3614e25565b81604052828152886020848701011115614edc57600080fd5b8260208601602083013760006020848301015280955050505050509250929050565b60005b83811015614f19578181015183820152602001614f01565b83811115613df85750506000910152565b60008151808452614f42816020860160208601614efe565b601f01601f19169290920160200192915050565b6020815260006112156020830184614f2a565b600080600060408486031215614f7e57600080fd5b8335614c6b81614ab2565b6001600160a01b0391909116815260200190565b600081518084526020808501808196508360051b8101915082860160005b85811015614c2d578284038952614fd3848351614f2a565b98850198935090840190600101614fbb565b60006020808301818452808551808352604092508286019150828160051b87010184880160005b8381101561508357888303603f19018552815180516001600160a01b031684528781015162ffffff16888501528681015160808886018190529061505282870182614f9d565b9150506060808301519250858203818701525061506f8183614f9d565b96890196945050509086019060010161500c565b509098975050505050505050565b6020808252818101527f4f776e61626c653a2063616c6c6572206973206e6f7420746865206f776e6572604082015260600190565b6020808252601f908201527f5265656e7472616e637947756172643a207265656e7472616e742063616c6c00604082015260600190565b60006020828403121561510f57600080fd5b5051919050565b634e487b7160e01b600052603260045260246000fd5b91151582521515602082015260400190565b634e487b7160e01b600052601160045260246000fd5b600081600019048311821515161561516e5761516e61513e565b500290565b60008261519057634e487b7160e01b600052601260045260246000fd5b500490565b60006000198214156151a9576151a961513e565b5060010190565b6000602082840312156151c257600080fd5b815161121581614ab2565b6020808252602c9082015260008051602061574983398151915260408201526b19195b1959d85d1958d85b1b60a21b606082015260800190565b6020808252602c9082015260008051602061574983398151915260408201526b6163746976652070726f787960a01b606082015260800190565b60208082526010908201526f14185d5cd8589b194e881c185d5cd95960821b604082015260600190565b6000821982111561527e5761527e61513e565b500190565b600062ffffff8083168185168083038211156152a1576152a161513e565b01949350505050565b600181811c908216806152be57607f821691505b602082108114156152df57634e487b7160e01b600052602260045260246000fd5b50919050565b6000828210156152f7576152f761513e565b500390565b60006020828403121561530e57600080fd5b813561121581614c3a565b8183526000602080850194508260005b8581101561535357813561533c81614c3a565b62ffffff1687529582019590820190600101615329565b509495945050505050565b6000808335601e1984360301811261537557600080fd5b83016020810192503590506001600160401b0381111561539457600080fd5b803603831315614b0b57600080fd5b81835281816020850137506000828201602090810191909152601f909101601f19169091010190565b81835260006020808501808196508560051b81019150846000805b8881101561545e578385038a528235603e19893603018112615407578283fd5b88016040615415828061535e565b828952615425838a0182846153a3565b925050506154358883018361535e565b9250878203898901526154498284836153a3565b9c89019c9750505092860192506001016153e7565b509298975050505050505050565b6001600160a01b03861681526060602082018190526000906154919083018688615319565b82810360408401526154a48185876153cc565b98975050505050505050565b62ffffff841681526040602082015260006143186040830184866153cc565b6001600160a01b03929092168252602082015260400190565b6000602082840312156154fa57600080fd5b815161121581614cbc565b6000808335601e1984360301811261551c57600080fd5b8301803591506001600160401b0382111561553657600080fd5b6020019150600581901b3603821315614b0b57600080fd5b85815284602082015260018060a01b03841660408201526080606082015260006148456080830184866153cc565b6020808252602e908201527f496e697469616c697a61626c653a20636f6e747261637420697320616c72656160408201526d191e481a5b9a5d1a585b1a5e995960921b606082015260800190565b6020808252602b908201527f496e697469616c697a61626c653a20636f6e7472616374206973206e6f74206960408201526a6e697469616c697a696e6760a81b606082015260800190565b602081526000613f4d602083018486615319565b634e487b7160e01b600052603160045260246000fd5b6001600160a01b03841681526040602082018190526000906143189083018486615319565b6001600160a01b038416815260406020820181905260009061431890830184866153cc565b602081526000613f4d6020830184866153cc565b6000602082840312156156af57600080fd5b815161121581614c3a565b60008235603e198336030181126156d057600080fd5b9190910192915050565b6000808335601e198436030181126156f157600080fd5b8301803591506001600160401b0382111561570b57600080fd5b602001915036819003821315614b0b57600080fd5b634e487b7160e01b600052602160045260246000fd5b600082516156d0818460208701614efe56fe46756e6374696f6e206d7573742062652063616c6c6564207468726f75676820360894a13ba1a3210667c828492db98dca3e2076cc3735a920a3ca505d382bbc416464726573733a206c6f772d6c6576656c2064656c65676174652063616c6c206661696c656462726f6b6b722e746573745f706f7274666f6c696f2e3c696e7365727420676974206c6162656c20686572653ea264697066735822122002d7126c2d3379a3776eaf2d992c5f00cc51155beeda7d570e5fae9c33f92f6964736f6c634300080a0033",
  "linkReferences": {},
  "deployedLinkReferences": {}
}