{
  "_format": "hh-sol-artifact-1",
  "contractName": "Template",
  "sourceName": "contracts/strategies/template/Template.sol",
  "abi": [
    {
      "inputs": [],
      "stateMutability": "nonpayable",
      "type": "constructor"
    },
    {
      "inputs": [],
      "name": "InvalidFeeError",
      "type": "error"
    },
    {
      "inputs": [],
      "name": "InvalidSwapServiceProvider",
      "type": "error"
    },
    {
      "inputs": [],
      "name": "InvestmentLimitPerAddressExceeded",
      "type": "error"
    },
    {
      "inputs": [],
      "name": "TooSmallDepositTokenAmountOut",
      "type": "error"
    },
    {
      "inputs": [],
      "name": "TotalInvestmentLimitExceeded",
      "type": "error"
    },
    {
      "inputs": [],
      "name": "ZeroAmountDeposited",
      "type": "error"
    },
    {
      "inputs": [],
      "name": "ZeroAmountInvested",
      "type": "error"
    },
    {
      "inputs": [],
      "name": "ZeroAmountWithdrawn",
      "type": "error"
    },
    {
      "inputs": [],
      "name": "ZeroDepositTokenReceiver",
      "type": "error"
    },
    {
      "inputs": [],
      "name": "ZeroFeeReceiver",
      "type": "error"
    },
    {
      "inputs": [],
      "name": "ZeroInvestmentTokenReceiver",
      "type": "error"
    },
    {
      "anonymous": false,
      "inputs": [
        {
          "indexed": true,
          "internalType": "address",
          "name": "initiator",
          "type": "address"
        },
        {
          "indexed": true,
          "internalType": "address",
          "name": "investmentTokenReceiver",
          "type": "address"
        },
        {
          "indexed": false,
          "internalType": "uint256",
          "name": "amount",
          "type": "uint256"
        }
      ],
      "name": "Deposit",
      "type": "event"
    },
    {
      "anonymous": false,
      "inputs": [
        {
          "indexed": false,
          "internalType": "uint256",
          "name": "fee",
          "type": "uint256"
        },
        {
          "components": [
            {
              "internalType": "string",
              "name": "key",
              "type": "string"
            },
            {
              "internalType": "string",
              "name": "value",
              "type": "string"
            }
          ],
          "indexed": false,
          "internalType": "struct NameValuePair[]",
          "name": "params",
          "type": "tuple[]"
        }
      ],
      "name": "DepositFeeChange",
      "type": "event"
    },
    {
      "anonymous": false,
      "inputs": [
        {
          "indexed": false,
          "internalType": "uint256",
          "name": "fee",
          "type": "uint256"
        }
      ],
      "name": "FeeClaim",
      "type": "event"
    },
    {
      "anonymous": false,
      "inputs": [
        {
          "indexed": false,
          "internalType": "address",
          "name": "feeReceiver",
          "type": "address"
        },
        {
          "components": [
            {
              "internalType": "string",
              "name": "key",
              "type": "string"
            },
            {
              "internalType": "string",
              "name": "value",
              "type": "string"
            }
          ],
          "indexed": false,
          "internalType": "struct NameValuePair[]",
          "name": "params",
          "type": "tuple[]"
        }
      ],
      "name": "FeeReceiverChange",
      "type": "event"
    },
    {
      "anonymous": false,
      "inputs": [
        {
          "indexed": false,
          "internalType": "uint8",
          "name": "version",
          "type": "uint8"
        }
      ],
      "name": "Initialized",
      "type": "event"
    },
    {
      "anonymous": false,
      "inputs": [
        {
          "indexed": true,
          "internalType": "address",
          "name": "previousOwner",
          "type": "address"
        },
        {
          "indexed": true,
          "internalType": "address",
          "name": "newOwner",
          "type": "address"
        }
      ],
      "name": "OwnershipTransferred",
      "type": "event"
    },
    {
      "anonymous": false,
      "inputs": [
        {
          "indexed": false,
          "internalType": "address",
          "name": "account",
          "type": "address"
        }
      ],
      "name": "Paused",
      "type": "event"
    },
    {
      "anonymous": false,
      "inputs": [
        {
          "indexed": false,
          "internalType": "uint256",
          "name": "fee",
          "type": "uint256"
        },
        {
          "components": [
            {
              "internalType": "string",
              "name": "key",
              "type": "string"
            },
            {
              "internalType": "string",
              "name": "value",
              "type": "string"
            }
          ],
          "indexed": false,
          "internalType": "struct NameValuePair[]",
          "name": "params",
          "type": "tuple[]"
        }
      ],
      "name": "PerformanceFeeChange",
      "type": "event"
    },
    {
      "anonymous": false,
      "inputs": [
        {
          "indexed": false,
          "internalType": "uint256",
          "name": "amount",
          "type": "uint256"
        }
      ],
      "name": "RewardProcess",
      "type": "event"
    },
    {
      "anonymous": false,
      "inputs": [
        {
          "indexed": true,
          "internalType": "address",
          "name": "withdrawer",
          "type": "address"
        },
        {
          "indexed": false,
          "internalType": "uint256",
          "name": "amount",
          "type": "uint256"
        }
      ],
      "name": "RewardWithdraw",
      "type": "event"
    },
    {
      "anonymous": false,
      "inputs": [
        {
          "indexed": false,
          "internalType": "address",
          "name": "account",
          "type": "address"
        }
      ],
      "name": "Unpaused",
      "type": "event"
    },
    {
      "anonymous": false,
      "inputs": [
        {
          "indexed": true,
          "internalType": "address",
          "name": "initiator",
          "type": "address"
        },
        {
          "indexed": true,
          "internalType": "address",
          "name": "depositTokenReceiver",
          "type": "address"
        },
        {
          "indexed": false,
          "internalType": "uint256",
          "name": "amount",
          "type": "uint256"
        }
      ],
      "name": "Withdrawal",
      "type": "event"
    },
    {
      "anonymous": false,
      "inputs": [
        {
          "indexed": false,
          "internalType": "uint256",
          "name": "fee",
          "type": "uint256"
        },
        {
          "components": [
            {
              "internalType": "string",
              "name": "key",
              "type": "string"
            },
            {
              "internalType": "string",
              "name": "value",
              "type": "string"
            }
          ],
          "indexed": false,
          "internalType": "struct NameValuePair[]",
          "name": "params",
          "type": "tuple[]"
        }
      ],
      "name": "WithdrawalFeeChange",
      "type": "event"
    },
    {
      "inputs": [
        {
          "components": [
            {
              "internalType": "string",
              "name": "key",
              "type": "string"
            },
            {
              "internalType": "string",
              "name": "value",
              "type": "string"
            }
          ],
          "internalType": "struct NameValuePair[]",
          "name": "",
          "type": "tuple[]"
        }
      ],
      "name": "claimFee",
      "outputs": [],
      "stateMutability": "nonpayable",
      "type": "function"
    },
    {
      "inputs": [
        {
          "internalType": "uint256",
          "name": "depositTokenAmountIn",
          "type": "uint256"
        },
        {
          "internalType": "uint256",
          "name": "minimumDepositTokenAmountOut",
          "type": "uint256"
        },
        {
          "internalType": "address",
          "name": "investmentTokenReceiver",
          "type": "address"
        },
        {
          "components": [
            {
              "internalType": "string",
              "name": "key",
              "type": "string"
            },
            {
              "internalType": "string",
              "name": "value",
              "type": "string"
            }
          ],
          "internalType": "struct NameValuePair[]",
          "name": "params",
          "type": "tuple[]"
        }
      ],
      "name": "deposit",
      "outputs": [],
      "stateMutability": "nonpayable",
      "type": "function"
    },
    {
      "inputs": [],
      "name": "getAssetBalances",
      "outputs": [
        {
          "components": [
            {
              "internalType": "address",
              "name": "asset",
              "type": "address"
            },
            {
              "internalType": "uint256",
              "name": "balance",
              "type": "uint256"
            }
          ],
          "internalType": "struct IAum.Balance[]",
          "name": "balances",
          "type": "tuple[]"
        }
      ],
      "stateMutability": "view",
      "type": "function"
    },
    {
      "inputs": [
        {
          "internalType": "bool",
          "name": "shouldMaximise",
          "type": "bool"
        },
        {
          "internalType": "bool",
          "name": "shouldIncludeAmmPrice",
          "type": "bool"
        }
      ],
      "name": "getAssetValuations",
      "outputs": [
        {
          "components": [
            {
              "internalType": "address",
              "name": "asset",
              "type": "address"
            },
            {
              "internalType": "uint256",
              "name": "valuation",
              "type": "uint256"
            }
          ],
          "internalType": "struct IAum.Valuation[]",
          "name": "valuations",
          "type": "tuple[]"
        }
      ],
      "stateMutability": "view",
      "type": "function"
    },
    {
      "inputs": [],
      "name": "getClaimedFee",
      "outputs": [
        {
          "internalType": "uint256",
          "name": "",
          "type": "uint256"
        }
      ],
      "stateMutability": "view",
      "type": "function"
    },
    {
      "inputs": [],
      "name": "getCurrentAccumulatedFee",
      "outputs": [
        {
          "internalType": "uint256",
          "name": "",
          "type": "uint256"
        }
      ],
      "stateMutability": "view",
      "type": "function"
    },
    {
      "inputs": [
        {
          "components": [
            {
              "internalType": "string",
              "name": "key",
              "type": "string"
            },
            {
              "internalType": "string",
              "name": "value",
              "type": "string"
            }
          ],
          "internalType": "struct NameValuePair[]",
          "name": "",
          "type": "tuple[]"
        }
      ],
      "name": "getDepositFee",
      "outputs": [
        {
          "internalType": "uint24",
          "name": "",
          "type": "uint24"
        }
      ],
      "stateMutability": "view",
      "type": "function"
    },
    {
      "inputs": [],
      "name": "getDepositToken",
      "outputs": [
        {
          "internalType": "contract IERC20Upgradeable",
          "name": "",
          "type": "address"
        }
      ],
      "stateMutability": "view",
      "type": "function"
    },
    {
      "inputs": [
        {
          "internalType": "bool",
          "name": "shouldMaximise",
          "type": "bool"
        },
        {
          "internalType": "bool",
          "name": "shouldIncludeAmmPrice",
          "type": "bool"
        }
      ],
      "name": "getEquityValuation",
      "outputs": [
        {
          "internalType": "uint256",
          "name": "",
          "type": "uint256"
        }
      ],
      "stateMutability": "view",
      "type": "function"
    },
    {
      "inputs": [
        {
          "components": [
            {
              "internalType": "string",
              "name": "key",
              "type": "string"
            },
            {
              "internalType": "string",
              "name": "value",
              "type": "string"
            }
          ],
          "internalType": "struct NameValuePair[]",
          "name": "",
          "type": "tuple[]"
        }
      ],
      "name": "getFeeReceiver",
      "outputs": [
        {
          "internalType": "address",
          "name": "",
          "type": "address"
        }
      ],
      "stateMutability": "view",
      "type": "function"
    },
    {
      "inputs": [],
      "name": "getInvestmentLimitPerAddress",
      "outputs": [
        {
          "internalType": "uint256",
          "name": "",
          "type": "uint256"
        }
      ],
      "stateMutability": "view",
      "type": "function"
    },
    {
      "inputs": [],
      "name": "getInvestmentToken",
      "outputs": [
        {
          "internalType": "contract IInvestmentToken",
          "name": "",
          "type": "address"
        }
      ],
      "stateMutability": "view",
      "type": "function"
    },
    {
      "inputs": [
        {
          "internalType": "address",
          "name": "account",
          "type": "address"
        }
      ],
      "name": "getInvestmentTokenBalanceOf",
      "outputs": [
        {
          "internalType": "uint256",
          "name": "",
          "type": "uint256"
        }
      ],
      "stateMutability": "view",
      "type": "function"
    },
    {
      "inputs": [],
      "name": "getInvestmentTokenSupply",
      "outputs": [
        {
          "internalType": "uint256",
          "name": "",
          "type": "uint256"
        }
      ],
      "stateMutability": "view",
      "type": "function"
    },
    {
      "inputs": [],
      "name": "getLiabilityBalances",
      "outputs": [
        {
          "components": [
            {
              "internalType": "address",
              "name": "asset",
              "type": "address"
            },
            {
              "internalType": "uint256",
              "name": "balance",
              "type": "uint256"
            }
          ],
          "internalType": "struct IAum.Balance[]",
          "name": "balances",
          "type": "tuple[]"
        }
      ],
      "stateMutability": "view",
      "type": "function"
    },
    {
      "inputs": [
        {
          "internalType": "bool",
          "name": "shouldMaximise",
          "type": "bool"
        },
        {
          "internalType": "bool",
          "name": "shouldIncludeAmmPrice",
          "type": "bool"
        }
      ],
      "name": "getLiabilityValuations",
      "outputs": [
        {
          "components": [
            {
              "internalType": "address",
              "name": "asset",
              "type": "address"
            },
            {
              "internalType": "uint256",
              "name": "valuation",
              "type": "uint256"
            }
          ],
          "internalType": "struct IAum.Valuation[]",
          "name": "",
          "type": "tuple[]"
        }
      ],
      "stateMutability": "view",
      "type": "function"
    },
    {
      "inputs": [
        {
          "components": [
            {
              "internalType": "string",
              "name": "key",
              "type": "string"
            },
            {
              "internalType": "string",
              "name": "value",
              "type": "string"
            }
          ],
          "internalType": "struct NameValuePair[]",
          "name": "",
          "type": "tuple[]"
        }
      ],
      "name": "getPerformanceFee",
      "outputs": [
        {
          "internalType": "uint24",
          "name": "",
          "type": "uint24"
        }
      ],
      "stateMutability": "view",
      "type": "function"
    },
    {
      "inputs": [
        {
          "components": [
            {
              "internalType": "string",
              "name": "key",
              "type": "string"
            },
            {
              "internalType": "string",
              "name": "value",
              "type": "string"
            }
          ],
          "internalType": "struct NameValuePair[]",
          "name": "params",
          "type": "tuple[]"
        }
      ],
      "name": "getTotalDepositFee",
      "outputs": [
        {
          "internalType": "uint24",
          "name": "",
          "type": "uint24"
        }
      ],
      "stateMutability": "view",
      "type": "function"
    },
    {
      "inputs": [],
      "name": "getTotalInvestmentLimit",
      "outputs": [
        {
          "internalType": "uint256",
          "name": "",
          "type": "uint256"
        }
      ],
      "stateMutability": "view",
      "type": "function"
    },
    {
      "inputs": [
        {
          "components": [
            {
              "internalType": "string",
              "name": "key",
              "type": "string"
            },
            {
              "internalType": "string",
              "name": "value",
              "type": "string"
            }
          ],
          "internalType": "struct NameValuePair[]",
          "name": "params",
          "type": "tuple[]"
        }
      ],
      "name": "getTotalPerformanceFee",
      "outputs": [
        {
          "internalType": "uint24",
          "name": "",
          "type": "uint24"
        }
      ],
      "stateMutability": "view",
      "type": "function"
    },
    {
      "inputs": [
        {
          "components": [
            {
              "internalType": "string",
              "name": "key",
              "type": "string"
            },
            {
              "internalType": "string",
              "name": "value",
              "type": "string"
            }
          ],
          "internalType": "struct NameValuePair[]",
          "name": "params",
          "type": "tuple[]"
        }
      ],
      "name": "getTotalWithdrawalFee",
      "outputs": [
        {
          "internalType": "uint24",
          "name": "",
          "type": "uint24"
        }
      ],
      "stateMutability": "view",
      "type": "function"
    },
    {
      "inputs": [
        {
          "components": [
            {
              "internalType": "string",
              "name": "key",
              "type": "string"
            },
            {
              "internalType": "string",
              "name": "value",
              "type": "string"
            }
          ],
          "internalType": "struct NameValuePair[]",
          "name": "",
          "type": "tuple[]"
        }
      ],
      "name": "getWithdrawalFee",
      "outputs": [
        {
          "internalType": "uint24",
          "name": "",
          "type": "uint24"
        }
      ],
      "stateMutability": "view",
      "type": "function"
    },
    {
      "inputs": [],
      "name": "humanReadableName",
      "outputs": [
        {
          "internalType": "string",
          "name": "",
          "type": "string"
        }
      ],
      "stateMutability": "view",
      "type": "function"
    },
    {
      "inputs": [
        {
          "components": [
            {
              "internalType": "contract IInvestmentToken",
              "name": "investmentToken",
              "type": "address"
            },
            {
              "internalType": "contract IERC20Upgradeable",
              "name": "depositToken",
              "type": "address"
            },
            {
              "internalType": "uint24",
              "name": "depositFee",
              "type": "uint24"
            },
            {
              "components": [
                {
                  "internalType": "string",
                  "name": "key",
                  "type": "string"
                },
                {
                  "internalType": "string",
                  "name": "value",
                  "type": "string"
                }
              ],
              "internalType": "struct NameValuePair[]",
              "name": "depositFeeParams",
              "type": "tuple[]"
            },
            {
              "internalType": "uint24",
              "name": "withdrawalFee",
              "type": "uint24"
            },
            {
              "components": [
                {
                  "internalType": "string",
                  "name": "key",
                  "type": "string"
                },
                {
                  "internalType": "string",
                  "name": "value",
                  "type": "string"
                }
              ],
              "internalType": "struct NameValuePair[]",
              "name": "withdrawFeeParams",
              "type": "tuple[]"
            },
            {
              "internalType": "uint24",
              "name": "performanceFee",
              "type": "uint24"
            },
            {
              "components": [
                {
                  "internalType": "string",
                  "name": "key",
                  "type": "string"
                },
                {
                  "internalType": "string",
                  "name": "value",
                  "type": "string"
                }
              ],
              "internalType": "struct NameValuePair[]",
              "name": "performanceFeeParams",
              "type": "tuple[]"
            },
            {
              "internalType": "address",
              "name": "feeReceiver",
              "type": "address"
            },
            {
              "components": [
                {
                  "internalType": "string",
                  "name": "key",
                  "type": "string"
                },
                {
                  "internalType": "string",
                  "name": "value",
                  "type": "string"
                }
              ],
              "internalType": "struct NameValuePair[]",
              "name": "feeReceiverParams",
              "type": "tuple[]"
            },
            {
              "internalType": "uint256",
              "name": "totalInvestmentLimit",
              "type": "uint256"
            },
            {
              "internalType": "uint256",
              "name": "investmentLimitPerAddress",
              "type": "uint256"
            },
            {
              "internalType": "contract IPriceOracle",
              "name": "priceOracle",
              "type": "address"
            },
            {
              "internalType": "uint8",
              "name": "swapServiceProvider",
              "type": "uint8"
            },
            {
              "internalType": "address",
              "name": "swapServiceRouter",
              "type": "address"
            },
            {
              "components": [
                {
                  "internalType": "bytes32",
                  "name": "role",
                  "type": "bytes32"
                },
                {
                  "internalType": "address[]",
                  "name": "user",
                  "type": "address[]"
                }
              ],
              "internalType": "struct RoleToUsers[]",
              "name": "roleToUsersArray",
              "type": "tuple[]"
            }
          ],
          "internalType": "struct StrategyArgs",
          "name": "strategyArgs",
          "type": "tuple"
        }
      ],
      "name": "initialize",
      "outputs": [],
      "stateMutability": "nonpayable",
      "type": "function"
    },
    {
      "inputs": [],
      "name": "owner",
      "outputs": [
        {
          "internalType": "address",
          "name": "",
          "type": "address"
        }
      ],
      "stateMutability": "view",
      "type": "function"
    },
    {
      "inputs": [],
      "name": "pause",
      "outputs": [],
      "stateMutability": "nonpayable",
      "type": "function"
    },
    {
      "inputs": [],
      "name": "paused",
      "outputs": [
        {
          "internalType": "bool",
          "name": "",
          "type": "bool"
        }
      ],
      "stateMutability": "view",
      "type": "function"
    },
    {
      "inputs": [],
      "name": "priceOracle",
      "outputs": [
        {
          "internalType": "contract IPriceOracle",
          "name": "",
          "type": "address"
        }
      ],
      "stateMutability": "view",
      "type": "function"
    },
    {
      "inputs": [
        {
          "components": [
            {
              "internalType": "string",
              "name": "key",
              "type": "string"
            },
            {
              "internalType": "string",
              "name": "value",
              "type": "string"
            }
          ],
          "internalType": "struct NameValuePair[]",
          "name": "depositParams",
          "type": "tuple[]"
        },
        {
          "components": [
            {
              "internalType": "string",
              "name": "key",
              "type": "string"
            },
            {
              "internalType": "string",
              "name": "value",
              "type": "string"
            }
          ],
          "internalType": "struct NameValuePair[]",
          "name": "reapRewardParams",
          "type": "tuple[]"
        }
      ],
      "name": "processReward",
      "outputs": [],
      "stateMutability": "nonpayable",
      "type": "function"
    },
    {
      "inputs": [],
      "name": "renounceOwnership",
      "outputs": [],
      "stateMutability": "nonpayable",
      "type": "function"
    },
    {
      "inputs": [
        {
          "internalType": "uint24",
          "name": "fee_",
          "type": "uint24"
        },
        {
          "components": [
            {
              "internalType": "string",
              "name": "key",
              "type": "string"
            },
            {
              "internalType": "string",
              "name": "value",
              "type": "string"
            }
          ],
          "internalType": "struct NameValuePair[]",
          "name": "params",
          "type": "tuple[]"
        }
      ],
      "name": "setDepositFee",
      "outputs": [],
      "stateMutability": "nonpayable",
      "type": "function"
    },
    {
      "inputs": [
        {
          "internalType": "address",
          "name": "feeReceiver_",
          "type": "address"
        },
        {
          "components": [
            {
              "internalType": "string",
              "name": "key",
              "type": "string"
            },
            {
              "internalType": "string",
              "name": "value",
              "type": "string"
            }
          ],
          "internalType": "struct NameValuePair[]",
          "name": "params",
          "type": "tuple[]"
        }
      ],
      "name": "setFeeReceiver",
      "outputs": [],
      "stateMutability": "nonpayable",
      "type": "function"
    },
    {
      "inputs": [
        {
          "internalType": "uint256",
          "name": "investmentLimitPerAddress",
          "type": "uint256"
        }
      ],
      "name": "setInvestmentLimitPerAddress",
      "outputs": [],
      "stateMutability": "nonpayable",
      "type": "function"
    },
    {
      "inputs": [
        {
          "internalType": "contract IInvestmentToken",
          "name": "investmentToken",
          "type": "address"
        }
      ],
      "name": "setInvestmentToken",
      "outputs": [],
      "stateMutability": "nonpayable",
      "type": "function"
    },
    {
      "inputs": [
        {
          "internalType": "uint24",
          "name": "fee_",
          "type": "uint24"
        },
        {
          "components": [
            {
              "internalType": "string",
              "name": "key",
              "type": "string"
            },
            {
              "internalType": "string",
              "name": "value",
              "type": "string"
            }
          ],
          "internalType": "struct NameValuePair[]",
          "name": "params",
          "type": "tuple[]"
        }
      ],
      "name": "setPerformanceFee",
      "outputs": [],
      "stateMutability": "nonpayable",
      "type": "function"
    },
    {
      "inputs": [
        {
          "internalType": "contract IPriceOracle",
          "name": "priceOracle",
          "type": "address"
        }
      ],
      "name": "setPriceOracle",
      "outputs": [],
      "stateMutability": "nonpayable",
      "type": "function"
    },
    {
      "inputs": [
        {
          "internalType": "enum StrategyBaseUpgradeable.SwapServiceProvider",
          "name": "provider",
          "type": "uint8"
        },
        {
          "internalType": "address",
          "name": "router",
          "type": "address"
        }
      ],
      "name": "setSwapService",
      "outputs": [],
      "stateMutability": "nonpayable",
      "type": "function"
    },
    {
      "inputs": [
        {
          "internalType": "uint256",
          "name": "totalInvestmentLimit",
          "type": "uint256"
        }
      ],
      "name": "setTotalInvestmentLimit",
      "outputs": [],
      "stateMutability": "nonpayable",
      "type": "function"
    },
    {
      "inputs": [
        {
          "internalType": "uint24",
          "name": "fee_",
          "type": "uint24"
        },
        {
          "components": [
            {
              "internalType": "string",
              "name": "key",
              "type": "string"
            },
            {
              "internalType": "string",
              "name": "value",
              "type": "string"
            }
          ],
          "internalType": "struct NameValuePair[]",
          "name": "params",
          "type": "tuple[]"
        }
      ],
      "name": "setWithdrawalFee",
      "outputs": [],
      "stateMutability": "nonpayable",
      "type": "function"
    },
    {
      "inputs": [
        {
          "internalType": "bytes4",
          "name": "interfaceId",
          "type": "bytes4"
        }
      ],
      "name": "supportsInterface",
      "outputs": [
        {
          "internalType": "bool",
          "name": "",
          "type": "bool"
        }
      ],
      "stateMutability": "view",
      "type": "function"
    },
    {
      "inputs": [],
      "name": "swapService",
      "outputs": [
        {
          "internalType": "enum StrategyBaseUpgradeable.SwapServiceProvider",
          "name": "provider",
          "type": "uint8"
        },
        {
          "internalType": "address",
          "name": "router",
          "type": "address"
        }
      ],
      "stateMutability": "view",
      "type": "function"
    },
    {
      "inputs": [],
      "name": "trackingName",
      "outputs": [
        {
          "internalType": "string",
          "name": "",
          "type": "string"
        }
      ],
      "stateMutability": "view",
      "type": "function"
    },
    {
      "inputs": [
        {
          "internalType": "address",
          "name": "newOwner",
          "type": "address"
        }
      ],
      "name": "transferOwnership",
      "outputs": [],
      "stateMutability": "nonpayable",
      "type": "function"
    },
    {
      "inputs": [],
      "name": "uninvestedDepositTokenAmount",
      "outputs": [
        {
          "internalType": "uint256",
          "name": "",
          "type": "uint256"
        }
      ],
      "stateMutability": "view",
      "type": "function"
    },
    {
      "inputs": [],
      "name": "unpause",
      "outputs": [],
      "stateMutability": "nonpayable",
      "type": "function"
    },
    {
      "inputs": [],
      "name": "version",
      "outputs": [
        {
          "internalType": "string",
          "name": "",
          "type": "string"
        }
      ],
      "stateMutability": "view",
      "type": "function"
    },
    {
      "inputs": [
        {
          "internalType": "uint256",
          "name": "investmentTokenAmountIn",
          "type": "uint256"
        },
        {
          "internalType": "uint256",
          "name": "minimumDepositTokenAmountOut",
          "type": "uint256"
        },
        {
          "internalType": "address",
          "name": "depositTokenReceiver",
          "type": "address"
        },
        {
          "components": [
            {
              "internalType": "string",
              "name": "key",
              "type": "string"
            },
            {
              "internalType": "string",
              "name": "value",
              "type": "string"
            }
          ],
          "internalType": "struct NameValuePair[]",
          "name": "params",
          "type": "tuple[]"
        }
      ],
      "name": "withdraw",
      "outputs": [],
      "stateMutability": "nonpayable",
      "type": "function"
    },
    {
      "inputs": [
        {
          "components": [
            {
              "internalType": "string",
              "name": "key",
              "type": "string"
            },
            {
              "internalType": "string",
              "name": "value",
              "type": "string"
            }
          ],
          "internalType": "struct NameValuePair[]",
          "name": "withdrawParams",
          "type": "tuple[]"
        }
      ],
      "name": "withdrawReward",
      "outputs": [],
      "stateMutability": "nonpayable",
      "type": "function"
    }
  ],
  "bytecode": "0x60806040523480156200001157600080fd5b506200001c62000022565b6200013b565b6200002e60ff62000031565b50565b60008054610100900460ff16156200009a578160ff1660011480156200006a57506200006830620000de60201b620012f11760201c565b155b620000925760405162461bcd60e51b81526004016200008990620000ed565b60405180910390fd5b506000919050565b60005460ff808416911610620000c45760405162461bcd60e51b81526004016200008990620000ed565b506000805460ff191660ff92909216919091179055600190565b6001600160a01b03163b151590565b6020808252602e908201527f496e697469616c697a61626c653a20636f6e747261637420697320616c72656160408201526d191e481a5b9a5d1a585b1a5e995960921b606082015260800190565b612f9c806200014b6000396000f3fe608060405234801561001057600080fd5b50600436106102305760003560e01c806301ffc9a7146102355780630c976b9a1461025d578063146264db14610272578063163c210a146102825780631fda1214146102955780632075fcf8146102a857806320a4cd6d146102c95780632630c12f146102e957806327b3a8c91461030a5780632f28690e1461031d578063308dade114610330578063346cd3c5146103385780633acefea71461034b5780633c3129e31461035e5780633f4ba83a14610371578063402cb4d11461037957806344dc283b1461038c57806349eca013146103c25780634ab2d57b146103d5578063530e784f146103e857806354fd4d50146103fb5780635c975abb1461042c5780635ccadb881461043757806362f18a691461044057806364ea9f1d14610453578063715018a61461045b5780637251c0be146104635780637bd0754114610476578063803bdca1146104895780638456cb591461049c57806385a73627146104a45780638b2014b6146104b75780638da5cb5b146104c05780638e35c3f8146104c857806394653451146104f4578063958b87f914610507578063a190a85514610526578063aa6446ce14610539578063b4464c4614610569578063b55541f514610584578063cf7b96051461058e578063cfcab38c146105a0578063d622e73e146105a8578063eb2dc9b6146105bb578063f2fde38b146105c3578063fa835329146105d6578063fb1b5c7b146105de578063fcd1e90c146105f0575b600080fd5b6102486102433660046125f0565b610603565b60405190151581526020015b60405180910390f35b61027061026b366004612665565b61069e565b005b60605b60405161025491906126be565b61027061029036600461270b565b610757565b6102706102a3366004612789565b610a0d565b6102bb6102b63660046127f0565b610a4c565b604051908152602001610254565b6102dc6102d736600461281b565b610abf565b6040516102549190612854565b610133546102fd906001600160a01b031681565b6040516102549190612894565b6102706103183660046128a8565b610bec565b61027061032b3660046128c1565b610c28565b610275610c65565b6102706103463660046127f0565b610d8f565b610270610359366004612789565b610ddd565b61027061036c3660046128f3565b610e17565b610270610e4e565b6102bb61038736600461281b565b610e87565b6103ae61039a366004612665565b505060fb546301000000900462ffffff1690565b60405162ffffff9091168152602001610254565b6102dc6103d036600461281b565b610f4a565b6103ae6103e3366004612665565b610f55565b6102706103f63660046127f0565b610f61565b61041f604051806040016040528060058152602001640312e302e360dc1b81525081565b6040516102549190612988565b60335460ff16610248565b610127546102bb565b61027061044e3660046128f3565b610f99565b6102bb610fc9565b610270611038565b6102706104713660046129bb565b611071565b6103ae610484366004612665565b6110e7565b6102706104973660046129f6565b6110fe565b610270611138565b6102706104b23660046128a8565b61116f565b610128546102bb565b6102fd6111a8565b610134546104e69060ff81169061010090046001600160a01b031682565b604051610254929190612a2c565b6103ae610502366004612665565b6111b7565b6102fd610515366004612665565b505060fe546001600160a01b031690565b610270610534366004612665565b6111cb565b61041f6040518060400160405280601181526020017054656d706c61746520737472617465677960781b81525081565b6103ae610577366004612665565b505060fb5462ffffff1690565b6102bb6101355481565b610131546001600160a01b03166102fd565b61041f6111ee565b6103ae6105b6366004612665565b61120a565b60fd546102bb565b6102706105d13660046127f0565b61121a565b60fc546102bb565b610132546001600160a01b03166102fd565b6102706105fe366004612789565b6112b7565b60006001600160e01b03198216630491473760e41b148061063457506001600160e01b03198216632979dc6560e11b145b8061064f57506001600160e01b03198216631a6153f360e01b145b8061066a57506001600160e01b0319821663b7ac895f60e01b145b8061067d57506001600160e01b03198216155b8061069857506301ffc9a760e01b6001600160e01b03198316145b92915050565b600260975414156106ca5760405162461bcd60e51b81526004016106c190612a66565b60405180910390fd5b600260975560fc546106ed6106de60fd5490565b6106e89083612ab3565b60fd55565b6106f7600060fc55565b6040518181527f296614b32c3d193fb9c7a7bcbec919dedece17659a90d0cc2b5b23da167e6fcd9060200160405180910390a160fe5461013254610748916001600160a01b03918216911683611300565b5050600160975550565b905090565b6002609754141561077a5760405162461bcd60e51b81526004016106c190612a66565b6002609755610132546040516370a0823160e01b81526000916001600160a01b0316906370a08231906107b1903090600401612894565b602060405180830381865afa1580156107ce573d6000803e3d6000fd5b505050506040513d601f19601f820116820180604052508101906107f29190612acb565b610132546040516370a0823160e01b815291925060009183916001600160a01b0316906370a0823190610829903090600401612894565b602060405180830381865afa158015610846573d6000803e3d6000fd5b505050506040513d601f19601f8201168201806040525081019061086a9190612acb565b6108749190612ae4565b905061013554816108859190612ab3565b90507f7e3eaf1040dd23019433d0b1d9507d1f28cdfb716f87723fa836d747b7444cb3816040516108b891815260200190565b60405180910390a1806108cc575050610a02565b610132546040516370a0823160e01b81526001600160a01b03909116906370a08231906108fd903090600401612894565b602060405180830381865afa15801561091a573d6000803e3d6000fd5b505050506040513d601f19601f8201168201806040525081019061093e9190612acb565b915061094b818787611356565b610132546040516370a0823160e01b81526000916001600160a01b0316906370a082319061097d903090600401612894565b602060405180830381865afa15801561099a573d6000803e3d6000fd5b505050506040513d601f19601f820116820180604052508101906109be9190612acb565b6109c89084612ae4565b90506109d48183612ae4565b610135556040518281526000903090600080516020612eeb8339815191529060200160405180910390a35050505b505060016097555050565b33610a166111a8565b6001600160a01b031614610a3c5760405162461bcd60e51b81526004016106c190612afb565b610a478383836113a7565b505050565b610131546040516370a0823160e01b81526000916001600160a01b0316906370a0823190610a7e908590600401612894565b602060405180830381865afa158015610a9b573d6000803e3d6000fd5b505050506040513d601f19601f820116820180604052508101906106989190612acb565b606080518190600090610ad3906001612ab3565b9050806001600160401b03811115610aed57610aed612b30565b604051908082528060200260200182016040528015610b3257816020015b6040805180820190915260008082526020820152815260200190600190039081610b0b5790505b50925060005b610b43600183612ae4565b811015610b9257828181518110610b5c57610b5c612b46565b6020026020010151848281518110610b7657610b76612b46565b602002602001018190525080610b8b90612b5c565b9050610b38565b506040805180820190915273b97ef9ef8734c71904d8002f8b6bc66dd9c48a6e815261013554602082015283610bc9600184612ae4565b81518110610bd957610bd9612b46565b6020026020010181905250505092915050565b33610bf56111a8565b6001600160a01b031614610c1b5760405162461bcd60e51b81526004016106c190612afb565b610c258161012855565b50565b33610c316111a8565b6001600160a01b031614610c575760405162461bcd60e51b81526004016106c190612afb565b610c618282611443565b5050565b606080518190600090610c79906001612ab3565b9050806001600160401b03811115610c9357610c93612b30565b604051908082528060200260200182016040528015610cd857816020015b6040805180820190915260008082526020820152815260200190600190039081610cb15790505b50925060005b610ce9600183612ae4565b811015610d3857828181518110610d0257610d02612b46565b6020026020010151848281518110610d1c57610d1c612b46565b602002602001018190525080610d3190612b5c565b9050610cde565b506040805180820190915273b97ef9ef8734c71904d8002f8b6bc66dd9c48a6e815261013554602082015283610d6f600184612ae4565b81518110610d7f57610d7f612b46565b6020026020010181905250505090565b33610d986111a8565b6001600160a01b031614610dbe5760405162461bcd60e51b81526004016106c190612afb565b61013180546001600160a01b0319166001600160a01b03831617905550565b33610de66111a8565b6001600160a01b031614610e0c5760405162461bcd60e51b81526004016106c190612afb565b610a478383836114c4565b60335460ff1615610e3a5760405162461bcd60e51b81526004016106c190612b77565b610e47858585858561153e565b5050505050565b33610e576111a8565b6001600160a01b031614610e7d5760405162461bcd60e51b81526004016106c190612afb565b610e8561185a565b565b6000806000610e968585610abf565b805190915060005b81811015610ee357828181518110610eb857610eb8612b46565b60200260200101516020015184610ecf9190612ab3565b935080610edb81612b5c565b915050610e9e565b506000610ef08787610f4a565b805190915060005b81811015610f3d57828181518110610f1257610f12612b46565b60200260200101516020015186610f299190612ae4565b955080610f3581612b5c565b915050610ef8565b5093979650505050505050565b6060805b9392505050565b6000610f4e83836111b7565b33610f6a6111a8565b6001600160a01b031614610f905760405162461bcd60e51b81526004016106c190612afb565b610c25816118e7565b60335460ff1615610fbc5760405162461bcd60e51b81526004016106c190612b77565b610e47858585858561190a565b61013154604080516318160ddd60e01b815290516000926001600160a01b0316916318160ddd9160048083019260209291908290030181865afa158015611014573d6000803e3d6000fd5b505050506040513d601f19601f820116820180604052508101906107529190612acb565b336110416111a8565b6001600160a01b0316146110675760405162461bcd60e51b81526004016106c190612afb565b610e856000611baf565b600061107d6001611c01565b90508015611095576000805461ff0019166101001790555b61109e82611c95565b8015610c61576000805461ff0019169055604051600181527f7f26b83ff96e1f2b6a682f133852f6798a09c465da95921460cefb38474024989060200160405180910390a15050565b6000610f4e60fb546301000000900462ffffff1690565b336111076111a8565b6001600160a01b03161461112d5760405162461bcd60e51b81526004016106c190612afb565b610a47838383611ccd565b336111416111a8565b6001600160a01b0316146111675760405162461bcd60e51b81526004016106c190612afb565b610e85611d51565b336111786111a8565b6001600160a01b03161461119e5760405162461bcd60e51b81526004016106c190612afb565b610c258161012755565b6065546001600160a01b031690565b505060fb54600160301b900462ffffff1690565b60335460ff1615610c615760405162461bcd60e51b81526004016106c190612b77565b604051806060016040528060308152602001612f376030913981565b6000610f4e60fb5462ffffff1690565b336112236111a8565b6001600160a01b0316146112495760405162461bcd60e51b81526004016106c190612afb565b6001600160a01b0381166112ae5760405162461bcd60e51b815260206004820152602660248201527f4f776e61626c653a206e6577206f776e657220697320746865207a65726f206160448201526564647265737360d01b60648201526084016106c1565b610c2581611baf565b336112c06111a8565b6001600160a01b0316146112e65760405162461bcd60e51b81526004016106c190612afb565b610a47838383611da9565b6001600160a01b03163b151590565b610a478363a9059cbb60e01b848460405160240161131f929190612ba1565b60408051601f198184030181529190526020810180516001600160e01b03166001600160e01b031990931692909217909152611e37565b60007f2aa4f97c53f130d09247b52aa489416dfecd008354a1c3a83587b5d6ed2b6da190506040518060600160405280602c8152602001612f0b602c91398051610e47918391602090910190612557565b826113b56103e86064612bba565b8162ffffff16106113d9576040516303689ded60e51b815260040160405180910390fd5b60fb805465ffffff0000001916630100000062ffffff878116820292909217928390556040517f562ffa77d0627a8704e5d9641e53b90a135392b6fb458b619c3cf64555a0adea93611435939290049091169086908690612ce7565b60405180910390a150505050565b604051806040016040528083600081111561146057611460612a16565b81526001600160a01b03831660209091015280516101348054909190829060ff1916600183801561149357611493612a16565b02179055506020919091015181546001600160a01b0390911661010002610100600160a81b03199091161790555050565b826114d26103e86064612bba565b8162ffffff16106114f6576040516303689ded60e51b815260040160405180910390fd5b60fb805462ffffff191662ffffff86169081179091556040517f7e81a23ec68969b22ae39faba6faa8633338046c205f9d04a30c8a0df04ca3b9916114359186908690612ce7565b600260975414156115615760405162461bcd60e51b81526004016106c190612a66565b600260975584611584576040516347aedd1b60e11b815260040160405180910390fd5b6001600160a01b0383166115ab5760405163115fd31d60e31b815260040160405180910390fd5b60006115b960016000610e87565b90506000806115c6610fc9565b905080156115f45760006115d987610a4c565b9050816115e68286612bba565b6115f09190612d0f565b9250505b6115fe8884611f09565b6116088883611f36565b610132546040516370a0823160e01b81526000916001600160a01b0316906370a082319061163a903090600401612894565b602060405180830381865afa158015611657573d6000803e3d6000fd5b505050506040513d601f19601f8201168201806040525081019061167b9190612acb565b905061169633610132546001600160a01b031690308c611f63565b6116a1898787611356565b610132546040516370a0823160e01b815260009183916001600160a01b03909116906370a08231906116d7903090600401612894565b602060405180830381865afa1580156116f4573d6000803e3d6000fd5b505050506040513d601f19601f820116820180604052508101906117189190612acb565b6117229190612ae4565b90508061013560008282546117379190612ab3565b909155506000905061174a600182610e87565b905060006117588783612ae4565b90508061177857604051632f1b0c0f60e01b815260040160405180910390fd5b8a8110156117995760405163c327661d60e01b815260040160405180910390fd5b610131546001600160a01b03166340c10f198b6117b78a858a611fa1565b6040518363ffffffff1660e01b81526004016117d4929190612ba1565b600060405180830381600087803b1580156117ee57600080fd5b505af1158015611802573d6000803e3d6000fd5b50505050896001600160a01b03166118173390565b6001600160a01b0316600080516020612eeb8339815191528e60405161183f91815260200190565b60405180910390a35050600160975550505050505050505050565b60335460ff166118a35760405162461bcd60e51b815260206004820152601460248201527314185d5cd8589b194e881b9bdd081c185d5cd95960621b60448201526064016106c1565b6033805460ff191690557f5db9ee0a495bf2e6ff9c91a7834c1ba4fdd244a5e8aa4e537bd38aeae4b073aa335b6040516118dd9190612894565b60405180910390a1565b61013380546001600160a01b0319166001600160a01b0392909216919091179055565b6002609754141561192d5760405162461bcd60e51b81526004016106c190612a66565b60026097558461195057604051636d8bee0b60e11b815260040160405180910390fd5b6001600160a01b038316611977576040516314f3686160e11b815260040160405180910390fd5b6000611984868484611fcc565b9050600081611994888686611fcc565b61199e9190612ae4565b9050600061013160009054906101000a90046001600160a01b03166001600160a01b03166318160ddd6040518163ffffffff1660e01b8152600401602060405180830381865afa1580156119f6573d6000803e3d6000fd5b505050506040513d601f19601f82011682018060405250810190611a1a9190612acb565b8861013554611a299190612bba565b611a339190612d0f565b9050611a3f8183612ab3565b9150806101356000828254611a549190612ae4565b909155506000905060646103e8611a6f60fb5462ffffff1690565b611a7e9062ffffff1686612bba565b611a889190612d0f565b611a929190612d0f565b905087611a9f8285612ae4565b1015611abe5760405163c327661d60e01b815260040160405180910390fd5b610131546001600160a01b03166379cc6790338b6040518363ffffffff1660e01b8152600401611aef929190612ba1565b600060405180830381600087803b158015611b0957600080fd5b505af1158015611b1d573d6000803e3d6000fd5b50505050611b3d81611b2e60fc5490565b611b389190612ab3565b60fc55565b611b5f87611b4b8386612ae4565b610132546001600160a01b03169190611300565b6040518981526001600160a01b0388169033907f2717ead6b9200dd235aad468c9809ea400fe33ac69b5bfaa6d3e90fc922b63989060200160405180910390a35050600160975550505050505050565b606580546001600160a01b038381166001600160a01b0319831681179093556040519116919082907f8be0079c531659141344cd1fd0a4f28419497f9722a3daafe3b4186f6b6457e090600090a35050565b60008054610100900460ff1615611c4f578160ff166001148015611c2b5750611c29306112f1565b155b611c475760405162461bcd60e51b81526004016106c190612d31565b506000919050565b60005460ff808416911610611c765760405162461bcd60e51b81526004016106c190612d31565b506000805460ff191660ff92909216919091179055600190565b919050565b600054610100900460ff16611cbc5760405162461bcd60e51b81526004016106c190612d7f565b611cc461203f565b610c258161206e565b6001600160a01b038316611cf45760405163b6802b7f60e01b815260040160405180910390fd5b60fe80546001600160a01b0319166001600160a01b0385169081179091556040517fa3fe39fe39850ddb39697065123e293302f3e8948984fde991b5a291ed1ad05b91611d449185908590612dca565b60405180910390a1505050565b60335460ff1615611d745760405162461bcd60e51b81526004016106c190612b77565b6033805460ff191660011790557f62e78cea01bee320cd4e420270b5ea74000d11b0c9f74754ebdbfc544b05a2586118d03390565b82611db76103e86064612bba565b8162ffffff1610611ddb576040516303689ded60e51b815260040160405180910390fd5b60fb805462ffffff60301b1916600160301b62ffffff878116820292909217928390556040517f05f9aef0771b6541329b82ea24407357fc3ff0f457598588055f84a807dbdb8f93611435939290049091169086908690612ce7565b6000611e8c826040518060400160405280602081526020017f5361666545524332303a206c6f772d6c6576656c2063616c6c206661696c6564815250856001600160a01b03166120a69092919063ffffffff16565b805190915015610a475780806020019051810190611eaa9190612def565b610a475760405162461bcd60e51b815260206004820152602a60248201527f5361666545524332303a204552433230206f7065726174696f6e20646964206e6044820152691bdd081cdd58d8d9595960b21b60648201526084016106c1565b61012754611f178284612ab3565b1115610c615760405163b761799960e01b815260040160405180910390fd5b61012854611f448284612ab3565b1115610c615760405163973cc40960e01b815260040160405180910390fd5b6040516001600160a01b0380851660248301528316604482015260648101829052611f9b9085906323b872dd60e01b9060840161131f565b50505050565b600081611faf575081610f4e565b83611fba8385612bba565b611fc49190612d0f565b949350505050565b610132546040516370a0823160e01b81526000916001600160a01b0316906370a0823190611ffe903090600401612894565b602060405180830381865afa15801561201b573d6000803e3d6000fd5b505050506040513d601f19601f82011682018060405250810190611fc49190612acb565b600054610100900460ff166120665760405162461bcd60e51b81526004016106c190612d7f565b610e856120b5565b600054610100900460ff166120955760405162461bcd60e51b81526004016106c190612d7f565b61209d6120e8565b610c2581612117565b6060611fc4848460008561229f565b600054610100900460ff166120dc5760405162461bcd60e51b81526004016106c190612d7f565b6033805460ff19169055565b600054610100900460ff1661210f5760405162461bcd60e51b81526004016106c190612d7f565b610e856123ce565b600054610100900460ff1661213e5760405162461bcd60e51b81526004016106c190612d7f565b6121466123fe565b61214e612425565b6121566123fe565b6121d56121696060830160408401612e0c565b6121766060840184612e27565b61218660a0860160808701612e0c565b61219360a0870187612e27565b6121a360e0890160c08a01612e0c565b6121b060e08a018a612e27565b6121c26101208c016101008d016127f0565b6121d06101208d018d612e27565b612454565b6121e98161014001358261016001356124b5565b6121f660208201826127f0565b61013180546001600160a01b0319166001600160a01b039290921691909117905561222760408201602083016127f0565b61013280546001600160a01b0319166001600160a01b039290921691909117905561226261225d6101a0830161018084016127f0565b6118e7565b610c256122776101c083016101a08401612e70565b60ff16801561228857612288612a16565b61229a6101e084016101c085016127f0565b611443565b6060824710156123005760405162461bcd60e51b815260206004820152602660248201527f416464726573733a20696e73756666696369656e742062616c616e636520666f6044820152651c8818d85b1b60d21b60648201526084016106c1565b612309856112f1565b6123555760405162461bcd60e51b815260206004820152601d60248201527f416464726573733a2063616c6c20746f206e6f6e2d636f6e747261637400000060448201526064016106c1565b600080866001600160a01b031685876040516123719190612e93565b60006040518083038185875af1925050503d80600081146123ae576040519150601f19603f3d011682016040523d82523d6000602084013e6123b3565b606091505b50915091506123c38282866124f0565b979650505050505050565b600054610100900460ff166123f55760405162461bcd60e51b81526004016106c190612d7f565b610e8533611baf565b600054610100900460ff16610e855760405162461bcd60e51b81526004016106c190612d7f565b600054610100900460ff1661244c5760405162461bcd60e51b81526004016106c190612d7f565b610e85612529565b600054610100900460ff1661247b5760405162461bcd60e51b81526004016106c190612d7f565b6124868c8c8c6113a7565b6124918989896114c4565b61249c868686611da9565b6124a7838383611ccd565b505050505050505050505050565b600054610100900460ff166124dc5760405162461bcd60e51b81526004016106c190612d7f565b6124e68261012755565b610c618161012855565b606083156124ff575081610f4e565b82511561250f5782518084602001fd5b8160405162461bcd60e51b81526004016106c19190612988565b600054610100900460ff166125505760405162461bcd60e51b81526004016106c190612d7f565b6001609755565b82805461256390612eaf565b90600052602060002090601f01602090048101928261258557600085556125cb565b82601f1061259e57805160ff19168380011785556125cb565b828001600101855582156125cb579182015b828111156125cb5782518255916020019190600101906125b0565b506125d79291506125db565b5090565b5b808211156125d757600081556001016125dc565b60006020828403121561260257600080fd5b81356001600160e01b031981168114610f4e57600080fd5b60008083601f84011261262c57600080fd5b5081356001600160401b0381111561264357600080fd5b6020830191508360208260051b850101111561265e57600080fd5b9250929050565b6000806020838503121561267857600080fd5b82356001600160401b0381111561268e57600080fd5b61269a8582860161261a565b90969095509350505050565b80516001600160a01b03168252602090810151910152565b602080825282518282018190526000919060409081850190868401855b828110156126fe576126ee8483516126a6565b92840192908501906001016126db565b5091979650505050505050565b6000806000806040858703121561272157600080fd5b84356001600160401b038082111561273857600080fd5b6127448883890161261a565b9096509450602087013591508082111561275d57600080fd5b5061276a8782880161261a565b95989497509550505050565b803562ffffff81168114611c9057600080fd5b60008060006040848603121561279e57600080fd5b6127a784612776565b925060208401356001600160401b038111156127c257600080fd5b6127ce8682870161261a565b9497909650939450505050565b6001600160a01b0381168114610c2557600080fd5b60006020828403121561280257600080fd5b8135610f4e816127db565b8015158114610c2557600080fd5b6000806040838503121561282e57600080fd5b82356128398161280d565b915060208301356128498161280d565b809150509250929050565b602080825282518282018190526000919060409081850190868401855b828110156126fe576128848483516126a6565b9284019290850190600101612871565b6001600160a01b0391909116815260200190565b6000602082840312156128ba57600080fd5b5035919050565b600080604083850312156128d457600080fd5b8235600181106128e357600080fd5b91506020830135612849816127db565b60008060008060006080868803121561290b57600080fd5b85359450602086013593506040860135612924816127db565b925060608601356001600160401b0381111561293f57600080fd5b61294b8882890161261a565b969995985093965092949392505050565b60005b8381101561297757818101518382015260200161295f565b83811115611f9b5750506000910152565b60208152600082518060208401526129a781604085016020870161295c565b601f01601f19169190910160400192915050565b6000602082840312156129cd57600080fd5b81356001600160401b038111156129e357600080fd5b82016102008185031215610f4e57600080fd5b600080600060408486031215612a0b57600080fd5b83356127a7816127db565b634e487b7160e01b600052602160045260246000fd5b6040810160018410612a4e57634e487b7160e01b600052602160045260246000fd5b9281526001600160a01b039190911660209091015290565b6020808252601f908201527f5265656e7472616e637947756172643a207265656e7472616e742063616c6c00604082015260600190565b634e487b7160e01b600052601160045260246000fd5b60008219821115612ac657612ac6612a9d565b500190565b600060208284031215612add57600080fd5b5051919050565b600082821015612af657612af6612a9d565b500390565b6020808252818101527f4f776e61626c653a2063616c6c6572206973206e6f7420746865206f776e6572604082015260600190565b634e487b7160e01b600052604160045260246000fd5b634e487b7160e01b600052603260045260246000fd5b6000600019821415612b7057612b70612a9d565b5060010190565b60208082526010908201526f14185d5cd8589b194e881c185d5cd95960821b604082015260600190565b6001600160a01b03929092168252602082015260400190565b6000816000190483118215151615612bd457612bd4612a9d565b500290565b6000808335601e19843603018112612bf057600080fd5b83016020810192503590506001600160401b03811115612c0f57600080fd5b80360383131561265e57600080fd5b81835281816020850137506000828201602090810191909152601f909101601f19169091010190565b81835260006020808501808196508560051b81019150846000805b88811015612cd9578385038a528235603e19893603018112612c82578283fd5b88016040612c908280612bd9565b828952612ca0838a018284612c1e565b92505050612cb088830183612bd9565b925087820389890152612cc4828483612c1e565b9c89019c975050509286019250600101612c62565b509298975050505050505050565b62ffffff84168152604060208201526000612d06604083018486612c47565b95945050505050565b600082612d2c57634e487b7160e01b600052601260045260246000fd5b500490565b6020808252602e908201527f496e697469616c697a61626c653a20636f6e747261637420697320616c72656160408201526d191e481a5b9a5d1a585b1a5e995960921b606082015260800190565b6020808252602b908201527f496e697469616c697a61626c653a20636f6e7472616374206973206e6f74206960408201526a6e697469616c697a696e6760a81b606082015260800190565b6001600160a01b0384168152604060208201819052600090612d069083018486612c47565b600060208284031215612e0157600080fd5b8151610f4e8161280d565b600060208284031215612e1e57600080fd5b610f4e82612776565b6000808335601e19843603018112612e3e57600080fd5b8301803591506001600160401b03821115612e5857600080fd5b6020019150600581901b360382131561265e57600080fd5b600060208284031215612e8257600080fd5b813560ff81168114610f4e57600080fd5b60008251612ea581846020870161295c565b9190910192915050565b600181811c90821680612ec357607f821691505b60208210811415612ee457634e487b7160e01b600052602260045260246000fd5b5091905056fe5548c837ab068cf56a2c2479df0882a4922fd203edb7517321831d95078c5f6274686973206973206a75737420616e206578616d706c65206f66207573696e67207468652073746f7261676562726f6b6b722e74656d706c6174655f73747261746567792e3c696e7365727420676974206c6162656c20686572653ea2646970667358221220ea4d1ea39cc0f4be9113d01b18080178cda1f143ff81db318f551c012e85bd9164736f6c634300080a0033",
  "linkReferences": {},
  "deployedLinkReferences": {}
}