{
  "_format": "hh-sol-artifact-1",
  "contractName": "TestUpgradedStrategy",
  "sourceName": "contracts/tests/TestUpgradedStrategy.sol",
  "abi": [
    {
      "inputs": [],
      "name": "InvalidFeeError",
      "type": "error"
    },
    {
      "inputs": [],
      "name": "InvalidSwapServiceProvider",
      "type": "error"
    },
    {
      "inputs": [],
      "name": "InvestmentLimitPerAddressExceeded",
      "type": "error"
    },
    {
      "inputs": [],
      "name": "TooSmallDepositTokenAmountOut",
      "type": "error"
    },
    {
      "inputs": [],
      "name": "TotalInvestmentLimitExceeded",
      "type": "error"
    },
    {
      "inputs": [],
      "name": "ZeroAmountDeposited",
      "type": "error"
    },
    {
      "inputs": [],
      "name": "ZeroAmountInvested",
      "type": "error"
    },
    {
      "inputs": [],
      "name": "ZeroAmountWithdrawn",
      "type": "error"
    },
    {
      "inputs": [],
      "name": "ZeroDepositTokenReceiver",
      "type": "error"
    },
    {
      "inputs": [],
      "name": "ZeroFeeReceiver",
      "type": "error"
    },
    {
      "inputs": [],
      "name": "ZeroInvestmentTokenReceiver",
      "type": "error"
    },
    {
      "anonymous": false,
      "inputs": [
        {
          "indexed": false,
          "internalType": "address",
          "name": "previousAdmin",
          "type": "address"
        },
        {
          "indexed": false,
          "internalType": "address",
          "name": "newAdmin",
          "type": "address"
        }
      ],
      "name": "AdminChanged",
      "type": "event"
    },
    {
      "anonymous": false,
      "inputs": [
        {
          "indexed": true,
          "internalType": "address",
          "name": "beacon",
          "type": "address"
        }
      ],
      "name": "BeaconUpgraded",
      "type": "event"
    },
    {
      "anonymous": false,
      "inputs": [
        {
          "indexed": true,
          "internalType": "address",
          "name": "initiator",
          "type": "address"
        },
        {
          "indexed": true,
          "internalType": "address",
          "name": "investmentTokenReceiver",
          "type": "address"
        },
        {
          "indexed": false,
          "internalType": "uint256",
          "name": "amount",
          "type": "uint256"
        }
      ],
      "name": "Deposit",
      "type": "event"
    },
    {
      "anonymous": false,
      "inputs": [
        {
          "indexed": false,
          "internalType": "uint256",
          "name": "fee",
          "type": "uint256"
        },
        {
          "components": [
            {
              "internalType": "string",
              "name": "key",
              "type": "string"
            },
            {
              "internalType": "string",
              "name": "value",
              "type": "string"
            }
          ],
          "indexed": false,
          "internalType": "struct NameValuePair[]",
          "name": "params",
          "type": "tuple[]"
        }
      ],
      "name": "DepositFeeChange",
      "type": "event"
    },
    {
      "anonymous": false,
      "inputs": [
        {
          "indexed": false,
          "internalType": "uint256",
          "name": "fee",
          "type": "uint256"
        }
      ],
      "name": "FeeClaim",
      "type": "event"
    },
    {
      "anonymous": false,
      "inputs": [
        {
          "indexed": false,
          "internalType": "address",
          "name": "feeReceiver",
          "type": "address"
        },
        {
          "components": [
            {
              "internalType": "string",
              "name": "key",
              "type": "string"
            },
            {
              "internalType": "string",
              "name": "value",
              "type": "string"
            }
          ],
          "indexed": false,
          "internalType": "struct NameValuePair[]",
          "name": "params",
          "type": "tuple[]"
        }
      ],
      "name": "FeeReceiverChange",
      "type": "event"
    },
    {
      "anonymous": false,
      "inputs": [
        {
          "indexed": false,
          "internalType": "uint8",
          "name": "version",
          "type": "uint8"
        }
      ],
      "name": "Initialized",
      "type": "event"
    },
    {
      "anonymous": false,
      "inputs": [
        {
          "indexed": true,
          "internalType": "address",
          "name": "previousOwner",
          "type": "address"
        },
        {
          "indexed": true,
          "internalType": "address",
          "name": "newOwner",
          "type": "address"
        }
      ],
      "name": "OwnershipTransferred",
      "type": "event"
    },
    {
      "anonymous": false,
      "inputs": [
        {
          "indexed": false,
          "internalType": "address",
          "name": "account",
          "type": "address"
        }
      ],
      "name": "Paused",
      "type": "event"
    },
    {
      "anonymous": false,
      "inputs": [
        {
          "indexed": false,
          "internalType": "uint256",
          "name": "fee",
          "type": "uint256"
        },
        {
          "components": [
            {
              "internalType": "string",
              "name": "key",
              "type": "string"
            },
            {
              "internalType": "string",
              "name": "value",
              "type": "string"
            }
          ],
          "indexed": false,
          "internalType": "struct NameValuePair[]",
          "name": "params",
          "type": "tuple[]"
        }
      ],
      "name": "PerformanceFeeChange",
      "type": "event"
    },
    {
      "anonymous": false,
      "inputs": [
        {
          "indexed": false,
          "internalType": "uint256",
          "name": "amount",
          "type": "uint256"
        }
      ],
      "name": "RewardProcess",
      "type": "event"
    },
    {
      "anonymous": false,
      "inputs": [
        {
          "indexed": true,
          "internalType": "address",
          "name": "withdrawer",
          "type": "address"
        },
        {
          "indexed": false,
          "internalType": "uint256",
          "name": "amount",
          "type": "uint256"
        }
      ],
      "name": "RewardWithdraw",
      "type": "event"
    },
    {
      "anonymous": false,
      "inputs": [
        {
          "indexed": false,
          "internalType": "address",
          "name": "account",
          "type": "address"
        }
      ],
      "name": "Unpaused",
      "type": "event"
    },
    {
      "anonymous": false,
      "inputs": [
        {
          "indexed": true,
          "internalType": "address",
          "name": "implementation",
          "type": "address"
        }
      ],
      "name": "Upgraded",
      "type": "event"
    },
    {
      "anonymous": false,
      "inputs": [
        {
          "indexed": true,
          "internalType": "address",
          "name": "initiator",
          "type": "address"
        },
        {
          "indexed": true,
          "internalType": "address",
          "name": "depositTokenReceiver",
          "type": "address"
        },
        {
          "indexed": false,
          "internalType": "uint256",
          "name": "amount",
          "type": "uint256"
        }
      ],
      "name": "Withdrawal",
      "type": "event"
    },
    {
      "anonymous": false,
      "inputs": [
        {
          "indexed": false,
          "internalType": "uint256",
          "name": "fee",
          "type": "uint256"
        },
        {
          "components": [
            {
              "internalType": "string",
              "name": "key",
              "type": "string"
            },
            {
              "internalType": "string",
              "name": "value",
              "type": "string"
            }
          ],
          "indexed": false,
          "internalType": "struct NameValuePair[]",
          "name": "params",
          "type": "tuple[]"
        }
      ],
      "name": "WithdrawalFeeChange",
      "type": "event"
    },
    {
      "inputs": [
        {
          "components": [
            {
              "internalType": "string",
              "name": "key",
              "type": "string"
            },
            {
              "internalType": "string",
              "name": "value",
              "type": "string"
            }
          ],
          "internalType": "struct NameValuePair[]",
          "name": "",
          "type": "tuple[]"
        }
      ],
      "name": "claimFee",
      "outputs": [],
      "stateMutability": "nonpayable",
      "type": "function"
    },
    {
      "inputs": [
        {
          "internalType": "uint256",
          "name": "depositTokenAmountIn",
          "type": "uint256"
        },
        {
          "internalType": "uint256",
          "name": "minimumDepositTokenAmountOut",
          "type": "uint256"
        },
        {
          "internalType": "address",
          "name": "investmentTokenReceiver",
          "type": "address"
        },
        {
          "components": [
            {
              "internalType": "string",
              "name": "key",
              "type": "string"
            },
            {
              "internalType": "string",
              "name": "value",
              "type": "string"
            }
          ],
          "internalType": "struct NameValuePair[]",
          "name": "params",
          "type": "tuple[]"
        }
      ],
      "name": "deposit",
      "outputs": [],
      "stateMutability": "nonpayable",
      "type": "function"
    },
    {
      "inputs": [],
      "name": "getAssetBalances",
      "outputs": [
        {
          "components": [
            {
              "internalType": "address",
              "name": "asset",
              "type": "address"
            },
            {
              "internalType": "uint256",
              "name": "balance",
              "type": "uint256"
            }
          ],
          "internalType": "struct IAum.Balance[]",
          "name": "balances",
          "type": "tuple[]"
        }
      ],
      "stateMutability": "view",
      "type": "function"
    },
    {
      "inputs": [
        {
          "internalType": "bool",
          "name": "shouldMaximise",
          "type": "bool"
        },
        {
          "internalType": "bool",
          "name": "shouldIncludeAmmPrice",
          "type": "bool"
        }
      ],
      "name": "getAssetValuations",
      "outputs": [
        {
          "components": [
            {
              "internalType": "address",
              "name": "asset",
              "type": "address"
            },
            {
              "internalType": "uint256",
              "name": "valuation",
              "type": "uint256"
            }
          ],
          "internalType": "struct IAum.Valuation[]",
          "name": "valuations",
          "type": "tuple[]"
        }
      ],
      "stateMutability": "view",
      "type": "function"
    },
    {
      "inputs": [],
      "name": "getClaimedFee",
      "outputs": [
        {
          "internalType": "uint256",
          "name": "",
          "type": "uint256"
        }
      ],
      "stateMutability": "view",
      "type": "function"
    },
    {
      "inputs": [],
      "name": "getCurrentAccumulatedFee",
      "outputs": [
        {
          "internalType": "uint256",
          "name": "",
          "type": "uint256"
        }
      ],
      "stateMutability": "view",
      "type": "function"
    },
    {
      "inputs": [
        {
          "components": [
            {
              "internalType": "string",
              "name": "key",
              "type": "string"
            },
            {
              "internalType": "string",
              "name": "value",
              "type": "string"
            }
          ],
          "internalType": "struct NameValuePair[]",
          "name": "",
          "type": "tuple[]"
        }
      ],
      "name": "getDepositFee",
      "outputs": [
        {
          "internalType": "uint24",
          "name": "",
          "type": "uint24"
        }
      ],
      "stateMutability": "view",
      "type": "function"
    },
    {
      "inputs": [],
      "name": "getDepositToken",
      "outputs": [
        {
          "internalType": "contract IERC20Upgradeable",
          "name": "",
          "type": "address"
        }
      ],
      "stateMutability": "view",
      "type": "function"
    },
    {
      "inputs": [
        {
          "internalType": "bool",
          "name": "shouldMaximise",
          "type": "bool"
        },
        {
          "internalType": "bool",
          "name": "shouldIncludeAmmPrice",
          "type": "bool"
        }
      ],
      "name": "getEquityValuation",
      "outputs": [
        {
          "internalType": "uint256",
          "name": "",
          "type": "uint256"
        }
      ],
      "stateMutability": "view",
      "type": "function"
    },
    {
      "inputs": [
        {
          "components": [
            {
              "internalType": "string",
              "name": "key",
              "type": "string"
            },
            {
              "internalType": "string",
              "name": "value",
              "type": "string"
            }
          ],
          "internalType": "struct NameValuePair[]",
          "name": "",
          "type": "tuple[]"
        }
      ],
      "name": "getFeeReceiver",
      "outputs": [
        {
          "internalType": "address",
          "name": "",
          "type": "address"
        }
      ],
      "stateMutability": "view",
      "type": "function"
    },
    {
      "inputs": [],
      "name": "getInvestmentLimitPerAddress",
      "outputs": [
        {
          "internalType": "uint256",
          "name": "",
          "type": "uint256"
        }
      ],
      "stateMutability": "view",
      "type": "function"
    },
    {
      "inputs": [],
      "name": "getInvestmentToken",
      "outputs": [
        {
          "internalType": "contract IInvestmentToken",
          "name": "",
          "type": "address"
        }
      ],
      "stateMutability": "view",
      "type": "function"
    },
    {
      "inputs": [
        {
          "internalType": "address",
          "name": "account",
          "type": "address"
        }
      ],
      "name": "getInvestmentTokenBalanceOf",
      "outputs": [
        {
          "internalType": "uint256",
          "name": "",
          "type": "uint256"
        }
      ],
      "stateMutability": "view",
      "type": "function"
    },
    {
      "inputs": [],
      "name": "getInvestmentTokenSupply",
      "outputs": [
        {
          "internalType": "uint256",
          "name": "",
          "type": "uint256"
        }
      ],
      "stateMutability": "view",
      "type": "function"
    },
    {
      "inputs": [],
      "name": "getLiabilityBalances",
      "outputs": [
        {
          "components": [
            {
              "internalType": "address",
              "name": "asset",
              "type": "address"
            },
            {
              "internalType": "uint256",
              "name": "balance",
              "type": "uint256"
            }
          ],
          "internalType": "struct IAum.Balance[]",
          "name": "balances",
          "type": "tuple[]"
        }
      ],
      "stateMutability": "view",
      "type": "function"
    },
    {
      "inputs": [
        {
          "internalType": "bool",
          "name": "shouldMaximise",
          "type": "bool"
        },
        {
          "internalType": "bool",
          "name": "shouldIncludeAmmPrice",
          "type": "bool"
        }
      ],
      "name": "getLiabilityValuations",
      "outputs": [
        {
          "components": [
            {
              "internalType": "address",
              "name": "asset",
              "type": "address"
            },
            {
              "internalType": "uint256",
              "name": "valuation",
              "type": "uint256"
            }
          ],
          "internalType": "struct IAum.Valuation[]",
          "name": "",
          "type": "tuple[]"
        }
      ],
      "stateMutability": "view",
      "type": "function"
    },
    {
      "inputs": [
        {
          "components": [
            {
              "internalType": "string",
              "name": "key",
              "type": "string"
            },
            {
              "internalType": "string",
              "name": "value",
              "type": "string"
            }
          ],
          "internalType": "struct NameValuePair[]",
          "name": "",
          "type": "tuple[]"
        }
      ],
      "name": "getPerformanceFee",
      "outputs": [
        {
          "internalType": "uint24",
          "name": "",
          "type": "uint24"
        }
      ],
      "stateMutability": "view",
      "type": "function"
    },
    {
      "inputs": [
        {
          "components": [
            {
              "internalType": "string",
              "name": "key",
              "type": "string"
            },
            {
              "internalType": "string",
              "name": "value",
              "type": "string"
            }
          ],
          "internalType": "struct NameValuePair[]",
          "name": "params",
          "type": "tuple[]"
        }
      ],
      "name": "getTotalDepositFee",
      "outputs": [
        {
          "internalType": "uint24",
          "name": "",
          "type": "uint24"
        }
      ],
      "stateMutability": "view",
      "type": "function"
    },
    {
      "inputs": [],
      "name": "getTotalInvestmentLimit",
      "outputs": [
        {
          "internalType": "uint256",
          "name": "",
          "type": "uint256"
        }
      ],
      "stateMutability": "view",
      "type": "function"
    },
    {
      "inputs": [
        {
          "components": [
            {
              "internalType": "string",
              "name": "key",
              "type": "string"
            },
            {
              "internalType": "string",
              "name": "value",
              "type": "string"
            }
          ],
          "internalType": "struct NameValuePair[]",
          "name": "params",
          "type": "tuple[]"
        }
      ],
      "name": "getTotalPerformanceFee",
      "outputs": [
        {
          "internalType": "uint24",
          "name": "",
          "type": "uint24"
        }
      ],
      "stateMutability": "view",
      "type": "function"
    },
    {
      "inputs": [
        {
          "components": [
            {
              "internalType": "string",
              "name": "key",
              "type": "string"
            },
            {
              "internalType": "string",
              "name": "value",
              "type": "string"
            }
          ],
          "internalType": "struct NameValuePair[]",
          "name": "params",
          "type": "tuple[]"
        }
      ],
      "name": "getTotalWithdrawalFee",
      "outputs": [
        {
          "internalType": "uint24",
          "name": "",
          "type": "uint24"
        }
      ],
      "stateMutability": "view",
      "type": "function"
    },
    {
      "inputs": [
        {
          "components": [
            {
              "internalType": "string",
              "name": "key",
              "type": "string"
            },
            {
              "internalType": "string",
              "name": "value",
              "type": "string"
            }
          ],
          "internalType": "struct NameValuePair[]",
          "name": "",
          "type": "tuple[]"
        }
      ],
      "name": "getWithdrawalFee",
      "outputs": [
        {
          "internalType": "uint24",
          "name": "",
          "type": "uint24"
        }
      ],
      "stateMutability": "view",
      "type": "function"
    },
    {
      "inputs": [],
      "name": "humanReadableName",
      "outputs": [
        {
          "internalType": "string",
          "name": "",
          "type": "string"
        }
      ],
      "stateMutability": "view",
      "type": "function"
    },
    {
      "inputs": [
        {
          "components": [
            {
              "internalType": "contract IInvestmentToken",
              "name": "investmentToken",
              "type": "address"
            },
            {
              "internalType": "contract IERC20Upgradeable",
              "name": "depositToken",
              "type": "address"
            },
            {
              "internalType": "uint24",
              "name": "depositFee",
              "type": "uint24"
            },
            {
              "components": [
                {
                  "internalType": "string",
                  "name": "key",
                  "type": "string"
                },
                {
                  "internalType": "string",
                  "name": "value",
                  "type": "string"
                }
              ],
              "internalType": "struct NameValuePair[]",
              "name": "depositFeeParams",
              "type": "tuple[]"
            },
            {
              "internalType": "uint24",
              "name": "withdrawalFee",
              "type": "uint24"
            },
            {
              "components": [
                {
                  "internalType": "string",
                  "name": "key",
                  "type": "string"
                },
                {
                  "internalType": "string",
                  "name": "value",
                  "type": "string"
                }
              ],
              "internalType": "struct NameValuePair[]",
              "name": "withdrawFeeParams",
              "type": "tuple[]"
            },
            {
              "internalType": "uint24",
              "name": "performanceFee",
              "type": "uint24"
            },
            {
              "components": [
                {
                  "internalType": "string",
                  "name": "key",
                  "type": "string"
                },
                {
                  "internalType": "string",
                  "name": "value",
                  "type": "string"
                }
              ],
              "internalType": "struct NameValuePair[]",
              "name": "performanceFeeParams",
              "type": "tuple[]"
            },
            {
              "internalType": "address",
              "name": "feeReceiver",
              "type": "address"
            },
            {
              "components": [
                {
                  "internalType": "string",
                  "name": "key",
                  "type": "string"
                },
                {
                  "internalType": "string",
                  "name": "value",
                  "type": "string"
                }
              ],
              "internalType": "struct NameValuePair[]",
              "name": "feeReceiverParams",
              "type": "tuple[]"
            },
            {
              "internalType": "uint256",
              "name": "totalInvestmentLimit",
              "type": "uint256"
            },
            {
              "internalType": "uint256",
              "name": "investmentLimitPerAddress",
              "type": "uint256"
            },
            {
              "internalType": "contract IPriceOracle",
              "name": "priceOracle",
              "type": "address"
            },
            {
              "internalType": "uint8",
              "name": "swapServiceProvider",
              "type": "uint8"
            },
            {
              "internalType": "address",
              "name": "swapServiceRouter",
              "type": "address"
            },
            {
              "components": [
                {
                  "internalType": "bytes32",
                  "name": "role",
                  "type": "bytes32"
                },
                {
                  "internalType": "address[]",
                  "name": "user",
                  "type": "address[]"
                }
              ],
              "internalType": "struct RoleToUsers[]",
              "name": "roleToUsersArray",
              "type": "tuple[]"
            }
          ],
          "internalType": "struct StrategyArgs",
          "name": "strategyArgs",
          "type": "tuple"
        }
      ],
      "name": "initialize",
      "outputs": [],
      "stateMutability": "nonpayable",
      "type": "function"
    },
    {
      "inputs": [],
      "name": "owner",
      "outputs": [
        {
          "internalType": "address",
          "name": "",
          "type": "address"
        }
      ],
      "stateMutability": "view",
      "type": "function"
    },
    {
      "inputs": [],
      "name": "pause",
      "outputs": [],
      "stateMutability": "nonpayable",
      "type": "function"
    },
    {
      "inputs": [],
      "name": "paused",
      "outputs": [
        {
          "internalType": "bool",
          "name": "",
          "type": "bool"
        }
      ],
      "stateMutability": "view",
      "type": "function"
    },
    {
      "inputs": [],
      "name": "priceOracle",
      "outputs": [
        {
          "internalType": "contract IPriceOracle",
          "name": "",
          "type": "address"
        }
      ],
      "stateMutability": "view",
      "type": "function"
    },
    {
      "inputs": [
        {
          "components": [
            {
              "internalType": "string",
              "name": "key",
              "type": "string"
            },
            {
              "internalType": "string",
              "name": "value",
              "type": "string"
            }
          ],
          "internalType": "struct NameValuePair[]",
          "name": "depositParams",
          "type": "tuple[]"
        },
        {
          "components": [
            {
              "internalType": "string",
              "name": "key",
              "type": "string"
            },
            {
              "internalType": "string",
              "name": "value",
              "type": "string"
            }
          ],
          "internalType": "struct NameValuePair[]",
          "name": "reapRewardParams",
          "type": "tuple[]"
        }
      ],
      "name": "processReward",
      "outputs": [],
      "stateMutability": "nonpayable",
      "type": "function"
    },
    {
      "inputs": [],
      "name": "proxiableUUID",
      "outputs": [
        {
          "internalType": "bytes32",
          "name": "",
          "type": "bytes32"
        }
      ],
      "stateMutability": "view",
      "type": "function"
    },
    {
      "inputs": [],
      "name": "renounceOwnership",
      "outputs": [],
      "stateMutability": "nonpayable",
      "type": "function"
    },
    {
      "inputs": [
        {
          "internalType": "uint24",
          "name": "fee_",
          "type": "uint24"
        },
        {
          "components": [
            {
              "internalType": "string",
              "name": "key",
              "type": "string"
            },
            {
              "internalType": "string",
              "name": "value",
              "type": "string"
            }
          ],
          "internalType": "struct NameValuePair[]",
          "name": "params",
          "type": "tuple[]"
        }
      ],
      "name": "setDepositFee",
      "outputs": [],
      "stateMutability": "nonpayable",
      "type": "function"
    },
    {
      "inputs": [
        {
          "internalType": "address",
          "name": "feeReceiver_",
          "type": "address"
        },
        {
          "components": [
            {
              "internalType": "string",
              "name": "key",
              "type": "string"
            },
            {
              "internalType": "string",
              "name": "value",
              "type": "string"
            }
          ],
          "internalType": "struct NameValuePair[]",
          "name": "params",
          "type": "tuple[]"
        }
      ],
      "name": "setFeeReceiver",
      "outputs": [],
      "stateMutability": "nonpayable",
      "type": "function"
    },
    {
      "inputs": [
        {
          "internalType": "uint256",
          "name": "investmentLimitPerAddress",
          "type": "uint256"
        }
      ],
      "name": "setInvestmentLimitPerAddress",
      "outputs": [],
      "stateMutability": "nonpayable",
      "type": "function"
    },
    {
      "inputs": [
        {
          "internalType": "contract IInvestmentToken",
          "name": "investmentToken",
          "type": "address"
        }
      ],
      "name": "setInvestmentToken",
      "outputs": [],
      "stateMutability": "nonpayable",
      "type": "function"
    },
    {
      "inputs": [
        {
          "internalType": "uint24",
          "name": "fee_",
          "type": "uint24"
        },
        {
          "components": [
            {
              "internalType": "string",
              "name": "key",
              "type": "string"
            },
            {
              "internalType": "string",
              "name": "value",
              "type": "string"
            }
          ],
          "internalType": "struct NameValuePair[]",
          "name": "params",
          "type": "tuple[]"
        }
      ],
      "name": "setPerformanceFee",
      "outputs": [],
      "stateMutability": "nonpayable",
      "type": "function"
    },
    {
      "inputs": [
        {
          "internalType": "contract IPriceOracle",
          "name": "priceOracle",
          "type": "address"
        }
      ],
      "name": "setPriceOracle",
      "outputs": [],
      "stateMutability": "nonpayable",
      "type": "function"
    },
    {
      "inputs": [
        {
          "internalType": "enum StrategyBaseUpgradeable.SwapServiceProvider",
          "name": "provider",
          "type": "uint8"
        },
        {
          "internalType": "address",
          "name": "router",
          "type": "address"
        }
      ],
      "name": "setSwapService",
      "outputs": [],
      "stateMutability": "nonpayable",
      "type": "function"
    },
    {
      "inputs": [
        {
          "internalType": "uint256",
          "name": "totalInvestmentLimit",
          "type": "uint256"
        }
      ],
      "name": "setTotalInvestmentLimit",
      "outputs": [],
      "stateMutability": "nonpayable",
      "type": "function"
    },
    {
      "inputs": [
        {
          "internalType": "uint24",
          "name": "fee_",
          "type": "uint24"
        },
        {
          "components": [
            {
              "internalType": "string",
              "name": "key",
              "type": "string"
            },
            {
              "internalType": "string",
              "name": "value",
              "type": "string"
            }
          ],
          "internalType": "struct NameValuePair[]",
          "name": "params",
          "type": "tuple[]"
        }
      ],
      "name": "setWithdrawalFee",
      "outputs": [],
      "stateMutability": "nonpayable",
      "type": "function"
    },
    {
      "inputs": [
        {
          "internalType": "bytes4",
          "name": "interfaceId",
          "type": "bytes4"
        }
      ],
      "name": "supportsInterface",
      "outputs": [
        {
          "internalType": "bool",
          "name": "",
          "type": "bool"
        }
      ],
      "stateMutability": "view",
      "type": "function"
    },
    {
      "inputs": [],
      "name": "swapService",
      "outputs": [
        {
          "internalType": "enum StrategyBaseUpgradeable.SwapServiceProvider",
          "name": "provider",
          "type": "uint8"
        },
        {
          "internalType": "address",
          "name": "router",
          "type": "address"
        }
      ],
      "stateMutability": "view",
      "type": "function"
    },
    {
      "inputs": [],
      "name": "trackingName",
      "outputs": [
        {
          "internalType": "string",
          "name": "",
          "type": "string"
        }
      ],
      "stateMutability": "view",
      "type": "function"
    },
    {
      "inputs": [
        {
          "internalType": "address",
          "name": "newOwner",
          "type": "address"
        }
      ],
      "name": "transferOwnership",
      "outputs": [],
      "stateMutability": "nonpayable",
      "type": "function"
    },
    {
      "inputs": [],
      "name": "uninvestedDepositTokenAmount",
      "outputs": [
        {
          "internalType": "uint256",
          "name": "",
          "type": "uint256"
        }
      ],
      "stateMutability": "view",
      "type": "function"
    },
    {
      "inputs": [],
      "name": "unpause",
      "outputs": [],
      "stateMutability": "nonpayable",
      "type": "function"
    },
    {
      "inputs": [
        {
          "internalType": "address",
          "name": "newImplementation",
          "type": "address"
        }
      ],
      "name": "upgradeTo",
      "outputs": [],
      "stateMutability": "nonpayable",
      "type": "function"
    },
    {
      "inputs": [
        {
          "internalType": "address",
          "name": "newImplementation",
          "type": "address"
        },
        {
          "internalType": "bytes",
          "name": "data",
          "type": "bytes"
        }
      ],
      "name": "upgradeToAndCall",
      "outputs": [],
      "stateMutability": "payable",
      "type": "function"
    },
    {
      "inputs": [],
      "name": "version",
      "outputs": [
        {
          "internalType": "string",
          "name": "",
          "type": "string"
        }
      ],
      "stateMutability": "view",
      "type": "function"
    },
    {
      "inputs": [
        {
          "internalType": "uint256",
          "name": "investmentTokenAmountIn",
          "type": "uint256"
        },
        {
          "internalType": "uint256",
          "name": "minimumDepositTokenAmountOut",
          "type": "uint256"
        },
        {
          "internalType": "address",
          "name": "depositTokenReceiver",
          "type": "address"
        },
        {
          "components": [
            {
              "internalType": "string",
              "name": "key",
              "type": "string"
            },
            {
              "internalType": "string",
              "name": "value",
              "type": "string"
            }
          ],
          "internalType": "struct NameValuePair[]",
          "name": "params",
          "type": "tuple[]"
        }
      ],
      "name": "withdraw",
      "outputs": [],
      "stateMutability": "nonpayable",
      "type": "function"
    },
    {
      "inputs": [
        {
          "components": [
            {
              "internalType": "string",
              "name": "key",
              "type": "string"
            },
            {
              "internalType": "string",
              "name": "value",
              "type": "string"
            }
          ],
          "internalType": "struct NameValuePair[]",
          "name": "withdrawParams",
          "type": "tuple[]"
        }
      ],
      "name": "withdrawReward",
      "outputs": [],
      "stateMutability": "nonpayable",
      "type": "function"
    }
  ],
  "bytecode": "0x60a06040523060805234801561001457600080fd5b5060805161386461004c6000396000818161109f015281816110df015281816112fe0152818161133e01526113b601526138646000f3fe6080604052600436106102445760003560e01c806301ffc9a7146102495780630c976b9a1461027e578063146264db146102a0578063163c210a146102bd5780631fda1214146102dd5780632075fcf8146102fd57806320a4cd6d1461032b5780632630c12f1461035857806327b3a8c9146103865780632f28690e146103a6578063308dade1146103c6578063346cd3c5146103db5780633659cfe6146103fb5780633acefea71461041b5780633c3129e31461043b5780633f4ba83a1461045b578063402cb4d11461047057806344dc283b1461049057806349eca013146104c45780634ab2d57b146104e45780634f1ef2861461050457806352d1902d14610517578063530e784f1461052c57806354fd4d501461054c5780635c975abb1461058a5780635ccadb88146105a257806362f18a69146105b857806364ea9f1d146105d8578063715018a6146105ed5780637251c0be146106025780637bd0754114610622578063803bdca1146106425780638456cb591461066257806385a73627146106775780638b2014b6146106975780638da5cb5b146106ad5780638e35c3f8146106c257806394653451146106fb578063958b87f91461071b578063a190a85514610748578063aa6446ce14610768578063b4464c46146107a1578063b55541f5146107ca578063cf7b9605146107e1578063cfcab38c14610800578063d622e73e14610815578063eb2dc9b614610835578063f2fde38b1461084b578063fa8353291461086b578063fb1b5c7b14610881578063fcd1e90c146108a0575b600080fd5b34801561025557600080fd5b50610269610264366004612d8e565b6108c0565b60405190151581526020015b60405180910390f35b34801561028a57600080fd5b5061029e610299366004612e03565b61095b565b005b3480156102ac57600080fd5b5060605b6040516102759190612e5c565b3480156102c957600080fd5b5061029e6102d8366004612ea9565b610a19565b3480156102e957600080fd5b5061029e6102f8366004612f27565b610cc4565b34801561030957600080fd5b5061031d610318366004612f8e565b610d03565b604051908152602001610275565b34801561033757600080fd5b5061034b610346366004612fb9565b610d76565b6040516102759190612ff2565b34801561036457600080fd5b5061019754610379906001600160a01b031681565b6040516102759190613032565b34801561039257600080fd5b5061029e6103a1366004613046565b610ea3565b3480156103b257600080fd5b5061029e6103c136600461305f565b610edf565b3480156103d257600080fd5b506102b0610f1c565b3480156103e757600080fd5b5061029e6103f6366004612f8e565b611046565b34801561040757600080fd5b5061029e610416366004612f8e565b611094565b34801561042757600080fd5b5061029e610436366004612f27565b61115a565b34801561044757600080fd5b5061029e610456366004613091565b611194565b34801561046757600080fd5b5061029e6111cb565b34801561047c57600080fd5b5061031d61048b366004612fb9565b611204565b34801561049c57600080fd5b506104b06104ab366004612e03565b6112c7565b60405162ffffff9091168152602001610275565b3480156104d057600080fd5b5061034b6104df366004612fb9565b6112dc565b3480156104f057600080fd5b506104b06104ff366004612e03565b6112e7565b61029e610512366004613110565b6112f3565b34801561052357600080fd5b5061031d6113a9565b34801561053857600080fd5b5061029e610547366004612f8e565b611457565b34801561055857600080fd5b5061057d604051806040016040528060058152602001640322e302e360dc1b81525081565b60405161027591906131ff565b34801561059657600080fd5b5060975460ff16610269565b3480156105ae57600080fd5b5061018b5461031d565b3480156105c457600080fd5b5061029e6105d3366004613091565b61148f565b3480156105e457600080fd5b5061031d6114bf565b3480156105f957600080fd5b5061029e61152e565b34801561060e57600080fd5b5061029e61061d366004613232565b611567565b34801561062e57600080fd5b506104b061063d366004612e03565b6115e2565b34801561064e57600080fd5b5061029e61065d36600461326d565b6115ee565b34801561066e57600080fd5b5061029e611628565b34801561068357600080fd5b5061029e610692366004613046565b61165f565b3480156106a357600080fd5b5061018c5461031d565b3480156106b957600080fd5b50610379611698565b3480156106ce57600080fd5b50610198546106ed9060ff81169061010090046001600160a01b031682565b6040516102759291906132a3565b34801561070757600080fd5b506104b0610716366004612e03565b6116a7565b34801561072757600080fd5b50610379610736366004612e03565b5050610162546001600160a01b031690565b34801561075457600080fd5b5061029e610763366004612e03565b6116bc565b34801561077457600080fd5b5061057d6040518060400160405280600d81526020016c5465737420537472617465677960981b81525081565b3480156107ad57600080fd5b506104b06107bc366004612e03565b505061015f5462ffffff1690565b3480156107d657600080fd5b5061031d6101995481565b3480156107ed57600080fd5b50610195546001600160a01b0316610379565b34801561080c57600080fd5b5061057d6116df565b34801561082157600080fd5b506104b0610830366004612e03565b6116fb565b34801561084157600080fd5b506101615461031d565b34801561085757600080fd5b5061029e610866366004612f8e565b61170c565b34801561087757600080fd5b506101605461031d565b34801561088d57600080fd5b50610196546001600160a01b0316610379565b3480156108ac57600080fd5b5061029e6108bb366004612f27565b6117a9565b60006001600160e01b03198216630491473760e41b14806108f157506001600160e01b03198216632979dc6560e11b145b8061090c57506001600160e01b03198216631a6153f360e01b145b8061092757506001600160e01b0319821663b7ac895f60e01b145b8061093a57506001600160e01b03198216155b8061095557506301ffc9a760e01b6001600160e01b03198316145b92915050565b600260fb5414156109875760405162461bcd60e51b815260040161097e906132dd565b60405180910390fd5b600260fb55610160546109ad61099d6101615490565b6109a7908361332a565b61016155565b6109b8600061016055565b6040518181527f296614b32c3d193fb9c7a7bcbec919dedece17659a90d0cc2b5b23da167e6fcd9060200160405180910390a16101625461019654610a0a916001600160a01b039182169116836117e3565b5050600160fb5550565b905090565b600260fb541415610a3c5760405162461bcd60e51b815260040161097e906132dd565b600260fb55610196546040516370a0823160e01b81526000916001600160a01b0316906370a0823190610a73903090600401613032565b602060405180830381865afa158015610a90573d6000803e3d6000fd5b505050506040513d601f19601f82011682018060405250810190610ab49190613342565b610196546040516370a0823160e01b815291925060009183916001600160a01b0316906370a0823190610aeb903090600401613032565b602060405180830381865afa158015610b08573d6000803e3d6000fd5b505050506040513d601f19601f82011682018060405250810190610b2c9190613342565b610b36919061335b565b90506101995481610b47919061332a565b90507f7e3eaf1040dd23019433d0b1d9507d1f28cdfb716f87723fa836d747b7444cb381604051610b7a91815260200190565b60405180910390a180610b8e575050610cb9565b610196546040516370a0823160e01b81526001600160a01b03909116906370a0823190610bbf903090600401613032565b602060405180830381865afa158015610bdc573d6000803e3d6000fd5b505050506040513d601f19601f82011682018060405250810190610c009190613342565b9150610196546040516370a0823160e01b81526000916001600160a01b0316906370a0823190610c34903090600401613032565b602060405180830381865afa158015610c51573d6000803e3d6000fd5b505050506040513d601f19601f82011682018060405250810190610c759190613342565b610c7f908461335b565b9050610c8b818361335b565b61019955604051828152600090309060008051602061377c8339815191529060200160405180910390a35050505b5050600160fb555050565b33610ccd611698565b6001600160a01b031614610cf35760405162461bcd60e51b815260040161097e90613372565b610cfe838383611839565b505050565b610195546040516370a0823160e01b81526000916001600160a01b0316906370a0823190610d35908590600401613032565b602060405180830381865afa158015610d52573d6000803e3d6000fd5b505050506040513d601f19601f820116820180604052508101906109559190613342565b606080518190600090610d8a90600161332a565b9050806001600160401b03811115610da457610da46130fa565b604051908082528060200260200182016040528015610de957816020015b6040805180820190915260008082526020820152815260200190600190039081610dc25790505b50925060005b610dfa60018361335b565b811015610e4957828181518110610e1357610e136133a7565b6020026020010151848281518110610e2d57610e2d6133a7565b602002602001018190525080610e42906133bd565b9050610def565b506040805180820190915273b97ef9ef8734c71904d8002f8b6bc66dd9c48a6e815261019954602082015283610e8060018461335b565b81518110610e9057610e906133a7565b6020026020010181905250505092915050565b33610eac611698565b6001600160a01b031614610ed25760405162461bcd60e51b815260040161097e90613372565b610edc8161018c55565b50565b33610ee8611698565b6001600160a01b031614610f0e5760405162461bcd60e51b815260040161097e90613372565b610f1882826118d6565b5050565b606080518190600090610f3090600161332a565b9050806001600160401b03811115610f4a57610f4a6130fa565b604051908082528060200260200182016040528015610f8f57816020015b6040805180820190915260008082526020820152815260200190600190039081610f685790505b50925060005b610fa060018361335b565b811015610fef57828181518110610fb957610fb96133a7565b6020026020010151848281518110610fd357610fd36133a7565b602002602001018190525080610fe8906133bd565b9050610f95565b506040805180820190915273b97ef9ef8734c71904d8002f8b6bc66dd9c48a6e81526101995460208201528361102660018461335b565b81518110611036576110366133a7565b6020026020010181905250505090565b3361104f611698565b6001600160a01b0316146110755760405162461bcd60e51b815260040161097e90613372565b61019580546001600160a01b0319166001600160a01b03831617905550565b306001600160a01b037f00000000000000000000000000000000000000000000000000000000000000001614156110dd5760405162461bcd60e51b815260040161097e906133d8565b7f00000000000000000000000000000000000000000000000000000000000000006001600160a01b031661110f611957565b6001600160a01b0316146111355760405162461bcd60e51b815260040161097e90613412565b61113e81611973565b60408051600080825260208201909252610edc918391906119a2565b33611163611698565b6001600160a01b0316146111895760405162461bcd60e51b815260040161097e90613372565b610cfe838383611b0d565b60975460ff16156111b75760405162461bcd60e51b815260040161097e9061344c565b6111c48585858585611b88565b5050505050565b336111d4611698565b6001600160a01b0316146111fa5760405162461bcd60e51b815260040161097e90613372565b611202611e99565b565b60008060006112138585610d76565b805190915060005b8181101561126057828181518110611235576112356133a7565b6020026020010151602001518461124c919061332a565b935080611258816133bd565b91505061121b565b50600061126d87876112dc565b805190915060005b818110156112ba5782818151811061128f5761128f6133a7565b602002602001015160200151866112a6919061335b565b9550806112b2816133bd565b915050611275565b5093979650505050505050565b505061015f546301000000900462ffffff1690565b6060805b9392505050565b60006112e083836116a7565b306001600160a01b037f000000000000000000000000000000000000000000000000000000000000000016141561133c5760405162461bcd60e51b815260040161097e906133d8565b7f00000000000000000000000000000000000000000000000000000000000000006001600160a01b031661136e611957565b6001600160a01b0316146113945760405162461bcd60e51b815260040161097e90613412565b61139d82611973565b610f18828260016119a2565b6000306001600160a01b037f000000000000000000000000000000000000000000000000000000000000000016146114445760405162461bcd60e51b815260206004820152603860248201527f555550535570677261646561626c653a206d757374206e6f742062652063616c6044820152771b1959081d1a1c9bdd59da0819195b1959d85d1958d85b1b60421b606482015260840161097e565b506000805160206137e883398151915290565b33611460611698565b6001600160a01b0316146114865760405162461bcd60e51b815260040161097e90613372565b610edc81611f26565b60975460ff16156114b25760405162461bcd60e51b815260040161097e9061344c565b6111c48585858585611f49565b61019554604080516318160ddd60e01b815290516000926001600160a01b0316916318160ddd9160048083019260209291908290030181865afa15801561150a573d6000803e3d6000fd5b505050506040513d601f19601f82011682018060405250810190610a149190613342565b33611537611698565b6001600160a01b03161461155d5760405162461bcd60e51b815260040161097e90613372565b61120260006121f1565b6002600061157482612243565b9050801561158c576000805461ff0019166101001790555b611595836122d7565b8015610cfe576000805461ff001916905560405160ff831681527f7f26b83ff96e1f2b6a682f133852f6798a09c465da95921460cefb3847402498906020015b60405180910390a1505050565b60006112e083836112c7565b336115f7611698565b6001600160a01b03161461161d5760405162461bcd60e51b815260040161097e90613372565b610cfe83838361230f565b33611631611698565b6001600160a01b0316146116575760405162461bcd60e51b815260040161097e90613372565b611202612387565b33611668611698565b6001600160a01b03161461168e5760405162461bcd60e51b815260040161097e90613372565b610edc8161018b55565b60c9546001600160a01b031690565b505061015f54600160301b900462ffffff1690565b60975460ff1615610f185760405162461bcd60e51b815260040161097e9061344c565b6040518060600160405280602c815260200161379c602c913981565b60006112e061015f5462ffffff1690565b33611715611698565b6001600160a01b03161461173b5760405162461bcd60e51b815260040161097e90613372565b6001600160a01b0381166117a05760405162461bcd60e51b815260206004820152602660248201527f4f776e61626c653a206e6577206f776e657220697320746865207a65726f206160448201526564647265737360d01b606482015260840161097e565b610edc816121f1565b336117b2611698565b6001600160a01b0316146117d85760405162461bcd60e51b815260040161097e90613372565b610cfe8383836123df565b610cfe8363a9059cbb60e01b8484604051602401611802929190613476565b60408051601f198184030181529190526020810180516001600160e01b03166001600160e01b03199093169290921790915261246e565b826118476103e8606461348f565b8162ffffff161061186b576040516303689ded60e51b815260040160405180910390fd5b61015f805465ffffff0000001916630100000062ffffff878116820292909217928390556040517f562ffa77d0627a8704e5d9641e53b90a135392b6fb458b619c3cf64555a0adea936118c89392900490911690869086906135bc565b60405180910390a150505050565b60405180604001604052808360008111156118f3576118f361328d565b81526001600160a01b03831660209091015280516101988054909190829060ff191660018380156119265761192661328d565b02179055506020919091015181546001600160a01b0390911661010002610100600160a81b03199091161790555050565b6000805160206137e8833981519152546001600160a01b031690565b3361197c611698565b6001600160a01b031614610edc5760405162461bcd60e51b815260040161097e90613372565b7f4910fdfa16fed3260ed0e7147f7cc6da11a60208b5b9406d12a635614ffd91435460ff16156119d557610cfe83612540565b826001600160a01b03166352d1902d6040518163ffffffff1660e01b8152600401602060405180830381865afa925050508015611a2f575060408051601f3d908101601f19168201909252611a2c91810190613342565b60015b611a925760405162461bcd60e51b815260206004820152602e60248201527f45524331393637557067726164653a206e657720696d706c656d656e7461746960448201526d6f6e206973206e6f74205555505360901b606482015260840161097e565b6000805160206137e88339815191528114611b015760405162461bcd60e51b815260206004820152602960248201527f45524331393637557067726164653a20756e737570706f727465642070726f786044820152681a58589b195555525160ba1b606482015260840161097e565b50610cfe8383836125da565b82611b1b6103e8606461348f565b8162ffffff1610611b3f576040516303689ded60e51b815260040160405180910390fd5b61015f805462ffffff191662ffffff86169081179091556040517f7e81a23ec68969b22ae39faba6faa8633338046c205f9d04a30c8a0df04ca3b9916118c891869086906135bc565b600260fb541415611bab5760405162461bcd60e51b815260040161097e906132dd565b600260fb5584611bce576040516347aedd1b60e11b815260040160405180910390fd5b6001600160a01b038316611bf55760405163115fd31d60e31b815260040160405180910390fd5b6000611c0360016000611204565b9050600080611c106114bf565b90508015611c3e576000611c2387610d03565b905081611c30828661348f565b611c3a91906135db565b9250505b611c488884612605565b611c528883612632565b610196546040516370a0823160e01b81526000916001600160a01b0316906370a0823190611c84903090600401613032565b602060405180830381865afa158015611ca1573d6000803e3d6000fd5b505050506040513d601f19601f82011682018060405250810190611cc59190613342565b9050611ce033610196546001600160a01b031690308c61265f565b610196546040516370a0823160e01b815260009183916001600160a01b03909116906370a0823190611d16903090600401613032565b602060405180830381865afa158015611d33573d6000803e3d6000fd5b505050506040513d601f19601f82011682018060405250810190611d579190613342565b611d61919061335b565b9050806101996000828254611d76919061332a565b9091555060009050611d89600182611204565b90506000611d97878361335b565b905080611db757604051632f1b0c0f60e01b815260040160405180910390fd5b8a811015611dd85760405163c327661d60e01b815260040160405180910390fd5b610195546001600160a01b03166340c10f198b611df68a858a612697565b6040518363ffffffff1660e01b8152600401611e13929190613476565b600060405180830381600087803b158015611e2d57600080fd5b505af1158015611e41573d6000803e3d6000fd5b50505050896001600160a01b0316611e563390565b6001600160a01b031660008051602061377c8339815191528e604051611e7e91815260200190565b60405180910390a35050600160fb5550505050505050505050565b60975460ff16611ee25760405162461bcd60e51b815260206004820152601460248201527314185d5cd8589b194e881b9bdd081c185d5cd95960621b604482015260640161097e565b6097805460ff191690557f5db9ee0a495bf2e6ff9c91a7834c1ba4fdd244a5e8aa4e537bd38aeae4b073aa335b604051611f1c9190613032565b60405180910390a1565b61019780546001600160a01b0319166001600160a01b0392909216919091179055565b600260fb541415611f6c5760405162461bcd60e51b815260040161097e906132dd565b600260fb5584611f8f57604051636d8bee0b60e11b815260040160405180910390fd5b6001600160a01b038316611fb6576040516314f3686160e11b815260040160405180910390fd5b6000611fc38684846126c2565b9050600081611fd38886866126c2565b611fdd919061335b565b9050600061019560009054906101000a90046001600160a01b03166001600160a01b03166318160ddd6040518163ffffffff1660e01b8152600401602060405180830381865afa158015612035573d6000803e3d6000fd5b505050506040513d601f19601f820116820180604052508101906120599190613342565b8861019954612068919061348f565b61207291906135db565b905061207e818361332a565b9150806101996000828254612093919061335b565b909155506000905060646103e86120af61015f5462ffffff1690565b6120be9062ffffff168661348f565b6120c891906135db565b6120d291906135db565b9050876120df828561335b565b10156120fe5760405163c327661d60e01b815260040160405180910390fd5b610195546001600160a01b03166379cc6790338b6040518363ffffffff1660e01b815260040161212f929190613476565b600060405180830381600087803b15801561214957600080fd5b505af115801561215d573d6000803e3d6000fd5b5050505061217f8161216f6101605490565b612179919061332a565b61016055565b6121a18761218d838661335b565b610196546001600160a01b031691906117e3565b6040518981526001600160a01b0388169033907f2717ead6b9200dd235aad468c9809ea400fe33ac69b5bfaa6d3e90fc922b63989060200160405180910390a35050600160fb5550505050505050565b60c980546001600160a01b038381166001600160a01b0319831681179093556040519116919082907f8be0079c531659141344cd1fd0a4f28419497f9722a3daafe3b4186f6b6457e090600090a35050565b60008054610100900460ff1615612291578160ff16600114801561226d575061226b30612735565b155b6122895760405162461bcd60e51b815260040161097e906135fd565b506000919050565b60005460ff8084169116106122b85760405162461bcd60e51b815260040161097e906135fd565b506000805460ff191660ff92909216919091179055600190565b919050565b600054610100900460ff166122fe5760405162461bcd60e51b815260040161097e9061364b565b612306612744565b610edc81612773565b6001600160a01b0383166123365760405163b6802b7f60e01b815260040160405180910390fd5b61016280546001600160a01b0319166001600160a01b0385169081179091556040517fa3fe39fe39850ddb39697065123e293302f3e8948984fde991b5a291ed1ad05b916115d59185908590613696565b60975460ff16156123aa5760405162461bcd60e51b815260040161097e9061344c565b6097805460ff191660011790557f62e78cea01bee320cd4e420270b5ea74000d11b0c9f74754ebdbfc544b05a258611f0f3390565b826123ed6103e8606461348f565b8162ffffff1610612411576040516303689ded60e51b815260040160405180910390fd5b61015f805462ffffff60301b1916600160301b62ffffff878116820292909217928390556040517f05f9aef0771b6541329b82ea24407357fc3ff0f457598588055f84a807dbdb8f936118c89392900490911690869086906135bc565b60006124c3826040518060400160405280602081526020017f5361666545524332303a206c6f772d6c6576656c2063616c6c206661696c6564815250856001600160a01b03166127ab9092919063ffffffff16565b805190915015610cfe57808060200190518101906124e191906136bb565b610cfe5760405162461bcd60e51b815260206004820152602a60248201527f5361666545524332303a204552433230206f7065726174696f6e20646964206e6044820152691bdd081cdd58d8d9595960b21b606482015260840161097e565b61254981612735565b6125ab5760405162461bcd60e51b815260206004820152602d60248201527f455243313936373a206e657720696d706c656d656e746174696f6e206973206e60448201526c1bdd08184818dbdb9d1c9858dd609a1b606482015260840161097e565b6000805160206137e883398151915280546001600160a01b0319166001600160a01b0392909216919091179055565b6125e3836127ba565b6000825111806125f05750805b15610cfe576125ff83836127fa565b50505050565b61018b54612613828461332a565b1115610f185760405163b761799960e01b815260040160405180910390fd5b61018c54612640828461332a565b1115610f185760405163973cc40960e01b815260040160405180910390fd5b6040516001600160a01b03808516602483015283166044820152606481018290526125ff9085906323b872dd60e01b90608401611802565b6000816126a55750816112e0565b836126b0838561348f565b6126ba91906135db565b949350505050565b610196546040516370a0823160e01b81526000916001600160a01b0316906370a08231906126f4903090600401613032565b602060405180830381865afa158015612711573d6000803e3d6000fd5b505050506040513d601f19601f820116820180604052508101906126ba9190613342565b6001600160a01b03163b151590565b600054610100900460ff1661276b5760405162461bcd60e51b815260040161097e9061364b565b6112026128ec565b600054610100900460ff1661279a5760405162461bcd60e51b815260040161097e9061364b565b6127a261291f565b610edc8161294e565b60606126ba8484600085612ad6565b6127c381612540565b6040516001600160a01b038216907fbc7cd75a20ee27fd9adebab32041f755214dbc6bffa90cc0225b39da2e5c2d3b90600090a250565b606061280583612735565b6128605760405162461bcd60e51b815260206004820152602660248201527f416464726573733a2064656c65676174652063616c6c20746f206e6f6e2d636f6044820152651b9d1c9858dd60d21b606482015260840161097e565b600080846001600160a01b03168460405161287b91906136d8565b600060405180830381855af49150503d80600081146128b6576040519150601f19603f3d011682016040523d82523d6000602084013e6128bb565b606091505b50915091506128e3828260405180606001604052806027815260200161380860279139612c05565b95945050505050565b600054610100900460ff166129135760405162461bcd60e51b815260040161097e9061364b565b6097805460ff19169055565b600054610100900460ff166129465760405162461bcd60e51b815260040161097e9061364b565b611202612c3e565b600054610100900460ff166129755760405162461bcd60e51b815260040161097e9061364b565b61297d612c6e565b612985612c95565b61298d612c6e565b612a0c6129a060608301604084016136f4565b6129ad606084018461370f565b6129bd60a08601608087016136f4565b6129ca60a087018761370f565b6129da60e0890160c08a016136f4565b6129e760e08a018a61370f565b6129f96101208c016101008d01612f8e565b612a076101208d018d61370f565b612cc4565b612a20816101400135826101600135612d25565b612a2d6020820182612f8e565b61019580546001600160a01b0319166001600160a01b0392909216919091179055612a5e6040820160208301612f8e565b61019680546001600160a01b0319166001600160a01b0392909216919091179055612a99612a946101a083016101808401612f8e565b611f26565b610edc612aae6101c083016101a08401613758565b60ff168015612abf57612abf61328d565b612ad16101e084016101c08501612f8e565b6118d6565b606082471015612b375760405162461bcd60e51b815260206004820152602660248201527f416464726573733a20696e73756666696369656e742062616c616e636520666f6044820152651c8818d85b1b60d21b606482015260840161097e565b612b4085612735565b612b8c5760405162461bcd60e51b815260206004820152601d60248201527f416464726573733a2063616c6c20746f206e6f6e2d636f6e7472616374000000604482015260640161097e565b600080866001600160a01b03168587604051612ba891906136d8565b60006040518083038185875af1925050503d8060008114612be5576040519150601f19603f3d011682016040523d82523d6000602084013e612bea565b606091505b5091509150612bfa828286612c05565b979650505050505050565b60608315612c145750816112e0565b825115612c245782518084602001fd5b8160405162461bcd60e51b815260040161097e91906131ff565b600054610100900460ff16612c655760405162461bcd60e51b815260040161097e9061364b565b611202336121f1565b600054610100900460ff166112025760405162461bcd60e51b815260040161097e9061364b565b600054610100900460ff16612cbc5760405162461bcd60e51b815260040161097e9061364b565b611202612d60565b600054610100900460ff16612ceb5760405162461bcd60e51b815260040161097e9061364b565b612cf68c8c8c611839565b612d01898989611b0d565b612d0c8686866123df565b612d1783838361230f565b505050505050505050505050565b600054610100900460ff16612d4c5760405162461bcd60e51b815260040161097e9061364b565b612d568261018b55565b610f188161018c55565b600054610100900460ff16612d875760405162461bcd60e51b815260040161097e9061364b565b600160fb55565b600060208284031215612da057600080fd5b81356001600160e01b0319811681146112e057600080fd5b60008083601f840112612dca57600080fd5b5081356001600160401b03811115612de157600080fd5b6020830191508360208260051b8501011115612dfc57600080fd5b9250929050565b60008060208385031215612e1657600080fd5b82356001600160401b03811115612e2c57600080fd5b612e3885828601612db8565b90969095509350505050565b80516001600160a01b03168252602090810151910152565b602080825282518282018190526000919060409081850190868401855b82811015612e9c57612e8c848351612e44565b9284019290850190600101612e79565b5091979650505050505050565b60008060008060408587031215612ebf57600080fd5b84356001600160401b0380821115612ed657600080fd5b612ee288838901612db8565b90965094506020870135915080821115612efb57600080fd5b50612f0887828801612db8565b95989497509550505050565b803562ffffff811681146122d257600080fd5b600080600060408486031215612f3c57600080fd5b612f4584612f14565b925060208401356001600160401b03811115612f6057600080fd5b612f6c86828701612db8565b9497909650939450505050565b6001600160a01b0381168114610edc57600080fd5b600060208284031215612fa057600080fd5b81356112e081612f79565b8015158114610edc57600080fd5b60008060408385031215612fcc57600080fd5b8235612fd781612fab565b91506020830135612fe781612fab565b809150509250929050565b602080825282518282018190526000919060409081850190868401855b82811015612e9c57613022848351612e44565b928401929085019060010161300f565b6001600160a01b0391909116815260200190565b60006020828403121561305857600080fd5b5035919050565b6000806040838503121561307257600080fd5b82356001811061308157600080fd5b91506020830135612fe781612f79565b6000806000806000608086880312156130a957600080fd5b853594506020860135935060408601356130c281612f79565b925060608601356001600160401b038111156130dd57600080fd5b6130e988828901612db8565b969995985093965092949392505050565b634e487b7160e01b600052604160045260246000fd5b6000806040838503121561312357600080fd5b823561312e81612f79565b915060208301356001600160401b038082111561314a57600080fd5b818501915085601f83011261315e57600080fd5b813581811115613170576131706130fa565b604051601f8201601f19908116603f01168101908382118183101715613198576131986130fa565b816040528281528860208487010111156131b157600080fd5b8260208601602083013760006020848301015280955050505050509250929050565b60005b838110156131ee5781810151838201526020016131d6565b838111156125ff5750506000910152565b602081526000825180602084015261321e8160408501602087016131d3565b601f01601f19169190910160400192915050565b60006020828403121561324457600080fd5b81356001600160401b0381111561325a57600080fd5b820161020081850312156112e057600080fd5b60008060006040848603121561328257600080fd5b8335612f4581612f79565b634e487b7160e01b600052602160045260246000fd5b60408101600184106132c557634e487b7160e01b600052602160045260246000fd5b9281526001600160a01b039190911660209091015290565b6020808252601f908201527f5265656e7472616e637947756172643a207265656e7472616e742063616c6c00604082015260600190565b634e487b7160e01b600052601160045260246000fd5b6000821982111561333d5761333d613314565b500190565b60006020828403121561335457600080fd5b5051919050565b60008282101561336d5761336d613314565b500390565b6020808252818101527f4f776e61626c653a2063616c6c6572206973206e6f7420746865206f776e6572604082015260600190565b634e487b7160e01b600052603260045260246000fd5b60006000198214156133d1576133d1613314565b5060010190565b6020808252602c908201526000805160206137c883398151915260408201526b19195b1959d85d1958d85b1b60a21b606082015260800190565b6020808252602c908201526000805160206137c883398151915260408201526b6163746976652070726f787960a01b606082015260800190565b60208082526010908201526f14185d5cd8589b194e881c185d5cd95960821b604082015260600190565b6001600160a01b03929092168252602082015260400190565b60008160001904831182151516156134a9576134a9613314565b500290565b6000808335601e198436030181126134c557600080fd5b83016020810192503590506001600160401b038111156134e457600080fd5b803603831315612dfc57600080fd5b81835281816020850137506000828201602090810191909152601f909101601f19169091010190565b81835260006020808501808196508560051b81019150846000805b888110156135ae578385038a528235603e19893603018112613557578283fd5b8801604061356582806134ae565b828952613575838a0182846134f3565b92505050613585888301836134ae565b9250878203898901526135998284836134f3565b9c89019c975050509286019250600101613537565b509298975050505050505050565b62ffffff841681526040602082015260006128e360408301848661351c565b6000826135f857634e487b7160e01b600052601260045260246000fd5b500490565b6020808252602e908201527f496e697469616c697a61626c653a20636f6e747261637420697320616c72656160408201526d191e481a5b9a5d1a585b1a5e995960921b606082015260800190565b6020808252602b908201527f496e697469616c697a61626c653a20636f6e7472616374206973206e6f74206960408201526a6e697469616c697a696e6760a81b606082015260800190565b6001600160a01b03841681526040602082018190526000906128e3908301848661351c565b6000602082840312156136cd57600080fd5b81516112e081612fab565b600082516136ea8184602087016131d3565b9190910192915050565b60006020828403121561370657600080fd5b6112e082612f14565b6000808335601e1984360301811261372657600080fd5b8301803591506001600160401b0382111561374057600080fd5b6020019150600581901b3603821315612dfc57600080fd5b60006020828403121561376a57600080fd5b813560ff811681146112e057600080fdfe5548c837ab068cf56a2c2479df0882a4922fd203edb7517321831d95078c5f6262726f6b6b722e746573745f73747261746567792e3c696e7365727420676974206c6162656c20686572653e46756e6374696f6e206d7573742062652063616c6c6564207468726f75676820360894a13ba1a3210667c828492db98dca3e2076cc3735a920a3ca505d382bbc416464726573733a206c6f772d6c6576656c2064656c65676174652063616c6c206661696c6564a2646970667358221220efbf54ab1bc819f4c29599e8865e67163eef64ca2678a1c93338b43ef497cfc464736f6c634300080a0033",
  "linkReferences": {},
  "deployedLinkReferences": {}
}