{
  "_format": "hh-sol-artifact-1",
  "contractName": "Cash",
  "sourceName": "contracts/strategies/cash/Cash.sol",
  "abi": [
    {
      "inputs": [],
      "stateMutability": "nonpayable",
      "type": "constructor"
    },
    {
      "inputs": [],
      "name": "InvalidFeeError",
      "type": "error"
    },
    {
      "inputs": [],
      "name": "InvalidSwapServiceProvider",
      "type": "error"
    },
    {
      "inputs": [],
      "name": "InvestmentLimitPerAddressExceeded",
      "type": "error"
    },
    {
      "inputs": [],
      "name": "TooSmallDepositTokenAmountOut",
      "type": "error"
    },
    {
      "inputs": [],
      "name": "TotalInvestmentLimitExceeded",
      "type": "error"
    },
    {
      "inputs": [],
      "name": "ZeroAmountDeposited",
      "type": "error"
    },
    {
      "inputs": [],
      "name": "ZeroAmountInvested",
      "type": "error"
    },
    {
      "inputs": [],
      "name": "ZeroAmountWithdrawn",
      "type": "error"
    },
    {
      "inputs": [],
      "name": "ZeroDepositTokenReceiver",
      "type": "error"
    },
    {
      "inputs": [],
      "name": "ZeroFeeReceiver",
      "type": "error"
    },
    {
      "inputs": [],
      "name": "ZeroInvestmentTokenReceiver",
      "type": "error"
    },
    {
      "anonymous": false,
      "inputs": [
        {
          "indexed": false,
          "internalType": "address",
          "name": "previousAdmin",
          "type": "address"
        },
        {
          "indexed": false,
          "internalType": "address",
          "name": "newAdmin",
          "type": "address"
        }
      ],
      "name": "AdminChanged",
      "type": "event"
    },
    {
      "anonymous": false,
      "inputs": [
        {
          "indexed": true,
          "internalType": "address",
          "name": "beacon",
          "type": "address"
        }
      ],
      "name": "BeaconUpgraded",
      "type": "event"
    },
    {
      "anonymous": false,
      "inputs": [
        {
          "indexed": true,
          "internalType": "address",
          "name": "initiator",
          "type": "address"
        },
        {
          "indexed": true,
          "internalType": "address",
          "name": "investmentTokenReceiver",
          "type": "address"
        },
        {
          "indexed": false,
          "internalType": "uint256",
          "name": "amount",
          "type": "uint256"
        }
      ],
      "name": "Deposit",
      "type": "event"
    },
    {
      "anonymous": false,
      "inputs": [
        {
          "indexed": false,
          "internalType": "uint256",
          "name": "fee",
          "type": "uint256"
        },
        {
          "components": [
            {
              "internalType": "string",
              "name": "key",
              "type": "string"
            },
            {
              "internalType": "string",
              "name": "value",
              "type": "string"
            }
          ],
          "indexed": false,
          "internalType": "struct NameValuePair[]",
          "name": "params",
          "type": "tuple[]"
        }
      ],
      "name": "DepositFeeChange",
      "type": "event"
    },
    {
      "anonymous": false,
      "inputs": [
        {
          "indexed": false,
          "internalType": "uint256",
          "name": "fee",
          "type": "uint256"
        }
      ],
      "name": "FeeClaim",
      "type": "event"
    },
    {
      "anonymous": false,
      "inputs": [
        {
          "indexed": false,
          "internalType": "address",
          "name": "feeReceiver",
          "type": "address"
        },
        {
          "components": [
            {
              "internalType": "string",
              "name": "key",
              "type": "string"
            },
            {
              "internalType": "string",
              "name": "value",
              "type": "string"
            }
          ],
          "indexed": false,
          "internalType": "struct NameValuePair[]",
          "name": "params",
          "type": "tuple[]"
        }
      ],
      "name": "FeeReceiverChange",
      "type": "event"
    },
    {
      "anonymous": false,
      "inputs": [
        {
          "indexed": false,
          "internalType": "uint8",
          "name": "version",
          "type": "uint8"
        }
      ],
      "name": "Initialized",
      "type": "event"
    },
    {
      "anonymous": false,
      "inputs": [
        {
          "indexed": true,
          "internalType": "address",
          "name": "previousOwner",
          "type": "address"
        },
        {
          "indexed": true,
          "internalType": "address",
          "name": "newOwner",
          "type": "address"
        }
      ],
      "name": "OwnershipTransferred",
      "type": "event"
    },
    {
      "anonymous": false,
      "inputs": [
        {
          "indexed": false,
          "internalType": "address",
          "name": "account",
          "type": "address"
        }
      ],
      "name": "Paused",
      "type": "event"
    },
    {
      "anonymous": false,
      "inputs": [
        {
          "indexed": false,
          "internalType": "uint256",
          "name": "fee",
          "type": "uint256"
        },
        {
          "components": [
            {
              "internalType": "string",
              "name": "key",
              "type": "string"
            },
            {
              "internalType": "string",
              "name": "value",
              "type": "string"
            }
          ],
          "indexed": false,
          "internalType": "struct NameValuePair[]",
          "name": "params",
          "type": "tuple[]"
        }
      ],
      "name": "PerformanceFeeChange",
      "type": "event"
    },
    {
      "anonymous": false,
      "inputs": [
        {
          "indexed": false,
          "internalType": "uint256",
          "name": "amount",
          "type": "uint256"
        }
      ],
      "name": "RewardProcess",
      "type": "event"
    },
    {
      "anonymous": false,
      "inputs": [
        {
          "indexed": true,
          "internalType": "address",
          "name": "withdrawer",
          "type": "address"
        },
        {
          "indexed": false,
          "internalType": "uint256",
          "name": "amount",
          "type": "uint256"
        }
      ],
      "name": "RewardWithdraw",
      "type": "event"
    },
    {
      "anonymous": false,
      "inputs": [
        {
          "indexed": false,
          "internalType": "address",
          "name": "account",
          "type": "address"
        }
      ],
      "name": "Unpaused",
      "type": "event"
    },
    {
      "anonymous": false,
      "inputs": [
        {
          "indexed": true,
          "internalType": "address",
          "name": "implementation",
          "type": "address"
        }
      ],
      "name": "Upgraded",
      "type": "event"
    },
    {
      "anonymous": false,
      "inputs": [
        {
          "indexed": true,
          "internalType": "address",
          "name": "initiator",
          "type": "address"
        },
        {
          "indexed": true,
          "internalType": "address",
          "name": "depositTokenReceiver",
          "type": "address"
        },
        {
          "indexed": false,
          "internalType": "uint256",
          "name": "amount",
          "type": "uint256"
        }
      ],
      "name": "Withdrawal",
      "type": "event"
    },
    {
      "anonymous": false,
      "inputs": [
        {
          "indexed": false,
          "internalType": "uint256",
          "name": "fee",
          "type": "uint256"
        },
        {
          "components": [
            {
              "internalType": "string",
              "name": "key",
              "type": "string"
            },
            {
              "internalType": "string",
              "name": "value",
              "type": "string"
            }
          ],
          "indexed": false,
          "internalType": "struct NameValuePair[]",
          "name": "params",
          "type": "tuple[]"
        }
      ],
      "name": "WithdrawalFeeChange",
      "type": "event"
    },
    {
      "inputs": [
        {
          "components": [
            {
              "internalType": "string",
              "name": "key",
              "type": "string"
            },
            {
              "internalType": "string",
              "name": "value",
              "type": "string"
            }
          ],
          "internalType": "struct NameValuePair[]",
          "name": "",
          "type": "tuple[]"
        }
      ],
      "name": "claimFee",
      "outputs": [],
      "stateMutability": "nonpayable",
      "type": "function"
    },
    {
      "inputs": [
        {
          "internalType": "uint256",
          "name": "depositTokenAmountIn",
          "type": "uint256"
        },
        {
          "internalType": "uint256",
          "name": "minimumDepositTokenAmountOut",
          "type": "uint256"
        },
        {
          "internalType": "address",
          "name": "investmentTokenReceiver",
          "type": "address"
        },
        {
          "components": [
            {
              "internalType": "string",
              "name": "key",
              "type": "string"
            },
            {
              "internalType": "string",
              "name": "value",
              "type": "string"
            }
          ],
          "internalType": "struct NameValuePair[]",
          "name": "params",
          "type": "tuple[]"
        }
      ],
      "name": "deposit",
      "outputs": [],
      "stateMutability": "nonpayable",
      "type": "function"
    },
    {
      "inputs": [],
      "name": "getAssetBalances",
      "outputs": [
        {
          "components": [
            {
              "internalType": "address",
              "name": "asset",
              "type": "address"
            },
            {
              "internalType": "uint256",
              "name": "balance",
              "type": "uint256"
            }
          ],
          "internalType": "struct IAum.Balance[]",
          "name": "balances",
          "type": "tuple[]"
        }
      ],
      "stateMutability": "view",
      "type": "function"
    },
    {
      "inputs": [
        {
          "internalType": "bool",
          "name": "shouldMaximise",
          "type": "bool"
        },
        {
          "internalType": "bool",
          "name": "shouldIncludeAmmPrice",
          "type": "bool"
        }
      ],
      "name": "getAssetValuations",
      "outputs": [
        {
          "components": [
            {
              "internalType": "address",
              "name": "asset",
              "type": "address"
            },
            {
              "internalType": "uint256",
              "name": "valuation",
              "type": "uint256"
            }
          ],
          "internalType": "struct IAum.Valuation[]",
          "name": "valuations",
          "type": "tuple[]"
        }
      ],
      "stateMutability": "view",
      "type": "function"
    },
    {
      "inputs": [],
      "name": "getClaimedFee",
      "outputs": [
        {
          "internalType": "uint256",
          "name": "",
          "type": "uint256"
        }
      ],
      "stateMutability": "view",
      "type": "function"
    },
    {
      "inputs": [],
      "name": "getCurrentAccumulatedFee",
      "outputs": [
        {
          "internalType": "uint256",
          "name": "",
          "type": "uint256"
        }
      ],
      "stateMutability": "view",
      "type": "function"
    },
    {
      "inputs": [
        {
          "components": [
            {
              "internalType": "string",
              "name": "key",
              "type": "string"
            },
            {
              "internalType": "string",
              "name": "value",
              "type": "string"
            }
          ],
          "internalType": "struct NameValuePair[]",
          "name": "",
          "type": "tuple[]"
        }
      ],
      "name": "getDepositFee",
      "outputs": [
        {
          "internalType": "uint24",
          "name": "",
          "type": "uint24"
        }
      ],
      "stateMutability": "view",
      "type": "function"
    },
    {
      "inputs": [],
      "name": "getDepositToken",
      "outputs": [
        {
          "internalType": "contract IERC20Upgradeable",
          "name": "",
          "type": "address"
        }
      ],
      "stateMutability": "view",
      "type": "function"
    },
    {
      "inputs": [
        {
          "internalType": "bool",
          "name": "shouldMaximise",
          "type": "bool"
        },
        {
          "internalType": "bool",
          "name": "shouldIncludeAmmPrice",
          "type": "bool"
        }
      ],
      "name": "getEquityValuation",
      "outputs": [
        {
          "internalType": "uint256",
          "name": "",
          "type": "uint256"
        }
      ],
      "stateMutability": "view",
      "type": "function"
    },
    {
      "inputs": [
        {
          "components": [
            {
              "internalType": "string",
              "name": "key",
              "type": "string"
            },
            {
              "internalType": "string",
              "name": "value",
              "type": "string"
            }
          ],
          "internalType": "struct NameValuePair[]",
          "name": "",
          "type": "tuple[]"
        }
      ],
      "name": "getFeeReceiver",
      "outputs": [
        {
          "internalType": "address",
          "name": "",
          "type": "address"
        }
      ],
      "stateMutability": "view",
      "type": "function"
    },
    {
      "inputs": [],
      "name": "getInvestmentLimitPerAddress",
      "outputs": [
        {
          "internalType": "uint256",
          "name": "",
          "type": "uint256"
        }
      ],
      "stateMutability": "view",
      "type": "function"
    },
    {
      "inputs": [],
      "name": "getInvestmentToken",
      "outputs": [
        {
          "internalType": "contract IInvestmentToken",
          "name": "",
          "type": "address"
        }
      ],
      "stateMutability": "view",
      "type": "function"
    },
    {
      "inputs": [
        {
          "internalType": "address",
          "name": "account",
          "type": "address"
        }
      ],
      "name": "getInvestmentTokenBalanceOf",
      "outputs": [
        {
          "internalType": "uint256",
          "name": "",
          "type": "uint256"
        }
      ],
      "stateMutability": "view",
      "type": "function"
    },
    {
      "inputs": [],
      "name": "getInvestmentTokenSupply",
      "outputs": [
        {
          "internalType": "uint256",
          "name": "",
          "type": "uint256"
        }
      ],
      "stateMutability": "view",
      "type": "function"
    },
    {
      "inputs": [],
      "name": "getLiabilityBalances",
      "outputs": [
        {
          "components": [
            {
              "internalType": "address",
              "name": "asset",
              "type": "address"
            },
            {
              "internalType": "uint256",
              "name": "balance",
              "type": "uint256"
            }
          ],
          "internalType": "struct IAum.Balance[]",
          "name": "balances",
          "type": "tuple[]"
        }
      ],
      "stateMutability": "view",
      "type": "function"
    },
    {
      "inputs": [
        {
          "internalType": "bool",
          "name": "shouldMaximise",
          "type": "bool"
        },
        {
          "internalType": "bool",
          "name": "shouldIncludeAmmPrice",
          "type": "bool"
        }
      ],
      "name": "getLiabilityValuations",
      "outputs": [
        {
          "components": [
            {
              "internalType": "address",
              "name": "asset",
              "type": "address"
            },
            {
              "internalType": "uint256",
              "name": "valuation",
              "type": "uint256"
            }
          ],
          "internalType": "struct IAum.Valuation[]",
          "name": "",
          "type": "tuple[]"
        }
      ],
      "stateMutability": "view",
      "type": "function"
    },
    {
      "inputs": [
        {
          "components": [
            {
              "internalType": "string",
              "name": "key",
              "type": "string"
            },
            {
              "internalType": "string",
              "name": "value",
              "type": "string"
            }
          ],
          "internalType": "struct NameValuePair[]",
          "name": "",
          "type": "tuple[]"
        }
      ],
      "name": "getPerformanceFee",
      "outputs": [
        {
          "internalType": "uint24",
          "name": "",
          "type": "uint24"
        }
      ],
      "stateMutability": "view",
      "type": "function"
    },
    {
      "inputs": [
        {
          "components": [
            {
              "internalType": "string",
              "name": "key",
              "type": "string"
            },
            {
              "internalType": "string",
              "name": "value",
              "type": "string"
            }
          ],
          "internalType": "struct NameValuePair[]",
          "name": "params",
          "type": "tuple[]"
        }
      ],
      "name": "getTotalDepositFee",
      "outputs": [
        {
          "internalType": "uint24",
          "name": "",
          "type": "uint24"
        }
      ],
      "stateMutability": "view",
      "type": "function"
    },
    {
      "inputs": [],
      "name": "getTotalInvestmentLimit",
      "outputs": [
        {
          "internalType": "uint256",
          "name": "",
          "type": "uint256"
        }
      ],
      "stateMutability": "view",
      "type": "function"
    },
    {
      "inputs": [
        {
          "components": [
            {
              "internalType": "string",
              "name": "key",
              "type": "string"
            },
            {
              "internalType": "string",
              "name": "value",
              "type": "string"
            }
          ],
          "internalType": "struct NameValuePair[]",
          "name": "params",
          "type": "tuple[]"
        }
      ],
      "name": "getTotalPerformanceFee",
      "outputs": [
        {
          "internalType": "uint24",
          "name": "",
          "type": "uint24"
        }
      ],
      "stateMutability": "view",
      "type": "function"
    },
    {
      "inputs": [
        {
          "components": [
            {
              "internalType": "string",
              "name": "key",
              "type": "string"
            },
            {
              "internalType": "string",
              "name": "value",
              "type": "string"
            }
          ],
          "internalType": "struct NameValuePair[]",
          "name": "params",
          "type": "tuple[]"
        }
      ],
      "name": "getTotalWithdrawalFee",
      "outputs": [
        {
          "internalType": "uint24",
          "name": "",
          "type": "uint24"
        }
      ],
      "stateMutability": "view",
      "type": "function"
    },
    {
      "inputs": [
        {
          "components": [
            {
              "internalType": "string",
              "name": "key",
              "type": "string"
            },
            {
              "internalType": "string",
              "name": "value",
              "type": "string"
            }
          ],
          "internalType": "struct NameValuePair[]",
          "name": "",
          "type": "tuple[]"
        }
      ],
      "name": "getWithdrawalFee",
      "outputs": [
        {
          "internalType": "uint24",
          "name": "",
          "type": "uint24"
        }
      ],
      "stateMutability": "view",
      "type": "function"
    },
    {
      "inputs": [],
      "name": "humanReadableName",
      "outputs": [
        {
          "internalType": "string",
          "name": "",
          "type": "string"
        }
      ],
      "stateMutability": "view",
      "type": "function"
    },
    {
      "inputs": [
        {
          "components": [
            {
              "internalType": "contract IInvestmentToken",
              "name": "investmentToken",
              "type": "address"
            },
            {
              "internalType": "contract IERC20Upgradeable",
              "name": "depositToken",
              "type": "address"
            },
            {
              "internalType": "uint24",
              "name": "depositFee",
              "type": "uint24"
            },
            {
              "components": [
                {
                  "internalType": "string",
                  "name": "key",
                  "type": "string"
                },
                {
                  "internalType": "string",
                  "name": "value",
                  "type": "string"
                }
              ],
              "internalType": "struct NameValuePair[]",
              "name": "depositFeeParams",
              "type": "tuple[]"
            },
            {
              "internalType": "uint24",
              "name": "withdrawalFee",
              "type": "uint24"
            },
            {
              "components": [
                {
                  "internalType": "string",
                  "name": "key",
                  "type": "string"
                },
                {
                  "internalType": "string",
                  "name": "value",
                  "type": "string"
                }
              ],
              "internalType": "struct NameValuePair[]",
              "name": "withdrawFeeParams",
              "type": "tuple[]"
            },
            {
              "internalType": "uint24",
              "name": "performanceFee",
              "type": "uint24"
            },
            {
              "components": [
                {
                  "internalType": "string",
                  "name": "key",
                  "type": "string"
                },
                {
                  "internalType": "string",
                  "name": "value",
                  "type": "string"
                }
              ],
              "internalType": "struct NameValuePair[]",
              "name": "performanceFeeParams",
              "type": "tuple[]"
            },
            {
              "internalType": "address",
              "name": "feeReceiver",
              "type": "address"
            },
            {
              "components": [
                {
                  "internalType": "string",
                  "name": "key",
                  "type": "string"
                },
                {
                  "internalType": "string",
                  "name": "value",
                  "type": "string"
                }
              ],
              "internalType": "struct NameValuePair[]",
              "name": "feeReceiverParams",
              "type": "tuple[]"
            },
            {
              "internalType": "uint256",
              "name": "totalInvestmentLimit",
              "type": "uint256"
            },
            {
              "internalType": "uint256",
              "name": "investmentLimitPerAddress",
              "type": "uint256"
            },
            {
              "internalType": "contract IPriceOracle",
              "name": "priceOracle",
              "type": "address"
            },
            {
              "internalType": "uint8",
              "name": "swapServiceProvider",
              "type": "uint8"
            },
            {
              "internalType": "address",
              "name": "swapServiceRouter",
              "type": "address"
            },
            {
              "components": [
                {
                  "internalType": "bytes32",
                  "name": "role",
                  "type": "bytes32"
                },
                {
                  "internalType": "address[]",
                  "name": "user",
                  "type": "address[]"
                }
              ],
              "internalType": "struct RoleToUsers[]",
              "name": "roleToUsersArray",
              "type": "tuple[]"
            }
          ],
          "internalType": "struct StrategyArgs",
          "name": "strategyArgs",
          "type": "tuple"
        }
      ],
      "name": "initialize",
      "outputs": [],
      "stateMutability": "nonpayable",
      "type": "function"
    },
    {
      "inputs": [],
      "name": "owner",
      "outputs": [
        {
          "internalType": "address",
          "name": "",
          "type": "address"
        }
      ],
      "stateMutability": "view",
      "type": "function"
    },
    {
      "inputs": [],
      "name": "pause",
      "outputs": [],
      "stateMutability": "nonpayable",
      "type": "function"
    },
    {
      "inputs": [],
      "name": "paused",
      "outputs": [
        {
          "internalType": "bool",
          "name": "",
          "type": "bool"
        }
      ],
      "stateMutability": "view",
      "type": "function"
    },
    {
      "inputs": [],
      "name": "priceOracle",
      "outputs": [
        {
          "internalType": "contract IPriceOracle",
          "name": "",
          "type": "address"
        }
      ],
      "stateMutability": "view",
      "type": "function"
    },
    {
      "inputs": [
        {
          "components": [
            {
              "internalType": "string",
              "name": "key",
              "type": "string"
            },
            {
              "internalType": "string",
              "name": "value",
              "type": "string"
            }
          ],
          "internalType": "struct NameValuePair[]",
          "name": "",
          "type": "tuple[]"
        },
        {
          "components": [
            {
              "internalType": "string",
              "name": "key",
              "type": "string"
            },
            {
              "internalType": "string",
              "name": "value",
              "type": "string"
            }
          ],
          "internalType": "struct NameValuePair[]",
          "name": "",
          "type": "tuple[]"
        }
      ],
      "name": "processReward",
      "outputs": [],
      "stateMutability": "nonpayable",
      "type": "function"
    },
    {
      "inputs": [],
      "name": "proxiableUUID",
      "outputs": [
        {
          "internalType": "bytes32",
          "name": "",
          "type": "bytes32"
        }
      ],
      "stateMutability": "view",
      "type": "function"
    },
    {
      "inputs": [],
      "name": "renounceOwnership",
      "outputs": [],
      "stateMutability": "nonpayable",
      "type": "function"
    },
    {
      "inputs": [
        {
          "internalType": "uint24",
          "name": "fee_",
          "type": "uint24"
        },
        {
          "components": [
            {
              "internalType": "string",
              "name": "key",
              "type": "string"
            },
            {
              "internalType": "string",
              "name": "value",
              "type": "string"
            }
          ],
          "internalType": "struct NameValuePair[]",
          "name": "params",
          "type": "tuple[]"
        }
      ],
      "name": "setDepositFee",
      "outputs": [],
      "stateMutability": "nonpayable",
      "type": "function"
    },
    {
      "inputs": [
        {
          "internalType": "address",
          "name": "feeReceiver_",
          "type": "address"
        },
        {
          "components": [
            {
              "internalType": "string",
              "name": "key",
              "type": "string"
            },
            {
              "internalType": "string",
              "name": "value",
              "type": "string"
            }
          ],
          "internalType": "struct NameValuePair[]",
          "name": "params",
          "type": "tuple[]"
        }
      ],
      "name": "setFeeReceiver",
      "outputs": [],
      "stateMutability": "nonpayable",
      "type": "function"
    },
    {
      "inputs": [
        {
          "internalType": "uint256",
          "name": "investmentLimitPerAddress",
          "type": "uint256"
        }
      ],
      "name": "setInvestmentLimitPerAddress",
      "outputs": [],
      "stateMutability": "nonpayable",
      "type": "function"
    },
    {
      "inputs": [
        {
          "internalType": "contract IInvestmentToken",
          "name": "investmentToken",
          "type": "address"
        }
      ],
      "name": "setInvestmentToken",
      "outputs": [],
      "stateMutability": "nonpayable",
      "type": "function"
    },
    {
      "inputs": [
        {
          "internalType": "uint24",
          "name": "fee_",
          "type": "uint24"
        },
        {
          "components": [
            {
              "internalType": "string",
              "name": "key",
              "type": "string"
            },
            {
              "internalType": "string",
              "name": "value",
              "type": "string"
            }
          ],
          "internalType": "struct NameValuePair[]",
          "name": "params",
          "type": "tuple[]"
        }
      ],
      "name": "setPerformanceFee",
      "outputs": [],
      "stateMutability": "nonpayable",
      "type": "function"
    },
    {
      "inputs": [
        {
          "internalType": "contract IPriceOracle",
          "name": "priceOracle",
          "type": "address"
        }
      ],
      "name": "setPriceOracle",
      "outputs": [],
      "stateMutability": "nonpayable",
      "type": "function"
    },
    {
      "inputs": [
        {
          "internalType": "enum StrategyBaseUpgradeable.SwapServiceProvider",
          "name": "provider",
          "type": "uint8"
        },
        {
          "internalType": "address",
          "name": "router",
          "type": "address"
        }
      ],
      "name": "setSwapService",
      "outputs": [],
      "stateMutability": "nonpayable",
      "type": "function"
    },
    {
      "inputs": [
        {
          "internalType": "uint256",
          "name": "totalInvestmentLimit",
          "type": "uint256"
        }
      ],
      "name": "setTotalInvestmentLimit",
      "outputs": [],
      "stateMutability": "nonpayable",
      "type": "function"
    },
    {
      "inputs": [
        {
          "internalType": "uint24",
          "name": "fee_",
          "type": "uint24"
        },
        {
          "components": [
            {
              "internalType": "string",
              "name": "key",
              "type": "string"
            },
            {
              "internalType": "string",
              "name": "value",
              "type": "string"
            }
          ],
          "internalType": "struct NameValuePair[]",
          "name": "params",
          "type": "tuple[]"
        }
      ],
      "name": "setWithdrawalFee",
      "outputs": [],
      "stateMutability": "nonpayable",
      "type": "function"
    },
    {
      "inputs": [
        {
          "internalType": "bytes4",
          "name": "interfaceId",
          "type": "bytes4"
        }
      ],
      "name": "supportsInterface",
      "outputs": [
        {
          "internalType": "bool",
          "name": "",
          "type": "bool"
        }
      ],
      "stateMutability": "view",
      "type": "function"
    },
    {
      "inputs": [],
      "name": "swapService",
      "outputs": [
        {
          "internalType": "enum StrategyBaseUpgradeable.SwapServiceProvider",
          "name": "provider",
          "type": "uint8"
        },
        {
          "internalType": "address",
          "name": "router",
          "type": "address"
        }
      ],
      "stateMutability": "view",
      "type": "function"
    },
    {
      "inputs": [],
      "name": "trackingName",
      "outputs": [
        {
          "internalType": "string",
          "name": "",
          "type": "string"
        }
      ],
      "stateMutability": "view",
      "type": "function"
    },
    {
      "inputs": [
        {
          "internalType": "address",
          "name": "newOwner",
          "type": "address"
        }
      ],
      "name": "transferOwnership",
      "outputs": [],
      "stateMutability": "nonpayable",
      "type": "function"
    },
    {
      "inputs": [],
      "name": "uninvestedDepositTokenAmount",
      "outputs": [
        {
          "internalType": "uint256",
          "name": "",
          "type": "uint256"
        }
      ],
      "stateMutability": "view",
      "type": "function"
    },
    {
      "inputs": [],
      "name": "unpause",
      "outputs": [],
      "stateMutability": "nonpayable",
      "type": "function"
    },
    {
      "inputs": [
        {
          "internalType": "address",
          "name": "newImplementation",
          "type": "address"
        }
      ],
      "name": "upgradeTo",
      "outputs": [],
      "stateMutability": "nonpayable",
      "type": "function"
    },
    {
      "inputs": [
        {
          "internalType": "address",
          "name": "newImplementation",
          "type": "address"
        },
        {
          "internalType": "bytes",
          "name": "data",
          "type": "bytes"
        }
      ],
      "name": "upgradeToAndCall",
      "outputs": [],
      "stateMutability": "payable",
      "type": "function"
    },
    {
      "inputs": [],
      "name": "version",
      "outputs": [
        {
          "internalType": "string",
          "name": "",
          "type": "string"
        }
      ],
      "stateMutability": "view",
      "type": "function"
    },
    {
      "inputs": [
        {
          "internalType": "uint256",
          "name": "investmentTokenAmountIn",
          "type": "uint256"
        },
        {
          "internalType": "uint256",
          "name": "minimumDepositTokenAmountOut",
          "type": "uint256"
        },
        {
          "internalType": "address",
          "name": "depositTokenReceiver",
          "type": "address"
        },
        {
          "components": [
            {
              "internalType": "string",
              "name": "key",
              "type": "string"
            },
            {
              "internalType": "string",
              "name": "value",
              "type": "string"
            }
          ],
          "internalType": "struct NameValuePair[]",
          "name": "params",
          "type": "tuple[]"
        }
      ],
      "name": "withdraw",
      "outputs": [],
      "stateMutability": "nonpayable",
      "type": "function"
    },
    {
      "inputs": [
        {
          "components": [
            {
              "internalType": "string",
              "name": "key",
              "type": "string"
            },
            {
              "internalType": "string",
              "name": "value",
              "type": "string"
            }
          ],
          "internalType": "struct NameValuePair[]",
          "name": "withdrawParams",
          "type": "tuple[]"
        }
      ],
      "name": "withdrawReward",
      "outputs": [],
      "stateMutability": "nonpayable",
      "type": "function"
    }
  ],
  "bytecode": "0x60a0604052306080523480156200001557600080fd5b506200002062000026565b6200013f565b6200003260ff62000035565b50565b60008054610100900460ff16156200009e578160ff1660011480156200006e57506200006c30620000e260201b620015c81760201c565b155b620000965760405162461bcd60e51b81526004016200008d90620000f1565b60405180910390fd5b506000919050565b60005460ff808416911610620000c85760405162461bcd60e51b81526004016200008d90620000f1565b506000805460ff191660ff92909216919091179055600190565b6001600160a01b03163b151590565b6020808252602e908201527f496e697469616c697a61626c653a20636f6e747261637420697320616c72656160408201526d191e481a5b9a5d1a585b1a5e995960921b606082015260800190565b6080516135c66200017760003960008181610e8101528181610ec1015281816110e001528181611120015261119801526135c66000f3fe6080604052600436106102445760003560e01c806301ffc9a7146102495780630c976b9a1461027e578063146264db146102a0578063163c210a146102bd5780631fda1214146102dd5780632075fcf8146102fd57806320a4cd6d1461032b5780632630c12f1461035857806327b3a8c9146103865780632f28690e146103a6578063308dade1146103c6578063346cd3c5146103db5780633659cfe6146103fb5780633acefea71461041b5780633c3129e31461043b5780633f4ba83a1461045b578063402cb4d11461047057806344dc283b1461049057806349eca013146104c45780634ab2d57b146104e45780634f1ef2861461050457806352d1902d14610517578063530e784f1461052c57806354fd4d501461054c5780635c975abb1461058a5780635ccadb88146105a257806362f18a69146105b857806364ea9f1d146105d8578063715018a6146105ed5780637251c0be146106025780637bd0754114610622578063803bdca1146106425780638456cb591461066257806385a73627146106775780638b2014b6146106975780638da5cb5b146106ad5780638e35c3f8146106c257806394653451146106fb578063958b87f91461071b578063a190a85514610748578063aa6446ce14610768578063b4464c46146107a1578063b55541f5146107ca578063cf7b9605146107e1578063cfcab38c14610800578063d622e73e14610815578063eb2dc9b614610835578063f2fde38b1461084b578063fa8353291461086b578063fb1b5c7b14610881578063fcd1e90c146108a0575b600080fd5b34801561025557600080fd5b50610269610264366004612af3565b6108c0565b60405190151581526020015b60405180910390f35b34801561028a57600080fd5b5061029e610299366004612b68565b61095b565b005b3480156102ac57600080fd5b5060605b6040516102759190612bc1565b3480156102c957600080fd5b5061029e6102d8366004612c0e565b610a19565b3480156102e957600080fd5b5061029e6102f8366004612c8c565b610aa6565b34801561030957600080fd5b5061031d610318366004612cf3565b610ae5565b604051908152602001610275565b34801561033757600080fd5b5061034b610346366004612d1e565b610b58565b6040516102759190612d57565b34801561036457600080fd5b5061019754610379906001600160a01b031681565b6040516102759190612d97565b34801561039257600080fd5b5061029e6103a1366004612dab565b610c85565b3480156103b257600080fd5b5061029e6103c1366004612dc4565b610cc1565b3480156103d257600080fd5b506102b0610cfe565b3480156103e757600080fd5b5061029e6103f6366004612cf3565b610e28565b34801561040757600080fd5b5061029e610416366004612cf3565b610e76565b34801561042757600080fd5b5061029e610436366004612c8c565b610f3c565b34801561044757600080fd5b5061029e610456366004612df6565b610f76565b34801561046757600080fd5b5061029e610fad565b34801561047c57600080fd5b5061031d61048b366004612d1e565b610fe6565b34801561049c57600080fd5b506104b06104ab366004612b68565b6110a9565b60405162ffffff9091168152602001610275565b3480156104d057600080fd5b5061034b6104df366004612d1e565b6110be565b3480156104f057600080fd5b506104b06104ff366004612b68565b6110c9565b61029e610512366004612e75565b6110d5565b34801561052357600080fd5b5061031d61118b565b34801561053857600080fd5b5061029e610547366004612cf3565b611239565b34801561055857600080fd5b5061057d604051806040016040528060058152602001640312e312e360dc1b81525081565b6040516102759190612f64565b34801561059657600080fd5b5060975460ff16610269565b3480156105ae57600080fd5b5061018b5461031d565b3480156105c457600080fd5b5061029e6105d3366004612df6565b611271565b3480156105e457600080fd5b5061031d6112a1565b3480156105f957600080fd5b5061029e611310565b34801561060e57600080fd5b5061029e61061d366004612f97565b611349565b34801561062e57600080fd5b506104b061063d366004612b68565b6113c7565b34801561064e57600080fd5b5061029e61065d366004612fd2565b6113d3565b34801561066e57600080fd5b5061029e61140d565b34801561068357600080fd5b5061029e610692366004612dab565b611444565b3480156106a357600080fd5b5061018c5461031d565b3480156106b957600080fd5b5061037961147d565b3480156106ce57600080fd5b50610198546106ed9060ff81169061010090046001600160a01b031682565b604051610275929190613008565b34801561070757600080fd5b506104b0610716366004612b68565b61148c565b34801561072757600080fd5b50610379610736366004612b68565b5050610162546001600160a01b031690565b34801561075457600080fd5b5061029e610763366004612b68565b6114a1565b34801561077457600080fd5b5061057d6040518060400160405280600d81526020016c4361736820737472617465677960981b81525081565b3480156107ad57600080fd5b506104b06107bc366004612b68565b505061015f5462ffffff1690565b3480156107d657600080fd5b5061031d6101995481565b3480156107ed57600080fd5b50610195546001600160a01b0316610379565b34801561080c57600080fd5b5061057d6114c4565b34801561082157600080fd5b506104b0610830366004612b68565b6114e0565b34801561084157600080fd5b506101615461031d565b34801561085757600080fd5b5061029e610866366004612cf3565b6114f1565b34801561087757600080fd5b506101605461031d565b34801561088d57600080fd5b50610196546001600160a01b0316610379565b3480156108ac57600080fd5b5061029e6108bb366004612c8c565b61158e565b60006001600160e01b03198216630491473760e41b14806108f157506001600160e01b03198216632979dc6560e11b145b8061090c57506001600160e01b03198216631a6153f360e01b145b8061092757506001600160e01b0319821663b7ac895f60e01b145b8061093a57506001600160e01b03198216155b8061095557506301ffc9a760e01b6001600160e01b03198316145b92915050565b600260fb5414156109875760405162461bcd60e51b815260040161097e90613042565b60405180910390fd5b600260fb55610160546109ad61099d6101615490565b6109a7908361308f565b61016155565b6109b8600061016055565b6040518181527f296614b32c3d193fb9c7a7bcbec919dedece17659a90d0cc2b5b23da167e6fcd9060200160405180910390a16101625461019654610a0a916001600160a01b039182169116836115d7565b5050600160fb5550565b905090565b600260fb541415610a3c5760405162461bcd60e51b815260040161097e90613042565b600260fb55604051600081527f7e3eaf1040dd23019433d0b1d9507d1f28cdfb716f87723fa836d747b7444cb39060200160405180910390a160405160008082529030906000805160206134e18339815191529060200160405180910390a35050600160fb555050565b33610aaf61147d565b6001600160a01b031614610ad55760405162461bcd60e51b815260040161097e906130a7565b610ae083838361162d565b505050565b610195546040516370a0823160e01b81526000916001600160a01b0316906370a0823190610b17908590600401612d97565b602060405180830381865afa158015610b34573d6000803e3d6000fd5b505050506040513d601f19601f8201168201806040525081019061095591906130dc565b606080518190600090610b6c90600161308f565b9050806001600160401b03811115610b8657610b86612e5f565b604051908082528060200260200182016040528015610bcb57816020015b6040805180820190915260008082526020820152815260200190600190039081610ba45790505b50925060005b610bdc6001836130f5565b811015610c2b57828181518110610bf557610bf561310c565b6020026020010151848281518110610c0f57610c0f61310c565b602002602001018190525080610c2490613122565b9050610bd1565b506040805180820190915273b97ef9ef8734c71904d8002f8b6bc66dd9c48a6e815261019954602082015283610c626001846130f5565b81518110610c7257610c7261310c565b6020026020010181905250505092915050565b33610c8e61147d565b6001600160a01b031614610cb45760405162461bcd60e51b815260040161097e906130a7565b610cbe8161018c55565b50565b33610cca61147d565b6001600160a01b031614610cf05760405162461bcd60e51b815260040161097e906130a7565b610cfa82826116ca565b5050565b606080518190600090610d1290600161308f565b9050806001600160401b03811115610d2c57610d2c612e5f565b604051908082528060200260200182016040528015610d7157816020015b6040805180820190915260008082526020820152815260200190600190039081610d4a5790505b50925060005b610d826001836130f5565b811015610dd157828181518110610d9b57610d9b61310c565b6020026020010151848281518110610db557610db561310c565b602002602001018190525080610dca90613122565b9050610d77565b506040805180820190915273b97ef9ef8734c71904d8002f8b6bc66dd9c48a6e815261019954602082015283610e086001846130f5565b81518110610e1857610e1861310c565b6020026020010181905250505090565b33610e3161147d565b6001600160a01b031614610e575760405162461bcd60e51b815260040161097e906130a7565b61019580546001600160a01b0319166001600160a01b03831617905550565b306001600160a01b037f0000000000000000000000000000000000000000000000000000000000000000161415610ebf5760405162461bcd60e51b815260040161097e9061313d565b7f00000000000000000000000000000000000000000000000000000000000000006001600160a01b0316610ef161174b565b6001600160a01b031614610f175760405162461bcd60e51b815260040161097e90613177565b610f2081611767565b60408051600080825260208201909252610cbe91839190611796565b33610f4561147d565b6001600160a01b031614610f6b5760405162461bcd60e51b815260040161097e906130a7565b610ae0838383611901565b60975460ff1615610f995760405162461bcd60e51b815260040161097e906131b1565b610fa6858585858561197c565b5050505050565b33610fb661147d565b6001600160a01b031614610fdc5760405162461bcd60e51b815260040161097e906130a7565b610fe4611c8d565b565b6000806000610ff58585610b58565b805190915060005b81811015611042578281815181106110175761101761310c565b6020026020010151602001518461102e919061308f565b93508061103a81613122565b915050610ffd565b50600061104f87876110be565b805190915060005b8181101561109c578281815181106110715761107161310c565b6020026020010151602001518661108891906130f5565b95508061109481613122565b915050611057565b5093979650505050505050565b505061015f546301000000900462ffffff1690565b6060805b9392505050565b60006110c2838361148c565b306001600160a01b037f000000000000000000000000000000000000000000000000000000000000000016141561111e5760405162461bcd60e51b815260040161097e9061313d565b7f00000000000000000000000000000000000000000000000000000000000000006001600160a01b031661115061174b565b6001600160a01b0316146111765760405162461bcd60e51b815260040161097e90613177565b61117f82611767565b610cfa82826001611796565b6000306001600160a01b037f000000000000000000000000000000000000000000000000000000000000000016146112265760405162461bcd60e51b815260206004820152603860248201527f555550535570677261646561626c653a206d757374206e6f742062652063616c6044820152771b1959081d1a1c9bdd59da0819195b1959d85d1958d85b1b60421b606482015260840161097e565b5060008051602061354a83398151915290565b3361124261147d565b6001600160a01b0316146112685760405162461bcd60e51b815260040161097e906130a7565b610cbe81611d1a565b60975460ff16156112945760405162461bcd60e51b815260040161097e906131b1565b610fa68585858585611d3d565b61019554604080516318160ddd60e01b815290516000926001600160a01b0316916318160ddd9160048083019260209291908290030181865afa1580156112ec573d6000803e3d6000fd5b505050506040513d601f19601f82011682018060405250810190610a1491906130dc565b3361131961147d565b6001600160a01b03161461133f5760405162461bcd60e51b815260040161097e906130a7565b610fe46000611fcb565b6000611355600161201d565b9050801561136d576000805461ff0019166101001790555b6113756120b1565b61137e826120d8565b8015610cfa576000805461ff0019169055604051600181527f7f26b83ff96e1f2b6a682f133852f6798a09c465da95921460cefb38474024989060200160405180910390a15050565b60006110c283836110a9565b336113dc61147d565b6001600160a01b0316146114025760405162461bcd60e51b815260040161097e906130a7565b610ae0838383612110565b3361141661147d565b6001600160a01b03161461143c5760405162461bcd60e51b815260040161097e906130a7565b610fe4612195565b3361144d61147d565b6001600160a01b0316146114735760405162461bcd60e51b815260040161097e906130a7565b610cbe8161018b55565b60c9546001600160a01b031690565b505061015f54600160301b900462ffffff1690565b60975460ff1615610cfa5760405162461bcd60e51b815260040161097e906131b1565b6040518060600160405280602981526020016135016029913981565b60006110c261015f5462ffffff1690565b336114fa61147d565b6001600160a01b0316146115205760405162461bcd60e51b815260040161097e906130a7565b6001600160a01b0381166115855760405162461bcd60e51b815260206004820152602660248201527f4f776e61626c653a206e6577206f776e657220697320746865207a65726f206160448201526564647265737360d01b606482015260840161097e565b610cbe81611fcb565b3361159761147d565b6001600160a01b0316146115bd5760405162461bcd60e51b815260040161097e906130a7565b610ae08383836121ed565b6001600160a01b03163b151590565b610ae08363a9059cbb60e01b84846040516024016115f69291906131db565b60408051601f198184030181529190526020810180516001600160e01b03166001600160e01b03199093169290921790915261227c565b8261163b6103e860646131f4565b8162ffffff161061165f576040516303689ded60e51b815260040160405180910390fd5b61015f805465ffffff0000001916630100000062ffffff878116820292909217928390556040517f562ffa77d0627a8704e5d9641e53b90a135392b6fb458b619c3cf64555a0adea936116bc939290049091169086908690613321565b60405180910390a150505050565b60405180604001604052808360008111156116e7576116e7612ff2565b81526001600160a01b03831660209091015280516101988054909190829060ff1916600183801561171a5761171a612ff2565b02179055506020919091015181546001600160a01b0390911661010002610100600160a81b03199091161790555050565b60008051602061354a833981519152546001600160a01b031690565b3361177061147d565b6001600160a01b031614610cbe5760405162461bcd60e51b815260040161097e906130a7565b7f4910fdfa16fed3260ed0e7147f7cc6da11a60208b5b9406d12a635614ffd91435460ff16156117c957610ae08361234e565b826001600160a01b03166352d1902d6040518163ffffffff1660e01b8152600401602060405180830381865afa925050508015611823575060408051601f3d908101601f19168201909252611820918101906130dc565b60015b6118865760405162461bcd60e51b815260206004820152602e60248201527f45524331393637557067726164653a206e657720696d706c656d656e7461746960448201526d6f6e206973206e6f74205555505360901b606482015260840161097e565b60008051602061354a83398151915281146118f55760405162461bcd60e51b815260206004820152602960248201527f45524331393637557067726164653a20756e737570706f727465642070726f786044820152681a58589b195555525160ba1b606482015260840161097e565b50610ae08383836123e8565b8261190f6103e860646131f4565b8162ffffff1610611933576040516303689ded60e51b815260040160405180910390fd5b61015f805462ffffff191662ffffff86169081179091556040517f7e81a23ec68969b22ae39faba6faa8633338046c205f9d04a30c8a0df04ca3b9916116bc9186908690613321565b600260fb54141561199f5760405162461bcd60e51b815260040161097e90613042565b600260fb55846119c2576040516347aedd1b60e11b815260040160405180910390fd5b6001600160a01b0383166119e95760405163115fd31d60e31b815260040160405180910390fd5b60006119f760016000610fe6565b9050600080611a046112a1565b90508015611a32576000611a1787610ae5565b905081611a2482866131f4565b611a2e9190613340565b9250505b611a3c8884612413565b611a468883612440565b610196546040516370a0823160e01b81526000916001600160a01b0316906370a0823190611a78903090600401612d97565b602060405180830381865afa158015611a95573d6000803e3d6000fd5b505050506040513d601f19601f82011682018060405250810190611ab991906130dc565b9050611ad433610196546001600160a01b031690308c61246d565b610196546040516370a0823160e01b815260009183916001600160a01b03909116906370a0823190611b0a903090600401612d97565b602060405180830381865afa158015611b27573d6000803e3d6000fd5b505050506040513d601f19601f82011682018060405250810190611b4b91906130dc565b611b5591906130f5565b9050806101996000828254611b6a919061308f565b9091555060009050611b7d600182610fe6565b90506000611b8b87836130f5565b905080611bab57604051632f1b0c0f60e01b815260040160405180910390fd5b8a811015611bcc5760405163c327661d60e01b815260040160405180910390fd5b610195546001600160a01b03166340c10f198b611bea8a858a6124a5565b6040518363ffffffff1660e01b8152600401611c079291906131db565b600060405180830381600087803b158015611c2157600080fd5b505af1158015611c35573d6000803e3d6000fd5b50505050896001600160a01b0316611c4a3390565b6001600160a01b03166000805160206134e18339815191528e604051611c7291815260200190565b60405180910390a35050600160fb5550505050505050505050565b60975460ff16611cd65760405162461bcd60e51b815260206004820152601460248201527314185d5cd8589b194e881b9bdd081c185d5cd95960621b604482015260640161097e565b6097805460ff191690557f5db9ee0a495bf2e6ff9c91a7834c1ba4fdd244a5e8aa4e537bd38aeae4b073aa335b604051611d109190612d97565b60405180910390a1565b61019780546001600160a01b0319166001600160a01b0392909216919091179055565b600260fb541415611d605760405162461bcd60e51b815260040161097e90613042565b600260fb5584611d8357604051636d8bee0b60e11b815260040160405180910390fd5b6001600160a01b038316611daa576040516314f3686160e11b815260040160405180910390fd5b600080611db781806130f5565b9050600061019560009054906101000a90046001600160a01b03166001600160a01b03166318160ddd6040518163ffffffff1660e01b8152600401602060405180830381865afa158015611e0f573d6000803e3d6000fd5b505050506040513d601f19601f82011682018060405250810190611e3391906130dc565b8861019954611e4291906131f4565b611e4c9190613340565b9050611e58818361308f565b9150806101996000828254611e6d91906130f5565b909155506000905060646103e8611e8961015f5462ffffff1690565b611e989062ffffff16866131f4565b611ea29190613340565b611eac9190613340565b905087611eb982856130f5565b1015611ed85760405163c327661d60e01b815260040160405180910390fd5b610195546001600160a01b03166379cc6790338b6040518363ffffffff1660e01b8152600401611f099291906131db565b600060405180830381600087803b158015611f2357600080fd5b505af1158015611f37573d6000803e3d6000fd5b50505050611f5981611f496101605490565b611f53919061308f565b61016055565b611f7b87611f6783866130f5565b610196546001600160a01b031691906115d7565b6040518981526001600160a01b0388169033907f2717ead6b9200dd235aad468c9809ea400fe33ac69b5bfaa6d3e90fc922b63989060200160405180910390a35050600160fb5550505050505050565b60c980546001600160a01b038381166001600160a01b0319831681179093556040519116919082907f8be0079c531659141344cd1fd0a4f28419497f9722a3daafe3b4186f6b6457e090600090a35050565b60008054610100900460ff161561206b578160ff1660011480156120475750612045306115c8565b155b6120635760405162461bcd60e51b815260040161097e90613362565b506000919050565b60005460ff8084169116106120925760405162461bcd60e51b815260040161097e90613362565b506000805460ff191660ff92909216919091179055600190565b919050565b600054610100900460ff16610fe45760405162461bcd60e51b815260040161097e906133b0565b600054610100900460ff166120ff5760405162461bcd60e51b815260040161097e906133b0565b6121076124d0565b610cbe816124ff565b6001600160a01b0383166121375760405163b6802b7f60e01b815260040160405180910390fd5b61016280546001600160a01b0319166001600160a01b0385169081179091556040517fa3fe39fe39850ddb39697065123e293302f3e8948984fde991b5a291ed1ad05b9161218891859085906133fb565b60405180910390a1505050565b60975460ff16156121b85760405162461bcd60e51b815260040161097e906131b1565b6097805460ff191660011790557f62e78cea01bee320cd4e420270b5ea74000d11b0c9f74754ebdbfc544b05a258611d033390565b826121fb6103e860646131f4565b8162ffffff161061221f576040516303689ded60e51b815260040160405180910390fd5b61015f805462ffffff60301b1916600160301b62ffffff878116820292909217928390556040517f05f9aef0771b6541329b82ea24407357fc3ff0f457598588055f84a807dbdb8f936116bc939290049091169086908690613321565b60006122d1826040518060400160405280602081526020017f5361666545524332303a206c6f772d6c6576656c2063616c6c206661696c6564815250856001600160a01b03166125379092919063ffffffff16565b805190915015610ae057808060200190518101906122ef9190613420565b610ae05760405162461bcd60e51b815260206004820152602a60248201527f5361666545524332303a204552433230206f7065726174696f6e20646964206e6044820152691bdd081cdd58d8d9595960b21b606482015260840161097e565b612357816115c8565b6123b95760405162461bcd60e51b815260206004820152602d60248201527f455243313936373a206e657720696d706c656d656e746174696f6e206973206e60448201526c1bdd08184818dbdb9d1c9858dd609a1b606482015260840161097e565b60008051602061354a83398151915280546001600160a01b0319166001600160a01b0392909216919091179055565b6123f183612546565b6000825111806123fe5750805b15610ae05761240d8383612586565b50505050565b61018b54612421828461308f565b1115610cfa5760405163b761799960e01b815260040160405180910390fd5b61018c5461244e828461308f565b1115610cfa5760405163973cc40960e01b815260040160405180910390fd5b6040516001600160a01b038085166024830152831660448201526064810182905261240d9085906323b872dd60e01b906084016115f6565b6000816124b35750816110c2565b836124be83856131f4565b6124c89190613340565b949350505050565b600054610100900460ff166124f75760405162461bcd60e51b815260040161097e906133b0565b610fe4612678565b600054610100900460ff166125265760405162461bcd60e51b815260040161097e906133b0565b61252e6126ab565b610cbe816126da565b60606124c88484600085612862565b61254f8161234e565b6040516001600160a01b038216907fbc7cd75a20ee27fd9adebab32041f755214dbc6bffa90cc0225b39da2e5c2d3b90600090a250565b6060612591836115c8565b6125ec5760405162461bcd60e51b815260206004820152602660248201527f416464726573733a2064656c65676174652063616c6c20746f206e6f6e2d636f6044820152651b9d1c9858dd60d21b606482015260840161097e565b600080846001600160a01b031684604051612607919061343d565b600060405180830381855af49150503d8060008114612642576040519150601f19603f3d011682016040523d82523d6000602084013e612647565b606091505b509150915061266f828260405180606001604052806027815260200161356a60279139612991565b95945050505050565b600054610100900460ff1661269f5760405162461bcd60e51b815260040161097e906133b0565b6097805460ff19169055565b600054610100900460ff166126d25760405162461bcd60e51b815260040161097e906133b0565b610fe46129ca565b600054610100900460ff166127015760405162461bcd60e51b815260040161097e906133b0565b6127096120b1565b6127116129fa565b6127196120b1565b61279861272c6060830160408401613459565b6127396060840184613474565b61274960a0860160808701613459565b61275660a0870187613474565b61276660e0890160c08a01613459565b61277360e08a018a613474565b6127856101208c016101008d01612cf3565b6127936101208d018d613474565b612a29565b6127ac816101400135826101600135612a8a565b6127b96020820182612cf3565b61019580546001600160a01b0319166001600160a01b03929092169190911790556127ea6040820160208301612cf3565b61019680546001600160a01b0319166001600160a01b03929092169190911790556128256128206101a083016101808401612cf3565b611d1a565b610cbe61283a6101c083016101a084016134bd565b60ff16801561284b5761284b612ff2565b61285d6101e084016101c08501612cf3565b6116ca565b6060824710156128c35760405162461bcd60e51b815260206004820152602660248201527f416464726573733a20696e73756666696369656e742062616c616e636520666f6044820152651c8818d85b1b60d21b606482015260840161097e565b6128cc856115c8565b6129185760405162461bcd60e51b815260206004820152601d60248201527f416464726573733a2063616c6c20746f206e6f6e2d636f6e7472616374000000604482015260640161097e565b600080866001600160a01b03168587604051612934919061343d565b60006040518083038185875af1925050503d8060008114612971576040519150601f19603f3d011682016040523d82523d6000602084013e612976565b606091505b5091509150612986828286612991565b979650505050505050565b606083156129a05750816110c2565b8251156129b05782518084602001fd5b8160405162461bcd60e51b815260040161097e9190612f64565b600054610100900460ff166129f15760405162461bcd60e51b815260040161097e906133b0565b610fe433611fcb565b600054610100900460ff16612a215760405162461bcd60e51b815260040161097e906133b0565b610fe4612ac5565b600054610100900460ff16612a505760405162461bcd60e51b815260040161097e906133b0565b612a5b8c8c8c61162d565b612a66898989611901565b612a718686866121ed565b612a7c838383612110565b505050505050505050505050565b600054610100900460ff16612ab15760405162461bcd60e51b815260040161097e906133b0565b612abb8261018b55565b610cfa8161018c55565b600054610100900460ff16612aec5760405162461bcd60e51b815260040161097e906133b0565b600160fb55565b600060208284031215612b0557600080fd5b81356001600160e01b0319811681146110c257600080fd5b60008083601f840112612b2f57600080fd5b5081356001600160401b03811115612b4657600080fd5b6020830191508360208260051b8501011115612b6157600080fd5b9250929050565b60008060208385031215612b7b57600080fd5b82356001600160401b03811115612b9157600080fd5b612b9d85828601612b1d565b90969095509350505050565b80516001600160a01b03168252602090810151910152565b602080825282518282018190526000919060409081850190868401855b82811015612c0157612bf1848351612ba9565b9284019290850190600101612bde565b5091979650505050505050565b60008060008060408587031215612c2457600080fd5b84356001600160401b0380821115612c3b57600080fd5b612c4788838901612b1d565b90965094506020870135915080821115612c6057600080fd5b50612c6d87828801612b1d565b95989497509550505050565b803562ffffff811681146120ac57600080fd5b600080600060408486031215612ca157600080fd5b612caa84612c79565b925060208401356001600160401b03811115612cc557600080fd5b612cd186828701612b1d565b9497909650939450505050565b6001600160a01b0381168114610cbe57600080fd5b600060208284031215612d0557600080fd5b81356110c281612cde565b8015158114610cbe57600080fd5b60008060408385031215612d3157600080fd5b8235612d3c81612d10565b91506020830135612d4c81612d10565b809150509250929050565b602080825282518282018190526000919060409081850190868401855b82811015612c0157612d87848351612ba9565b9284019290850190600101612d74565b6001600160a01b0391909116815260200190565b600060208284031215612dbd57600080fd5b5035919050565b60008060408385031215612dd757600080fd5b823560018110612de657600080fd5b91506020830135612d4c81612cde565b600080600080600060808688031215612e0e57600080fd5b85359450602086013593506040860135612e2781612cde565b925060608601356001600160401b03811115612e4257600080fd5b612e4e88828901612b1d565b969995985093965092949392505050565b634e487b7160e01b600052604160045260246000fd5b60008060408385031215612e8857600080fd5b8235612e9381612cde565b915060208301356001600160401b0380821115612eaf57600080fd5b818501915085601f830112612ec357600080fd5b813581811115612ed557612ed5612e5f565b604051601f8201601f19908116603f01168101908382118183101715612efd57612efd612e5f565b81604052828152886020848701011115612f1657600080fd5b8260208601602083013760006020848301015280955050505050509250929050565b60005b83811015612f53578181015183820152602001612f3b565b8381111561240d5750506000910152565b6020815260008251806020840152612f83816040850160208701612f38565b601f01601f19169190910160400192915050565b600060208284031215612fa957600080fd5b81356001600160401b03811115612fbf57600080fd5b820161020081850312156110c257600080fd5b600080600060408486031215612fe757600080fd5b8335612caa81612cde565b634e487b7160e01b600052602160045260246000fd5b604081016001841061302a57634e487b7160e01b600052602160045260246000fd5b9281526001600160a01b039190911660209091015290565b6020808252601f908201527f5265656e7472616e637947756172643a207265656e7472616e742063616c6c00604082015260600190565b634e487b7160e01b600052601160045260246000fd5b600082198211156130a2576130a2613079565b500190565b6020808252818101527f4f776e61626c653a2063616c6c6572206973206e6f7420746865206f776e6572604082015260600190565b6000602082840312156130ee57600080fd5b5051919050565b60008282101561310757613107613079565b500390565b634e487b7160e01b600052603260045260246000fd5b600060001982141561313657613136613079565b5060010190565b6020808252602c9082015260008051602061352a83398151915260408201526b19195b1959d85d1958d85b1b60a21b606082015260800190565b6020808252602c9082015260008051602061352a83398151915260408201526b6163746976652070726f787960a01b606082015260800190565b60208082526010908201526f14185d5cd8589b194e881c185d5cd95960821b604082015260600190565b6001600160a01b03929092168252602082015260400190565b600081600019048311821515161561320e5761320e613079565b500290565b6000808335601e1984360301811261322a57600080fd5b83016020810192503590506001600160401b0381111561324957600080fd5b803603831315612b6157600080fd5b81835281816020850137506000828201602090810191909152601f909101601f19169091010190565b81835260006020808501808196508560051b81019150846000805b88811015613313578385038a528235603e198936030181126132bc578283fd5b880160406132ca8280613213565b8289526132da838a018284613258565b925050506132ea88830183613213565b9250878203898901526132fe828483613258565b9c89019c97505050928601925060010161329c565b509298975050505050505050565b62ffffff8416815260406020820152600061266f604083018486613281565b60008261335d57634e487b7160e01b600052601260045260246000fd5b500490565b6020808252602e908201527f496e697469616c697a61626c653a20636f6e747261637420697320616c72656160408201526d191e481a5b9a5d1a585b1a5e995960921b606082015260800190565b6020808252602b908201527f496e697469616c697a61626c653a20636f6e7472616374206973206e6f74206960408201526a6e697469616c697a696e6760a81b606082015260800190565b6001600160a01b038416815260406020820181905260009061266f9083018486613281565b60006020828403121561343257600080fd5b81516110c281612d10565b6000825161344f818460208701612f38565b9190910192915050565b60006020828403121561346b57600080fd5b6110c282612c79565b6000808335601e1984360301811261348b57600080fd5b8301803591506001600160401b038211156134a557600080fd5b6020019150600581901b3603821315612b6157600080fd5b6000602082840312156134cf57600080fd5b813560ff811681146110c257600080fdfe5548c837ab068cf56a2c2479df0882a4922fd203edb7517321831d95078c5f6262726f6b6b722e636173685f73747261746567792e636173685f73747261746567795f76312e312e3046756e6374696f6e206d7573742062652063616c6c6564207468726f75676820360894a13ba1a3210667c828492db98dca3e2076cc3735a920a3ca505d382bbc416464726573733a206c6f772d6c6576656c2064656c65676174652063616c6c206661696c6564a264697066735822122029210027e3ec9c79c2c0363418336d6945082d0ae9da713b25eba338c3dafed264736f6c634300080a0033",
  "linkReferences": {},
  "deployedLinkReferences": {}
}