{
  "_format": "hh-sol-artifact-1",
  "contractName": "MockPortfolio",
  "sourceName": "contracts/tests/MockPortfolio.sol",
  "abi": [
    {
      "inputs": [],
      "name": "InvalidFeeError",
      "type": "error"
    },
    {
      "inputs": [],
      "name": "InvestableAlreadyAdded",
      "type": "error"
    },
    {
      "inputs": [],
      "name": "InvestableHasNonZeroAllocation",
      "type": "error"
    },
    {
      "inputs": [],
      "name": "InvestableNotYetAdded",
      "type": "error"
    },
    {
      "inputs": [],
      "name": "InvestmentLimitPerAddressExceeded",
      "type": "error"
    },
    {
      "inputs": [],
      "name": "RebalanceIncorrectAllocationsLength",
      "type": "error"
    },
    {
      "inputs": [],
      "name": "RebalancePercentageNot100",
      "type": "error"
    },
    {
      "inputs": [],
      "name": "TooSmallDepositTokenAmountOut",
      "type": "error"
    },
    {
      "inputs": [],
      "name": "TotalInvestmentLimitExceeded",
      "type": "error"
    },
    {
      "inputs": [],
      "name": "ZeroAmountDeposited",
      "type": "error"
    },
    {
      "inputs": [],
      "name": "ZeroAmountInvested",
      "type": "error"
    },
    {
      "inputs": [],
      "name": "ZeroAmountWithdrawn",
      "type": "error"
    },
    {
      "inputs": [],
      "name": "ZeroDepositTokenReceiver",
      "type": "error"
    },
    {
      "inputs": [],
      "name": "ZeroFeeReceiver",
      "type": "error"
    },
    {
      "inputs": [],
      "name": "ZeroInvestmentTokenReceiver",
      "type": "error"
    },
    {
      "anonymous": false,
      "inputs": [
        {
          "indexed": true,
          "internalType": "address",
          "name": "initiator",
          "type": "address"
        },
        {
          "indexed": true,
          "internalType": "address",
          "name": "investmentTokenReceiver",
          "type": "address"
        },
        {
          "indexed": false,
          "internalType": "uint256",
          "name": "amount",
          "type": "uint256"
        }
      ],
      "name": "Deposit",
      "type": "event"
    },
    {
      "anonymous": false,
      "inputs": [
        {
          "indexed": false,
          "internalType": "uint256",
          "name": "fee",
          "type": "uint256"
        },
        {
          "components": [
            {
              "internalType": "string",
              "name": "key",
              "type": "string"
            },
            {
              "internalType": "string",
              "name": "value",
              "type": "string"
            }
          ],
          "indexed": false,
          "internalType": "struct NameValuePair[]",
          "name": "params",
          "type": "tuple[]"
        }
      ],
      "name": "DepositFeeChange",
      "type": "event"
    },
    {
      "anonymous": false,
      "inputs": [
        {
          "indexed": false,
          "internalType": "uint256",
          "name": "fee",
          "type": "uint256"
        }
      ],
      "name": "FeeClaim",
      "type": "event"
    },
    {
      "anonymous": false,
      "inputs": [
        {
          "indexed": false,
          "internalType": "address",
          "name": "feeReceiver",
          "type": "address"
        },
        {
          "components": [
            {
              "internalType": "string",
              "name": "key",
              "type": "string"
            },
            {
              "internalType": "string",
              "name": "value",
              "type": "string"
            }
          ],
          "indexed": false,
          "internalType": "struct NameValuePair[]",
          "name": "params",
          "type": "tuple[]"
        }
      ],
      "name": "FeeReceiverChange",
      "type": "event"
    },
    {
      "anonymous": false,
      "inputs": [
        {
          "indexed": false,
          "internalType": "uint8",
          "name": "version",
          "type": "uint8"
        }
      ],
      "name": "Initialized",
      "type": "event"
    },
    {
      "anonymous": false,
      "inputs": [
        {
          "indexed": false,
          "internalType": "contract IInvestable",
          "name": "investable",
          "type": "address"
        },
        {
          "indexed": false,
          "internalType": "uint24[]",
          "name": "newAllocations",
          "type": "uint24[]"
        },
        {
          "components": [
            {
              "internalType": "string",
              "name": "key",
              "type": "string"
            },
            {
              "internalType": "string",
              "name": "value",
              "type": "string"
            }
          ],
          "indexed": false,
          "internalType": "struct NameValuePair[]",
          "name": "params",
          "type": "tuple[]"
        }
      ],
      "name": "InvestableAdd",
      "type": "event"
    },
    {
      "anonymous": false,
      "inputs": [
        {
          "indexed": false,
          "internalType": "contract IInvestable",
          "name": "investable",
          "type": "address"
        },
        {
          "components": [
            {
              "internalType": "string",
              "name": "key",
              "type": "string"
            },
            {
              "internalType": "string",
              "name": "value",
              "type": "string"
            }
          ],
          "indexed": false,
          "internalType": "struct NameValuePair[]",
          "name": "params",
          "type": "tuple[]"
        }
      ],
      "name": "InvestableChange",
      "type": "event"
    },
    {
      "anonymous": false,
      "inputs": [
        {
          "indexed": false,
          "internalType": "contract IInvestable",
          "name": "investable",
          "type": "address"
        },
        {
          "indexed": false,
          "internalType": "uint24[]",
          "name": "newAllocations",
          "type": "uint24[]"
        }
      ],
      "name": "InvestableRemove",
      "type": "event"
    },
    {
      "anonymous": false,
      "inputs": [
        {
          "indexed": true,
          "internalType": "address",
          "name": "previousOwner",
          "type": "address"
        },
        {
          "indexed": true,
          "internalType": "address",
          "name": "newOwner",
          "type": "address"
        }
      ],
      "name": "OwnershipTransferred",
      "type": "event"
    },
    {
      "anonymous": false,
      "inputs": [
        {
          "indexed": false,
          "internalType": "uint256",
          "name": "fee",
          "type": "uint256"
        },
        {
          "components": [
            {
              "internalType": "string",
              "name": "key",
              "type": "string"
            },
            {
              "internalType": "string",
              "name": "value",
              "type": "string"
            }
          ],
          "indexed": false,
          "internalType": "struct NameValuePair[]",
          "name": "params",
          "type": "tuple[]"
        }
      ],
      "name": "PerformanceFeeChange",
      "type": "event"
    },
    {
      "anonymous": false,
      "inputs": [],
      "name": "Rebalance",
      "type": "event"
    },
    {
      "anonymous": false,
      "inputs": [
        {
          "indexed": false,
          "internalType": "uint24[]",
          "name": "newAllocations",
          "type": "uint24[]"
        }
      ],
      "name": "TargetInvestableAllocationsSet",
      "type": "event"
    },
    {
      "anonymous": false,
      "inputs": [
        {
          "indexed": true,
          "internalType": "address",
          "name": "initiator",
          "type": "address"
        },
        {
          "indexed": true,
          "internalType": "address",
          "name": "depositTokenReceiver",
          "type": "address"
        },
        {
          "indexed": false,
          "internalType": "uint256",
          "name": "amount",
          "type": "uint256"
        }
      ],
      "name": "Withdrawal",
      "type": "event"
    },
    {
      "anonymous": false,
      "inputs": [
        {
          "indexed": false,
          "internalType": "uint256",
          "name": "fee",
          "type": "uint256"
        },
        {
          "components": [
            {
              "internalType": "string",
              "name": "key",
              "type": "string"
            },
            {
              "internalType": "string",
              "name": "value",
              "type": "string"
            }
          ],
          "indexed": false,
          "internalType": "struct NameValuePair[]",
          "name": "params",
          "type": "tuple[]"
        }
      ],
      "name": "WithdrawalFeeChange",
      "type": "event"
    },
    {
      "inputs": [
        {
          "internalType": "contract IInvestable",
          "name": "investable",
          "type": "address"
        },
        {
          "internalType": "uint24[]",
          "name": "newAllocations",
          "type": "uint24[]"
        },
        {
          "components": [
            {
              "internalType": "string",
              "name": "key",
              "type": "string"
            },
            {
              "internalType": "string",
              "name": "value",
              "type": "string"
            }
          ],
          "internalType": "struct NameValuePair[]",
          "name": "params",
          "type": "tuple[]"
        }
      ],
      "name": "addInvestable",
      "outputs": [],
      "stateMutability": "nonpayable",
      "type": "function"
    },
    {
      "inputs": [
        {
          "internalType": "contract IInvestable",
          "name": "investable",
          "type": "address"
        },
        {
          "components": [
            {
              "internalType": "string",
              "name": "key",
              "type": "string"
            },
            {
              "internalType": "string",
              "name": "value",
              "type": "string"
            }
          ],
          "internalType": "struct NameValuePair[]",
          "name": "params",
          "type": "tuple[]"
        }
      ],
      "name": "changeInvestable",
      "outputs": [],
      "stateMutability": "nonpayable",
      "type": "function"
    },
    {
      "inputs": [
        {
          "components": [
            {
              "internalType": "string",
              "name": "key",
              "type": "string"
            },
            {
              "internalType": "string",
              "name": "value",
              "type": "string"
            }
          ],
          "internalType": "struct NameValuePair[]",
          "name": "params",
          "type": "tuple[]"
        }
      ],
      "name": "claimFee",
      "outputs": [],
      "stateMutability": "nonpayable",
      "type": "function"
    },
    {
      "inputs": [
        {
          "internalType": "uint256",
          "name": "depositTokenAmountIn",
          "type": "uint256"
        },
        {
          "internalType": "uint256",
          "name": "minimumDepositTokenAmountOut",
          "type": "uint256"
        },
        {
          "internalType": "address",
          "name": "investmentTokenReceiver",
          "type": "address"
        },
        {
          "components": [
            {
              "internalType": "string",
              "name": "key",
              "type": "string"
            },
            {
              "internalType": "string",
              "name": "value",
              "type": "string"
            }
          ],
          "internalType": "struct NameValuePair[]",
          "name": "params",
          "type": "tuple[]"
        }
      ],
      "name": "deposit",
      "outputs": [],
      "stateMutability": "nonpayable",
      "type": "function"
    },
    {
      "inputs": [],
      "name": "getAssetBalances",
      "outputs": [
        {
          "components": [
            {
              "internalType": "address",
              "name": "asset",
              "type": "address"
            },
            {
              "internalType": "uint256",
              "name": "balance",
              "type": "uint256"
            }
          ],
          "internalType": "struct IAum.Balance[]",
          "name": "",
          "type": "tuple[]"
        }
      ],
      "stateMutability": "view",
      "type": "function"
    },
    {
      "inputs": [
        {
          "internalType": "bool",
          "name": "shouldMaximise",
          "type": "bool"
        },
        {
          "internalType": "bool",
          "name": "shouldIncludeAmmPrice",
          "type": "bool"
        }
      ],
      "name": "getAssetValuations",
      "outputs": [
        {
          "components": [
            {
              "internalType": "address",
              "name": "asset",
              "type": "address"
            },
            {
              "internalType": "uint256",
              "name": "valuation",
              "type": "uint256"
            }
          ],
          "internalType": "struct IAum.Valuation[]",
          "name": "",
          "type": "tuple[]"
        }
      ],
      "stateMutability": "view",
      "type": "function"
    },
    {
      "inputs": [],
      "name": "getClaimedFee",
      "outputs": [
        {
          "internalType": "uint256",
          "name": "",
          "type": "uint256"
        }
      ],
      "stateMutability": "view",
      "type": "function"
    },
    {
      "inputs": [],
      "name": "getCurrentAccumulatedFee",
      "outputs": [
        {
          "internalType": "uint256",
          "name": "",
          "type": "uint256"
        }
      ],
      "stateMutability": "view",
      "type": "function"
    },
    {
      "inputs": [
        {
          "components": [
            {
              "internalType": "string",
              "name": "key",
              "type": "string"
            },
            {
              "internalType": "string",
              "name": "value",
              "type": "string"
            }
          ],
          "internalType": "struct NameValuePair[]",
          "name": "",
          "type": "tuple[]"
        }
      ],
      "name": "getDepositFee",
      "outputs": [
        {
          "internalType": "uint24",
          "name": "",
          "type": "uint24"
        }
      ],
      "stateMutability": "view",
      "type": "function"
    },
    {
      "inputs": [],
      "name": "getDepositToken",
      "outputs": [
        {
          "internalType": "contract IERC20Upgradeable",
          "name": "",
          "type": "address"
        }
      ],
      "stateMutability": "view",
      "type": "function"
    },
    {
      "inputs": [
        {
          "internalType": "bool",
          "name": "shouldMaximise",
          "type": "bool"
        },
        {
          "internalType": "bool",
          "name": "shouldIncludeAmmPrice",
          "type": "bool"
        }
      ],
      "name": "getEquityValuation",
      "outputs": [
        {
          "internalType": "uint256",
          "name": "",
          "type": "uint256"
        }
      ],
      "stateMutability": "view",
      "type": "function"
    },
    {
      "inputs": [
        {
          "components": [
            {
              "internalType": "string",
              "name": "key",
              "type": "string"
            },
            {
              "internalType": "string",
              "name": "value",
              "type": "string"
            }
          ],
          "internalType": "struct NameValuePair[]",
          "name": "",
          "type": "tuple[]"
        }
      ],
      "name": "getFeeReceiver",
      "outputs": [
        {
          "internalType": "address",
          "name": "",
          "type": "address"
        }
      ],
      "stateMutability": "view",
      "type": "function"
    },
    {
      "inputs": [],
      "name": "getInvestables",
      "outputs": [
        {
          "components": [
            {
              "internalType": "contract IInvestable",
              "name": "investable",
              "type": "address"
            },
            {
              "internalType": "uint24",
              "name": "allocationPercentage",
              "type": "uint24"
            },
            {
              "internalType": "string[]",
              "name": "keys",
              "type": "string[]"
            },
            {
              "internalType": "string[]",
              "name": "values",
              "type": "string[]"
            }
          ],
          "internalType": "struct InvestableDesc[]",
          "name": "",
          "type": "tuple[]"
        }
      ],
      "stateMutability": "view",
      "type": "function"
    },
    {
      "inputs": [],
      "name": "getInvestmentLimitPerAddress",
      "outputs": [
        {
          "internalType": "uint256",
          "name": "",
          "type": "uint256"
        }
      ],
      "stateMutability": "view",
      "type": "function"
    },
    {
      "inputs": [],
      "name": "getInvestmentToken",
      "outputs": [
        {
          "internalType": "contract IInvestmentToken",
          "name": "",
          "type": "address"
        }
      ],
      "stateMutability": "view",
      "type": "function"
    },
    {
      "inputs": [
        {
          "internalType": "address",
          "name": "account",
          "type": "address"
        }
      ],
      "name": "getInvestmentTokenBalanceOf",
      "outputs": [
        {
          "internalType": "uint256",
          "name": "",
          "type": "uint256"
        }
      ],
      "stateMutability": "view",
      "type": "function"
    },
    {
      "inputs": [],
      "name": "getInvestmentTokenSupply",
      "outputs": [
        {
          "internalType": "uint256",
          "name": "",
          "type": "uint256"
        }
      ],
      "stateMutability": "view",
      "type": "function"
    },
    {
      "inputs": [],
      "name": "getLiabilityBalances",
      "outputs": [
        {
          "components": [
            {
              "internalType": "address",
              "name": "asset",
              "type": "address"
            },
            {
              "internalType": "uint256",
              "name": "balance",
              "type": "uint256"
            }
          ],
          "internalType": "struct IAum.Balance[]",
          "name": "",
          "type": "tuple[]"
        }
      ],
      "stateMutability": "view",
      "type": "function"
    },
    {
      "inputs": [
        {
          "internalType": "bool",
          "name": "",
          "type": "bool"
        },
        {
          "internalType": "bool",
          "name": "",
          "type": "bool"
        }
      ],
      "name": "getLiabilityValuations",
      "outputs": [
        {
          "components": [
            {
              "internalType": "address",
              "name": "asset",
              "type": "address"
            },
            {
              "internalType": "uint256",
              "name": "valuation",
              "type": "uint256"
            }
          ],
          "internalType": "struct IAum.Valuation[]",
          "name": "",
          "type": "tuple[]"
        }
      ],
      "stateMutability": "view",
      "type": "function"
    },
    {
      "inputs": [
        {
          "components": [
            {
              "internalType": "string",
              "name": "key",
              "type": "string"
            },
            {
              "internalType": "string",
              "name": "value",
              "type": "string"
            }
          ],
          "internalType": "struct NameValuePair[]",
          "name": "",
          "type": "tuple[]"
        }
      ],
      "name": "getPerformanceFee",
      "outputs": [
        {
          "internalType": "uint24",
          "name": "",
          "type": "uint24"
        }
      ],
      "stateMutability": "view",
      "type": "function"
    },
    {
      "inputs": [
        {
          "components": [
            {
              "internalType": "string",
              "name": "key",
              "type": "string"
            },
            {
              "internalType": "string",
              "name": "value",
              "type": "string"
            }
          ],
          "internalType": "struct NameValuePair[]",
          "name": "params",
          "type": "tuple[]"
        }
      ],
      "name": "getTotalDepositFee",
      "outputs": [
        {
          "internalType": "uint24",
          "name": "",
          "type": "uint24"
        }
      ],
      "stateMutability": "view",
      "type": "function"
    },
    {
      "inputs": [],
      "name": "getTotalInvestmentLimit",
      "outputs": [
        {
          "internalType": "uint256",
          "name": "",
          "type": "uint256"
        }
      ],
      "stateMutability": "view",
      "type": "function"
    },
    {
      "inputs": [
        {
          "components": [
            {
              "internalType": "string",
              "name": "key",
              "type": "string"
            },
            {
              "internalType": "string",
              "name": "value",
              "type": "string"
            }
          ],
          "internalType": "struct NameValuePair[]",
          "name": "params",
          "type": "tuple[]"
        }
      ],
      "name": "getTotalPerformanceFee",
      "outputs": [
        {
          "internalType": "uint24",
          "name": "",
          "type": "uint24"
        }
      ],
      "stateMutability": "view",
      "type": "function"
    },
    {
      "inputs": [
        {
          "components": [
            {
              "internalType": "string",
              "name": "key",
              "type": "string"
            },
            {
              "internalType": "string",
              "name": "value",
              "type": "string"
            }
          ],
          "internalType": "struct NameValuePair[]",
          "name": "params",
          "type": "tuple[]"
        }
      ],
      "name": "getTotalWithdrawalFee",
      "outputs": [
        {
          "internalType": "uint24",
          "name": "",
          "type": "uint24"
        }
      ],
      "stateMutability": "view",
      "type": "function"
    },
    {
      "inputs": [
        {
          "components": [
            {
              "internalType": "string",
              "name": "key",
              "type": "string"
            },
            {
              "internalType": "string",
              "name": "value",
              "type": "string"
            }
          ],
          "internalType": "struct NameValuePair[]",
          "name": "",
          "type": "tuple[]"
        }
      ],
      "name": "getWithdrawalFee",
      "outputs": [
        {
          "internalType": "uint24",
          "name": "",
          "type": "uint24"
        }
      ],
      "stateMutability": "view",
      "type": "function"
    },
    {
      "inputs": [],
      "name": "humanReadableName",
      "outputs": [
        {
          "internalType": "string",
          "name": "",
          "type": "string"
        }
      ],
      "stateMutability": "view",
      "type": "function"
    },
    {
      "inputs": [
        {
          "components": [
            {
              "internalType": "contract IInvestmentToken",
              "name": "investmentToken",
              "type": "address"
            },
            {
              "internalType": "contract IERC20Upgradeable",
              "name": "depositToken",
              "type": "address"
            },
            {
              "internalType": "uint24",
              "name": "depositFee",
              "type": "uint24"
            },
            {
              "components": [
                {
                  "internalType": "string",
                  "name": "key",
                  "type": "string"
                },
                {
                  "internalType": "string",
                  "name": "value",
                  "type": "string"
                }
              ],
              "internalType": "struct NameValuePair[]",
              "name": "depositFeeParams",
              "type": "tuple[]"
            },
            {
              "internalType": "uint24",
              "name": "withdrawalFee",
              "type": "uint24"
            },
            {
              "components": [
                {
                  "internalType": "string",
                  "name": "key",
                  "type": "string"
                },
                {
                  "internalType": "string",
                  "name": "value",
                  "type": "string"
                }
              ],
              "internalType": "struct NameValuePair[]",
              "name": "withdrawFeeParams",
              "type": "tuple[]"
            },
            {
              "internalType": "uint24",
              "name": "performanceFee",
              "type": "uint24"
            },
            {
              "components": [
                {
                  "internalType": "string",
                  "name": "key",
                  "type": "string"
                },
                {
                  "internalType": "string",
                  "name": "value",
                  "type": "string"
                }
              ],
              "internalType": "struct NameValuePair[]",
              "name": "performanceFeeParams",
              "type": "tuple[]"
            },
            {
              "internalType": "address",
              "name": "feeReceiver",
              "type": "address"
            },
            {
              "components": [
                {
                  "internalType": "string",
                  "name": "key",
                  "type": "string"
                },
                {
                  "internalType": "string",
                  "name": "value",
                  "type": "string"
                }
              ],
              "internalType": "struct NameValuePair[]",
              "name": "feeReceiverParams",
              "type": "tuple[]"
            },
            {
              "internalType": "uint256",
              "name": "totalInvestmentLimit",
              "type": "uint256"
            },
            {
              "internalType": "uint256",
              "name": "investmentLimitPerAddress",
              "type": "uint256"
            }
          ],
          "internalType": "struct PortfolioArgs",
          "name": "portfolioArgs",
          "type": "tuple"
        }
      ],
      "name": "initialize",
      "outputs": [],
      "stateMutability": "nonpayable",
      "type": "function"
    },
    {
      "inputs": [],
      "name": "owner",
      "outputs": [
        {
          "internalType": "address",
          "name": "",
          "type": "address"
        }
      ],
      "stateMutability": "view",
      "type": "function"
    },
    {
      "inputs": [
        {
          "internalType": "uint256",
          "name": "minimumDepositTokenAmountOut",
          "type": "uint256"
        },
        {
          "components": [
            {
              "internalType": "string",
              "name": "key",
              "type": "string"
            },
            {
              "internalType": "string",
              "name": "value",
              "type": "string"
            }
          ],
          "internalType": "struct NameValuePair[][]",
          "name": "depositParams",
          "type": "tuple[][]"
        },
        {
          "components": [
            {
              "internalType": "string",
              "name": "key",
              "type": "string"
            },
            {
              "internalType": "string",
              "name": "value",
              "type": "string"
            }
          ],
          "internalType": "struct NameValuePair[][]",
          "name": "withdrawParams",
          "type": "tuple[][]"
        }
      ],
      "name": "rebalance",
      "outputs": [],
      "stateMutability": "nonpayable",
      "type": "function"
    },
    {
      "inputs": [
        {
          "internalType": "contract IInvestable",
          "name": "investable",
          "type": "address"
        },
        {
          "internalType": "uint24[]",
          "name": "newAllocations",
          "type": "uint24[]"
        }
      ],
      "name": "removeInvestable",
      "outputs": [],
      "stateMutability": "nonpayable",
      "type": "function"
    },
    {
      "inputs": [],
      "name": "renounceOwnership",
      "outputs": [],
      "stateMutability": "nonpayable",
      "type": "function"
    },
    {
      "inputs": [
        {
          "internalType": "uint24",
          "name": "fee_",
          "type": "uint24"
        },
        {
          "components": [
            {
              "internalType": "string",
              "name": "key",
              "type": "string"
            },
            {
              "internalType": "string",
              "name": "value",
              "type": "string"
            }
          ],
          "internalType": "struct NameValuePair[]",
          "name": "params",
          "type": "tuple[]"
        }
      ],
      "name": "setDepositFee",
      "outputs": [],
      "stateMutability": "nonpayable",
      "type": "function"
    },
    {
      "inputs": [
        {
          "internalType": "address",
          "name": "feeReceiver_",
          "type": "address"
        },
        {
          "components": [
            {
              "internalType": "string",
              "name": "key",
              "type": "string"
            },
            {
              "internalType": "string",
              "name": "value",
              "type": "string"
            }
          ],
          "internalType": "struct NameValuePair[]",
          "name": "params",
          "type": "tuple[]"
        }
      ],
      "name": "setFeeReceiver",
      "outputs": [],
      "stateMutability": "nonpayable",
      "type": "function"
    },
    {
      "inputs": [
        {
          "internalType": "uint256",
          "name": "investmentLimitPerAddress",
          "type": "uint256"
        }
      ],
      "name": "setInvestmentLimitPerAddress",
      "outputs": [],
      "stateMutability": "nonpayable",
      "type": "function"
    },
    {
      "inputs": [
        {
          "internalType": "contract IInvestmentToken",
          "name": "investmentToken",
          "type": "address"
        }
      ],
      "name": "setInvestmentToken",
      "outputs": [],
      "stateMutability": "nonpayable",
      "type": "function"
    },
    {
      "inputs": [
        {
          "internalType": "uint24",
          "name": "fee_",
          "type": "uint24"
        },
        {
          "components": [
            {
              "internalType": "string",
              "name": "key",
              "type": "string"
            },
            {
              "internalType": "string",
              "name": "value",
              "type": "string"
            }
          ],
          "internalType": "struct NameValuePair[]",
          "name": "params",
          "type": "tuple[]"
        }
      ],
      "name": "setPerformanceFee",
      "outputs": [],
      "stateMutability": "nonpayable",
      "type": "function"
    },
    {
      "inputs": [
        {
          "internalType": "uint24[]",
          "name": "newAllocations",
          "type": "uint24[]"
        }
      ],
      "name": "setTargetInvestableAllocations",
      "outputs": [],
      "stateMutability": "nonpayable",
      "type": "function"
    },
    {
      "inputs": [
        {
          "internalType": "uint256",
          "name": "totalInvestmentLimit",
          "type": "uint256"
        }
      ],
      "name": "setTotalInvestmentLimit",
      "outputs": [],
      "stateMutability": "nonpayable",
      "type": "function"
    },
    {
      "inputs": [
        {
          "internalType": "uint24",
          "name": "fee_",
          "type": "uint24"
        },
        {
          "components": [
            {
              "internalType": "string",
              "name": "key",
              "type": "string"
            },
            {
              "internalType": "string",
              "name": "value",
              "type": "string"
            }
          ],
          "internalType": "struct NameValuePair[]",
          "name": "params",
          "type": "tuple[]"
        }
      ],
      "name": "setWithdrawalFee",
      "outputs": [],
      "stateMutability": "nonpayable",
      "type": "function"
    },
    {
      "inputs": [
        {
          "internalType": "bytes4",
          "name": "interfaceId",
          "type": "bytes4"
        }
      ],
      "name": "supportsInterface",
      "outputs": [
        {
          "internalType": "bool",
          "name": "",
          "type": "bool"
        }
      ],
      "stateMutability": "view",
      "type": "function"
    },
    {
      "inputs": [],
      "name": "trackingName",
      "outputs": [
        {
          "internalType": "string",
          "name": "",
          "type": "string"
        }
      ],
      "stateMutability": "view",
      "type": "function"
    },
    {
      "inputs": [
        {
          "internalType": "address",
          "name": "newOwner",
          "type": "address"
        }
      ],
      "name": "transferOwnership",
      "outputs": [],
      "stateMutability": "nonpayable",
      "type": "function"
    },
    {
      "inputs": [],
      "name": "version",
      "outputs": [
        {
          "internalType": "string",
          "name": "",
          "type": "string"
        }
      ],
      "stateMutability": "view",
      "type": "function"
    },
    {
      "inputs": [
        {
          "internalType": "uint256",
          "name": "investmentTokenAmountIn",
          "type": "uint256"
        },
        {
          "internalType": "uint256",
          "name": "minimumDepositTokenAmountOut",
          "type": "uint256"
        },
        {
          "internalType": "address",
          "name": "depositTokenReceiver",
          "type": "address"
        },
        {
          "components": [
            {
              "internalType": "string",
              "name": "key",
              "type": "string"
            },
            {
              "internalType": "string",
              "name": "value",
              "type": "string"
            }
          ],
          "internalType": "struct NameValuePair[]",
          "name": "params",
          "type": "tuple[]"
        }
      ],
      "name": "withdraw",
      "outputs": [],
      "stateMutability": "nonpayable",
      "type": "function"
    }
  ],
  "bytecode": "0x608060405234801561001057600080fd5b50614b11806100206000396000f3fe608060405234801561001057600080fd5b50600436106102045760003560e01c806301ffc9a7146102095780630399ef07146102315780630c976b9a14610246578063146264db146102595780631fda1214146102695780632075fcf81461027c57806320a4cd6d1461029d57806327b3a8c9146102bd5780632e85913e146102d0578063308dade1146102e3578063346cd3c5146102eb578063384e16f9146102fe5780633acefea7146103115780633c3129e314610324578063402cb4d11461033757806344dc283b1461034a57806349eca013146103805780634ab2d57b146103965780634fff4276146103a957806354fd4d50146103bc5780635ccadb88146103ed57806362f18a69146103f557806364ea9f1d146104085780636d4e75db14610410578063715018a6146104235780637bd075411461042b578063803bdca11461043e57806385a73627146104515780638b2014b6146104645780638da5cb5b1461046c5780639465345114610481578063958b87f914610494578063aa6446ce146104b3578063b4464c46146104e0578063ce4f7c48146104fb578063cf7b96051461050e578063cfcab38c14610520578063d622e73e14610528578063eb2bf8761461053b578063eb2dc9b614610550578063f2fde38b14610558578063fa8353291461056b578063fb1b5c7b14610573578063fcd1e90c14610585575b600080fd5b61021c610217366004613f46565b610598565b60405190151581526020015b60405180910390f35b61024461023f366004613fd0565b610620565b005b610244610254366004614052565b61066c565b60605b60405161022891906140ab565b610244610277366004614109565b610698565b61028f61028a36600461415d565b6106d7565b604051908152602001610228565b6102b06102ab366004614188565b61074a565b60405161022891906141c1565b6102446102cb366004614201565b610a11565b6102446102de36600461421a565b610a4c565b61025c610a88565b6102446102f936600461415d565b610c50565b61024461030c366004614250565b610c9e565b61024461031f366004614109565b610d15565b61024461033236600461428b565b610d4f565b61028f610345366004614188565b611109565b61036c610358366004614052565b505060c9546301000000900462ffffff1690565b60405162ffffff9091168152602001610228565b6102b061038e366004614188565b606092915050565b61036c6103a4366004614052565b611170565b6102446103b7366004614052565b611197565b6103e0604051806040016040528060058152602001640312e302e360dc1b81525081565b604051610228919061433b565b60f55461028f565b61024461040336600461428b565b6111d0565b61028f61164d565b61024461041e36600461434e565b6116c1565b6102446116fb565b61036c610439366004614052565b611736565b61024461044c36600461434e565b611757565b61024461045f366004614201565b611791565b60f65461028f565b6104746117c9565b604051610228919061436e565b61036c61048f366004614052565b6117d8565b6104746104a2366004614052565b505060cc546001600160a01b031690565b6103e06040518060400160405280600e81526020016d4d6f636b20706f7274666f6c696f60901b81525081565b61036c6104ee366004614052565b505060c95462ffffff1690565b61024461050936600461434e565b6117ec565b610100546001600160a01b0316610474565b6103e0611826565b61036c610536366004614052565b611842565b61054361185c565b60405161022891906143ca565b60cb5461028f565b61024461056636600461415d565b611a8a565b60ca5461028f565b610101546001600160a01b0316610474565b610244610593366004614109565b611b27565b60006001600160e01b03198216630491473760e41b14806105c957506001600160e01b03198216632979dc6560e11b145b806105e457506001600160e01b03198216631a6153f360e01b145b806105ff57506001600160e01b03198216631564e6d560e11b145b8061061a57506301ffc9a760e01b6001600160e01b03198316145b92915050565b336106296117c9565b6001600160a01b0316146106585760405162461bcd60e51b815260040161064f90614476565b60405180910390fd5b6106658585858585611b61565b5050505050565b6002606554141561068f5760405162461bcd60e51b815260040161064f906144ab565b50506001606555565b336106a16117c9565b6001600160a01b0316146106c75760405162461bcd60e51b815260040161064f90614476565b6106d2838383611cd9565b505050565b610100546040516370a0823160e01b81526000916001600160a01b0316906370a082319061070990859060040161436e565b602060405180830381865afa158015610726573d6000803e3d6000fd5b505050506040513d601f19601f8201168201806040525081019061061a91906144e2565b60ff546060906000816001600160401b0381111561076a5761076a6144fb565b6040519080825280602002602001820160405280156107af57816020015b60408051808201909152600080825260208201528152602001906001900390816107885790505b50905060005b82811015610a0857600060ff82815481106107d2576107d2614511565b906000526020600020906003020160000160009054906101000a90046001600160a01b031690506040518060400160405280826001600160a01b03168152602001826001600160a01b03166364ea9f1d6040518163ffffffff1660e01b8152600401602060405180830381865afa158015610851573d6000803e3d6000fd5b505050506040513d601f19601f8201168201806040525081019061087591906144e2565b156109d157826001600160a01b03166364ea9f1d6040518163ffffffff1660e01b8152600401602060405180830381865afa1580156108b8573d6000803e3d6000fd5b505050506040513d601f19601f820116820180604052508101906108dc91906144e2565b60405163040ebf9f60e31b81526001600160a01b03851690632075fcf89061090890309060040161436e565b602060405180830381865afa158015610925573d6000803e3d6000fd5b505050506040513d601f19601f8201168201806040525081019061094991906144e2565b60405163402cb4d160e01b81526001600160a01b0386169063402cb4d190610977908e908e90600401614527565b602060405180830381865afa158015610994573d6000803e3d6000fd5b505050506040513d601f19601f820116820180604052508101906109b891906144e2565b6109c2919061454f565b6109cc919061456e565b6109d4565b60005b8152508383815181106109e9576109e9614511565b6020026020010181905250508080610a0090614590565b9150506107b5565b50949350505050565b33610a1a6117c9565b6001600160a01b031614610a405760405162461bcd60e51b815260040161064f90614476565b610a498160f655565b50565b33610a556117c9565b6001600160a01b031614610a7b5760405162461bcd60e51b815260040161064f90614476565b6106658585858585611d75565b60ff546060906000816001600160401b03811115610aa857610aa86144fb565b604051908082528060200260200182016040528015610aed57816020015b6040805180820190915260008082526020820152815260200190600190039081610ac65790505b50905060005b82811015610c4957600060ff8281548110610b1057610b10614511565b600091825260208083206003909202909101546040805163cf7b960560e01b815290516001600160a01b039092169450849263cf7b9605926004808401938290030181865afa158015610b67573d6000803e3d6000fd5b505050506040513d601f19601f82011682018060405250810190610b8b91906145ab565b90506040518060400160405280826001600160a01b03168152602001826001600160a01b03166370a08231306040518263ffffffff1660e01b8152600401610bd3919061436e565b602060405180830381865afa158015610bf0573d6000803e3d6000fd5b505050506040513d601f19601f82011682018060405250810190610c1491906144e2565b815250848481518110610c2957610c29614511565b602002602001018190525050508080610c4190614590565b915050610af3565b5092915050565b33610c596117c9565b6001600160a01b031614610c7f5760405162461bcd60e51b815260040161064f90614476565b61010080546001600160a01b0319166001600160a01b03831617905550565b6000610caa6001612556565b90508015610cc2576000805461ff0019166101001790555b610ccb826125e5565b8015610d11576000805461ff0019169055604051600181527f7f26b83ff96e1f2b6a682f133852f6798a09c465da95921460cefb38474024989060200160405180910390a15b5050565b33610d1e6117c9565b6001600160a01b031614610d445760405162461bcd60e51b815260040161064f90614476565b6106d283838361261d565b60026065541415610d725760405162461bcd60e51b815260040161064f906144ab565b600260655584610d95576040516347aedd1b60e11b815260040160405180910390fd5b6001600160a01b038316610dbc5760405163115fd31d60e31b815260040160405180910390fd5b6000610dca60016000611109565b9050600080610dd761164d565b90508015610e05576000610dea876106d7565b905081610df7828661454f565b610e01919061456e565b9250505b610e0f8884612697565b610e1988836126c3565b610e3233610101546001600160a01b031690308b6126ef565b6040518881526001600160a01b0387169033907f5548c837ab068cf56a2c2479df0882a4922fd203edb7517321831d95078c5f629060200160405180910390a360005b60ff5481101561102d57600060646103e861ffff1660ff8481548110610e9d57610e9d614511565b6000918252602090912060039091020154610ec490600160a01b900462ffffff168d61454f565b610ece919061456e565b610ed8919061456e565b905080610ee5575061101b565b6101015460ff80546001600160a01b039092169163095ea7b3919085908110610f1057610f10614511565b60009182526020909120600390910201546040516001600160e01b031960e084901b168152610f4d916001600160a01b03169085906004016145c8565b6020604051808303816000875af1158015610f6c573d6000803e3d6000fd5b505050506040513d601f19601f82011682018060405250810190610f9091906145e1565b5060ff8281548110610fa457610fa4614511565b60009182526020822060039091020154604051633c3129e360e01b81526001600160a01b0390911691633c3129e391610fe791859130908d908d9060040161470c565b600060405180830381600087803b15801561100157600080fd5b505af1158015611015573d6000803e3d6000fd5b50505050505b8061102581614590565b915050610e75565b50600061103c60016000611109565b9050600061104a858361473a565b90508061106a57604051632f1b0c0f60e01b815260040160405180910390fd5b8881101561108b5760405163c327661d60e01b815260040160405180910390fd5b610100546001600160a01b03166340c10f19896110a9888588612760565b6040518363ffffffff1660e01b81526004016110c69291906145c8565b600060405180830381600087803b1580156110e057600080fd5b505af11580156110f4573d6000803e3d6000fd5b50506001606555505050505050505050505050565b6000806000611118858561074a565b805190915060005b818110156111655782818151811061113a5761113a614511565b602002602001015160200151846111519190614751565b93508061115d81614590565b915050611120565b509195945050505050565b600061117c83836117d8565b611186848461278b565b6111909190614769565b9392505050565b336111a06117c9565b6001600160a01b0316146111c65760405162461bcd60e51b815260040161064f90614476565b610d118282612799565b600260655414156111f35760405162461bcd60e51b815260040161064f906144ab565b60026065558461121657604051636d8bee0b60e11b815260040160405180910390fd5b6001600160a01b03831661123d576040516314f3686160e11b815260040160405180910390fd5b610101546040516370a0823160e01b81526000916001600160a01b0316906370a082319061126f90309060040161436e565b602060405180830381865afa15801561128c573d6000803e3d6000fd5b505050506040513d601f19601f820116820180604052508101906112b091906144e2565b90506001600160a01b038416336001600160a01b03167f2717ead6b9200dd235aad468c9809ea400fe33ac69b5bfaa6d3e90fc922b6398886040516112f791815260200190565b60405180910390a3600061130961164d565b905060005b60ff5481101561152357600060ff828154811061132d5761132d614511565b6000918252602082206003909102015460405163040ebf9f60e31b81526001600160a01b03909116925084908b908490632075fcf89061137190309060040161436e565b602060405180830381865afa15801561138e573d6000803e3d6000fd5b505050506040513d601f19601f820116820180604052508101906113b291906144e2565b6113bc919061454f565b6113c6919061456e565b9050806113d4575050611511565b816001600160a01b031663cf7b96056040518163ffffffff1660e01b8152600401602060405180830381865afa158015611412573d6000803e3d6000fd5b505050506040513d601f19601f8201168201806040525081019061143691906145ab565b6001600160a01b031663095ea7b383836040518363ffffffff1660e01b81526004016114639291906145c8565b6020604051808303816000875af1158015611482573d6000803e3d6000fd5b505050506040513d601f19601f820116820180604052508101906114a691906145e1565b506040516362f18a6960e01b81526001600160a01b038316906362f18a69906114dc90849060009030908d908d9060040161470c565b600060405180830381600087803b1580156114f657600080fd5b505af115801561150a573d6000803e3d6000fd5b5050505050505b8061151b81614590565b91505061130e565b50610101546040516370a0823160e01b815283916001600160a01b0316906370a082319061155590309060040161436e565b602060405180830381865afa158015611572573d6000803e3d6000fd5b505050506040513d601f19601f8201168201806040525081019061159691906144e2565b6115a0919061473a565b9150858210156115c35760405163c327661d60e01b815260040160405180910390fd5b610100546001600160a01b03166379cc679033896040518363ffffffff1660e01b81526004016115f49291906145c8565b600060405180830381600087803b15801561160e57600080fd5b505af1158015611622573d6000803e3d6000fd5b50506101015461163f92506001600160a01b031690508684612905565b505060016065555050505050565b61010054604080516318160ddd60e01b815290516000926001600160a01b0316916318160ddd9160048083019260209291908290030181865afa158015611698573d6000803e3d6000fd5b505050506040513d601f19601f820116820180604052508101906116bc91906144e2565b905090565b336116ca6117c9565b6001600160a01b0316146116f05760405162461bcd60e51b815260040161064f90614476565b6106d2838383612924565b336117046117c9565b6001600160a01b03161461172a5760405162461bcd60e51b815260040161064f90614476565b6117346000612afb565b565b600061174d60c9546301000000900462ffffff1690565b6111868484612b4d565b336117606117c9565b6001600160a01b0316146117865760405162461bcd60e51b815260040161064f90614476565b6106d2838383612b5b565b3361179a6117c9565b6001600160a01b0316146117c05760405162461bcd60e51b815260040161064f90614476565b610a498160f555565b6033546001600160a01b031690565b505060c954600160301b900462ffffff1690565b336117f56117c9565b6001600160a01b03161461181b5760405162461bcd60e51b815260040161064f90614476565b6106d2838383612bdf565b6040518060600160405280602d8152602001614aaf602d913981565b600061185260c95462ffffff1690565b6111868484612ca4565b606060ff805480602002602001604051908101604052809291908181526020016000905b82821015611a815760008481526020808220604080516080810182526003870290920180546001600160a01b0381168452600160a01b900462ffffff168385015260018101805483518187028101870185528181529496929593870194939192909184015b8282101561199157838290600052602060002001805461190490614790565b80601f016020809104026020016040519081016040528092919081815260200182805461193090614790565b801561197d5780601f106119525761010080835404028352916020019161197d565b820191906000526020600020905b81548152906001019060200180831161196057829003601f168201915b5050505050815260200190600101906118e5565b50505050815260200160028201805480602002602001604051908101604052809291908181526020016000905b82821015611a6a5783829060005260206000200180546119dd90614790565b80601f0160208091040260200160405190810160405280929190818152602001828054611a0990614790565b8015611a565780601f10611a2b57610100808354040283529160200191611a56565b820191906000526020600020905b815481529060010190602001808311611a3957829003601f168201915b5050505050815260200190600101906119be565b505050508152505081526020019060010190611880565b50505050905090565b33611a936117c9565b6001600160a01b031614611ab95760405162461bcd60e51b815260040161064f90614476565b6001600160a01b038116611b1e5760405162461bcd60e51b815260206004820152602660248201527f4f776e61626c653a206e6577206f776e657220697320746865207a65726f206160448201526564647265737360d01b606482015260840161064f565b610a4981612afb565b33611b306117c9565b6001600160a01b031614611b565760405162461bcd60e51b815260040161064f90614476565b6106d283838361306c565b611b6a856130fa565b15611b8857604051630b571eb360e11b815260040160405180910390fd5b600080611b958484613110565b60408051608081019091526001600160a01b038a168152919350915060ff90602081018888611bc560018261473a565b818110611bd457611bd4614511565b9050602002016020810190611be991906147cb565b62ffffff9081168252602080830187905260409283018690528454600181810187556000968752958290208551600390920201805486840151909416600160a01b026001600160b81b03199094166001600160a01b039092169190911792909217825591830151805193949193611c6893928501929190910190613d0e565b5060608201518051611c84916002840191602090910190613d0e565b505050611c918686612799565b7fa4c19d80e4b75115912f2b1db9863466462140d4bb4aea447b687921fbf3103f8787878787604051611cc895949392919061482d565b60405180910390a150505050505050565b82611ce76103e8606461454f565b8162ffffff1610611d0b576040516303689ded60e51b815260040160405180910390fd5b60c9805465ffffff0000001916630100000062ffffff878116820292909217928390556040517f562ffa77d0627a8704e5d9641e53b90a135392b6fb458b619c3cf64555a0adea93611d67939290049091169086908690614871565b60405180910390a150505050565b60026065541415611d985760405162461bcd60e51b815260040161064f906144ab565b6002606581905550611dcb6040518060800160405280600081526020016000815260200160008152602001600081525090565b60ff546060611dd86132db565b808552909150611dea5750505061254a565b6000826001600160401b03811115611e0457611e046144fb565b604051908082528060200260200182016040528015611e2d578160200160208202803683370190505b50905060005b83811015611ec35760646103e861ffff1660ff8381548110611e5757611e57614511565b60009182526020909120600390910201548751611e8091600160a01b900462ffffff169061454f565b611e8a919061456e565b611e94919061456e565b828281518110611ea657611ea6614511565b602090810291909101015280611ebb81614590565b915050611e33565b50610101546040516370a0823160e01b81526001600160a01b03909116906370a0823190611ef590309060040161436e565b602060405180830381865afa158015611f12573d6000803e3d6000fd5b505050506040513d601f19601f82011682018060405250810190611f3691906144e2565b604085015260005b8381101561225657600060ff8281548110611f5b57611f5b614511565b600091825260209091206003909102015483516001600160a01b039091169150839083908110611f8d57611f8d614511565b6020026020010151848381518110611fa757611fa7614511565b60200260200101511115612243576000848381518110611fc957611fc9614511565b6020026020010151848481518110611fe357611fe3614511565b6020026020010151836001600160a01b0316632075fcf8306040518263ffffffff1660e01b8152600401612017919061436e565b602060405180830381865afa158015612034573d6000803e3d6000fd5b505050506040513d601f19601f8201168201806040525081019061205891906144e2565b612062919061454f565b61206c919061456e565b60405163040ebf9f60e31b81526001600160a01b03841690632075fcf89061209890309060040161436e565b602060405180830381865afa1580156120b5573d6000803e3d6000fd5b505050506040513d601f19601f820116820180604052508101906120d991906144e2565b6120e3919061473a565b9050816001600160a01b031663cf7b96056040518163ffffffff1660e01b8152600401602060405180830381865afa158015612123573d6000803e3d6000fd5b505050506040513d601f19601f8201168201806040525081019061214791906145ab565b6001600160a01b031663095ea7b383836040518363ffffffff1660e01b81526004016121749291906145c8565b6020604051808303816000875af1158015612193573d6000803e3d6000fd5b505050506040513d601f19601f820116820180604052508101906121b791906145e1565b50816001600160a01b03166362f18a69826000308d8d898181106121dd576121dd614511565b90506020028101906121ef9190614899565b6040518663ffffffff1660e01b815260040161220f95949392919061470c565b600060405180830381600087803b15801561222957600080fd5b505af115801561223d573d6000803e3d6000fd5b50505050505b508061224e81614590565b915050611f3e565b506040808501516101015491516370a0823160e01b815290916001600160a01b0316906370a082319061228d90309060040161436e565b602060405180830381865afa1580156122aa573d6000803e3d6000fd5b505050506040513d601f19601f820116820180604052508101906122ce91906144e2565b6122d8919061473a565b60408501819052606085015260005b838110156124e957600060ff828154811061230457612304614511565b600091825260209091206003909102015483516001600160a01b03909116915083908390811061233657612336614511565b602002602001015184838151811061235057612350614511565b602002602001015110156124d65760006123ab876060015186858151811061237a5761237a614511565b602002602001015186868151811061239457612394614511565b60200260200101516123a6919061473a565b613579565b905080156124b8576101015460405163095ea7b360e01b81526001600160a01b039091169063095ea7b3906123e690859085906004016145c8565b6020604051808303816000875af1158015612405573d6000803e3d6000fd5b505050506040513d601f19601f8201168201806040525081019061242991906145e1565b50816001600160a01b0316633c3129e3826000308f8f8981811061244f5761244f614511565b90506020028101906124619190614899565b6040518663ffffffff1660e01b815260040161248195949392919061470c565b600060405180830381600087803b15801561249b57600080fd5b505af11580156124af573d6000803e3d6000fd5b505050506124bf565b50506124e9565b80876060018181516124d1919061473a565b905250505b50806124e181614590565b9150506122e7565b506124f26132db565b6020860181905290925089111561251c5760405163c327661d60e01b815260040160405180910390fd5b6040517ff57243a1fddfdc9fa2c7de26cc3503b1b94cfd4368d2b82d0970bfbb2fbce3a490600090a1505050505b50506001606555505050565b60008054610100900460ff16156125a4578160ff166001148015612580575061257e3061358f565b155b61259c5760405162461bcd60e51b815260040161064f906148e2565b506000919050565b60005460ff8084169116106125cb5760405162461bcd60e51b815260040161064f906148e2565b506000805460ff191660ff92909216919091179055600190565b600054610100900460ff1661260c5760405162461bcd60e51b815260040161064f90614930565b61261461359e565b610a49816135cd565b8261262b6103e8606461454f565b8162ffffff161061264f576040516303689ded60e51b815260040160405180910390fd5b60c9805462ffffff191662ffffff86169081179091556040517f7e81a23ec68969b22ae39faba6faa8633338046c205f9d04a30c8a0df04ca3b991611d679186908690614871565b60f5546126a48284614751565b1115610d115760405163b761799960e01b815260040160405180910390fd5b60f6546126d08284614751565b1115610d115760405163973cc40960e01b815260040160405180910390fd5b6040516001600160a01b038085166024830152831660448201526064810182905261275a9085906323b872dd60e01b906084015b60408051601f198184030181529190526020810180516001600160e01b03166001600160e01b031990931692909217909152613701565b50505050565b60008161276e575081611190565b83612779838561454f565b612783919061456e565b949350505050565b6000611190600284846137d3565b60ff5460009082825b818110156127f2578585828181106127bc576127bc614511565b90506020020160208101906127d191906147cb565b6127e09062ffffff1685614751565b93506127eb81614590565b90506127a2565b506128006103e8606461454f565b831461281f5760405163a869135760e01b815260040160405180910390fd5b80821461283f576040516324e1450560e11b815260040160405180910390fd5b60005b828110156128c45785858281811061285c5761285c614511565b905060200201602081019061287191906147cb565b60ff828154811061288457612884614511565b906000526020600020906003020160000160146101000a81548162ffffff021916908362ffffff16021790555080806128bc90614590565b915050612842565b507f482790488fb971aceca78045a1987bda889926f371246027b565e5b8a97c076c85856040516128f692919061497b565b60405180910390a15050505050565b6106d28363a9059cbb60e01b84846040516024016127239291906145c8565b600061292f846139de565b905060001981141561295457604051631339c0ab60e01b815260040160405180910390fd5b600060ff828154811061296957612969614511565b600091825260209091206003909102018054909150600160a01b900462ffffff16156129a85760405163242e802b60e01b815260040160405180910390fd5b60ff80546129b89060019061473a565b815481106129c8576129c8614511565b906000526020600020906003020160ff83815481106129e9576129e9614511565b60009182526020909120825460039092020180546001600160a01b039092166001600160a01b031983168117825583546001600160b81b031990931617600160a01b9283900462ffffff1690920291909117815560018083018054612a519284019190613d6b565b5060028281018054612a669284019190613d6b565b5090505060ff805480612a7b57612a7b61498f565b60008281526020812060036000199093019283020180546001600160b81b031916815590612aac6001830182613dc1565b612aba600283016000613dc1565b50509055612ac88484612799565b7f61aed98b969929f0db9787da6b0d94c396d15b19e58385894b37410be45c8c218585856040516128f6939291906149a5565b603380546001600160a01b038381166001600160a01b0319831681179093556040519116919082907f8be0079c531659141344cd1fd0a4f28419497f9722a3daafe3b4186f6b6457e090600090a35050565b6000611190600084846137d3565b6001600160a01b038316612b825760405163b6802b7f60e01b815260040160405180910390fd5b60cc80546001600160a01b0319166001600160a01b0385169081179091556040517fa3fe39fe39850ddb39697065123e293302f3e8948984fde991b5a291ed1ad05b91612bd291859085906149ca565b60405180910390a1505050565b6000612bea846139de565b9050600019811415612c0f57604051631339c0ab60e01b815260040160405180910390fd5b600060ff8281548110612c2457612c24614511565b90600052602060002090600302019050612c3e8484613110565b80516001840190600090612c5b9060028701906020860190613d0e565b50508251612c6e91906020850190613d0e565b5050507f1d56d93c6c64a0efeab05e521e74080ff659502658caf262c622cdfbf5c465b28585856040516128f6939291906149ca565b60ff546000908190819081816001600160401b03811115612cc757612cc76144fb565b604051908082528060200260200182016040528015612cf0578160200160208202803683370190505b50905060005b82811015612f3e57600060ff8281548110612d1357612d13614511565b600091825260209182902060039091020154604080516364ea9f1d60e01b815290516001600160a01b03909216935083926364ea9f1d926004808401938290030181865afa158015612d69573d6000803e3d6000fd5b505050506040513d601f19601f82011682018060405250810190612d8d91906144e2565b15612f2b57806001600160a01b03166364ea9f1d6040518163ffffffff1660e01b8152600401602060405180830381865afa158015612dd0573d6000803e3d6000fd5b505050506040513d601f19601f82011682018060405250810190612df491906144e2565b60405163040ebf9f60e31b81526001600160a01b03831690632075fcf890612e2090309060040161436e565b602060405180830381865afa158015612e3d573d6000803e3d6000fd5b505050506040513d601f19601f82011682018060405250810190612e6191906144e2565b60405163402cb4d160e01b81526001600160a01b0384169063402cb4d190612e90906000908190600401614527565b602060405180830381865afa158015612ead573d6000803e3d6000fd5b505050506040513d601f19601f82011682018060405250810190612ed191906144e2565b612edb919061454f565b612ee5919061456e565b838381518110612ef757612ef7614511565b602002602001018181525050828281518110612f1557612f15614511565b602002602001015185612f289190614751565b94505b5080612f3681614590565b915050612cf6565b5082612f5b57612f50600188886137d3565b94505050505061061a565b60005b8281101561305f57600060ff8281548110612f7b57612f7b614511565b600091825260209091206003909102015483516001600160a01b0390911691508590849084908110612faf57612faf614511565b6020026020010151826001600160a01b031663d622e73e8c8c6040518363ffffffff1660e01b8152600401612fe59291906149ef565b602060405180830381865afa158015613002573d6000803e3d6000fd5b505050506040513d601f19601f820116820180604052508101906130269190614a03565b62ffffff16613035919061454f565b61303f919061456e565b6130499087614751565b955050808061305790614590565b915050612f5e565b508394505050505061061a565b8261307a6103e8606461454f565b8162ffffff161061309e576040516303689ded60e51b815260040160405180910390fd5b60c9805462ffffff60301b1916600160301b62ffffff878116820292909217928390556040517f05f9aef0771b6541329b82ea24407357fc3ff0f457598588055f84a807dbdb8f93611d67939290049091169086908690614871565b6000600019613108836139de565b141592915050565b60608082806001600160401b0381111561312c5761312c6144fb565b60405190808252806020026020018201604052801561315f57816020015b606081526020019060019003908161314a5790505b509250806001600160401b0381111561317a5761317a6144fb565b6040519080825280602002602001820160405280156131ad57816020015b60608152602001906001900390816131985790505b50915060005b818110156132d2578585828181106131cd576131cd614511565b90506020028101906131df9190614a20565b6131e99080614a40565b8080601f016020809104026020016040519081016040528093929190818152602001838380828437600092019190915250508651879250849150811061323157613231614511565b602002602001018190525085858281811061324e5761324e614511565b90506020028101906132609190614a20565b61326e906020810190614a40565b8080601f01602080910402602001604051908101604052809392919081815260200183838082843760009201919091525050855186925084915081106132b6576132b6614511565b6020026020010181905250806132cb90614590565b90506131b3565b50509250929050565b60ff54606090600090806001600160401b038111156132fc576132fc6144fb565b604051908082528060200260200182016040528015613325578160200160208202803683370190505b50925060005b8181101561357357600060ff828154811061334857613348614511565b600091825260209182902060039091020154604080516364ea9f1d60e01b815290516001600160a01b03909216935083926364ea9f1d926004808401938290030181865afa15801561339e573d6000803e3d6000fd5b505050506040513d601f19601f820116820180604052508101906133c291906144e2565b1561356057806001600160a01b03166364ea9f1d6040518163ffffffff1660e01b8152600401602060405180830381865afa158015613405573d6000803e3d6000fd5b505050506040513d601f19601f8201168201806040525081019061342991906144e2565b60405163040ebf9f60e31b81526001600160a01b03831690632075fcf89061345590309060040161436e565b602060405180830381865afa158015613472573d6000803e3d6000fd5b505050506040513d601f19601f8201168201806040525081019061349691906144e2565b60405163402cb4d160e01b81526001600160a01b0384169063402cb4d1906134c5906000908190600401614527565b602060405180830381865afa1580156134e2573d6000803e3d6000fd5b505050506040513d601f19601f8201168201806040525081019061350691906144e2565b613510919061454f565b61351a919061456e565b85838151811061352c5761352c614511565b60200260200101818152505084828151811061354a5761354a614511565b60200260200101518461355d9190614751565b93505b508061356b81614590565b91505061332b565b50509091565b60008183106135885781611190565b5090919050565b6001600160a01b03163b151590565b600054610100900460ff166135c55760405162461bcd60e51b815260040161064f90614930565b611734613a49565b600054610100900460ff166135f45760405162461bcd60e51b815260040161064f90614930565b6135fc613a79565b613604613aa8565b61360c613aa8565b61368b61361f60608301604084016147cb565b61362c6060840184614899565b61363c60a08601608087016147cb565b61364960a0870187614899565b61365960e0890160c08a016147cb565b61366660e08a018a614899565b6136786101208c016101008d0161415d565b6136866101208d018d614899565b613acf565b61369f816101400135826101600135613b30565b6136ac602082018261415d565b61010080546001600160a01b0319166001600160a01b03929092169190911790556136dd604082016020830161415d565b61010180546001600160a01b0319166001600160a01b039290921691909117905550565b6000613756826040518060400160405280602081526020017f5361666545524332303a206c6f772d6c6576656c2063616c6c206661696c6564815250856001600160a01b0316613b699092919063ffffffff16565b8051909150156106d2578080602001905181019061377491906145e1565b6106d25760405162461bcd60e51b815260206004820152602a60248201527f5361666545524332303a204552433230206f7065726174696f6e20646964206e6044820152691bdd081cdd58d8d9595960b21b606482015260840161064f565b60ff546000908190815b818110156139bb57600060ff82815481106137fa576137fa614511565b600091825260209091206003909102015460ff80546001600160a01b039092169250908390811061382d5761382d614511565b6000918252602082206003909102015462ffffff600160a01b909104169089600281111561385d5761385d614a86565b1461391d57600189600281111561387657613876614a86565b146138ef57604051634ab2d57b60e01b81526001600160a01b03831690634ab2d57b906138a9908b908b906004016149ef565b602060405180830381865afa1580156138c6573d6000803e3d6000fd5b505050506040513d601f19601f820116820180604052508101906138ea9190614a03565b61398c565b604051636b11739f60e11b81526001600160a01b0383169063d622e73e906138a9908b908b906004016149ef565b604051637bd0754160e01b81526001600160a01b03831690637bd075419061394b908b908b906004016149ef565b602060405180830381865afa158015613968573d6000803e3d6000fd5b505050506040513d601f19601f8201168201806040525081019061398c9190614a03565b62ffffff1661399b919061454f565b6139a59085614751565b93505080806139b390614590565b9150506137dd565b5060646139ca6103e88461456e565b6139d4919061456e565b9695505050505050565b6000805b60ff54811015613a3f57826001600160a01b031660ff8281548110613a0957613a09614511565b60009182526020909120600390910201546001600160a01b03161415613a2f5792915050565b613a3881614590565b90506139e2565b5060001992915050565b600054610100900460ff16613a705760405162461bcd60e51b815260040161064f90614930565b61173433612afb565b600054610100900460ff16613aa05760405162461bcd60e51b815260040161064f90614930565b611734613b78565b600054610100900460ff166117345760405162461bcd60e51b815260040161064f90614930565b600054610100900460ff16613af65760405162461bcd60e51b815260040161064f90614930565b613b018c8c8c611cd9565b613b0c89898961261d565b613b1786868661306c565b613b22838383612b5b565b505050505050505050505050565b600054610100900460ff16613b575760405162461bcd60e51b815260040161064f90614930565b613b608260f555565b610d118160f655565b60606127838484600085613ba6565b600054610100900460ff16613b9f5760405162461bcd60e51b815260040161064f90614930565b6001606555565b606082471015613c075760405162461bcd60e51b815260206004820152602660248201527f416464726573733a20696e73756666696369656e742062616c616e636520666f6044820152651c8818d85b1b60d21b606482015260840161064f565b613c108561358f565b613c5c5760405162461bcd60e51b815260206004820152601d60248201527f416464726573733a2063616c6c20746f206e6f6e2d636f6e7472616374000000604482015260640161064f565b600080866001600160a01b03168587604051613c789190614a9c565b60006040518083038185875af1925050503d8060008114613cb5576040519150601f19603f3d011682016040523d82523d6000602084013e613cba565b606091505b5091509150613cca828286613cd5565b979650505050505050565b60608315613ce4575081611190565b825115613cf45782518084602001fd5b8160405162461bcd60e51b815260040161064f919061433b565b828054828255906000526020600020908101928215613d5b579160200282015b82811115613d5b5782518051613d4b918491602090910190613ddf565b5091602001919060010190613d2e565b50613d67929150613e5f565b5090565b828054828255906000526020600020908101928215613d5b5760005260206000209182015b82811115613d5b578282908054613da690614790565b613db1929190613e7c565b5091600101919060010190613d90565b5080546000825590600052602060002090810190610a499190613e5f565b828054613deb90614790565b90600052602060002090601f016020900481019282613e0d5760008555613e53565b82601f10613e2657805160ff1916838001178555613e53565b82800160010185558215613e53579182015b82811115613e53578251825591602001919060010190613e38565b50613d67929150613ef7565b80821115613d67576000613e738282613f0c565b50600101613e5f565b828054613e8890614790565b90600052602060002090601f016020900481019282613eaa5760008555613e53565b82601f10613ebb5780548555613e53565b82800160010185558215613e5357600052602060002091601f016020900482015b82811115613e53578254825591600101919060010190613edc565b5b80821115613d675760008155600101613ef8565b508054613f1890614790565b6000825580601f10613f28575050565b601f016020900490600052602060002090810190610a499190613ef7565b600060208284031215613f5857600080fd5b81356001600160e01b03198116811461119057600080fd5b6001600160a01b0381168114610a4957600080fd5b60008083601f840112613f9757600080fd5b5081356001600160401b03811115613fae57600080fd5b6020830191508360208260051b8501011115613fc957600080fd5b9250929050565b600080600080600060608688031215613fe857600080fd5b8535613ff381613f70565b945060208601356001600160401b038082111561400f57600080fd5b61401b89838a01613f85565b9096509450604088013591508082111561403457600080fd5b5061404188828901613f85565b969995985093965092949392505050565b6000806020838503121561406557600080fd5b82356001600160401b0381111561407b57600080fd5b61408785828601613f85565b90969095509350505050565b80516001600160a01b03168252602090810151910152565b602080825282518282018190526000919060409081850190868401855b828110156140eb576140db848351614093565b92840192908501906001016140c8565b5091979650505050505050565b62ffffff81168114610a4957600080fd5b60008060006040848603121561411e57600080fd5b8335614129816140f8565b925060208401356001600160401b0381111561414457600080fd5b61415086828701613f85565b9497909650939450505050565b60006020828403121561416f57600080fd5b813561119081613f70565b8015158114610a4957600080fd5b6000806040838503121561419b57600080fd5b82356141a68161417a565b915060208301356141b68161417a565b809150509250929050565b602080825282518282018190526000919060409081850190868401855b828110156140eb576141f1848351614093565b92840192908501906001016141de565b60006020828403121561421357600080fd5b5035919050565b60008060008060006060868803121561423257600080fd5b8535945060208601356001600160401b038082111561400f57600080fd5b60006020828403121561426257600080fd5b81356001600160401b0381111561427857600080fd5b8201610180818503121561119057600080fd5b6000806000806000608086880312156142a357600080fd5b853594506020860135935060408601356142bc81613f70565b925060608601356001600160401b038111156142d757600080fd5b61404188828901613f85565b60005b838110156142fe5781810151838201526020016142e6565b8381111561275a5750506000910152565b600081518084526143278160208601602086016142e3565b601f01601f19169290920160200192915050565b602081526000611190602083018461430f565b60008060006040848603121561436357600080fd5b833561412981613f70565b6001600160a01b0391909116815260200190565b600081518084526020808501808196508360051b8101915082860160005b858110156140eb5782840389526143b884835161430f565b988501989350908401906001016143a0565b60006020808301818452808551808352604092508286019150828160051b87010184880160005b8381101561446857888303603f19018552815180516001600160a01b031684528781015162ffffff16888501528681015160808886018190529061443782870182614382565b915050606080830151925085820381870152506144548183614382565b9689019694505050908601906001016143f1565b509098975050505050505050565b6020808252818101527f4f776e61626c653a2063616c6c6572206973206e6f7420746865206f776e6572604082015260600190565b6020808252601f908201527f5265656e7472616e637947756172643a207265656e7472616e742063616c6c00604082015260600190565b6000602082840312156144f457600080fd5b5051919050565b634e487b7160e01b600052604160045260246000fd5b634e487b7160e01b600052603260045260246000fd5b91151582521515602082015260400190565b634e487b7160e01b600052601160045260246000fd5b600081600019048311821515161561456957614569614539565b500290565b60008261458b57634e487b7160e01b600052601260045260246000fd5b500490565b60006000198214156145a4576145a4614539565b5060010190565b6000602082840312156145bd57600080fd5b815161119081613f70565b6001600160a01b03929092168252602082015260400190565b6000602082840312156145f357600080fd5b81516111908161417a565b6000808335601e1984360301811261461557600080fd5b83016020810192503590506001600160401b0381111561463457600080fd5b803603831315613fc957600080fd5b81835281816020850137506000828201602090810191909152601f909101601f19169091010190565b81835260006020808501808196508560051b81019150846000805b888110156146fe578385038a528235603e198936030181126146a7578283fd5b880160406146b582806145fe565b8289526146c5838a018284614643565b925050506146d5888301836145fe565b9250878203898901526146e9828483614643565b9c89019c975050509286019250600101614687565b509298975050505050505050565b85815284602082015260018060a01b0384166040820152608060608201526000613cca60808301848661466c565b60008282101561474c5761474c614539565b500390565b6000821982111561476457614764614539565b500190565b600062ffffff80831681851680830382111561478757614787614539565b01949350505050565b600181811c908216806147a457607f821691505b602082108114156147c557634e487b7160e01b600052602260045260246000fd5b50919050565b6000602082840312156147dd57600080fd5b8135611190816140f8565b8183526000602080850194508260005b8581101561482257813561480b816140f8565b62ffffff16875295820195908201906001016147f8565b509495945050505050565b6001600160a01b038616815260606020820181905260009061485290830186886147e8565b828103604084015261486581858761466c565b98975050505050505050565b62ffffff8416815260406020820152600061489060408301848661466c565b95945050505050565b6000808335601e198436030181126148b057600080fd5b8301803591506001600160401b038211156148ca57600080fd5b6020019150600581901b3603821315613fc957600080fd5b6020808252602e908201527f496e697469616c697a61626c653a20636f6e747261637420697320616c72656160408201526d191e481a5b9a5d1a585b1a5e995960921b606082015260800190565b6020808252602b908201527f496e697469616c697a61626c653a20636f6e7472616374206973206e6f74206960408201526a6e697469616c697a696e6760a81b606082015260800190565b6020815260006127836020830184866147e8565b634e487b7160e01b600052603160045260246000fd5b6001600160a01b038416815260406020820181905260009061489090830184866147e8565b6001600160a01b0384168152604060208201819052600090614890908301848661466c565b60208152600061278360208301848661466c565b600060208284031215614a1557600080fd5b8151611190816140f8565b60008235603e19833603018112614a3657600080fd5b9190910192915050565b6000808335601e19843603018112614a5757600080fd5b8301803591506001600160401b03821115614a7157600080fd5b602001915036819003821315613fc957600080fd5b634e487b7160e01b600052602160045260246000fd5b60008251614a368184602087016142e356fe62726f6b6b722e6d6f636b5f706f7274666f6c696f2e3c696e7365727420676974206c6162656c20686572653ea26469706673582212200b575427fa7ea56da090093604940ac2069f0014d94c466e03a748056f9189cf64736f6c634300080a0033",
  "linkReferences": {},
  "deployedLinkReferences": {}
}